{
	"contract-4b98807483_flattened.sol": {
		"Pigment": {
			"abi": [
				{
					"inputs": [
						{
							"internalType": "address",
							"name": "initialOwner",
							"type": "address"
						}
					],
					"stateMutability": "nonpayable",
					"type": "constructor"
				},
				{
					"inputs": [],
					"name": "ECDSAInvalidSignature",
					"type": "error"
				},
				{
					"inputs": [
						{
							"internalType": "uint256",
							"name": "length",
							"type": "uint256"
						}
					],
					"name": "ECDSAInvalidSignatureLength",
					"type": "error"
				},
				{
					"inputs": [
						{
							"internalType": "bytes32",
							"name": "s",
							"type": "bytes32"
						}
					],
					"name": "ECDSAInvalidSignatureS",
					"type": "error"
				},
				{
					"inputs": [
						{
							"internalType": "address",
							"name": "spender",
							"type": "address"
						},
						{
							"internalType": "uint256",
							"name": "allowance",
							"type": "uint256"
						},
						{
							"internalType": "uint256",
							"name": "needed",
							"type": "uint256"
						}
					],
					"name": "ERC20InsufficientAllowance",
					"type": "error"
				},
				{
					"inputs": [
						{
							"internalType": "address",
							"name": "sender",
							"type": "address"
						},
						{
							"internalType": "uint256",
							"name": "balance",
							"type": "uint256"
						},
						{
							"internalType": "uint256",
							"name": "needed",
							"type": "uint256"
						}
					],
					"name": "ERC20InsufficientBalance",
					"type": "error"
				},
				{
					"inputs": [
						{
							"internalType": "address",
							"name": "approver",
							"type": "address"
						}
					],
					"name": "ERC20InvalidApprover",
					"type": "error"
				},
				{
					"inputs": [
						{
							"internalType": "address",
							"name": "receiver",
							"type": "address"
						}
					],
					"name": "ERC20InvalidReceiver",
					"type": "error"
				},
				{
					"inputs": [
						{
							"internalType": "address",
							"name": "sender",
							"type": "address"
						}
					],
					"name": "ERC20InvalidSender",
					"type": "error"
				},
				{
					"inputs": [
						{
							"internalType": "address",
							"name": "spender",
							"type": "address"
						}
					],
					"name": "ERC20InvalidSpender",
					"type": "error"
				},
				{
					"inputs": [
						{
							"internalType": "uint256",
							"name": "deadline",
							"type": "uint256"
						}
					],
					"name": "ERC2612ExpiredSignature",
					"type": "error"
				},
				{
					"inputs": [
						{
							"internalType": "address",
							"name": "signer",
							"type": "address"
						},
						{
							"internalType": "address",
							"name": "owner",
							"type": "address"
						}
					],
					"name": "ERC2612InvalidSigner",
					"type": "error"
				},
				{
					"inputs": [
						{
							"internalType": "address",
							"name": "account",
							"type": "address"
						},
						{
							"internalType": "uint256",
							"name": "currentNonce",
							"type": "uint256"
						}
					],
					"name": "InvalidAccountNonce",
					"type": "error"
				},
				{
					"inputs": [],
					"name": "InvalidShortString",
					"type": "error"
				},
				{
					"inputs": [
						{
							"internalType": "address",
							"name": "owner",
							"type": "address"
						}
					],
					"name": "OwnableInvalidOwner",
					"type": "error"
				},
				{
					"inputs": [
						{
							"internalType": "address",
							"name": "account",
							"type": "address"
						}
					],
					"name": "OwnableUnauthorizedAccount",
					"type": "error"
				},
				{
					"inputs": [
						{
							"internalType": "string",
							"name": "str",
							"type": "string"
						}
					],
					"name": "StringTooLong",
					"type": "error"
				},
				{
					"anonymous": false,
					"inputs": [
						{
							"indexed": true,
							"internalType": "address",
							"name": "owner",
							"type": "address"
						},
						{
							"indexed": true,
							"internalType": "address",
							"name": "spender",
							"type": "address"
						},
						{
							"indexed": false,
							"internalType": "uint256",
							"name": "value",
							"type": "uint256"
						}
					],
					"name": "Approval",
					"type": "event"
				},
				{
					"anonymous": false,
					"inputs": [],
					"name": "EIP712DomainChanged",
					"type": "event"
				},
				{
					"anonymous": false,
					"inputs": [
						{
							"indexed": true,
							"internalType": "address",
							"name": "previousOwner",
							"type": "address"
						},
						{
							"indexed": true,
							"internalType": "address",
							"name": "newOwner",
							"type": "address"
						}
					],
					"name": "OwnershipTransferred",
					"type": "event"
				},
				{
					"anonymous": false,
					"inputs": [
						{
							"indexed": true,
							"internalType": "address",
							"name": "from",
							"type": "address"
						},
						{
							"indexed": true,
							"internalType": "address",
							"name": "to",
							"type": "address"
						},
						{
							"indexed": false,
							"internalType": "uint256",
							"name": "value",
							"type": "uint256"
						}
					],
					"name": "Transfer",
					"type": "event"
				},
				{
					"inputs": [],
					"name": "DOMAIN_SEPARATOR",
					"outputs": [
						{
							"internalType": "bytes32",
							"name": "",
							"type": "bytes32"
						}
					],
					"stateMutability": "view",
					"type": "function"
				},
				{
					"inputs": [
						{
							"internalType": "address",
							"name": "owner",
							"type": "address"
						},
						{
							"internalType": "address",
							"name": "spender",
							"type": "address"
						}
					],
					"name": "allowance",
					"outputs": [
						{
							"internalType": "uint256",
							"name": "",
							"type": "uint256"
						}
					],
					"stateMutability": "view",
					"type": "function"
				},
				{
					"inputs": [
						{
							"internalType": "address",
							"name": "spender",
							"type": "address"
						},
						{
							"internalType": "uint256",
							"name": "value",
							"type": "uint256"
						}
					],
					"name": "approve",
					"outputs": [
						{
							"internalType": "bool",
							"name": "",
							"type": "bool"
						}
					],
					"stateMutability": "nonpayable",
					"type": "function"
				},
				{
					"inputs": [
						{
							"internalType": "address",
							"name": "account",
							"type": "address"
						}
					],
					"name": "balanceOf",
					"outputs": [
						{
							"internalType": "uint256",
							"name": "",
							"type": "uint256"
						}
					],
					"stateMutability": "view",
					"type": "function"
				},
				{
					"inputs": [],
					"name": "decimals",
					"outputs": [
						{
							"internalType": "uint8",
							"name": "",
							"type": "uint8"
						}
					],
					"stateMutability": "view",
					"type": "function"
				},
				{
					"inputs": [],
					"name": "eip712Domain",
					"outputs": [
						{
							"internalType": "bytes1",
							"name": "fields",
							"type": "bytes1"
						},
						{
							"internalType": "string",
							"name": "name",
							"type": "string"
						},
						{
							"internalType": "string",
							"name": "version",
							"type": "string"
						},
						{
							"internalType": "uint256",
							"name": "chainId",
							"type": "uint256"
						},
						{
							"internalType": "address",
							"name": "verifyingContract",
							"type": "address"
						},
						{
							"internalType": "bytes32",
							"name": "salt",
							"type": "bytes32"
						},
						{
							"internalType": "uint256[]",
							"name": "extensions",
							"type": "uint256[]"
						}
					],
					"stateMutability": "view",
					"type": "function"
				},
				{
					"inputs": [],
					"name": "name",
					"outputs": [
						{
							"internalType": "string",
							"name": "",
							"type": "string"
						}
					],
					"stateMutability": "view",
					"type": "function"
				},
				{
					"inputs": [
						{
							"internalType": "address",
							"name": "owner",
							"type": "address"
						}
					],
					"name": "nonces",
					"outputs": [
						{
							"internalType": "uint256",
							"name": "",
							"type": "uint256"
						}
					],
					"stateMutability": "view",
					"type": "function"
				},
				{
					"inputs": [],
					"name": "owner",
					"outputs": [
						{
							"internalType": "address",
							"name": "",
							"type": "address"
						}
					],
					"stateMutability": "view",
					"type": "function"
				},
				{
					"inputs": [
						{
							"internalType": "address",
							"name": "owner",
							"type": "address"
						},
						{
							"internalType": "address",
							"name": "spender",
							"type": "address"
						},
						{
							"internalType": "uint256",
							"name": "value",
							"type": "uint256"
						},
						{
							"internalType": "uint256",
							"name": "deadline",
							"type": "uint256"
						},
						{
							"internalType": "uint8",
							"name": "v",
							"type": "uint8"
						},
						{
							"internalType": "bytes32",
							"name": "r",
							"type": "bytes32"
						},
						{
							"internalType": "bytes32",
							"name": "s",
							"type": "bytes32"
						}
					],
					"name": "permit",
					"outputs": [],
					"stateMutability": "nonpayable",
					"type": "function"
				},
				{
					"inputs": [],
					"name": "renounceOwnership",
					"outputs": [],
					"stateMutability": "nonpayable",
					"type": "function"
				},
				{
					"inputs": [],
					"name": "symbol",
					"outputs": [
						{
							"internalType": "string",
							"name": "",
							"type": "string"
						}
					],
					"stateMutability": "view",
					"type": "function"
				},
				{
					"inputs": [],
					"name": "totalSupply",
					"outputs": [
						{
							"internalType": "uint256",
							"name": "",
							"type": "uint256"
						}
					],
					"stateMutability": "view",
					"type": "function"
				},
				{
					"inputs": [
						{
							"internalType": "address",
							"name": "to",
							"type": "address"
						},
						{
							"internalType": "uint256",
							"name": "value",
							"type": "uint256"
						}
					],
					"name": "transfer",
					"outputs": [
						{
							"internalType": "bool",
							"name": "",
							"type": "bool"
						}
					],
					"stateMutability": "nonpayable",
					"type": "function"
				},
				{
					"inputs": [
						{
							"internalType": "address",
							"name": "from",
							"type": "address"
						},
						{
							"internalType": "address",
							"name": "to",
							"type": "address"
						},
						{
							"internalType": "uint256",
							"name": "value",
							"type": "uint256"
						}
					],
					"name": "transferFrom",
					"outputs": [
						{
							"internalType": "bool",
							"name": "",
							"type": "bool"
						}
					],
					"stateMutability": "nonpayable",
					"type": "function"
				},
				{
					"inputs": [
						{
							"internalType": "address",
							"name": "newOwner",
							"type": "address"
						}
					],
					"name": "transferOwnership",
					"outputs": [],
					"stateMutability": "nonpayable",
					"type": "function"
				}
			],
			"devdoc": {
				"errors": {
					"ECDSAInvalidSignature()": [
						{
							"details": "The signature derives the `address(0)`."
						}
					],
					"ECDSAInvalidSignatureLength(uint256)": [
						{
							"details": "The signature has an invalid length."
						}
					],
					"ECDSAInvalidSignatureS(bytes32)": [
						{
							"details": "The signature has an S value that is in the upper half order."
						}
					],
					"ERC20InsufficientAllowance(address,uint256,uint256)": [
						{
							"details": "Indicates a failure with the `spender`’s `allowance`. Used in transfers.",
							"params": {
								"allowance": "Amount of tokens a `spender` is allowed to operate with.",
								"needed": "Minimum amount required to perform a transfer.",
								"spender": "Address that may be allowed to operate on tokens without being their owner."
							}
						}
					],
					"ERC20InsufficientBalance(address,uint256,uint256)": [
						{
							"details": "Indicates an error related to the current `balance` of a `sender`. Used in transfers.",
							"params": {
								"balance": "Current balance for the interacting account.",
								"needed": "Minimum amount required to perform a transfer.",
								"sender": "Address whose tokens are being transferred."
							}
						}
					],
					"ERC20InvalidApprover(address)": [
						{
							"details": "Indicates a failure with the `approver` of a token to be approved. Used in approvals.",
							"params": {
								"approver": "Address initiating an approval operation."
							}
						}
					],
					"ERC20InvalidReceiver(address)": [
						{
							"details": "Indicates a failure with the token `receiver`. Used in transfers.",
							"params": {
								"receiver": "Address to which tokens are being transferred."
							}
						}
					],
					"ERC20InvalidSender(address)": [
						{
							"details": "Indicates a failure with the token `sender`. Used in transfers.",
							"params": {
								"sender": "Address whose tokens are being transferred."
							}
						}
					],
					"ERC20InvalidSpender(address)": [
						{
							"details": "Indicates a failure with the `spender` to be approved. Used in approvals.",
							"params": {
								"spender": "Address that may be allowed to operate on tokens without being their owner."
							}
						}
					],
					"ERC2612ExpiredSignature(uint256)": [
						{
							"details": "Permit deadline has expired."
						}
					],
					"ERC2612InvalidSigner(address,address)": [
						{
							"details": "Mismatched signature."
						}
					],
					"InvalidAccountNonce(address,uint256)": [
						{
							"details": "The nonce used for an `account` is not the expected current nonce."
						}
					],
					"OwnableInvalidOwner(address)": [
						{
							"details": "The owner is not a valid owner account. (eg. `address(0)`)"
						}
					],
					"OwnableUnauthorizedAccount(address)": [
						{
							"details": "The caller account is not authorized to perform an operation."
						}
					]
				},
				"events": {
					"Approval(address,address,uint256)": {
						"details": "Emitted when the allowance of a `spender` for an `owner` is set by a call to {approve}. `value` is the new allowance."
					},
					"EIP712DomainChanged()": {
						"details": "MAY be emitted to signal that the domain could have changed."
					},
					"Transfer(address,address,uint256)": {
						"details": "Emitted when `value` tokens are moved from one account (`from`) to another (`to`). Note that `value` may be zero."
					}
				},
				"kind": "dev",
				"methods": {
					"DOMAIN_SEPARATOR()": {
						"details": "Returns the domain separator used in the encoding of the signature for {permit}, as defined by {EIP712}."
					},
					"allowance(address,address)": {
						"details": "See {IERC20-allowance}."
					},
					"approve(address,uint256)": {
						"details": "See {IERC20-approve}. NOTE: If `value` is the maximum `uint256`, the allowance is not updated on `transferFrom`. This is semantically equivalent to an infinite approval. Requirements: - `spender` cannot be the zero address."
					},
					"balanceOf(address)": {
						"details": "See {IERC20-balanceOf}."
					},
					"decimals()": {
						"details": "Returns the number of decimals used to get its user representation. For example, if `decimals` equals `2`, a balance of `505` tokens should be displayed to a user as `5.05` (`505 / 10 ** 2`). Tokens usually opt for a value of 18, imitating the relationship between Ether and Wei. This is the default value returned by this function, unless it's overridden. NOTE: This information is only used for _display_ purposes: it in no way affects any of the arithmetic of the contract, including {IERC20-balanceOf} and {IERC20-transfer}."
					},
					"eip712Domain()": {
						"details": "See {IERC-5267}."
					},
					"name()": {
						"details": "Returns the name of the token."
					},
					"nonces(address)": {
						"details": "Returns the current nonce for `owner`. This value must be included whenever a signature is generated for {permit}. Every successful call to {permit} increases ``owner``'s nonce by one. This prevents a signature from being used multiple times."
					},
					"owner()": {
						"details": "Returns the address of the current owner."
					},
					"permit(address,address,uint256,uint256,uint8,bytes32,bytes32)": {
						"details": "Sets `value` as the allowance of `spender` over ``owner``'s tokens, given ``owner``'s signed approval. IMPORTANT: The same issues {IERC20-approve} has related to transaction ordering also apply here. Emits an {Approval} event. Requirements: - `spender` cannot be the zero address. - `deadline` must be a timestamp in the future. - `v`, `r` and `s` must be a valid `secp256k1` signature from `owner` over the EIP712-formatted function arguments. - the signature must use ``owner``'s current nonce (see {nonces}). For more information on the signature format, see the https://eips.ethereum.org/EIPS/eip-2612#specification[relevant EIP section]. CAUTION: See Security Considerations above."
					},
					"renounceOwnership()": {
						"details": "Leaves the contract without owner. It will not be possible to call `onlyOwner` functions. Can only be called by the current owner. NOTE: Renouncing ownership will leave the contract without an owner, thereby disabling any functionality that is only available to the owner."
					},
					"symbol()": {
						"details": "Returns the symbol of the token, usually a shorter version of the name."
					},
					"totalSupply()": {
						"details": "See {IERC20-totalSupply}."
					},
					"transfer(address,uint256)": {
						"details": "See {IERC20-transfer}. Requirements: - `to` cannot be the zero address. - the caller must have a balance of at least `value`."
					},
					"transferFrom(address,address,uint256)": {
						"details": "See {IERC20-transferFrom}. Emits an {Approval} event indicating the updated allowance. This is not required by the EIP. See the note at the beginning of {ERC20}. NOTE: Does not update the allowance if the current allowance is the maximum `uint256`. Requirements: - `from` and `to` cannot be the zero address. - `from` must have a balance of at least `value`. - the caller must have allowance for ``from``'s tokens of at least `value`."
					},
					"transferOwnership(address)": {
						"details": "Transfers ownership of the contract to a new account (`newOwner`). Can only be called by the current owner."
					}
				},
				"version": 1
			},
			"evm": {
				"assembly": "    /* \"contract-4b98807483_flattened.sol\":79652:79908  contract Pigment is ERC20, ERC20Permit, Ownable {... */\n  mstore(0x40, 0x0160)\n    /* \"contract-4b98807483_flattened.sol\":79706:79906  constructor(address initialOwner)... */\n  callvalue\n  dup1\n  iszero\n  tag_1\n  jumpi\n  0x00\n  dup1\n  revert\ntag_1:\n  pop\n  mload(0x40)\n  sub(codesize, bytecodeSize)\n  dup1\n  bytecodeSize\n  dup4\n  codecopy\n  dup2\n  dup2\n  add\n  0x40\n  mstore\n  dup2\n  add\n  swap1\n  tag_2\n  swap2\n  swap1\n  tag_3\n  jump\t// in\ntag_2:\n    /* \"contract-4b98807483_flattened.sol\":79820:79832  initialOwner */\n  dup1\n    /* \"contract-4b98807483_flattened.sol\":78390:78442  constructor(string memory name) EIP712(name, \"1\") {} */\n  mload(0x40)\n  dup1\n  0x40\n  add\n  0x40\n  mstore\n  dup1\n  0x07\n  dup2\n  mstore\n  0x20\n  add\n  0x5069676d656e7400000000000000000000000000000000000000000000000000\n  dup2\n  mstore\n  pop\n    /* \"contract-4b98807483_flattened.sol\":78429:78433  name */\n  dup1\n    /* \"contract-4b98807483_flattened.sol\":36997:37428  constructor(string memory name, string memory version) {... */\n  mload(0x40)\n  dup1\n  0x40\n  add\n  0x40\n  mstore\n  dup1\n  0x01\n  dup2\n  mstore\n  0x20\n  add\n  0x3100000000000000000000000000000000000000000000000000000000000000\n  dup2\n  mstore\n  pop\n    /* \"contract-4b98807483_flattened.sol\":67775:67888  constructor(string memory name_, string memory symbol_) {... */\n  mload(0x40)\n  dup1\n  0x40\n  add\n  0x40\n  mstore\n  dup1\n  0x07\n  dup2\n  mstore\n  0x20\n  add\n  0x5069676d656e7400000000000000000000000000000000000000000000000000\n  dup2\n  mstore\n  pop\n  mload(0x40)\n  dup1\n  0x40\n  add\n  0x40\n  mstore\n  dup1\n  0x04\n  dup2\n  mstore\n  0x20\n  add\n  0x50474d5400000000000000000000000000000000000000000000000000000000\n  dup2\n  mstore\n  pop\n    /* \"contract-4b98807483_flattened.sol\":67849:67854  name_ */\n  dup2\n    /* \"contract-4b98807483_flattened.sol\":67841:67846  _name */\n  0x03\n    /* \"contract-4b98807483_flattened.sol\":67841:67854  _name = name_ */\n  swap1\n  dup2\n  tag_10\n  swap2\n  swap1\n  tag_11\n  jump\t// in\ntag_10:\n  pop\n    /* \"contract-4b98807483_flattened.sol\":67874:67881  symbol_ */\n  dup1\n    /* \"contract-4b98807483_flattened.sol\":67864:67871  _symbol */\n  0x04\n    /* \"contract-4b98807483_flattened.sol\":67864:67881  _symbol = symbol_ */\n  swap1\n  dup2\n  tag_12\n  swap2\n  swap1\n  tag_11\n  jump\t// in\ntag_12:\n  pop\n    /* \"contract-4b98807483_flattened.sol\":67775:67888  constructor(string memory name_, string memory symbol_) {... */\n  pop\n  pop\n    /* \"contract-4b98807483_flattened.sol\":37070:37115  name.toShortStringWithFallback(_nameFallback) */\n  tag_14\n    /* \"contract-4b98807483_flattened.sol\":37101:37114  _nameFallback */\n  0x05\n    /* \"contract-4b98807483_flattened.sol\":37070:37074  name */\n  dup4\n    /* \"contract-4b98807483_flattened.sol\":37070:37100  name.toShortStringWithFallback */\n  shl(0x20, tag_15)\n  swap1\n    /* \"contract-4b98807483_flattened.sol\":37070:37115  name.toShortStringWithFallback(_nameFallback) */\n  swap2\n  swap1\n  0x20\n  shr\n  jump\t// in\ntag_14:\n    /* \"contract-4b98807483_flattened.sol\":37062:37115  _name = name.toShortStringWithFallback(_nameFallback) */\n  0x0120\n  dup2\n  dup2\n  mstore\n  pop\n  pop\n    /* \"contract-4b98807483_flattened.sol\":37136:37187  version.toShortStringWithFallback(_versionFallback) */\n  tag_16\n    /* \"contract-4b98807483_flattened.sol\":37170:37186  _versionFallback */\n  0x06\n    /* \"contract-4b98807483_flattened.sol\":37136:37143  version */\n  dup3\n    /* \"contract-4b98807483_flattened.sol\":37136:37169  version.toShortStringWithFallback */\n  shl(0x20, tag_15)\n  swap1\n    /* \"contract-4b98807483_flattened.sol\":37136:37187  version.toShortStringWithFallback(_versionFallback) */\n  swap2\n  swap1\n  0x20\n  shr\n  jump\t// in\ntag_16:\n    /* \"contract-4b98807483_flattened.sol\":37125:37187  _version = version.toShortStringWithFallback(_versionFallback) */\n  0x0140\n  dup2\n  dup2\n  mstore\n  pop\n  pop\n    /* \"contract-4b98807483_flattened.sol\":37227:37231  name */\n  dup2\n    /* \"contract-4b98807483_flattened.sol\":37211:37233  keccak256(bytes(name)) */\n  dup1\n  mload\n  swap1\n  0x20\n  add\n  keccak256\n    /* \"contract-4b98807483_flattened.sol\":37197:37233  _hashedName = keccak256(bytes(name)) */\n  0xe0\n  dup2\n  dup2\n  mstore\n  pop\n  pop\n    /* \"contract-4b98807483_flattened.sol\":37276:37283  version */\n  dup1\n    /* \"contract-4b98807483_flattened.sol\":37260:37285  keccak256(bytes(version)) */\n  dup1\n  mload\n  swap1\n  0x20\n  add\n  keccak256\n    /* \"contract-4b98807483_flattened.sol\":37243:37285  _hashedVersion = keccak256(bytes(version)) */\n  0x0100\n  dup2\n  dup2\n  mstore\n  pop\n  pop\n    /* \"contract-4b98807483_flattened.sol\":37313:37326  block.chainid */\n  chainid\n    /* \"contract-4b98807483_flattened.sol\":37296:37326  _cachedChainId = block.chainid */\n  0xa0\n  dup2\n  dup2\n  mstore\n  pop\n  pop\n    /* \"contract-4b98807483_flattened.sol\":37361:37384  _buildDomainSeparator() */\n  tag_17\n    /* \"contract-4b98807483_flattened.sol\":37361:37382  _buildDomainSeparator */\n  shl(0x20, tag_18)\n    /* \"contract-4b98807483_flattened.sol\":37361:37384  _buildDomainSeparator() */\n  0x20\n  shr\n  jump\t// in\ntag_17:\n    /* \"contract-4b98807483_flattened.sol\":37336:37384  _cachedDomainSeparator = _buildDomainSeparator() */\n  0x80\n  dup2\n  dup2\n  mstore\n  pop\n  pop\n    /* \"contract-4b98807483_flattened.sol\":37416:37420  this */\n  address\n    /* \"contract-4b98807483_flattened.sol\":37394:37421  _cachedThis = address(this) */\n  0xffffffffffffffffffffffffffffffffffffffff\n  and\n  0xc0\n  dup2\n  0xffffffffffffffffffffffffffffffffffffffff\n  and\n  dup2\n  mstore\n  pop\n  pop\n    /* \"contract-4b98807483_flattened.sol\":36997:37428  constructor(string memory name, string memory version) {... */\n  pop\n  pop\n    /* \"contract-4b98807483_flattened.sol\":78390:78442  constructor(string memory name) EIP712(name, \"1\") {} */\n  pop\n    /* \"contract-4b98807483_flattened.sol\":60746:60747  0 */\n  0x00\n    /* \"contract-4b98807483_flattened.sol\":60722:60748  initialOwner == address(0) */\n  0xffffffffffffffffffffffffffffffffffffffff\n  and\n    /* \"contract-4b98807483_flattened.sol\":60722:60734  initialOwner */\n  dup2\n    /* \"contract-4b98807483_flattened.sol\":60722:60748  initialOwner == address(0) */\n  0xffffffffffffffffffffffffffffffffffffffff\n  and\n  sub\n    /* \"contract-4b98807483_flattened.sol\":60718:60813  if (initialOwner == address(0)) {... */\n  tag_21\n  jumpi\n    /* \"contract-4b98807483_flattened.sol\":60799:60800  0 */\n  0x00\n    /* \"contract-4b98807483_flattened.sol\":60771:60802  OwnableInvalidOwner(address(0)) */\n  mload(0x40)\n  0x1e4fbdf700000000000000000000000000000000000000000000000000000000\n  dup2\n  mstore\n  0x04\n  add\n  tag_22\n  swap2\n  swap1\n  tag_23\n  jump\t// in\ntag_22:\n  mload(0x40)\n  dup1\n  swap2\n  sub\n  swap1\n  revert\n    /* \"contract-4b98807483_flattened.sol\":60718:60813  if (initialOwner == address(0)) {... */\ntag_21:\n    /* \"contract-4b98807483_flattened.sol\":60822:60854  _transferOwnership(initialOwner) */\n  tag_24\n    /* \"contract-4b98807483_flattened.sol\":60841:60853  initialOwner */\n  dup2\n    /* \"contract-4b98807483_flattened.sol\":60822:60840  _transferOwnership */\n  shl(0x20, tag_25)\n    /* \"contract-4b98807483_flattened.sol\":60822:60854  _transferOwnership(initialOwner) */\n  0x20\n  shr\n  jump\t// in\ntag_24:\n    /* \"contract-4b98807483_flattened.sol\":60674:60861  constructor(address initialOwner) {... */\n  pop\n    /* \"contract-4b98807483_flattened.sol\":79848:79899  _mint(msg.sender, 6200000000000 * 10 ** decimals()) */\n  tag_27\n    /* \"contract-4b98807483_flattened.sol\":79854:79864  msg.sender */\n  caller\n    /* \"contract-4b98807483_flattened.sol\":79888:79898  decimals() */\n  tag_28\n    /* \"contract-4b98807483_flattened.sol\":79888:79896  decimals */\n  shl(0x20, tag_29)\n    /* \"contract-4b98807483_flattened.sol\":79888:79898  decimals() */\n  0x20\n  shr\n  jump\t// in\ntag_28:\n    /* \"contract-4b98807483_flattened.sol\":79882:79884  10 */\n  0x0a\n    /* \"contract-4b98807483_flattened.sol\":79882:79898  10 ** decimals() */\n  tag_30\n  swap2\n  swap1\n  tag_31\n  jump\t// in\ntag_30:\n    /* \"contract-4b98807483_flattened.sol\":79866:79879  6200000000000 */\n  0x05a38ccc3000\n    /* \"contract-4b98807483_flattened.sol\":79866:79898  6200000000000 * 10 ** decimals() */\n  tag_32\n  swap2\n  swap1\n  tag_33\n  jump\t// in\ntag_32:\n    /* \"contract-4b98807483_flattened.sol\":79848:79853  _mint */\n  shl(0x20, tag_34)\n    /* \"contract-4b98807483_flattened.sol\":79848:79899  _mint(msg.sender, 6200000000000 * 10 ** decimals()) */\n  0x20\n  shr\n  jump\t// in\ntag_27:\n    /* \"contract-4b98807483_flattened.sol\":79706:79906  constructor(address initialOwner)... */\n  pop\n    /* \"contract-4b98807483_flattened.sol\":79652:79908  contract Pigment is ERC20, ERC20Permit, Ownable {... */\n  jump(tag_35)\n    /* \"contract-4b98807483_flattened.sol\":9153:9493  function toShortStringWithFallback(string memory value, string storage store) internal returns (ShortString) {... */\ntag_15:\n    /* \"contract-4b98807483_flattened.sol\":9249:9260  ShortString */\n  0x00\n    /* \"contract-4b98807483_flattened.sol\":9298:9300  32 */\n  0x20\n    /* \"contract-4b98807483_flattened.sol\":9282:9287  value */\n  dup4\n    /* \"contract-4b98807483_flattened.sol\":9276:9295  bytes(value).length */\n  mload\n    /* \"contract-4b98807483_flattened.sol\":9276:9300  bytes(value).length < 32 */\n  lt\n    /* \"contract-4b98807483_flattened.sol\":9272:9487  if (bytes(value).length < 32) {... */\n  iszero\n  tag_37\n  jumpi\n    /* \"contract-4b98807483_flattened.sol\":9323:9343  toShortString(value) */\n  tag_38\n    /* \"contract-4b98807483_flattened.sol\":9337:9342  value */\n  dup4\n    /* \"contract-4b98807483_flattened.sol\":9323:9336  toShortString */\n  shl(0x20, tag_39)\n    /* \"contract-4b98807483_flattened.sol\":9323:9343  toShortString(value) */\n  0x20\n  shr\n  jump\t// in\ntag_38:\n    /* \"contract-4b98807483_flattened.sol\":9316:9343  return toShortString(value) */\n  swap1\n  pop\n  jump(tag_36)\n    /* \"contract-4b98807483_flattened.sol\":9272:9487  if (bytes(value).length < 32) {... */\ntag_37:\n    /* \"contract-4b98807483_flattened.sol\":9415:9420  value */\n  dup3\n    /* \"contract-4b98807483_flattened.sol\":9374:9406  StorageSlot.getStringSlot(store) */\n  tag_41\n    /* \"contract-4b98807483_flattened.sol\":9400:9405  store */\n  dup4\n    /* \"contract-4b98807483_flattened.sol\":9374:9399  StorageSlot.getStringSlot */\n  shl(0x20, tag_42)\n    /* \"contract-4b98807483_flattened.sol\":9374:9406  StorageSlot.getStringSlot(store) */\n  0x20\n  shr\n  jump\t// in\ntag_41:\n    /* \"contract-4b98807483_flattened.sol\":9374:9412  StorageSlot.getStringSlot(store).value */\n  0x00\n  add\n    /* \"contract-4b98807483_flattened.sol\":9374:9420  StorageSlot.getStringSlot(store).value = value */\n  swap1\n  dup2\n  tag_43\n  swap2\n  swap1\n  tag_11\n  jump\t// in\ntag_43:\n  pop\n    /* \"contract-4b98807483_flattened.sol\":7629:7695  0x00000000000000000000000000000000000000000000000000000000000000FF */\n  0xff\n    /* \"contract-4b98807483_flattened.sol\":9458:9475  FALLBACK_SENTINEL */\n  0x00\n  shl\n    /* \"contract-4b98807483_flattened.sol\":9434:9476  return ShortString.wrap(FALLBACK_SENTINEL) */\n  swap1\n  pop\n    /* \"contract-4b98807483_flattened.sol\":9153:9493  function toShortStringWithFallback(string memory value, string storage store) internal returns (ShortString) {... */\ntag_36:\n  swap3\n  swap2\n  pop\n  pop\n  jump\t// out\n    /* \"contract-4b98807483_flattened.sol\":37782:37961  function _buildDomainSeparator() private view returns (bytes32) {... */\ntag_18:\n    /* \"contract-4b98807483_flattened.sol\":37837:37844  bytes32 */\n  0x00\n    /* \"contract-4b98807483_flattened.sol\":35748:35843  keccak256(\"EIP712Domain(string name,string version,uint256 chainId,address verifyingContract)\") */\n  0x8b73c3c69bb8fe3d512ecc4cf759cc79239f7b179b0ffacaa9a75d522b39400f\n    /* \"contract-4b98807483_flattened.sol\":37895:37906  _hashedName */\n  mload(0xe0)\n    /* \"contract-4b98807483_flattened.sol\":37908:37922  _hashedVersion */\n  mload(0x0100)\n    /* \"contract-4b98807483_flattened.sol\":37924:37937  block.chainid */\n  chainid\n    /* \"contract-4b98807483_flattened.sol\":37947:37951  this */\n  address\n    /* \"contract-4b98807483_flattened.sol\":37873:37953  abi.encode(TYPE_HASH, _hashedName, _hashedVersion, block.chainid, address(this)) */\n  add(0x20, mload(0x40))\n  tag_45\n  swap6\n  swap5\n  swap4\n  swap3\n  swap2\n  swap1\n  tag_46\n  jump\t// in\ntag_45:\n  mload(0x40)\n  0x20\n  dup2\n  dup4\n  sub\n  sub\n  dup2\n  mstore\n  swap1\n  0x40\n  mstore\n    /* \"contract-4b98807483_flattened.sol\":37863:37954  keccak256(abi.encode(TYPE_HASH, _hashedName, _hashedVersion, block.chainid, address(this))) */\n  dup1\n  mload\n  swap1\n  0x20\n  add\n  keccak256\n    /* \"contract-4b98807483_flattened.sol\":37856:37954  return keccak256(abi.encode(TYPE_HASH, _hashedName, _hashedVersion, block.chainid, address(this))) */\n  swap1\n  pop\n    /* \"contract-4b98807483_flattened.sol\":37782:37961  function _buildDomainSeparator() private view returns (bytes32) {... */\n  swap1\n  jump\t// out\n    /* \"contract-4b98807483_flattened.sol\":62361:62548  function _transferOwnership(address newOwner) internal virtual {... */\ntag_25:\n    /* \"contract-4b98807483_flattened.sol\":62434:62450  address oldOwner */\n  0x00\n    /* \"contract-4b98807483_flattened.sol\":62453:62459  _owner */\n  0x08\n  0x00\n  swap1\n  sload\n  swap1\n  0x0100\n  exp\n  swap1\n  div\n  0xffffffffffffffffffffffffffffffffffffffff\n  and\n    /* \"contract-4b98807483_flattened.sol\":62434:62459  address oldOwner = _owner */\n  swap1\n  pop\n    /* \"contract-4b98807483_flattened.sol\":62478:62486  newOwner */\n  dup2\n    /* \"contract-4b98807483_flattened.sol\":62469:62475  _owner */\n  0x08\n  0x00\n    /* \"contract-4b98807483_flattened.sol\":62469:62486  _owner = newOwner */\n  0x0100\n  exp\n  dup2\n  sload\n  dup2\n  0xffffffffffffffffffffffffffffffffffffffff\n  mul\n  not\n  and\n  swap1\n  dup4\n  0xffffffffffffffffffffffffffffffffffffffff\n  and\n  mul\n  or\n  swap1\n  sstore\n  pop\n    /* \"contract-4b98807483_flattened.sol\":62532:62540  newOwner */\n  dup2\n    /* \"contract-4b98807483_flattened.sol\":62501:62541  OwnershipTransferred(oldOwner, newOwner) */\n  0xffffffffffffffffffffffffffffffffffffffff\n  and\n    /* \"contract-4b98807483_flattened.sol\":62522:62530  oldOwner */\n  dup2\n    /* \"contract-4b98807483_flattened.sol\":62501:62541  OwnershipTransferred(oldOwner, newOwner) */\n  0xffffffffffffffffffffffffffffffffffffffff\n  and\n  0x8be0079c531659141344cd1fd0a4f28419497f9722a3daafe3b4186f6b6457e0\n  mload(0x40)\n  mload(0x40)\n  dup1\n  swap2\n  sub\n  swap1\n  log3\n    /* \"contract-4b98807483_flattened.sol\":62424:62548  {... */\n  pop\n    /* \"contract-4b98807483_flattened.sol\":62361:62548  function _transferOwnership(address newOwner) internal virtual {... */\n  pop\n  jump\t// out\n    /* \"contract-4b98807483_flattened.sol\":68881:68963  function decimals() public view virtual returns (uint8) {... */\ntag_29:\n    /* \"contract-4b98807483_flattened.sol\":68930:68935  uint8 */\n  0x00\n    /* \"contract-4b98807483_flattened.sol\":68954:68956  18 */\n  0x12\n    /* \"contract-4b98807483_flattened.sol\":68947:68956  return 18 */\n  swap1\n  pop\n    /* \"contract-4b98807483_flattened.sol\":68881:68963  function decimals() public view virtual returns (uint8) {... */\n  swap1\n  jump\t// out\n    /* \"contract-4b98807483_flattened.sol\":73600:73808  function _mint(address account, uint256 value) internal {... */\ntag_34:\n    /* \"contract-4b98807483_flattened.sol\":73689:73690  0 */\n  0x00\n    /* \"contract-4b98807483_flattened.sol\":73670:73691  account == address(0) */\n  0xffffffffffffffffffffffffffffffffffffffff\n  and\n    /* \"contract-4b98807483_flattened.sol\":73670:73677  account */\n  dup3\n    /* \"contract-4b98807483_flattened.sol\":73670:73691  account == address(0) */\n  0xffffffffffffffffffffffffffffffffffffffff\n  and\n  sub\n    /* \"contract-4b98807483_flattened.sol\":73666:73757  if (account == address(0)) {... */\n  tag_50\n  jumpi\n    /* \"contract-4b98807483_flattened.sol\":73743:73744  0 */\n  0x00\n    /* \"contract-4b98807483_flattened.sol\":73714:73746  ERC20InvalidReceiver(address(0)) */\n  mload(0x40)\n  0xec442f0500000000000000000000000000000000000000000000000000000000\n  dup2\n  mstore\n  0x04\n  add\n  tag_51\n  swap2\n  swap1\n  tag_23\n  jump\t// in\ntag_51:\n  mload(0x40)\n  dup1\n  swap2\n  sub\n  swap1\n  revert\n    /* \"contract-4b98807483_flattened.sol\":73666:73757  if (account == address(0)) {... */\ntag_50:\n    /* \"contract-4b98807483_flattened.sol\":73766:73801  _update(address(0), account, value) */\n  tag_52\n    /* \"contract-4b98807483_flattened.sol\":73782:73783  0 */\n  0x00\n    /* \"contract-4b98807483_flattened.sol\":73786:73793  account */\n  dup4\n    /* \"contract-4b98807483_flattened.sol\":73795:73800  value */\n  dup4\n    /* \"contract-4b98807483_flattened.sol\":73766:73773  _update */\n  shl(0x20, tag_53)\n    /* \"contract-4b98807483_flattened.sol\":73766:73801  _update(address(0), account, value) */\n  0x20\n  shr\n  jump\t// in\ntag_52:\n    /* \"contract-4b98807483_flattened.sol\":73600:73808  function _mint(address account, uint256 value) internal {... */\n  pop\n  pop\n  jump\t// out\n    /* \"contract-4b98807483_flattened.sol\":7947:8233  function toShortString(string memory str) internal pure returns (ShortString) {... */\ntag_39:\n    /* \"contract-4b98807483_flattened.sol\":8012:8023  ShortString */\n  0x00\n    /* \"contract-4b98807483_flattened.sol\":8035:8052  bytes memory bstr */\n  dup1\n    /* \"contract-4b98807483_flattened.sol\":8061:8064  str */\n  dup3\n    /* \"contract-4b98807483_flattened.sol\":8035:8065  bytes memory bstr = bytes(str) */\n  swap1\n  pop\n    /* \"contract-4b98807483_flattened.sol\":8093:8095  31 */\n  0x1f\n    /* \"contract-4b98807483_flattened.sol\":8079:8083  bstr */\n  dup2\n    /* \"contract-4b98807483_flattened.sol\":8079:8090  bstr.length */\n  mload\n    /* \"contract-4b98807483_flattened.sol\":8079:8095  bstr.length > 31 */\n  gt\n    /* \"contract-4b98807483_flattened.sol\":8075:8147  if (bstr.length > 31) {... */\n  iszero\n  tag_55\n  jumpi\n    /* \"contract-4b98807483_flattened.sol\":8132:8135  str */\n  dup3\n    /* \"contract-4b98807483_flattened.sol\":8118:8136  StringTooLong(str) */\n  mload(0x40)\n  0x305a27a900000000000000000000000000000000000000000000000000000000\n  dup2\n  mstore\n  0x04\n  add\n  tag_56\n  swap2\n  swap1\n  tag_57\n  jump\t// in\ntag_56:\n  mload(0x40)\n  dup1\n  swap2\n  sub\n  swap1\n  revert\n    /* \"contract-4b98807483_flattened.sol\":8075:8147  if (bstr.length > 31) {... */\ntag_55:\n    /* \"contract-4b98807483_flattened.sol\":8213:8217  bstr */\n  dup1\n    /* \"contract-4b98807483_flattened.sol\":8213:8224  bstr.length */\n  mload\n    /* \"contract-4b98807483_flattened.sol\":8204:8208  bstr */\n  dup2\n    /* \"contract-4b98807483_flattened.sol\":8196:8209  bytes32(bstr) */\n  tag_58\n  swap1\n  tag_59\n  jump\t// in\ntag_58:\n    /* \"contract-4b98807483_flattened.sol\":8188:8210  uint256(bytes32(bstr)) */\n  0x00\n  shr\n    /* \"contract-4b98807483_flattened.sol\":8188:8224  uint256(bytes32(bstr)) | bstr.length */\n  or\n    /* \"contract-4b98807483_flattened.sol\":8180:8225  bytes32(uint256(bytes32(bstr)) | bstr.length) */\n  0x00\n  shl\n    /* \"contract-4b98807483_flattened.sol\":8156:8226  return ShortString.wrap(bytes32(uint256(bytes32(bstr)) | bstr.length)) */\n  swap2\n  pop\n  pop\n    /* \"contract-4b98807483_flattened.sol\":7947:8233  function toShortString(string memory str) internal pure returns (ShortString) {... */\n  swap2\n  swap1\n  pop\n  jump\t// out\n    /* \"contract-4b98807483_flattened.sol\":5457:5659  function getStringSlot(string storage store) internal pure returns (StringSlot storage r) {... */\ntag_42:\n    /* \"contract-4b98807483_flattened.sol\":5525:5545  StringSlot storage r */\n  0x00\n    /* \"contract-4b98807483_flattened.sol\":5633:5643  store.slot */\n  dup2\n    /* \"contract-4b98807483_flattened.sol\":5623:5643  r.slot := store.slot */\n  swap1\n  pop\n    /* \"contract-4b98807483_flattened.sol\":5457:5659  function getStringSlot(string storage store) internal pure returns (StringSlot storage r) {... */\n  swap2\n  swap1\n  pop\n  jump\t// out\n    /* \"contract-4b98807483_flattened.sol\":72150:73257  function _update(address from, address to, uint256 value) internal virtual {... */\ntag_53:\n    /* \"contract-4b98807483_flattened.sol\":72255:72256  0 */\n  0x00\n    /* \"contract-4b98807483_flattened.sol\":72239:72257  from == address(0) */\n  0xffffffffffffffffffffffffffffffffffffffff\n  and\n    /* \"contract-4b98807483_flattened.sol\":72239:72243  from */\n  dup4\n    /* \"contract-4b98807483_flattened.sol\":72239:72257  from == address(0) */\n  0xffffffffffffffffffffffffffffffffffffffff\n  and\n  sub\n    /* \"contract-4b98807483_flattened.sol\":72235:72775  if (from == address(0)) {... */\n  tag_62\n  jumpi\n    /* \"contract-4b98807483_flattened.sol\":72391:72396  value */\n  dup1\n    /* \"contract-4b98807483_flattened.sol\":72375:72387  _totalSupply */\n  0x02\n  0x00\n    /* \"contract-4b98807483_flattened.sol\":72375:72396  _totalSupply += value */\n  dup3\n  dup3\n  sload\n  tag_63\n  swap2\n  swap1\n  tag_64\n  jump\t// in\ntag_63:\n  swap3\n  pop\n  pop\n  dup2\n  swap1\n  sstore\n  pop\n    /* \"contract-4b98807483_flattened.sol\":72235:72775  if (from == address(0)) {... */\n  jump(tag_65)\ntag_62:\n    /* \"contract-4b98807483_flattened.sol\":72427:72446  uint256 fromBalance */\n  0x00\n    /* \"contract-4b98807483_flattened.sol\":72449:72458  _balances */\n  dup1\n    /* \"contract-4b98807483_flattened.sol\":72449:72464  _balances[from] */\n  0x00\n    /* \"contract-4b98807483_flattened.sol\":72459:72463  from */\n  dup6\n    /* \"contract-4b98807483_flattened.sol\":72449:72464  _balances[from] */\n  0xffffffffffffffffffffffffffffffffffffffff\n  and\n  0xffffffffffffffffffffffffffffffffffffffff\n  and\n  dup2\n  mstore\n  0x20\n  add\n  swap1\n  dup2\n  mstore\n  0x20\n  add\n  0x00\n  keccak256\n  sload\n    /* \"contract-4b98807483_flattened.sol\":72427:72464  uint256 fromBalance = _balances[from] */\n  swap1\n  pop\n    /* \"contract-4b98807483_flattened.sol\":72496:72501  value */\n  dup2\n    /* \"contract-4b98807483_flattened.sol\":72482:72493  fromBalance */\n  dup2\n    /* \"contract-4b98807483_flattened.sol\":72482:72501  fromBalance < value */\n  lt\n    /* \"contract-4b98807483_flattened.sol\":72478:72593  if (fromBalance < value) {... */\n  iszero\n  tag_66\n  jumpi\n    /* \"contract-4b98807483_flattened.sol\":72553:72557  from */\n  dup4\n    /* \"contract-4b98807483_flattened.sol\":72559:72570  fromBalance */\n  dup2\n    /* \"contract-4b98807483_flattened.sol\":72572:72577  value */\n  dup4\n    /* \"contract-4b98807483_flattened.sol\":72528:72578  ERC20InsufficientBalance(from, fromBalance, value) */\n  mload(0x40)\n  0xe450d38c00000000000000000000000000000000000000000000000000000000\n  dup2\n  mstore\n  0x04\n  add\n  tag_67\n  swap4\n  swap3\n  swap2\n  swap1\n  tag_68\n  jump\t// in\ntag_67:\n  mload(0x40)\n  dup1\n  swap2\n  sub\n  swap1\n  revert\n    /* \"contract-4b98807483_flattened.sol\":72478:72593  if (fromBalance < value) {... */\ntag_66:\n    /* \"contract-4b98807483_flattened.sol\":72745:72750  value */\n  dup2\n    /* \"contract-4b98807483_flattened.sol\":72731:72742  fromBalance */\n  dup2\n    /* \"contract-4b98807483_flattened.sol\":72731:72750  fromBalance - value */\n  sub\n    /* \"contract-4b98807483_flattened.sol\":72713:72722  _balances */\n  0x00\n    /* \"contract-4b98807483_flattened.sol\":72713:72728  _balances[from] */\n  dup1\n    /* \"contract-4b98807483_flattened.sol\":72723:72727  from */\n  dup7\n    /* \"contract-4b98807483_flattened.sol\":72713:72728  _balances[from] */\n  0xffffffffffffffffffffffffffffffffffffffff\n  and\n  0xffffffffffffffffffffffffffffffffffffffff\n  and\n  dup2\n  mstore\n  0x20\n  add\n  swap1\n  dup2\n  mstore\n  0x20\n  add\n  0x00\n  keccak256\n    /* \"contract-4b98807483_flattened.sol\":72713:72750  _balances[from] = fromBalance - value */\n  dup2\n  swap1\n  sstore\n  pop\n    /* \"contract-4b98807483_flattened.sol\":72413:72775  {... */\n  pop\n    /* \"contract-4b98807483_flattened.sol\":72235:72775  if (from == address(0)) {... */\ntag_65:\n    /* \"contract-4b98807483_flattened.sol\":72803:72804  0 */\n  0x00\n    /* \"contract-4b98807483_flattened.sol\":72789:72805  to == address(0) */\n  0xffffffffffffffffffffffffffffffffffffffff\n  and\n    /* \"contract-4b98807483_flattened.sol\":72789:72791  to */\n  dup3\n    /* \"contract-4b98807483_flattened.sol\":72789:72805  to == address(0) */\n  0xffffffffffffffffffffffffffffffffffffffff\n  and\n  sub\n    /* \"contract-4b98807483_flattened.sol\":72785:73210  if (to == address(0)) {... */\n  tag_69\n  jumpi\n    /* \"contract-4b98807483_flattened.sol\":72968:72973  value */\n  dup1\n    /* \"contract-4b98807483_flattened.sol\":72952:72964  _totalSupply */\n  0x02\n  0x00\n    /* \"contract-4b98807483_flattened.sol\":72952:72973  _totalSupply -= value */\n  dup3\n  dup3\n  sload\n  sub\n  swap3\n  pop\n  pop\n  dup2\n  swap1\n  sstore\n  pop\n    /* \"contract-4b98807483_flattened.sol\":72785:73210  if (to == address(0)) {... */\n  jump(tag_70)\ntag_69:\n    /* \"contract-4b98807483_flattened.sol\":73180:73185  value */\n  dup1\n    /* \"contract-4b98807483_flattened.sol\":73163:73172  _balances */\n  0x00\n    /* \"contract-4b98807483_flattened.sol\":73163:73176  _balances[to] */\n  dup1\n    /* \"contract-4b98807483_flattened.sol\":73173:73175  to */\n  dup5\n    /* \"contract-4b98807483_flattened.sol\":73163:73176  _balances[to] */\n  0xffffffffffffffffffffffffffffffffffffffff\n  and\n  0xffffffffffffffffffffffffffffffffffffffff\n  and\n  dup2\n  mstore\n  0x20\n  add\n  swap1\n  dup2\n  mstore\n  0x20\n  add\n  0x00\n  keccak256\n  0x00\n    /* \"contract-4b98807483_flattened.sol\":73163:73185  _balances[to] += value */\n  dup3\n  dup3\n  sload\n  add\n  swap3\n  pop\n  pop\n  dup2\n  swap1\n  sstore\n  pop\n    /* \"contract-4b98807483_flattened.sol\":72785:73210  if (to == address(0)) {... */\ntag_70:\n    /* \"contract-4b98807483_flattened.sol\":73240:73242  to */\n  dup2\n    /* \"contract-4b98807483_flattened.sol\":73225:73250  Transfer(from, to, value) */\n  0xffffffffffffffffffffffffffffffffffffffff\n  and\n    /* \"contract-4b98807483_flattened.sol\":73234:73238  from */\n  dup4\n    /* \"contract-4b98807483_flattened.sol\":73225:73250  Transfer(from, to, value) */\n  0xffffffffffffffffffffffffffffffffffffffff\n  and\n  0xddf252ad1be2c89b69c2b068fc378daa952ba7f163c4a11628f55a4df523b3ef\n    /* \"contract-4b98807483_flattened.sol\":73244:73249  value */\n  dup4\n    /* \"contract-4b98807483_flattened.sol\":73225:73250  Transfer(from, to, value) */\n  mload(0x40)\n  tag_71\n  swap2\n  swap1\n  tag_72\n  jump\t// in\ntag_71:\n  mload(0x40)\n  dup1\n  swap2\n  sub\n  swap1\n  log3\n    /* \"contract-4b98807483_flattened.sol\":72150:73257  function _update(address from, address to, uint256 value) internal virtual {... */\n  pop\n  pop\n  pop\n  jump\t// out\n    /* \"#utility.yul\":88:205   */\ntag_74:\n    /* \"#utility.yul\":197:198   */\n  0x00\n    /* \"#utility.yul\":194:195   */\n  dup1\n    /* \"#utility.yul\":187:199   */\n  revert\n    /* \"#utility.yul\":334:460   */\ntag_76:\n    /* \"#utility.yul\":371:378   */\n  0x00\n    /* \"#utility.yul\":411:453   */\n  0xffffffffffffffffffffffffffffffffffffffff\n    /* \"#utility.yul\":404:409   */\n  dup3\n    /* \"#utility.yul\":400:454   */\n  and\n    /* \"#utility.yul\":389:454   */\n  swap1\n  pop\n    /* \"#utility.yul\":334:460   */\n  swap2\n  swap1\n  pop\n  jump\t// out\n    /* \"#utility.yul\":466:562   */\ntag_77:\n    /* \"#utility.yul\":503:510   */\n  0x00\n    /* \"#utility.yul\":532:556   */\n  tag_122\n    /* \"#utility.yul\":550:555   */\n  dup3\n    /* \"#utility.yul\":532:556   */\n  tag_76\n  jump\t// in\ntag_122:\n    /* \"#utility.yul\":521:556   */\n  swap1\n  pop\n    /* \"#utility.yul\":466:562   */\n  swap2\n  swap1\n  pop\n  jump\t// out\n    /* \"#utility.yul\":568:690   */\ntag_78:\n    /* \"#utility.yul\":641:665   */\n  tag_124\n    /* \"#utility.yul\":659:664   */\n  dup2\n    /* \"#utility.yul\":641:665   */\n  tag_77\n  jump\t// in\ntag_124:\n    /* \"#utility.yul\":634:639   */\n  dup2\n    /* \"#utility.yul\":631:666   */\n  eq\n    /* \"#utility.yul\":621:684   */\n  tag_125\n  jumpi\n    /* \"#utility.yul\":680:681   */\n  0x00\n    /* \"#utility.yul\":677:678   */\n  dup1\n    /* \"#utility.yul\":670:682   */\n  revert\n    /* \"#utility.yul\":621:684   */\ntag_125:\n    /* \"#utility.yul\":568:690   */\n  pop\n  jump\t// out\n    /* \"#utility.yul\":696:839   */\ntag_79:\n    /* \"#utility.yul\":753:758   */\n  0x00\n    /* \"#utility.yul\":784:790   */\n  dup2\n    /* \"#utility.yul\":778:791   */\n  mload\n    /* \"#utility.yul\":769:791   */\n  swap1\n  pop\n    /* \"#utility.yul\":800:833   */\n  tag_127\n    /* \"#utility.yul\":827:832   */\n  dup2\n    /* \"#utility.yul\":800:833   */\n  tag_78\n  jump\t// in\ntag_127:\n    /* \"#utility.yul\":696:839   */\n  swap3\n  swap2\n  pop\n  pop\n  jump\t// out\n    /* \"#utility.yul\":845:1196   */\ntag_3:\n    /* \"#utility.yul\":915:921   */\n  0x00\n    /* \"#utility.yul\":964:966   */\n  0x20\n    /* \"#utility.yul\":952:961   */\n  dup3\n    /* \"#utility.yul\":943:950   */\n  dup5\n    /* \"#utility.yul\":939:962   */\n  sub\n    /* \"#utility.yul\":935:967   */\n  slt\n    /* \"#utility.yul\":932:1051   */\n  iszero\n  tag_129\n  jumpi\n    /* \"#utility.yul\":970:1049   */\n  tag_130\n  tag_74\n  jump\t// in\ntag_130:\n    /* \"#utility.yul\":932:1051   */\ntag_129:\n    /* \"#utility.yul\":1090:1091   */\n  0x00\n    /* \"#utility.yul\":1115:1179   */\n  tag_131\n    /* \"#utility.yul\":1171:1178   */\n  dup5\n    /* \"#utility.yul\":1162:1168   */\n  dup3\n    /* \"#utility.yul\":1151:1160   */\n  dup6\n    /* \"#utility.yul\":1147:1169   */\n  add\n    /* \"#utility.yul\":1115:1179   */\n  tag_79\n  jump\t// in\ntag_131:\n    /* \"#utility.yul\":1105:1179   */\n  swap2\n  pop\n    /* \"#utility.yul\":1061:1189   */\n  pop\n    /* \"#utility.yul\":845:1196   */\n  swap3\n  swap2\n  pop\n  pop\n  jump\t// out\n    /* \"#utility.yul\":1202:1301   */\ntag_80:\n    /* \"#utility.yul\":1254:1260   */\n  0x00\n    /* \"#utility.yul\":1288:1293   */\n  dup2\n    /* \"#utility.yul\":1282:1294   */\n  mload\n    /* \"#utility.yul\":1272:1294   */\n  swap1\n  pop\n    /* \"#utility.yul\":1202:1301   */\n  swap2\n  swap1\n  pop\n  jump\t// out\n    /* \"#utility.yul\":1307:1487   */\ntag_81:\n    /* \"#utility.yul\":1355:1432   */\n  0x4e487b7100000000000000000000000000000000000000000000000000000000\n    /* \"#utility.yul\":1352:1353   */\n  0x00\n    /* \"#utility.yul\":1345:1433   */\n  mstore\n    /* \"#utility.yul\":1452:1456   */\n  0x41\n    /* \"#utility.yul\":1449:1450   */\n  0x04\n    /* \"#utility.yul\":1442:1457   */\n  mstore\n    /* \"#utility.yul\":1476:1480   */\n  0x24\n    /* \"#utility.yul\":1473:1474   */\n  0x00\n    /* \"#utility.yul\":1466:1481   */\n  revert\n    /* \"#utility.yul\":1493:1673   */\ntag_82:\n    /* \"#utility.yul\":1541:1618   */\n  0x4e487b7100000000000000000000000000000000000000000000000000000000\n    /* \"#utility.yul\":1538:1539   */\n  0x00\n    /* \"#utility.yul\":1531:1619   */\n  mstore\n    /* \"#utility.yul\":1638:1642   */\n  0x22\n    /* \"#utility.yul\":1635:1636   */\n  0x04\n    /* \"#utility.yul\":1628:1643   */\n  mstore\n    /* \"#utility.yul\":1662:1666   */\n  0x24\n    /* \"#utility.yul\":1659:1660   */\n  0x00\n    /* \"#utility.yul\":1652:1667   */\n  revert\n    /* \"#utility.yul\":1679:1999   */\ntag_83:\n    /* \"#utility.yul\":1723:1729   */\n  0x00\n    /* \"#utility.yul\":1760:1761   */\n  0x02\n    /* \"#utility.yul\":1754:1758   */\n  dup3\n    /* \"#utility.yul\":1750:1762   */\n  div\n    /* \"#utility.yul\":1740:1762   */\n  swap1\n  pop\n    /* \"#utility.yul\":1807:1808   */\n  0x01\n    /* \"#utility.yul\":1801:1805   */\n  dup3\n    /* \"#utility.yul\":1797:1809   */\n  and\n    /* \"#utility.yul\":1828:1846   */\n  dup1\n    /* \"#utility.yul\":1818:1899   */\n  tag_136\n  jumpi\n    /* \"#utility.yul\":1884:1888   */\n  0x7f\n    /* \"#utility.yul\":1876:1882   */\n  dup3\n    /* \"#utility.yul\":1872:1889   */\n  and\n    /* \"#utility.yul\":1862:1889   */\n  swap2\n  pop\n    /* \"#utility.yul\":1818:1899   */\ntag_136:\n    /* \"#utility.yul\":1946:1948   */\n  0x20\n    /* \"#utility.yul\":1938:1944   */\n  dup3\n    /* \"#utility.yul\":1935:1949   */\n  lt\n    /* \"#utility.yul\":1915:1933   */\n  dup2\n    /* \"#utility.yul\":1912:1950   */\n  sub\n    /* \"#utility.yul\":1909:1993   */\n  tag_137\n  jumpi\n    /* \"#utility.yul\":1965:1983   */\n  tag_138\n  tag_82\n  jump\t// in\ntag_138:\n    /* \"#utility.yul\":1909:1993   */\ntag_137:\n    /* \"#utility.yul\":1730:1999   */\n  pop\n    /* \"#utility.yul\":1679:1999   */\n  swap2\n  swap1\n  pop\n  jump\t// out\n    /* \"#utility.yul\":2005:2146   */\ntag_84:\n    /* \"#utility.yul\":2054:2058   */\n  0x00\n    /* \"#utility.yul\":2077:2080   */\n  dup2\n    /* \"#utility.yul\":2069:2080   */\n  swap1\n  pop\n    /* \"#utility.yul\":2100:2103   */\n  dup2\n    /* \"#utility.yul\":2097:2098   */\n  0x00\n    /* \"#utility.yul\":2090:2104   */\n  mstore\n    /* \"#utility.yul\":2134:2138   */\n  0x20\n    /* \"#utility.yul\":2131:2132   */\n  0x00\n    /* \"#utility.yul\":2121:2139   */\n  keccak256\n    /* \"#utility.yul\":2113:2139   */\n  swap1\n  pop\n    /* \"#utility.yul\":2005:2146   */\n  swap2\n  swap1\n  pop\n  jump\t// out\n    /* \"#utility.yul\":2152:2245   */\ntag_85:\n    /* \"#utility.yul\":2189:2195   */\n  0x00\n    /* \"#utility.yul\":2236:2238   */\n  0x20\n    /* \"#utility.yul\":2231:2233   */\n  0x1f\n    /* \"#utility.yul\":2224:2229   */\n  dup4\n    /* \"#utility.yul\":2220:2234   */\n  add\n    /* \"#utility.yul\":2216:2239   */\n  div\n    /* \"#utility.yul\":2206:2239   */\n  swap1\n  pop\n    /* \"#utility.yul\":2152:2245   */\n  swap2\n  swap1\n  pop\n  jump\t// out\n    /* \"#utility.yul\":2251:2358   */\ntag_86:\n    /* \"#utility.yul\":2295:2303   */\n  0x00\n    /* \"#utility.yul\":2345:2350   */\n  dup3\n    /* \"#utility.yul\":2339:2343   */\n  dup3\n    /* \"#utility.yul\":2335:2351   */\n  shl\n    /* \"#utility.yul\":2314:2351   */\n  swap1\n  pop\n    /* \"#utility.yul\":2251:2358   */\n  swap3\n  swap2\n  pop\n  pop\n  jump\t// out\n    /* \"#utility.yul\":2364:2757   */\ntag_87:\n    /* \"#utility.yul\":2433:2439   */\n  0x00\n    /* \"#utility.yul\":2483:2484   */\n  0x08\n    /* \"#utility.yul\":2471:2481   */\n  dup4\n    /* \"#utility.yul\":2467:2485   */\n  mul\n    /* \"#utility.yul\":2506:2603   */\n  tag_143\n    /* \"#utility.yul\":2536:2602   */\n  0xffffffffffffffffffffffffffffffffffffffffffffffffffffffffffffffff\n    /* \"#utility.yul\":2525:2534   */\n  dup3\n    /* \"#utility.yul\":2506:2603   */\n  tag_86\n  jump\t// in\ntag_143:\n    /* \"#utility.yul\":2624:2663   */\n  tag_144\n    /* \"#utility.yul\":2654:2662   */\n  dup7\n    /* \"#utility.yul\":2643:2652   */\n  dup4\n    /* \"#utility.yul\":2624:2663   */\n  tag_86\n  jump\t// in\ntag_144:\n    /* \"#utility.yul\":2612:2663   */\n  swap6\n  pop\n    /* \"#utility.yul\":2696:2700   */\n  dup1\n    /* \"#utility.yul\":2692:2701   */\n  not\n    /* \"#utility.yul\":2685:2690   */\n  dup5\n    /* \"#utility.yul\":2681:2702   */\n  and\n    /* \"#utility.yul\":2672:2702   */\n  swap4\n  pop\n    /* \"#utility.yul\":2745:2749   */\n  dup1\n    /* \"#utility.yul\":2735:2743   */\n  dup7\n    /* \"#utility.yul\":2731:2750   */\n  and\n    /* \"#utility.yul\":2724:2729   */\n  dup5\n    /* \"#utility.yul\":2721:2751   */\n  or\n    /* \"#utility.yul\":2711:2751   */\n  swap3\n  pop\n    /* \"#utility.yul\":2440:2757   */\n  pop\n  pop\n    /* \"#utility.yul\":2364:2757   */\n  swap4\n  swap3\n  pop\n  pop\n  pop\n  jump\t// out\n    /* \"#utility.yul\":2763:2840   */\ntag_88:\n    /* \"#utility.yul\":2800:2807   */\n  0x00\n    /* \"#utility.yul\":2829:2834   */\n  dup2\n    /* \"#utility.yul\":2818:2834   */\n  swap1\n  pop\n    /* \"#utility.yul\":2763:2840   */\n  swap2\n  swap1\n  pop\n  jump\t// out\n    /* \"#utility.yul\":2846:2906   */\ntag_89:\n    /* \"#utility.yul\":2874:2877   */\n  0x00\n    /* \"#utility.yul\":2895:2900   */\n  dup2\n    /* \"#utility.yul\":2888:2900   */\n  swap1\n  pop\n    /* \"#utility.yul\":2846:2906   */\n  swap2\n  swap1\n  pop\n  jump\t// out\n    /* \"#utility.yul\":2912:3054   */\ntag_90:\n    /* \"#utility.yul\":2962:2971   */\n  0x00\n    /* \"#utility.yul\":2995:3048   */\n  tag_148\n    /* \"#utility.yul\":3013:3047   */\n  tag_149\n    /* \"#utility.yul\":3022:3046   */\n  tag_150\n    /* \"#utility.yul\":3040:3045   */\n  dup5\n    /* \"#utility.yul\":3022:3046   */\n  tag_88\n  jump\t// in\ntag_150:\n    /* \"#utility.yul\":3013:3047   */\n  tag_89\n  jump\t// in\ntag_149:\n    /* \"#utility.yul\":2995:3048   */\n  tag_88\n  jump\t// in\ntag_148:\n    /* \"#utility.yul\":2982:3048   */\n  swap1\n  pop\n    /* \"#utility.yul\":2912:3054   */\n  swap2\n  swap1\n  pop\n  jump\t// out\n    /* \"#utility.yul\":3060:3135   */\ntag_91:\n    /* \"#utility.yul\":3103:3106   */\n  0x00\n    /* \"#utility.yul\":3124:3129   */\n  dup2\n    /* \"#utility.yul\":3117:3129   */\n  swap1\n  pop\n    /* \"#utility.yul\":3060:3135   */\n  swap2\n  swap1\n  pop\n  jump\t// out\n    /* \"#utility.yul\":3141:3410   */\ntag_92:\n    /* \"#utility.yul\":3251:3290   */\n  tag_153\n    /* \"#utility.yul\":3282:3289   */\n  dup4\n    /* \"#utility.yul\":3251:3290   */\n  tag_90\n  jump\t// in\ntag_153:\n    /* \"#utility.yul\":3312:3403   */\n  tag_154\n    /* \"#utility.yul\":3361:3402   */\n  tag_155\n    /* \"#utility.yul\":3385:3401   */\n  dup3\n    /* \"#utility.yul\":3361:3402   */\n  tag_91\n  jump\t// in\ntag_155:\n    /* \"#utility.yul\":3353:3359   */\n  dup5\n    /* \"#utility.yul\":3346:3350   */\n  dup5\n    /* \"#utility.yul\":3340:3351   */\n  sload\n    /* \"#utility.yul\":3312:3403   */\n  tag_87\n  jump\t// in\ntag_154:\n    /* \"#utility.yul\":3306:3310   */\n  dup3\n    /* \"#utility.yul\":3299:3404   */\n  sstore\n    /* \"#utility.yul\":3217:3410   */\n  pop\n    /* \"#utility.yul\":3141:3410   */\n  pop\n  pop\n  pop\n  jump\t// out\n    /* \"#utility.yul\":3416:3489   */\ntag_93:\n    /* \"#utility.yul\":3461:3464   */\n  0x00\n    /* \"#utility.yul\":3416:3489   */\n  swap1\n  jump\t// out\n    /* \"#utility.yul\":3495:3684   */\ntag_94:\n    /* \"#utility.yul\":3572:3604   */\n  tag_158\n  tag_93\n  jump\t// in\ntag_158:\n    /* \"#utility.yul\":3613:3678   */\n  tag_159\n    /* \"#utility.yul\":3671:3677   */\n  dup2\n    /* \"#utility.yul\":3663:3669   */\n  dup5\n    /* \"#utility.yul\":3657:3661   */\n  dup5\n    /* \"#utility.yul\":3613:3678   */\n  tag_92\n  jump\t// in\ntag_159:\n    /* \"#utility.yul\":3548:3684   */\n  pop\n    /* \"#utility.yul\":3495:3684   */\n  pop\n  pop\n  jump\t// out\n    /* \"#utility.yul\":3690:3876   */\ntag_95:\n    /* \"#utility.yul\":3750:3870   */\ntag_161:\n    /* \"#utility.yul\":3767:3770   */\n  dup2\n    /* \"#utility.yul\":3760:3765   */\n  dup2\n    /* \"#utility.yul\":3757:3771   */\n  lt\n    /* \"#utility.yul\":3750:3870   */\n  iszero\n  tag_163\n  jumpi\n    /* \"#utility.yul\":3821:3860   */\n  tag_164\n    /* \"#utility.yul\":3858:3859   */\n  0x00\n    /* \"#utility.yul\":3851:3856   */\n  dup3\n    /* \"#utility.yul\":3821:3860   */\n  tag_94\n  jump\t// in\ntag_164:\n    /* \"#utility.yul\":3794:3795   */\n  0x01\n    /* \"#utility.yul\":3787:3792   */\n  dup2\n    /* \"#utility.yul\":3783:3796   */\n  add\n    /* \"#utility.yul\":3774:3796   */\n  swap1\n  pop\n    /* \"#utility.yul\":3750:3870   */\n  jump(tag_161)\ntag_163:\n    /* \"#utility.yul\":3690:3876   */\n  pop\n  pop\n  jump\t// out\n    /* \"#utility.yul\":3882:4425   */\ntag_96:\n    /* \"#utility.yul\":3983:3985   */\n  0x1f\n    /* \"#utility.yul\":3978:3981   */\n  dup3\n    /* \"#utility.yul\":3975:3986   */\n  gt\n    /* \"#utility.yul\":3972:4418   */\n  iszero\n  tag_166\n  jumpi\n    /* \"#utility.yul\":4017:4055   */\n  tag_167\n    /* \"#utility.yul\":4049:4054   */\n  dup2\n    /* \"#utility.yul\":4017:4055   */\n  tag_84\n  jump\t// in\ntag_167:\n    /* \"#utility.yul\":4101:4130   */\n  tag_168\n    /* \"#utility.yul\":4119:4129   */\n  dup5\n    /* \"#utility.yul\":4101:4130   */\n  tag_85\n  jump\t// in\ntag_168:\n    /* \"#utility.yul\":4091:4099   */\n  dup2\n    /* \"#utility.yul\":4087:4131   */\n  add\n    /* \"#utility.yul\":4284:4286   */\n  0x20\n    /* \"#utility.yul\":4272:4282   */\n  dup6\n    /* \"#utility.yul\":4269:4287   */\n  lt\n    /* \"#utility.yul\":4266:4315   */\n  iszero\n  tag_169\n  jumpi\n    /* \"#utility.yul\":4305:4313   */\n  dup2\n    /* \"#utility.yul\":4290:4313   */\n  swap1\n  pop\n    /* \"#utility.yul\":4266:4315   */\ntag_169:\n    /* \"#utility.yul\":4328:4408   */\n  tag_170\n    /* \"#utility.yul\":4384:4406   */\n  tag_171\n    /* \"#utility.yul\":4402:4405   */\n  dup6\n    /* \"#utility.yul\":4384:4406   */\n  tag_85\n  jump\t// in\ntag_171:\n    /* \"#utility.yul\":4374:4382   */\n  dup4\n    /* \"#utility.yul\":4370:4407   */\n  add\n    /* \"#utility.yul\":4357:4368   */\n  dup3\n    /* \"#utility.yul\":4328:4408   */\n  tag_95\n  jump\t// in\ntag_170:\n    /* \"#utility.yul\":3987:4418   */\n  pop\n  pop\n    /* \"#utility.yul\":3972:4418   */\ntag_166:\n    /* \"#utility.yul\":3882:4425   */\n  pop\n  pop\n  pop\n  jump\t// out\n    /* \"#utility.yul\":4431:4548   */\ntag_97:\n    /* \"#utility.yul\":4485:4493   */\n  0x00\n    /* \"#utility.yul\":4535:4540   */\n  dup3\n    /* \"#utility.yul\":4529:4533   */\n  dup3\n    /* \"#utility.yul\":4525:4541   */\n  shr\n    /* \"#utility.yul\":4504:4541   */\n  swap1\n  pop\n    /* \"#utility.yul\":4431:4548   */\n  swap3\n  swap2\n  pop\n  pop\n  jump\t// out\n    /* \"#utility.yul\":4554:4723   */\ntag_98:\n    /* \"#utility.yul\":4598:4604   */\n  0x00\n    /* \"#utility.yul\":4631:4682   */\n  tag_174\n    /* \"#utility.yul\":4679:4680   */\n  0x00\n    /* \"#utility.yul\":4675:4681   */\n  not\n    /* \"#utility.yul\":4667:4672   */\n  dup5\n    /* \"#utility.yul\":4664:4665   */\n  0x08\n    /* \"#utility.yul\":4660:4673   */\n  mul\n    /* \"#utility.yul\":4631:4682   */\n  tag_97\n  jump\t// in\ntag_174:\n    /* \"#utility.yul\":4627:4683   */\n  not\n    /* \"#utility.yul\":4712:4716   */\n  dup1\n    /* \"#utility.yul\":4706:4710   */\n  dup4\n    /* \"#utility.yul\":4702:4717   */\n  and\n    /* \"#utility.yul\":4692:4717   */\n  swap2\n  pop\n    /* \"#utility.yul\":4605:4723   */\n  pop\n    /* \"#utility.yul\":4554:4723   */\n  swap3\n  swap2\n  pop\n  pop\n  jump\t// out\n    /* \"#utility.yul\":4728:5023   */\ntag_99:\n    /* \"#utility.yul\":4804:4808   */\n  0x00\n    /* \"#utility.yul\":4950:4979   */\n  tag_176\n    /* \"#utility.yul\":4975:4978   */\n  dup4\n    /* \"#utility.yul\":4969:4973   */\n  dup4\n    /* \"#utility.yul\":4950:4979   */\n  tag_98\n  jump\t// in\ntag_176:\n    /* \"#utility.yul\":4942:4979   */\n  swap2\n  pop\n    /* \"#utility.yul\":5012:5015   */\n  dup3\n    /* \"#utility.yul\":5009:5010   */\n  0x02\n    /* \"#utility.yul\":5005:5016   */\n  mul\n    /* \"#utility.yul\":4999:5003   */\n  dup3\n    /* \"#utility.yul\":4996:5017   */\n  or\n    /* \"#utility.yul\":4988:5017   */\n  swap1\n  pop\n    /* \"#utility.yul\":4728:5023   */\n  swap3\n  swap2\n  pop\n  pop\n  jump\t// out\n    /* \"#utility.yul\":5028:6423   */\ntag_11:\n    /* \"#utility.yul\":5145:5182   */\n  tag_178\n    /* \"#utility.yul\":5178:5181   */\n  dup3\n    /* \"#utility.yul\":5145:5182   */\n  tag_80\n  jump\t// in\ntag_178:\n    /* \"#utility.yul\":5247:5265   */\n  0xffffffffffffffff\n    /* \"#utility.yul\":5239:5245   */\n  dup2\n    /* \"#utility.yul\":5236:5266   */\n  gt\n    /* \"#utility.yul\":5233:5289   */\n  iszero\n  tag_179\n  jumpi\n    /* \"#utility.yul\":5269:5287   */\n  tag_180\n  tag_81\n  jump\t// in\ntag_180:\n    /* \"#utility.yul\":5233:5289   */\ntag_179:\n    /* \"#utility.yul\":5313:5351   */\n  tag_181\n    /* \"#utility.yul\":5345:5349   */\n  dup3\n    /* \"#utility.yul\":5339:5350   */\n  sload\n    /* \"#utility.yul\":5313:5351   */\n  tag_83\n  jump\t// in\ntag_181:\n    /* \"#utility.yul\":5398:5465   */\n  tag_182\n    /* \"#utility.yul\":5458:5464   */\n  dup3\n    /* \"#utility.yul\":5450:5456   */\n  dup3\n    /* \"#utility.yul\":5444:5448   */\n  dup6\n    /* \"#utility.yul\":5398:5465   */\n  tag_96\n  jump\t// in\ntag_182:\n    /* \"#utility.yul\":5492:5493   */\n  0x00\n    /* \"#utility.yul\":5516:5520   */\n  0x20\n    /* \"#utility.yul\":5503:5520   */\n  swap1\n  pop\n    /* \"#utility.yul\":5548:5550   */\n  0x1f\n    /* \"#utility.yul\":5540:5546   */\n  dup4\n    /* \"#utility.yul\":5537:5551   */\n  gt\n    /* \"#utility.yul\":5565:5566   */\n  0x01\n    /* \"#utility.yul\":5560:6178   */\n  dup2\n  eq\n  tag_184\n  jumpi\n    /* \"#utility.yul\":6222:6223   */\n  0x00\n    /* \"#utility.yul\":6239:6245   */\n  dup5\n    /* \"#utility.yul\":6236:6313   */\n  iszero\n  tag_185\n  jumpi\n    /* \"#utility.yul\":6288:6297   */\n  dup3\n    /* \"#utility.yul\":6283:6286   */\n  dup8\n    /* \"#utility.yul\":6279:6298   */\n  add\n    /* \"#utility.yul\":6273:6299   */\n  mload\n    /* \"#utility.yul\":6264:6299   */\n  swap1\n  pop\n    /* \"#utility.yul\":6236:6313   */\ntag_185:\n    /* \"#utility.yul\":6339:6406   */\n  tag_186\n    /* \"#utility.yul\":6399:6405   */\n  dup6\n    /* \"#utility.yul\":6392:6397   */\n  dup3\n    /* \"#utility.yul\":6339:6406   */\n  tag_99\n  jump\t// in\ntag_186:\n    /* \"#utility.yul\":6333:6337   */\n  dup7\n    /* \"#utility.yul\":6326:6407   */\n  sstore\n    /* \"#utility.yul\":6195:6417   */\n  pop\n    /* \"#utility.yul\":5530:6417   */\n  jump(tag_183)\n    /* \"#utility.yul\":5560:6178   */\ntag_184:\n    /* \"#utility.yul\":5612:5616   */\n  0x1f\n    /* \"#utility.yul\":5608:5617   */\n  not\n    /* \"#utility.yul\":5600:5606   */\n  dup5\n    /* \"#utility.yul\":5596:5618   */\n  and\n    /* \"#utility.yul\":5646:5683   */\n  tag_187\n    /* \"#utility.yul\":5678:5682   */\n  dup7\n    /* \"#utility.yul\":5646:5683   */\n  tag_84\n  jump\t// in\ntag_187:\n    /* \"#utility.yul\":5705:5706   */\n  0x00\n    /* \"#utility.yul\":5719:5927   */\ntag_188:\n    /* \"#utility.yul\":5733:5740   */\n  dup3\n    /* \"#utility.yul\":5730:5731   */\n  dup2\n    /* \"#utility.yul\":5727:5741   */\n  lt\n    /* \"#utility.yul\":5719:5927   */\n  iszero\n  tag_190\n  jumpi\n    /* \"#utility.yul\":5812:5821   */\n  dup5\n    /* \"#utility.yul\":5807:5810   */\n  dup10\n    /* \"#utility.yul\":5803:5822   */\n  add\n    /* \"#utility.yul\":5797:5823   */\n  mload\n    /* \"#utility.yul\":5789:5795   */\n  dup3\n    /* \"#utility.yul\":5782:5824   */\n  sstore\n    /* \"#utility.yul\":5863:5864   */\n  0x01\n    /* \"#utility.yul\":5855:5861   */\n  dup3\n    /* \"#utility.yul\":5851:5865   */\n  add\n    /* \"#utility.yul\":5841:5865   */\n  swap2\n  pop\n    /* \"#utility.yul\":5910:5912   */\n  0x20\n    /* \"#utility.yul\":5899:5908   */\n  dup6\n    /* \"#utility.yul\":5895:5913   */\n  add\n    /* \"#utility.yul\":5882:5913   */\n  swap5\n  pop\n    /* \"#utility.yul\":5756:5760   */\n  0x20\n    /* \"#utility.yul\":5753:5754   */\n  dup2\n    /* \"#utility.yul\":5749:5761   */\n  add\n    /* \"#utility.yul\":5744:5761   */\n  swap1\n  pop\n    /* \"#utility.yul\":5719:5927   */\n  jump(tag_188)\ntag_190:\n    /* \"#utility.yul\":5955:5961   */\n  dup7\n    /* \"#utility.yul\":5946:5953   */\n  dup4\n    /* \"#utility.yul\":5943:5962   */\n  lt\n    /* \"#utility.yul\":5940:6119   */\n  iszero\n  tag_191\n  jumpi\n    /* \"#utility.yul\":6013:6022   */\n  dup5\n    /* \"#utility.yul\":6008:6011   */\n  dup10\n    /* \"#utility.yul\":6004:6023   */\n  add\n    /* \"#utility.yul\":5998:6024   */\n  mload\n    /* \"#utility.yul\":6056:6104   */\n  tag_192\n    /* \"#utility.yul\":6098:6102   */\n  0x1f\n    /* \"#utility.yul\":6090:6096   */\n  dup10\n    /* \"#utility.yul\":6086:6103   */\n  and\n    /* \"#utility.yul\":6075:6084   */\n  dup3\n    /* \"#utility.yul\":6056:6104   */\n  tag_98\n  jump\t// in\ntag_192:\n    /* \"#utility.yul\":6048:6054   */\n  dup4\n    /* \"#utility.yul\":6041:6105   */\n  sstore\n    /* \"#utility.yul\":5963:6119   */\n  pop\n    /* \"#utility.yul\":5940:6119   */\ntag_191:\n    /* \"#utility.yul\":6165:6166   */\n  0x01\n    /* \"#utility.yul\":6161:6162   */\n  0x02\n    /* \"#utility.yul\":6153:6159   */\n  dup9\n    /* \"#utility.yul\":6149:6163   */\n  mul\n    /* \"#utility.yul\":6145:6167   */\n  add\n    /* \"#utility.yul\":6139:6143   */\n  dup9\n    /* \"#utility.yul\":6132:6168   */\n  sstore\n    /* \"#utility.yul\":5567:6178   */\n  pop\n  pop\n  pop\n    /* \"#utility.yul\":5530:6417   */\ntag_183:\n  pop\n    /* \"#utility.yul\":5120:6423   */\n  pop\n  pop\n  pop\n    /* \"#utility.yul\":5028:6423   */\n  pop\n  pop\n  jump\t// out\n    /* \"#utility.yul\":6429:6547   */\ntag_100:\n    /* \"#utility.yul\":6516:6540   */\n  tag_194\n    /* \"#utility.yul\":6534:6539   */\n  dup2\n    /* \"#utility.yul\":6516:6540   */\n  tag_77\n  jump\t// in\ntag_194:\n    /* \"#utility.yul\":6511:6514   */\n  dup3\n    /* \"#utility.yul\":6504:6541   */\n  mstore\n    /* \"#utility.yul\":6429:6547   */\n  pop\n  pop\n  jump\t// out\n    /* \"#utility.yul\":6553:6775   */\ntag_23:\n    /* \"#utility.yul\":6646:6650   */\n  0x00\n    /* \"#utility.yul\":6684:6686   */\n  0x20\n    /* \"#utility.yul\":6673:6682   */\n  dup3\n    /* \"#utility.yul\":6669:6687   */\n  add\n    /* \"#utility.yul\":6661:6687   */\n  swap1\n  pop\n    /* \"#utility.yul\":6697:6768   */\n  tag_196\n    /* \"#utility.yul\":6765:6766   */\n  0x00\n    /* \"#utility.yul\":6754:6763   */\n  dup4\n    /* \"#utility.yul\":6750:6767   */\n  add\n    /* \"#utility.yul\":6741:6747   */\n  dup5\n    /* \"#utility.yul\":6697:6768   */\n  tag_100\n  jump\t// in\ntag_196:\n    /* \"#utility.yul\":6553:6775   */\n  swap3\n  swap2\n  pop\n  pop\n  jump\t// out\n    /* \"#utility.yul\":6781:6961   */\ntag_101:\n    /* \"#utility.yul\":6829:6906   */\n  0x4e487b7100000000000000000000000000000000000000000000000000000000\n    /* \"#utility.yul\":6826:6827   */\n  0x00\n    /* \"#utility.yul\":6819:6907   */\n  mstore\n    /* \"#utility.yul\":6926:6930   */\n  0x11\n    /* \"#utility.yul\":6923:6924   */\n  0x04\n    /* \"#utility.yul\":6916:6931   */\n  mstore\n    /* \"#utility.yul\":6950:6954   */\n  0x24\n    /* \"#utility.yul\":6947:6948   */\n  0x00\n    /* \"#utility.yul\":6940:6955   */\n  revert\n    /* \"#utility.yul\":6967:7069   */\ntag_102:\n    /* \"#utility.yul\":7009:7017   */\n  0x00\n    /* \"#utility.yul\":7056:7061   */\n  dup2\n    /* \"#utility.yul\":7053:7054   */\n  0x01\n    /* \"#utility.yul\":7049:7062   */\n  shr\n    /* \"#utility.yul\":7028:7062   */\n  swap1\n  pop\n    /* \"#utility.yul\":6967:7069   */\n  swap2\n  swap1\n  pop\n  jump\t// out\n    /* \"#utility.yul\":7075:7923   */\ntag_103:\n    /* \"#utility.yul\":7136:7141   */\n  0x00\n    /* \"#utility.yul\":7143:7147   */\n  dup1\n    /* \"#utility.yul\":7167:7173   */\n  dup3\n    /* \"#utility.yul\":7158:7173   */\n  swap2\n  pop\n    /* \"#utility.yul\":7191:7196   */\n  dup4\n    /* \"#utility.yul\":7182:7196   */\n  swap1\n  pop\n    /* \"#utility.yul\":7205:7917   */\ntag_200:\n    /* \"#utility.yul\":7226:7227   */\n  0x01\n    /* \"#utility.yul\":7216:7224   */\n  dup6\n    /* \"#utility.yul\":7213:7228   */\n  gt\n    /* \"#utility.yul\":7205:7917   */\n  iszero\n  tag_202\n  jumpi\n    /* \"#utility.yul\":7321:7325   */\n  dup1\n    /* \"#utility.yul\":7316:7319   */\n  dup7\n    /* \"#utility.yul\":7312:7326   */\n  div\n    /* \"#utility.yul\":7306:7310   */\n  dup2\n    /* \"#utility.yul\":7303:7327   */\n  gt\n    /* \"#utility.yul\":7300:7350   */\n  iszero\n  tag_203\n  jumpi\n    /* \"#utility.yul\":7330:7348   */\n  tag_204\n  tag_101\n  jump\t// in\ntag_204:\n    /* \"#utility.yul\":7300:7350   */\ntag_203:\n    /* \"#utility.yul\":7380:7381   */\n  0x01\n    /* \"#utility.yul\":7370:7378   */\n  dup6\n    /* \"#utility.yul\":7366:7382   */\n  and\n    /* \"#utility.yul\":7363:7814   */\n  iszero\n  tag_205\n  jumpi\n    /* \"#utility.yul\":7795:7799   */\n  dup1\n    /* \"#utility.yul\":7788:7793   */\n  dup3\n    /* \"#utility.yul\":7784:7800   */\n  mul\n    /* \"#utility.yul\":7775:7800   */\n  swap2\n  pop\n    /* \"#utility.yul\":7363:7814   */\ntag_205:\n    /* \"#utility.yul\":7845:7849   */\n  dup1\n    /* \"#utility.yul\":7839:7843   */\n  dup2\n    /* \"#utility.yul\":7835:7850   */\n  mul\n    /* \"#utility.yul\":7827:7850   */\n  swap1\n  pop\n    /* \"#utility.yul\":7875:7907   */\n  tag_206\n    /* \"#utility.yul\":7898:7906   */\n  dup6\n    /* \"#utility.yul\":7875:7907   */\n  tag_102\n  jump\t// in\ntag_206:\n    /* \"#utility.yul\":7863:7907   */\n  swap5\n  pop\n    /* \"#utility.yul\":7205:7917   */\n  jump(tag_200)\ntag_202:\n    /* \"#utility.yul\":7075:7923   */\n  swap5\n  pop\n  swap5\n  swap3\n  pop\n  pop\n  pop\n  jump\t// out\n    /* \"#utility.yul\":7929:9002   */\ntag_104:\n    /* \"#utility.yul\":7983:7988   */\n  0x00\n    /* \"#utility.yul\":8174:8182   */\n  dup3\n    /* \"#utility.yul\":8164:8204   */\n  tag_208\n  jumpi\n    /* \"#utility.yul\":8195:8196   */\n  0x01\n    /* \"#utility.yul\":8186:8196   */\n  swap1\n  pop\n    /* \"#utility.yul\":8197:8202   */\n  jump(tag_207)\n    /* \"#utility.yul\":8164:8204   */\ntag_208:\n    /* \"#utility.yul\":8223:8227   */\n  dup2\n    /* \"#utility.yul\":8213:8249   */\n  tag_209\n  jumpi\n    /* \"#utility.yul\":8240:8241   */\n  0x00\n    /* \"#utility.yul\":8231:8241   */\n  swap1\n  pop\n    /* \"#utility.yul\":8242:8247   */\n  jump(tag_207)\n    /* \"#utility.yul\":8213:8249   */\ntag_209:\n    /* \"#utility.yul\":8309:8313   */\n  dup2\n    /* \"#utility.yul\":8357:8358   */\n  0x01\n    /* \"#utility.yul\":8352:8379   */\n  dup2\n  eq\n  tag_211\n  jumpi\n    /* \"#utility.yul\":8393:8394   */\n  0x02\n    /* \"#utility.yul\":8388:8579   */\n  dup2\n  eq\n  tag_212\n  jumpi\n    /* \"#utility.yul\":8302:8579   */\n  jump(tag_210)\n    /* \"#utility.yul\":8352:8379   */\ntag_211:\n    /* \"#utility.yul\":8370:8371   */\n  0x01\n    /* \"#utility.yul\":8361:8371   */\n  swap2\n  pop\n    /* \"#utility.yul\":8372:8377   */\n  pop\n  jump(tag_207)\n    /* \"#utility.yul\":8388:8579   */\ntag_212:\n    /* \"#utility.yul\":8433:8436   */\n  0xff\n    /* \"#utility.yul\":8423:8431   */\n  dup5\n    /* \"#utility.yul\":8420:8437   */\n  gt\n    /* \"#utility.yul\":8417:8460   */\n  iszero\n  tag_213\n  jumpi\n    /* \"#utility.yul\":8440:8458   */\n  tag_214\n  tag_101\n  jump\t// in\ntag_214:\n    /* \"#utility.yul\":8417:8460   */\ntag_213:\n    /* \"#utility.yul\":8489:8497   */\n  dup4\n    /* \"#utility.yul\":8486:8487   */\n  0x02\n    /* \"#utility.yul\":8482:8498   */\n  exp\n    /* \"#utility.yul\":8473:8498   */\n  swap2\n  pop\n    /* \"#utility.yul\":8524:8527   */\n  dup5\n    /* \"#utility.yul\":8517:8522   */\n  dup3\n    /* \"#utility.yul\":8514:8528   */\n  gt\n    /* \"#utility.yul\":8511:8551   */\n  iszero\n  tag_215\n  jumpi\n    /* \"#utility.yul\":8531:8549   */\n  tag_216\n  tag_101\n  jump\t// in\ntag_216:\n    /* \"#utility.yul\":8511:8551   */\ntag_215:\n    /* \"#utility.yul\":8564:8569   */\n  pop\n  jump(tag_207)\n    /* \"#utility.yul\":8302:8579   */\ntag_210:\n  pop\n    /* \"#utility.yul\":8688:8690   */\n  0x20\n    /* \"#utility.yul\":8678:8686   */\n  dup4\n    /* \"#utility.yul\":8675:8691   */\n  lt\n    /* \"#utility.yul\":8669:8672   */\n  0x0133\n    /* \"#utility.yul\":8663:8667   */\n  dup4\n    /* \"#utility.yul\":8660:8673   */\n  lt\n    /* \"#utility.yul\":8656:8692   */\n  and\n    /* \"#utility.yul\":8638:8640   */\n  0x4e\n    /* \"#utility.yul\":8628:8636   */\n  dup5\n    /* \"#utility.yul\":8625:8641   */\n  lt\n    /* \"#utility.yul\":8620:8622   */\n  0x0b\n    /* \"#utility.yul\":8614:8618   */\n  dup5\n    /* \"#utility.yul\":8611:8623   */\n  lt\n    /* \"#utility.yul\":8607:8642   */\n  and\n    /* \"#utility.yul\":8591:8702   */\n  or\n    /* \"#utility.yul\":8588:8834   */\n  iszero\n  tag_217\n  jumpi\n    /* \"#utility.yul\":8744:8752   */\n  dup3\n    /* \"#utility.yul\":8738:8742   */\n  dup3\n    /* \"#utility.yul\":8734:8753   */\n  exp\n    /* \"#utility.yul\":8725:8753   */\n  swap1\n  pop\n    /* \"#utility.yul\":8779:8782   */\n  dup4\n    /* \"#utility.yul\":8772:8777   */\n  dup2\n    /* \"#utility.yul\":8769:8783   */\n  gt\n    /* \"#utility.yul\":8766:8806   */\n  iszero\n  tag_218\n  jumpi\n    /* \"#utility.yul\":8786:8804   */\n  tag_219\n  tag_101\n  jump\t// in\ntag_219:\n    /* \"#utility.yul\":8766:8806   */\ntag_218:\n    /* \"#utility.yul\":8819:8824   */\n  jump(tag_207)\n    /* \"#utility.yul\":8588:8834   */\ntag_217:\n    /* \"#utility.yul\":8859:8901   */\n  tag_220\n    /* \"#utility.yul\":8897:8900   */\n  dup5\n    /* \"#utility.yul\":8887:8895   */\n  dup5\n    /* \"#utility.yul\":8881:8885   */\n  dup5\n    /* \"#utility.yul\":8878:8879   */\n  0x01\n    /* \"#utility.yul\":8859:8901   */\n  tag_103\n  jump\t// in\ntag_220:\n    /* \"#utility.yul\":8844:8901   */\n  swap3\n  pop\n  swap1\n  pop\n    /* \"#utility.yul\":8933:8937   */\n  dup2\n    /* \"#utility.yul\":8928:8931   */\n  dup5\n    /* \"#utility.yul\":8924:8938   */\n  div\n    /* \"#utility.yul\":8917:8922   */\n  dup2\n    /* \"#utility.yul\":8914:8939   */\n  gt\n    /* \"#utility.yul\":8911:8962   */\n  iszero\n  tag_221\n  jumpi\n    /* \"#utility.yul\":8942:8960   */\n  tag_222\n  tag_101\n  jump\t// in\ntag_222:\n    /* \"#utility.yul\":8911:8962   */\ntag_221:\n    /* \"#utility.yul\":8991:8995   */\n  dup2\n    /* \"#utility.yul\":8984:8989   */\n  dup2\n    /* \"#utility.yul\":8980:8996   */\n  mul\n    /* \"#utility.yul\":8971:8996   */\n  swap1\n  pop\n    /* \"#utility.yul\":7929:9002   */\ntag_207:\n  swap4\n  swap3\n  pop\n  pop\n  pop\n  jump\t// out\n    /* \"#utility.yul\":9008:9094   */\ntag_105:\n    /* \"#utility.yul\":9043:9050   */\n  0x00\n    /* \"#utility.yul\":9083:9087   */\n  0xff\n    /* \"#utility.yul\":9076:9081   */\n  dup3\n    /* \"#utility.yul\":9072:9088   */\n  and\n    /* \"#utility.yul\":9061:9088   */\n  swap1\n  pop\n    /* \"#utility.yul\":9008:9094   */\n  swap2\n  swap1\n  pop\n  jump\t// out\n    /* \"#utility.yul\":9100:9381   */\ntag_31:\n    /* \"#utility.yul\":9158:9163   */\n  0x00\n    /* \"#utility.yul\":9182:9205   */\n  tag_225\n    /* \"#utility.yul\":9200:9204   */\n  dup3\n    /* \"#utility.yul\":9182:9205   */\n  tag_88\n  jump\t// in\ntag_225:\n    /* \"#utility.yul\":9174:9205   */\n  swap2\n  pop\n    /* \"#utility.yul\":9226:9251   */\n  tag_226\n    /* \"#utility.yul\":9242:9250   */\n  dup4\n    /* \"#utility.yul\":9226:9251   */\n  tag_105\n  jump\t// in\ntag_226:\n    /* \"#utility.yul\":9214:9251   */\n  swap3\n  pop\n    /* \"#utility.yul\":9270:9374   */\n  tag_227\n    /* \"#utility.yul\":9307:9373   */\n  0xffffffffffffffffffffffffffffffffffffffffffffffffffffffffffffffff\n    /* \"#utility.yul\":9297:9305   */\n  dup5\n    /* \"#utility.yul\":9291:9295   */\n  dup5\n    /* \"#utility.yul\":9270:9374   */\n  tag_104\n  jump\t// in\ntag_227:\n    /* \"#utility.yul\":9261:9374   */\n  swap1\n  pop\n    /* \"#utility.yul\":9100:9381   */\n  swap3\n  swap2\n  pop\n  pop\n  jump\t// out\n    /* \"#utility.yul\":9387:9797   */\ntag_33:\n    /* \"#utility.yul\":9427:9434   */\n  0x00\n    /* \"#utility.yul\":9450:9470   */\n  tag_229\n    /* \"#utility.yul\":9468:9469   */\n  dup3\n    /* \"#utility.yul\":9450:9470   */\n  tag_88\n  jump\t// in\ntag_229:\n    /* \"#utility.yul\":9445:9470   */\n  swap2\n  pop\n    /* \"#utility.yul\":9484:9504   */\n  tag_230\n    /* \"#utility.yul\":9502:9503   */\n  dup4\n    /* \"#utility.yul\":9484:9504   */\n  tag_88\n  jump\t// in\ntag_230:\n    /* \"#utility.yul\":9479:9504   */\n  swap3\n  pop\n    /* \"#utility.yul\":9539:9540   */\n  dup3\n    /* \"#utility.yul\":9536:9537   */\n  dup3\n    /* \"#utility.yul\":9532:9541   */\n  mul\n    /* \"#utility.yul\":9561:9591   */\n  tag_231\n    /* \"#utility.yul\":9579:9590   */\n  dup2\n    /* \"#utility.yul\":9561:9591   */\n  tag_88\n  jump\t// in\ntag_231:\n    /* \"#utility.yul\":9550:9591   */\n  swap2\n  pop\n    /* \"#utility.yul\":9740:9741   */\n  dup3\n    /* \"#utility.yul\":9731:9738   */\n  dup3\n    /* \"#utility.yul\":9727:9742   */\n  div\n    /* \"#utility.yul\":9724:9725   */\n  dup5\n    /* \"#utility.yul\":9721:9743   */\n  eq\n    /* \"#utility.yul\":9701:9702   */\n  dup4\n    /* \"#utility.yul\":9694:9703   */\n  iszero\n    /* \"#utility.yul\":9674:9757   */\n  or\n    /* \"#utility.yul\":9651:9790   */\n  tag_232\n  jumpi\n    /* \"#utility.yul\":9770:9788   */\n  tag_233\n  tag_101\n  jump\t// in\ntag_233:\n    /* \"#utility.yul\":9651:9790   */\ntag_232:\n    /* \"#utility.yul\":9435:9797   */\n  pop\n    /* \"#utility.yul\":9387:9797   */\n  swap3\n  swap2\n  pop\n  pop\n  jump\t// out\n    /* \"#utility.yul\":9803:9880   */\ntag_106:\n    /* \"#utility.yul\":9840:9847   */\n  0x00\n    /* \"#utility.yul\":9869:9874   */\n  dup2\n    /* \"#utility.yul\":9858:9874   */\n  swap1\n  pop\n    /* \"#utility.yul\":9803:9880   */\n  swap2\n  swap1\n  pop\n  jump\t// out\n    /* \"#utility.yul\":9886:10004   */\ntag_107:\n    /* \"#utility.yul\":9973:9997   */\n  tag_236\n    /* \"#utility.yul\":9991:9996   */\n  dup2\n    /* \"#utility.yul\":9973:9997   */\n  tag_106\n  jump\t// in\ntag_236:\n    /* \"#utility.yul\":9968:9971   */\n  dup3\n    /* \"#utility.yul\":9961:9998   */\n  mstore\n    /* \"#utility.yul\":9886:10004   */\n  pop\n  pop\n  jump\t// out\n    /* \"#utility.yul\":10010:10128   */\ntag_108:\n    /* \"#utility.yul\":10097:10121   */\n  tag_238\n    /* \"#utility.yul\":10115:10120   */\n  dup2\n    /* \"#utility.yul\":10097:10121   */\n  tag_88\n  jump\t// in\ntag_238:\n    /* \"#utility.yul\":10092:10095   */\n  dup3\n    /* \"#utility.yul\":10085:10122   */\n  mstore\n    /* \"#utility.yul\":10010:10128   */\n  pop\n  pop\n  jump\t// out\n    /* \"#utility.yul\":10134:10798   */\ntag_46:\n    /* \"#utility.yul\":10339:10343   */\n  0x00\n    /* \"#utility.yul\":10377:10380   */\n  0xa0\n    /* \"#utility.yul\":10366:10375   */\n  dup3\n    /* \"#utility.yul\":10362:10381   */\n  add\n    /* \"#utility.yul\":10354:10381   */\n  swap1\n  pop\n    /* \"#utility.yul\":10391:10462   */\n  tag_240\n    /* \"#utility.yul\":10459:10460   */\n  0x00\n    /* \"#utility.yul\":10448:10457   */\n  dup4\n    /* \"#utility.yul\":10444:10461   */\n  add\n    /* \"#utility.yul\":10435:10441   */\n  dup9\n    /* \"#utility.yul\":10391:10462   */\n  tag_107\n  jump\t// in\ntag_240:\n    /* \"#utility.yul\":10472:10544   */\n  tag_241\n    /* \"#utility.yul\":10540:10542   */\n  0x20\n    /* \"#utility.yul\":10529:10538   */\n  dup4\n    /* \"#utility.yul\":10525:10543   */\n  add\n    /* \"#utility.yul\":10516:10522   */\n  dup8\n    /* \"#utility.yul\":10472:10544   */\n  tag_107\n  jump\t// in\ntag_241:\n    /* \"#utility.yul\":10554:10626   */\n  tag_242\n    /* \"#utility.yul\":10622:10624   */\n  0x40\n    /* \"#utility.yul\":10611:10620   */\n  dup4\n    /* \"#utility.yul\":10607:10625   */\n  add\n    /* \"#utility.yul\":10598:10604   */\n  dup7\n    /* \"#utility.yul\":10554:10626   */\n  tag_107\n  jump\t// in\ntag_242:\n    /* \"#utility.yul\":10636:10708   */\n  tag_243\n    /* \"#utility.yul\":10704:10706   */\n  0x60\n    /* \"#utility.yul\":10693:10702   */\n  dup4\n    /* \"#utility.yul\":10689:10707   */\n  add\n    /* \"#utility.yul\":10680:10686   */\n  dup6\n    /* \"#utility.yul\":10636:10708   */\n  tag_108\n  jump\t// in\ntag_243:\n    /* \"#utility.yul\":10718:10791   */\n  tag_244\n    /* \"#utility.yul\":10786:10789   */\n  0x80\n    /* \"#utility.yul\":10775:10784   */\n  dup4\n    /* \"#utility.yul\":10771:10790   */\n  add\n    /* \"#utility.yul\":10762:10768   */\n  dup5\n    /* \"#utility.yul\":10718:10791   */\n  tag_100\n  jump\t// in\ntag_244:\n    /* \"#utility.yul\":10134:10798   */\n  swap7\n  swap6\n  pop\n  pop\n  pop\n  pop\n  pop\n  pop\n  jump\t// out\n    /* \"#utility.yul\":10804:10973   */\ntag_109:\n    /* \"#utility.yul\":10888:10899   */\n  0x00\n    /* \"#utility.yul\":10922:10928   */\n  dup3\n    /* \"#utility.yul\":10917:10920   */\n  dup3\n    /* \"#utility.yul\":10910:10929   */\n  mstore\n    /* \"#utility.yul\":10962:10966   */\n  0x20\n    /* \"#utility.yul\":10957:10960   */\n  dup3\n    /* \"#utility.yul\":10953:10967   */\n  add\n    /* \"#utility.yul\":10938:10967   */\n  swap1\n  pop\n    /* \"#utility.yul\":10804:10973   */\n  swap3\n  swap2\n  pop\n  pop\n  jump\t// out\n    /* \"#utility.yul\":10979:11225   */\ntag_110:\n    /* \"#utility.yul\":11060:11061   */\n  0x00\n    /* \"#utility.yul\":11070:11183   */\ntag_247:\n    /* \"#utility.yul\":11084:11090   */\n  dup4\n    /* \"#utility.yul\":11081:11082   */\n  dup2\n    /* \"#utility.yul\":11078:11091   */\n  lt\n    /* \"#utility.yul\":11070:11183   */\n  iszero\n  tag_249\n  jumpi\n    /* \"#utility.yul\":11169:11170   */\n  dup1\n    /* \"#utility.yul\":11164:11167   */\n  dup3\n    /* \"#utility.yul\":11160:11171   */\n  add\n    /* \"#utility.yul\":11154:11172   */\n  mload\n    /* \"#utility.yul\":11150:11151   */\n  dup2\n    /* \"#utility.yul\":11145:11148   */\n  dup5\n    /* \"#utility.yul\":11141:11152   */\n  add\n    /* \"#utility.yul\":11134:11173   */\n  mstore\n    /* \"#utility.yul\":11106:11108   */\n  0x20\n    /* \"#utility.yul\":11103:11104   */\n  dup2\n    /* \"#utility.yul\":11099:11109   */\n  add\n    /* \"#utility.yul\":11094:11109   */\n  swap1\n  pop\n    /* \"#utility.yul\":11070:11183   */\n  jump(tag_247)\ntag_249:\n    /* \"#utility.yul\":11217:11218   */\n  0x00\n    /* \"#utility.yul\":11208:11214   */\n  dup5\n    /* \"#utility.yul\":11203:11206   */\n  dup5\n    /* \"#utility.yul\":11199:11215   */\n  add\n    /* \"#utility.yul\":11192:11219   */\n  mstore\n    /* \"#utility.yul\":11041:11225   */\n  pop\n    /* \"#utility.yul\":10979:11225   */\n  pop\n  pop\n  pop\n  jump\t// out\n    /* \"#utility.yul\":11231:11333   */\ntag_111:\n    /* \"#utility.yul\":11272:11278   */\n  0x00\n    /* \"#utility.yul\":11323:11325   */\n  0x1f\n    /* \"#utility.yul\":11319:11326   */\n  not\n    /* \"#utility.yul\":11314:11316   */\n  0x1f\n    /* \"#utility.yul\":11307:11312   */\n  dup4\n    /* \"#utility.yul\":11303:11317   */\n  add\n    /* \"#utility.yul\":11299:11327   */\n  and\n    /* \"#utility.yul\":11289:11327   */\n  swap1\n  pop\n    /* \"#utility.yul\":11231:11333   */\n  swap2\n  swap1\n  pop\n  jump\t// out\n    /* \"#utility.yul\":11339:11716   */\ntag_112:\n    /* \"#utility.yul\":11427:11430   */\n  0x00\n    /* \"#utility.yul\":11455:11494   */\n  tag_252\n    /* \"#utility.yul\":11488:11493   */\n  dup3\n    /* \"#utility.yul\":11455:11494   */\n  tag_80\n  jump\t// in\ntag_252:\n    /* \"#utility.yul\":11510:11581   */\n  tag_253\n    /* \"#utility.yul\":11574:11580   */\n  dup2\n    /* \"#utility.yul\":11569:11572   */\n  dup6\n    /* \"#utility.yul\":11510:11581   */\n  tag_109\n  jump\t// in\ntag_253:\n    /* \"#utility.yul\":11503:11581   */\n  swap4\n  pop\n    /* \"#utility.yul\":11590:11655   */\n  tag_254\n    /* \"#utility.yul\":11648:11654   */\n  dup2\n    /* \"#utility.yul\":11643:11646   */\n  dup6\n    /* \"#utility.yul\":11636:11640   */\n  0x20\n    /* \"#utility.yul\":11629:11634   */\n  dup7\n    /* \"#utility.yul\":11625:11641   */\n  add\n    /* \"#utility.yul\":11590:11655   */\n  tag_110\n  jump\t// in\ntag_254:\n    /* \"#utility.yul\":11680:11709   */\n  tag_255\n    /* \"#utility.yul\":11702:11708   */\n  dup2\n    /* \"#utility.yul\":11680:11709   */\n  tag_111\n  jump\t// in\ntag_255:\n    /* \"#utility.yul\":11675:11678   */\n  dup5\n    /* \"#utility.yul\":11671:11710   */\n  add\n    /* \"#utility.yul\":11664:11710   */\n  swap2\n  pop\n    /* \"#utility.yul\":11431:11716   */\n  pop\n    /* \"#utility.yul\":11339:11716   */\n  swap3\n  swap2\n  pop\n  pop\n  jump\t// out\n    /* \"#utility.yul\":11722:12035   */\ntag_57:\n    /* \"#utility.yul\":11835:11839   */\n  0x00\n    /* \"#utility.yul\":11873:11875   */\n  0x20\n    /* \"#utility.yul\":11862:11871   */\n  dup3\n    /* \"#utility.yul\":11858:11876   */\n  add\n    /* \"#utility.yul\":11850:11876   */\n  swap1\n  pop\n    /* \"#utility.yul\":11922:11931   */\n  dup2\n    /* \"#utility.yul\":11916:11920   */\n  dup2\n    /* \"#utility.yul\":11912:11932   */\n  sub\n    /* \"#utility.yul\":11908:11909   */\n  0x00\n    /* \"#utility.yul\":11897:11906   */\n  dup4\n    /* \"#utility.yul\":11893:11910   */\n  add\n    /* \"#utility.yul\":11886:11933   */\n  mstore\n    /* \"#utility.yul\":11950:12028   */\n  tag_257\n    /* \"#utility.yul\":12023:12027   */\n  dup2\n    /* \"#utility.yul\":12014:12020   */\n  dup5\n    /* \"#utility.yul\":11950:12028   */\n  tag_112\n  jump\t// in\ntag_257:\n    /* \"#utility.yul\":11942:12028   */\n  swap1\n  pop\n    /* \"#utility.yul\":11722:12035   */\n  swap3\n  swap2\n  pop\n  pop\n  jump\t// out\n    /* \"#utility.yul\":12041:12139   */\ntag_113:\n    /* \"#utility.yul\":12092:12098   */\n  0x00\n    /* \"#utility.yul\":12126:12131   */\n  dup2\n    /* \"#utility.yul\":12120:12132   */\n  mload\n    /* \"#utility.yul\":12110:12132   */\n  swap1\n  pop\n    /* \"#utility.yul\":12041:12139   */\n  swap2\n  swap1\n  pop\n  jump\t// out\n    /* \"#utility.yul\":12145:12261   */\ntag_114:\n    /* \"#utility.yul\":12196:12200   */\n  0x00\n    /* \"#utility.yul\":12219:12222   */\n  dup2\n    /* \"#utility.yul\":12211:12222   */\n  swap1\n  pop\n    /* \"#utility.yul\":12249:12253   */\n  0x20\n    /* \"#utility.yul\":12244:12247   */\n  dup3\n    /* \"#utility.yul\":12240:12254   */\n  add\n    /* \"#utility.yul\":12232:12254   */\n  swap1\n  pop\n    /* \"#utility.yul\":12145:12261   */\n  swap2\n  swap1\n  pop\n  jump\t// out\n    /* \"#utility.yul\":12267:12421   */\ntag_115:\n    /* \"#utility.yul\":12310:12321   */\n  0x00\n    /* \"#utility.yul\":12346:12375   */\n  tag_261\n    /* \"#utility.yul\":12370:12373   */\n  dup3\n    /* \"#utility.yul\":12364:12374   */\n  mload\n    /* \"#utility.yul\":12346:12375   */\n  tag_106\n  jump\t// in\ntag_261:\n    /* \"#utility.yul\":12409:12414   */\n  dup1\n    /* \"#utility.yul\":12385:12414   */\n  swap2\n  pop\n    /* \"#utility.yul\":12322:12421   */\n  pop\n    /* \"#utility.yul\":12267:12421   */\n  swap2\n  swap1\n  pop\n  jump\t// out\n    /* \"#utility.yul\":12427:13021   */\ntag_59:\n    /* \"#utility.yul\":12511:12516   */\n  0x00\n    /* \"#utility.yul\":12542:12580   */\n  tag_263\n    /* \"#utility.yul\":12574:12579   */\n  dup3\n    /* \"#utility.yul\":12542:12580   */\n  tag_113\n  jump\t// in\ntag_263:\n    /* \"#utility.yul\":12605:12610   */\n  dup3\n    /* \"#utility.yul\":12632:12672   */\n  tag_264\n    /* \"#utility.yul\":12666:12671   */\n  dup5\n    /* \"#utility.yul\":12632:12672   */\n  tag_114\n  jump\t// in\ntag_264:\n    /* \"#utility.yul\":12620:12672   */\n  swap1\n  pop\n    /* \"#utility.yul\":12691:12726   */\n  tag_265\n    /* \"#utility.yul\":12717:12725   */\n  dup2\n    /* \"#utility.yul\":12691:12726   */\n  tag_115\n  jump\t// in\ntag_265:\n    /* \"#utility.yul\":12682:12726   */\n  swap3\n  pop\n    /* \"#utility.yul\":12750:12752   */\n  0x20\n    /* \"#utility.yul\":12742:12748   */\n  dup3\n    /* \"#utility.yul\":12739:12753   */\n  lt\n    /* \"#utility.yul\":12736:13014   */\n  iszero\n  tag_266\n  jumpi\n    /* \"#utility.yul\":12821:12990   */\n  tag_267\n    /* \"#utility.yul\":12906:12972   */\n  0xffffffffffffffffffffffffffffffffffffffffffffffffffffffffffffffff\n    /* \"#utility.yul\":12876:12882   */\n  dup4\n    /* \"#utility.yul\":12872:12874   */\n  0x20\n    /* \"#utility.yul\":12868:12883   */\n  sub\n    /* \"#utility.yul\":12865:12866   */\n  0x08\n    /* \"#utility.yul\":12861:12884   */\n  mul\n    /* \"#utility.yul\":12821:12990   */\n  tag_86\n  jump\t// in\ntag_267:\n    /* \"#utility.yul\":12798:12803   */\n  dup4\n    /* \"#utility.yul\":12777:13004   */\n  and\n    /* \"#utility.yul\":12768:13004   */\n  swap3\n  pop\n    /* \"#utility.yul\":12736:13014   */\ntag_266:\n    /* \"#utility.yul\":12517:13021   */\n  pop\n  pop\n    /* \"#utility.yul\":12427:13021   */\n  swap2\n  swap1\n  pop\n  jump\t// out\n    /* \"#utility.yul\":13027:13218   */\ntag_64:\n    /* \"#utility.yul\":13067:13070   */\n  0x00\n    /* \"#utility.yul\":13086:13106   */\n  tag_269\n    /* \"#utility.yul\":13104:13105   */\n  dup3\n    /* \"#utility.yul\":13086:13106   */\n  tag_88\n  jump\t// in\ntag_269:\n    /* \"#utility.yul\":13081:13106   */\n  swap2\n  pop\n    /* \"#utility.yul\":13120:13140   */\n  tag_270\n    /* \"#utility.yul\":13138:13139   */\n  dup4\n    /* \"#utility.yul\":13120:13140   */\n  tag_88\n  jump\t// in\ntag_270:\n    /* \"#utility.yul\":13115:13140   */\n  swap3\n  pop\n    /* \"#utility.yul\":13163:13164   */\n  dup3\n    /* \"#utility.yul\":13160:13161   */\n  dup3\n    /* \"#utility.yul\":13156:13165   */\n  add\n    /* \"#utility.yul\":13149:13165   */\n  swap1\n  pop\n    /* \"#utility.yul\":13184:13187   */\n  dup1\n    /* \"#utility.yul\":13181:13182   */\n  dup3\n    /* \"#utility.yul\":13178:13188   */\n  gt\n    /* \"#utility.yul\":13175:13211   */\n  iszero\n  tag_271\n  jumpi\n    /* \"#utility.yul\":13191:13209   */\n  tag_272\n  tag_101\n  jump\t// in\ntag_272:\n    /* \"#utility.yul\":13175:13211   */\ntag_271:\n    /* \"#utility.yul\":13027:13218   */\n  swap3\n  swap2\n  pop\n  pop\n  jump\t// out\n    /* \"#utility.yul\":13224:13666   */\ntag_68:\n    /* \"#utility.yul\":13373:13377   */\n  0x00\n    /* \"#utility.yul\":13411:13413   */\n  0x60\n    /* \"#utility.yul\":13400:13409   */\n  dup3\n    /* \"#utility.yul\":13396:13414   */\n  add\n    /* \"#utility.yul\":13388:13414   */\n  swap1\n  pop\n    /* \"#utility.yul\":13424:13495   */\n  tag_274\n    /* \"#utility.yul\":13492:13493   */\n  0x00\n    /* \"#utility.yul\":13481:13490   */\n  dup4\n    /* \"#utility.yul\":13477:13494   */\n  add\n    /* \"#utility.yul\":13468:13474   */\n  dup7\n    /* \"#utility.yul\":13424:13495   */\n  tag_100\n  jump\t// in\ntag_274:\n    /* \"#utility.yul\":13505:13577   */\n  tag_275\n    /* \"#utility.yul\":13573:13575   */\n  0x20\n    /* \"#utility.yul\":13562:13571   */\n  dup4\n    /* \"#utility.yul\":13558:13576   */\n  add\n    /* \"#utility.yul\":13549:13555   */\n  dup6\n    /* \"#utility.yul\":13505:13577   */\n  tag_108\n  jump\t// in\ntag_275:\n    /* \"#utility.yul\":13587:13659   */\n  tag_276\n    /* \"#utility.yul\":13655:13657   */\n  0x40\n    /* \"#utility.yul\":13644:13653   */\n  dup4\n    /* \"#utility.yul\":13640:13658   */\n  add\n    /* \"#utility.yul\":13631:13637   */\n  dup5\n    /* \"#utility.yul\":13587:13659   */\n  tag_108\n  jump\t// in\ntag_276:\n    /* \"#utility.yul\":13224:13666   */\n  swap5\n  swap4\n  pop\n  pop\n  pop\n  pop\n  jump\t// out\n    /* \"#utility.yul\":13672:13894   */\ntag_72:\n    /* \"#utility.yul\":13765:13769   */\n  0x00\n    /* \"#utility.yul\":13803:13805   */\n  0x20\n    /* \"#utility.yul\":13792:13801   */\n  dup3\n    /* \"#utility.yul\":13788:13806   */\n  add\n    /* \"#utility.yul\":13780:13806   */\n  swap1\n  pop\n    /* \"#utility.yul\":13816:13887   */\n  tag_278\n    /* \"#utility.yul\":13884:13885   */\n  0x00\n    /* \"#utility.yul\":13873:13882   */\n  dup4\n    /* \"#utility.yul\":13869:13886   */\n  add\n    /* \"#utility.yul\":13860:13866   */\n  dup5\n    /* \"#utility.yul\":13816:13887   */\n  tag_108\n  jump\t// in\ntag_278:\n    /* \"#utility.yul\":13672:13894   */\n  swap3\n  swap2\n  pop\n  pop\n  jump\t// out\n    /* \"contract-4b98807483_flattened.sol\":79652:79908  contract Pigment is ERC20, ERC20Permit, Ownable {... */\ntag_35:\n  mload(0x80)\n  mload(0xa0)\n  mload(0xc0)\n  mload(0xe0)\n  mload(0x0100)\n  mload(0x0120)\n  mload(0x0140)\n  codecopy(0x00, dataOffset(sub_0), dataSize(sub_0))\n  0x00\n  assignImmutable(\"0x2afe76337b531113eeb6984869209602297c0be432194d84882749ead3021a37\")\n  0x00\n  assignImmutable(\"0xa7cd0fec000bc9bc829eee3f19124c6d92f9bf03bc5604d586b7a9d0b7293aeb\")\n  0x00\n  assignImmutable(\"0x5444bf99e2aaa84d0c0adba4902ca441e981a14d987060ddd53a6e4272e74bca\")\n  0x00\n  assignImmutable(\"0xf9ba965def30954c13b9f17655d4bfcf079e819f9cc42b75928cd97e2c9f9020\")\n  0x00\n  assignImmutable(\"0xf2aed5d52b85e7b229d9a0bb201e12bdcbbc5fc133feb54c1cb531c3f7cf58ed\")\n  0x00\n  assignImmutable(\"0x89dda32db2afb3470ad3a855ff08175ef365ece0147067a2a9b89c9351412201\")\n  0x00\n  assignImmutable(\"0x3f9e555adc0bedaea160f26d13d68ea1bde6a5a9af64af415bccce823c8f9ad8\")\n  return(0x00, dataSize(sub_0))\nstop\n\nsub_0: assembly {\n        /* \"contract-4b98807483_flattened.sol\":79652:79908  contract Pigment is ERC20, ERC20Permit, Ownable {... */\n      mstore(0x40, 0x80)\n      callvalue\n      dup1\n      iszero\n      tag_1\n      jumpi\n      0x00\n      dup1\n      revert\n    tag_1:\n      pop\n      jumpi(tag_2, lt(calldatasize, 0x04))\n      shr(0xe0, calldataload(0x00))\n      dup1\n      0x7ecebe00\n      gt\n      tag_19\n      jumpi\n      dup1\n      0xa9059cbb\n      gt\n      tag_20\n      jumpi\n      dup1\n      0xa9059cbb\n      eq\n      tag_15\n      jumpi\n      dup1\n      0xd505accf\n      eq\n      tag_16\n      jumpi\n      dup1\n      0xdd62ed3e\n      eq\n      tag_17\n      jumpi\n      dup1\n      0xf2fde38b\n      eq\n      tag_18\n      jumpi\n      jump(tag_2)\n    tag_20:\n      dup1\n      0x7ecebe00\n      eq\n      tag_11\n      jumpi\n      dup1\n      0x84b0196e\n      eq\n      tag_12\n      jumpi\n      dup1\n      0x8da5cb5b\n      eq\n      tag_13\n      jumpi\n      dup1\n      0x95d89b41\n      eq\n      tag_14\n      jumpi\n      jump(tag_2)\n    tag_19:\n      dup1\n      0x313ce567\n      gt\n      tag_21\n      jumpi\n      dup1\n      0x313ce567\n      eq\n      tag_7\n      jumpi\n      dup1\n      0x3644e515\n      eq\n      tag_8\n      jumpi\n      dup1\n      0x70a08231\n      eq\n      tag_9\n      jumpi\n      dup1\n      0x715018a6\n      eq\n      tag_10\n      jumpi\n      jump(tag_2)\n    tag_21:\n      dup1\n      0x06fdde03\n      eq\n      tag_3\n      jumpi\n      dup1\n      0x095ea7b3\n      eq\n      tag_4\n      jumpi\n      dup1\n      0x18160ddd\n      eq\n      tag_5\n      jumpi\n      dup1\n      0x23b872dd\n      eq\n      tag_6\n      jumpi\n    tag_2:\n      0x00\n      dup1\n      revert\n        /* \"contract-4b98807483_flattened.sol\":67953:68042  function name() public view virtual returns (string memory) {... */\n    tag_3:\n      tag_22\n      tag_23\n      jump\t// in\n    tag_22:\n      mload(0x40)\n      tag_24\n      swap2\n      swap1\n      tag_25\n      jump\t// in\n    tag_24:\n      mload(0x40)\n      dup1\n      swap2\n      sub\n      swap1\n      return\n        /* \"contract-4b98807483_flattened.sol\":70172:70358  function approve(address spender, uint256 value) public virtual returns (bool) {... */\n    tag_4:\n      tag_26\n      0x04\n      dup1\n      calldatasize\n      sub\n      dup2\n      add\n      swap1\n      tag_27\n      swap2\n      swap1\n      tag_28\n      jump\t// in\n    tag_27:\n      tag_29\n      jump\t// in\n    tag_26:\n      mload(0x40)\n      tag_30\n      swap2\n      swap1\n      tag_31\n      jump\t// in\n    tag_30:\n      mload(0x40)\n      dup1\n      swap2\n      sub\n      swap1\n      return\n        /* \"contract-4b98807483_flattened.sol\":69023:69120  function totalSupply() public view virtual returns (uint256) {... */\n    tag_5:\n      tag_32\n      tag_33\n      jump\t// in\n    tag_32:\n      mload(0x40)\n      tag_34\n      swap2\n      swap1\n      tag_35\n      jump\t// in\n    tag_34:\n      mload(0x40)\n      dup1\n      swap2\n      sub\n      swap1\n      return\n        /* \"contract-4b98807483_flattened.sol\":70918:71162  function transferFrom(address from, address to, uint256 value) public virtual returns (bool) {... */\n    tag_6:\n      tag_36\n      0x04\n      dup1\n      calldatasize\n      sub\n      dup2\n      add\n      swap1\n      tag_37\n      swap2\n      swap1\n      tag_38\n      jump\t// in\n    tag_37:\n      tag_39\n      jump\t// in\n    tag_36:\n      mload(0x40)\n      tag_40\n      swap2\n      swap1\n      tag_31\n      jump\t// in\n    tag_40:\n      mload(0x40)\n      dup1\n      swap2\n      sub\n      swap1\n      return\n        /* \"contract-4b98807483_flattened.sol\":68881:68963  function decimals() public view virtual returns (uint8) {... */\n    tag_7:\n      tag_41\n      tag_42\n      jump\t// in\n    tag_41:\n      mload(0x40)\n      tag_43\n      swap2\n      swap1\n      tag_44\n      jump\t// in\n    tag_43:\n      mload(0x40)\n      dup1\n      swap2\n      sub\n      swap1\n      return\n        /* \"contract-4b98807483_flattened.sol\":79472:79584  function DOMAIN_SEPARATOR() external view virtual returns (bytes32) {... */\n    tag_8:\n      tag_45\n      tag_46\n      jump\t// in\n    tag_45:\n      mload(0x40)\n      tag_47\n      swap2\n      swap1\n      tag_48\n      jump\t// in\n    tag_47:\n      mload(0x40)\n      dup1\n      swap2\n      sub\n      swap1\n      return\n        /* \"contract-4b98807483_flattened.sol\":69178:69294  function balanceOf(address account) public view virtual returns (uint256) {... */\n    tag_9:\n      tag_49\n      0x04\n      dup1\n      calldatasize\n      sub\n      dup2\n      add\n      swap1\n      tag_50\n      swap2\n      swap1\n      tag_51\n      jump\t// in\n    tag_50:\n      tag_52\n      jump\t// in\n    tag_49:\n      mload(0x40)\n      tag_53\n      swap2\n      swap1\n      tag_35\n      jump\t// in\n    tag_53:\n      mload(0x40)\n      dup1\n      swap2\n      sub\n      swap1\n      return\n        /* \"contract-4b98807483_flattened.sol\":61742:61843  function renounceOwnership() public virtual onlyOwner {... */\n    tag_10:\n      tag_54\n      tag_55\n      jump\t// in\n    tag_54:\n      stop\n        /* \"contract-4b98807483_flattened.sol\":79222:79365  function nonces(address owner) public view virtual override(IERC20Permit, Nonces) returns (uint256) {... */\n    tag_11:\n      tag_56\n      0x04\n      dup1\n      calldatasize\n      sub\n      dup2\n      add\n      swap1\n      tag_57\n      swap2\n      swap1\n      tag_51\n      jump\t// in\n    tag_57:\n      tag_58\n      jump\t// in\n    tag_56:\n      mload(0x40)\n      tag_59\n      swap2\n      swap1\n      tag_35\n      jump\t// in\n    tag_59:\n      mload(0x40)\n      dup1\n      swap2\n      sub\n      swap1\n      return\n        /* \"contract-4b98807483_flattened.sol\":38813:39370  function eip712Domain()... */\n    tag_12:\n      tag_60\n      tag_61\n      jump\t// in\n    tag_60:\n      mload(0x40)\n      tag_62\n      swap8\n      swap7\n      swap6\n      swap5\n      swap4\n      swap3\n      swap2\n      swap1\n      tag_63\n      jump\t// in\n    tag_62:\n      mload(0x40)\n      dup1\n      swap2\n      sub\n      swap1\n      return\n        /* \"contract-4b98807483_flattened.sol\":61087:61172  function owner() public view virtual returns (address) {... */\n    tag_13:\n      tag_64\n      tag_65\n      jump\t// in\n    tag_64:\n      mload(0x40)\n      tag_66\n      swap2\n      swap1\n      tag_67\n      jump\t// in\n    tag_66:\n      mload(0x40)\n      dup1\n      swap2\n      sub\n      swap1\n      return\n        /* \"contract-4b98807483_flattened.sol\":68155:68248  function symbol() public view virtual returns (string memory) {... */\n    tag_14:\n      tag_68\n      tag_69\n      jump\t// in\n    tag_68:\n      mload(0x40)\n      tag_70\n      swap2\n      swap1\n      tag_25\n      jump\t// in\n    tag_70:\n      mload(0x40)\n      dup1\n      swap2\n      sub\n      swap1\n      return\n        /* \"contract-4b98807483_flattened.sol\":69489:69667  function transfer(address to, uint256 value) public virtual returns (bool) {... */\n    tag_15:\n      tag_71\n      0x04\n      dup1\n      calldatasize\n      sub\n      dup2\n      add\n      swap1\n      tag_72\n      swap2\n      swap1\n      tag_28\n      jump\t// in\n    tag_72:\n      tag_73\n      jump\t// in\n    tag_71:\n      mload(0x40)\n      tag_74\n      swap2\n      swap1\n      tag_31\n      jump\t// in\n    tag_74:\n      mload(0x40)\n      dup1\n      swap2\n      sub\n      swap1\n      return\n        /* \"contract-4b98807483_flattened.sol\":78496:79168  function permit(... */\n    tag_16:\n      tag_75\n      0x04\n      dup1\n      calldatasize\n      sub\n      dup2\n      add\n      swap1\n      tag_76\n      swap2\n      swap1\n      tag_77\n      jump\t// in\n    tag_76:\n      tag_78\n      jump\t// in\n    tag_75:\n      stop\n        /* \"contract-4b98807483_flattened.sol\":69725:69865  function allowance(address owner, address spender) public view virtual returns (uint256) {... */\n    tag_17:\n      tag_79\n      0x04\n      dup1\n      calldatasize\n      sub\n      dup2\n      add\n      swap1\n      tag_80\n      swap2\n      swap1\n      tag_81\n      jump\t// in\n    tag_80:\n      tag_82\n      jump\t// in\n    tag_79:\n      mload(0x40)\n      tag_83\n      swap2\n      swap1\n      tag_35\n      jump\t// in\n    tag_83:\n      mload(0x40)\n      dup1\n      swap2\n      sub\n      swap1\n      return\n        /* \"contract-4b98807483_flattened.sol\":61992:62207  function transferOwnership(address newOwner) public virtual onlyOwner {... */\n    tag_18:\n      tag_84\n      0x04\n      dup1\n      calldatasize\n      sub\n      dup2\n      add\n      swap1\n      tag_85\n      swap2\n      swap1\n      tag_51\n      jump\t// in\n    tag_85:\n      tag_86\n      jump\t// in\n    tag_84:\n      stop\n        /* \"contract-4b98807483_flattened.sol\":67953:68042  function name() public view virtual returns (string memory) {... */\n    tag_23:\n        /* \"contract-4b98807483_flattened.sol\":67998:68011  string memory */\n      0x60\n        /* \"contract-4b98807483_flattened.sol\":68030:68035  _name */\n      0x03\n        /* \"contract-4b98807483_flattened.sol\":68023:68035  return _name */\n      dup1\n      sload\n      tag_88\n      swap1\n      tag_89\n      jump\t// in\n    tag_88:\n      dup1\n      0x1f\n      add\n      0x20\n      dup1\n      swap2\n      div\n      mul\n      0x20\n      add\n      mload(0x40)\n      swap1\n      dup2\n      add\n      0x40\n      mstore\n      dup1\n      swap3\n      swap2\n      swap1\n      dup2\n      dup2\n      mstore\n      0x20\n      add\n      dup3\n      dup1\n      sload\n      tag_90\n      swap1\n      tag_89\n      jump\t// in\n    tag_90:\n      dup1\n      iszero\n      tag_91\n      jumpi\n      dup1\n      0x1f\n      lt\n      tag_92\n      jumpi\n      0x0100\n      dup1\n      dup4\n      sload\n      div\n      mul\n      dup4\n      mstore\n      swap2\n      0x20\n      add\n      swap2\n      jump(tag_91)\n    tag_92:\n      dup3\n      add\n      swap2\n      swap1\n      0x00\n      mstore\n      keccak256(0x00, 0x20)\n      swap1\n    tag_93:\n      dup2\n      sload\n      dup2\n      mstore\n      swap1\n      0x01\n      add\n      swap1\n      0x20\n      add\n      dup1\n      dup4\n      gt\n      tag_93\n      jumpi\n      dup3\n      swap1\n      sub\n      0x1f\n      and\n      dup3\n      add\n      swap2\n    tag_91:\n      pop\n      pop\n      pop\n      pop\n      pop\n      swap1\n      pop\n        /* \"contract-4b98807483_flattened.sol\":67953:68042  function name() public view virtual returns (string memory) {... */\n      swap1\n      jump\t// out\n        /* \"contract-4b98807483_flattened.sol\":70172:70358  function approve(address spender, uint256 value) public virtual returns (bool) {... */\n    tag_29:\n        /* \"contract-4b98807483_flattened.sol\":70245:70249  bool */\n      0x00\n        /* \"contract-4b98807483_flattened.sol\":70261:70274  address owner */\n      dup1\n        /* \"contract-4b98807483_flattened.sol\":70277:70289  _msgSender() */\n      tag_95\n        /* \"contract-4b98807483_flattened.sol\":70277:70287  _msgSender */\n      tag_96\n        /* \"contract-4b98807483_flattened.sol\":70277:70289  _msgSender() */\n      jump\t// in\n    tag_95:\n        /* \"contract-4b98807483_flattened.sol\":70261:70289  address owner = _msgSender() */\n      swap1\n      pop\n        /* \"contract-4b98807483_flattened.sol\":70299:70330  _approve(owner, spender, value) */\n      tag_97\n        /* \"contract-4b98807483_flattened.sol\":70308:70313  owner */\n      dup2\n        /* \"contract-4b98807483_flattened.sol\":70315:70322  spender */\n      dup6\n        /* \"contract-4b98807483_flattened.sol\":70324:70329  value */\n      dup6\n        /* \"contract-4b98807483_flattened.sol\":70299:70307  _approve */\n      tag_98\n        /* \"contract-4b98807483_flattened.sol\":70299:70330  _approve(owner, spender, value) */\n      jump\t// in\n    tag_97:\n        /* \"contract-4b98807483_flattened.sol\":70347:70351  true */\n      0x01\n        /* \"contract-4b98807483_flattened.sol\":70340:70351  return true */\n      swap2\n      pop\n      pop\n        /* \"contract-4b98807483_flattened.sol\":70172:70358  function approve(address spender, uint256 value) public virtual returns (bool) {... */\n      swap3\n      swap2\n      pop\n      pop\n      jump\t// out\n        /* \"contract-4b98807483_flattened.sol\":69023:69120  function totalSupply() public view virtual returns (uint256) {... */\n    tag_33:\n        /* \"contract-4b98807483_flattened.sol\":69075:69082  uint256 */\n      0x00\n        /* \"contract-4b98807483_flattened.sol\":69101:69113  _totalSupply */\n      sload(0x02)\n        /* \"contract-4b98807483_flattened.sol\":69094:69113  return _totalSupply */\n      swap1\n      pop\n        /* \"contract-4b98807483_flattened.sol\":69023:69120  function totalSupply() public view virtual returns (uint256) {... */\n      swap1\n      jump\t// out\n        /* \"contract-4b98807483_flattened.sol\":70918:71162  function transferFrom(address from, address to, uint256 value) public virtual returns (bool) {... */\n    tag_39:\n        /* \"contract-4b98807483_flattened.sol\":71005:71009  bool */\n      0x00\n        /* \"contract-4b98807483_flattened.sol\":71021:71036  address spender */\n      dup1\n        /* \"contract-4b98807483_flattened.sol\":71039:71051  _msgSender() */\n      tag_101\n        /* \"contract-4b98807483_flattened.sol\":71039:71049  _msgSender */\n      tag_96\n        /* \"contract-4b98807483_flattened.sol\":71039:71051  _msgSender() */\n      jump\t// in\n    tag_101:\n        /* \"contract-4b98807483_flattened.sol\":71021:71051  address spender = _msgSender() */\n      swap1\n      pop\n        /* \"contract-4b98807483_flattened.sol\":71061:71098  _spendAllowance(from, spender, value) */\n      tag_102\n        /* \"contract-4b98807483_flattened.sol\":71077:71081  from */\n      dup6\n        /* \"contract-4b98807483_flattened.sol\":71083:71090  spender */\n      dup3\n        /* \"contract-4b98807483_flattened.sol\":71092:71097  value */\n      dup6\n        /* \"contract-4b98807483_flattened.sol\":71061:71076  _spendAllowance */\n      tag_103\n        /* \"contract-4b98807483_flattened.sol\":71061:71098  _spendAllowance(from, spender, value) */\n      jump\t// in\n    tag_102:\n        /* \"contract-4b98807483_flattened.sol\":71108:71134  _transfer(from, to, value) */\n      tag_104\n        /* \"contract-4b98807483_flattened.sol\":71118:71122  from */\n      dup6\n        /* \"contract-4b98807483_flattened.sol\":71124:71126  to */\n      dup6\n        /* \"contract-4b98807483_flattened.sol\":71128:71133  value */\n      dup6\n        /* \"contract-4b98807483_flattened.sol\":71108:71117  _transfer */\n      tag_105\n        /* \"contract-4b98807483_flattened.sol\":71108:71134  _transfer(from, to, value) */\n      jump\t// in\n    tag_104:\n        /* \"contract-4b98807483_flattened.sol\":71151:71155  true */\n      0x01\n        /* \"contract-4b98807483_flattened.sol\":71144:71155  return true */\n      swap2\n      pop\n      pop\n        /* \"contract-4b98807483_flattened.sol\":70918:71162  function transferFrom(address from, address to, uint256 value) public virtual returns (bool) {... */\n      swap4\n      swap3\n      pop\n      pop\n      pop\n      jump\t// out\n        /* \"contract-4b98807483_flattened.sol\":68881:68963  function decimals() public view virtual returns (uint8) {... */\n    tag_42:\n        /* \"contract-4b98807483_flattened.sol\":68930:68935  uint8 */\n      0x00\n        /* \"contract-4b98807483_flattened.sol\":68954:68956  18 */\n      0x12\n        /* \"contract-4b98807483_flattened.sol\":68947:68956  return 18 */\n      swap1\n      pop\n        /* \"contract-4b98807483_flattened.sol\":68881:68963  function decimals() public view virtual returns (uint8) {... */\n      swap1\n      jump\t// out\n        /* \"contract-4b98807483_flattened.sol\":79472:79584  function DOMAIN_SEPARATOR() external view virtual returns (bytes32) {... */\n    tag_46:\n        /* \"contract-4b98807483_flattened.sol\":79531:79538  bytes32 */\n      0x00\n        /* \"contract-4b98807483_flattened.sol\":79557:79577  _domainSeparatorV4() */\n      tag_108\n        /* \"contract-4b98807483_flattened.sol\":79557:79575  _domainSeparatorV4 */\n      tag_109\n        /* \"contract-4b98807483_flattened.sol\":79557:79577  _domainSeparatorV4() */\n      jump\t// in\n    tag_108:\n        /* \"contract-4b98807483_flattened.sol\":79550:79577  return _domainSeparatorV4() */\n      swap1\n      pop\n        /* \"contract-4b98807483_flattened.sol\":79472:79584  function DOMAIN_SEPARATOR() external view virtual returns (bytes32) {... */\n      swap1\n      jump\t// out\n        /* \"contract-4b98807483_flattened.sol\":69178:69294  function balanceOf(address account) public view virtual returns (uint256) {... */\n    tag_52:\n        /* \"contract-4b98807483_flattened.sol\":69243:69250  uint256 */\n      0x00\n        /* \"contract-4b98807483_flattened.sol\":69269:69278  _balances */\n      dup1\n        /* \"contract-4b98807483_flattened.sol\":69269:69287  _balances[account] */\n      0x00\n        /* \"contract-4b98807483_flattened.sol\":69279:69286  account */\n      dup4\n        /* \"contract-4b98807483_flattened.sol\":69269:69287  _balances[account] */\n      0xffffffffffffffffffffffffffffffffffffffff\n      and\n      0xffffffffffffffffffffffffffffffffffffffff\n      and\n      dup2\n      mstore\n      0x20\n      add\n      swap1\n      dup2\n      mstore\n      0x20\n      add\n      0x00\n      keccak256\n      sload\n        /* \"contract-4b98807483_flattened.sol\":69262:69287  return _balances[account] */\n      swap1\n      pop\n        /* \"contract-4b98807483_flattened.sol\":69178:69294  function balanceOf(address account) public view virtual returns (uint256) {... */\n      swap2\n      swap1\n      pop\n      jump\t// out\n        /* \"contract-4b98807483_flattened.sol\":61742:61843  function renounceOwnership() public virtual onlyOwner {... */\n    tag_55:\n        /* \"contract-4b98807483_flattened.sol\":60980:60993  _checkOwner() */\n      tag_112\n        /* \"contract-4b98807483_flattened.sol\":60980:60991  _checkOwner */\n      tag_113\n        /* \"contract-4b98807483_flattened.sol\":60980:60993  _checkOwner() */\n      jump\t// in\n    tag_112:\n        /* \"contract-4b98807483_flattened.sol\":61806:61836  _transferOwnership(address(0)) */\n      tag_115\n        /* \"contract-4b98807483_flattened.sol\":61833:61834  0 */\n      0x00\n        /* \"contract-4b98807483_flattened.sol\":61806:61824  _transferOwnership */\n      tag_116\n        /* \"contract-4b98807483_flattened.sol\":61806:61836  _transferOwnership(address(0)) */\n      jump\t// in\n    tag_115:\n        /* \"contract-4b98807483_flattened.sol\":61742:61843  function renounceOwnership() public virtual onlyOwner {... */\n      jump\t// out\n        /* \"contract-4b98807483_flattened.sol\":79222:79365  function nonces(address owner) public view virtual override(IERC20Permit, Nonces) returns (uint256) {... */\n    tag_58:\n        /* \"contract-4b98807483_flattened.sol\":79313:79320  uint256 */\n      0x00\n        /* \"contract-4b98807483_flattened.sol\":79339:79358  super.nonces(owner) */\n      tag_118\n        /* \"contract-4b98807483_flattened.sol\":79352:79357  owner */\n      dup3\n        /* \"contract-4b98807483_flattened.sol\":79339:79351  super.nonces */\n      tag_119\n        /* \"contract-4b98807483_flattened.sol\":79339:79358  super.nonces(owner) */\n      jump\t// in\n    tag_118:\n        /* \"contract-4b98807483_flattened.sol\":79332:79358  return super.nonces(owner) */\n      swap1\n      pop\n        /* \"contract-4b98807483_flattened.sol\":79222:79365  function nonces(address owner) public view virtual override(IERC20Permit, Nonces) returns (uint256) {... */\n      swap2\n      swap1\n      pop\n      jump\t// out\n        /* \"contract-4b98807483_flattened.sol\":38813:39370  function eip712Domain()... */\n    tag_61:\n        /* \"contract-4b98807483_flattened.sol\":38911:38924  bytes1 fields */\n      0x00\n        /* \"contract-4b98807483_flattened.sol\":38938:38956  string memory name */\n      0x60\n        /* \"contract-4b98807483_flattened.sol\":38970:38991  string memory version */\n      dup1\n        /* \"contract-4b98807483_flattened.sol\":39005:39020  uint256 chainId */\n      0x00\n        /* \"contract-4b98807483_flattened.sol\":39034:39059  address verifyingContract */\n      dup1\n        /* \"contract-4b98807483_flattened.sol\":39073:39085  bytes32 salt */\n      0x00\n        /* \"contract-4b98807483_flattened.sol\":39099:39126  uint256[] memory extensions */\n      0x60\n        /* \"contract-4b98807483_flattened.sol\":39202:39215  _EIP712Name() */\n      tag_121\n        /* \"contract-4b98807483_flattened.sol\":39202:39213  _EIP712Name */\n      tag_122\n        /* \"contract-4b98807483_flattened.sol\":39202:39215  _EIP712Name() */\n      jump\t// in\n    tag_121:\n        /* \"contract-4b98807483_flattened.sol\":39229:39245  _EIP712Version() */\n      tag_123\n        /* \"contract-4b98807483_flattened.sol\":39229:39243  _EIP712Version */\n      tag_124\n        /* \"contract-4b98807483_flattened.sol\":39229:39245  _EIP712Version() */\n      jump\t// in\n    tag_123:\n        /* \"contract-4b98807483_flattened.sol\":39259:39272  block.chainid */\n      chainid\n        /* \"contract-4b98807483_flattened.sol\":39294:39298  this */\n      address\n        /* \"contract-4b98807483_flattened.sol\":39321:39322  0 */\n      0x00\n        /* \"contract-4b98807483_flattened.sol\":39313:39323  bytes32(0) */\n      dup1\n      shl\n        /* \"contract-4b98807483_flattened.sol\":39351:39352  0 */\n      0x00\n        /* \"contract-4b98807483_flattened.sol\":39337:39353  new uint256[](0) */\n      0xffffffffffffffff\n      dup2\n      gt\n      iszero\n      tag_125\n      jumpi\n      tag_126\n      tag_127\n      jump\t// in\n    tag_126:\n    tag_125:\n      mload(0x40)\n      swap1\n      dup1\n      dup3\n      mstore\n      dup1\n      0x20\n      mul\n      0x20\n      add\n      dup3\n      add\n      0x40\n      mstore\n      dup1\n      iszero\n      tag_128\n      jumpi\n      dup2\n      0x20\n      add\n      0x20\n      dup3\n      mul\n      dup1\n      calldatasize\n      dup4\n      calldatacopy\n      dup1\n      dup3\n      add\n      swap2\n      pop\n      pop\n      swap1\n      pop\n    tag_128:\n      pop\n        /* \"contract-4b98807483_flattened.sol\":39151:39363  return (... */\n      0x0f00000000000000000000000000000000000000000000000000000000000000\n      swap6\n      swap5\n      swap4\n      swap3\n      swap2\n      swap1\n      swap7\n      pop\n      swap7\n      pop\n      swap7\n      pop\n      swap7\n      pop\n      swap7\n      pop\n      swap7\n      pop\n      swap7\n      pop\n        /* \"contract-4b98807483_flattened.sol\":38813:39370  function eip712Domain()... */\n      swap1\n      swap2\n      swap3\n      swap4\n      swap5\n      swap6\n      swap7\n      jump\t// out\n        /* \"contract-4b98807483_flattened.sol\":61087:61172  function owner() public view virtual returns (address) {... */\n    tag_65:\n        /* \"contract-4b98807483_flattened.sol\":61133:61140  address */\n      0x00\n        /* \"contract-4b98807483_flattened.sol\":61159:61165  _owner */\n      0x08\n      0x00\n      swap1\n      sload\n      swap1\n      0x0100\n      exp\n      swap1\n      div\n      0xffffffffffffffffffffffffffffffffffffffff\n      and\n        /* \"contract-4b98807483_flattened.sol\":61152:61165  return _owner */\n      swap1\n      pop\n        /* \"contract-4b98807483_flattened.sol\":61087:61172  function owner() public view virtual returns (address) {... */\n      swap1\n      jump\t// out\n        /* \"contract-4b98807483_flattened.sol\":68155:68248  function symbol() public view virtual returns (string memory) {... */\n    tag_69:\n        /* \"contract-4b98807483_flattened.sol\":68202:68215  string memory */\n      0x60\n        /* \"contract-4b98807483_flattened.sol\":68234:68241  _symbol */\n      0x04\n        /* \"contract-4b98807483_flattened.sol\":68227:68241  return _symbol */\n      dup1\n      sload\n      tag_131\n      swap1\n      tag_89\n      jump\t// in\n    tag_131:\n      dup1\n      0x1f\n      add\n      0x20\n      dup1\n      swap2\n      div\n      mul\n      0x20\n      add\n      mload(0x40)\n      swap1\n      dup2\n      add\n      0x40\n      mstore\n      dup1\n      swap3\n      swap2\n      swap1\n      dup2\n      dup2\n      mstore\n      0x20\n      add\n      dup3\n      dup1\n      sload\n      tag_132\n      swap1\n      tag_89\n      jump\t// in\n    tag_132:\n      dup1\n      iszero\n      tag_133\n      jumpi\n      dup1\n      0x1f\n      lt\n      tag_134\n      jumpi\n      0x0100\n      dup1\n      dup4\n      sload\n      div\n      mul\n      dup4\n      mstore\n      swap2\n      0x20\n      add\n      swap2\n      jump(tag_133)\n    tag_134:\n      dup3\n      add\n      swap2\n      swap1\n      0x00\n      mstore\n      keccak256(0x00, 0x20)\n      swap1\n    tag_135:\n      dup2\n      sload\n      dup2\n      mstore\n      swap1\n      0x01\n      add\n      swap1\n      0x20\n      add\n      dup1\n      dup4\n      gt\n      tag_135\n      jumpi\n      dup3\n      swap1\n      sub\n      0x1f\n      and\n      dup3\n      add\n      swap2\n    tag_133:\n      pop\n      pop\n      pop\n      pop\n      pop\n      swap1\n      pop\n        /* \"contract-4b98807483_flattened.sol\":68155:68248  function symbol() public view virtual returns (string memory) {... */\n      swap1\n      jump\t// out\n        /* \"contract-4b98807483_flattened.sol\":69489:69667  function transfer(address to, uint256 value) public virtual returns (bool) {... */\n    tag_73:\n        /* \"contract-4b98807483_flattened.sol\":69558:69562  bool */\n      0x00\n        /* \"contract-4b98807483_flattened.sol\":69574:69587  address owner */\n      dup1\n        /* \"contract-4b98807483_flattened.sol\":69590:69602  _msgSender() */\n      tag_137\n        /* \"contract-4b98807483_flattened.sol\":69590:69600  _msgSender */\n      tag_96\n        /* \"contract-4b98807483_flattened.sol\":69590:69602  _msgSender() */\n      jump\t// in\n    tag_137:\n        /* \"contract-4b98807483_flattened.sol\":69574:69602  address owner = _msgSender() */\n      swap1\n      pop\n        /* \"contract-4b98807483_flattened.sol\":69612:69639  _transfer(owner, to, value) */\n      tag_138\n        /* \"contract-4b98807483_flattened.sol\":69622:69627  owner */\n      dup2\n        /* \"contract-4b98807483_flattened.sol\":69629:69631  to */\n      dup6\n        /* \"contract-4b98807483_flattened.sol\":69633:69638  value */\n      dup6\n        /* \"contract-4b98807483_flattened.sol\":69612:69621  _transfer */\n      tag_105\n        /* \"contract-4b98807483_flattened.sol\":69612:69639  _transfer(owner, to, value) */\n      jump\t// in\n    tag_138:\n        /* \"contract-4b98807483_flattened.sol\":69656:69660  true */\n      0x01\n        /* \"contract-4b98807483_flattened.sol\":69649:69660  return true */\n      swap2\n      pop\n      pop\n        /* \"contract-4b98807483_flattened.sol\":69489:69667  function transfer(address to, uint256 value) public virtual returns (bool) {... */\n      swap3\n      swap2\n      pop\n      pop\n      jump\t// out\n        /* \"contract-4b98807483_flattened.sol\":78496:79168  function permit(... */\n    tag_78:\n        /* \"contract-4b98807483_flattened.sol\":78717:78725  deadline */\n      dup4\n        /* \"contract-4b98807483_flattened.sol\":78699:78714  block.timestamp */\n      timestamp\n        /* \"contract-4b98807483_flattened.sol\":78699:78725  block.timestamp > deadline */\n      gt\n        /* \"contract-4b98807483_flattened.sol\":78695:78792  if (block.timestamp > deadline) {... */\n      iszero\n      tag_140\n      jumpi\n        /* \"contract-4b98807483_flattened.sol\":78772:78780  deadline */\n      dup4\n        /* \"contract-4b98807483_flattened.sol\":78748:78781  ERC2612ExpiredSignature(deadline) */\n      mload(0x40)\n      0x6279130200000000000000000000000000000000000000000000000000000000\n      dup2\n      mstore\n      0x04\n      add\n      tag_141\n      swap2\n      swap1\n      tag_35\n      jump\t// in\n    tag_141:\n      mload(0x40)\n      dup1\n      swap2\n      sub\n      swap1\n      revert\n        /* \"contract-4b98807483_flattened.sol\":78695:78792  if (block.timestamp > deadline) {... */\n    tag_140:\n        /* \"contract-4b98807483_flattened.sol\":78802:78820  bytes32 structHash */\n      0x00\n        /* \"contract-4b98807483_flattened.sol\":77838:77933  keccak256(\"Permit(address owner,address spender,uint256 value,uint256 nonce,uint256 deadline)\") */\n      0x6e71edae12b1b97f4d1f60370fef10105fa2faae0126114a169c64845d6126c9\n        /* \"contract-4b98807483_flattened.sol\":78861:78866  owner */\n      dup9\n        /* \"contract-4b98807483_flattened.sol\":78868:78875  spender */\n      dup9\n        /* \"contract-4b98807483_flattened.sol\":78877:78882  value */\n      dup9\n        /* \"contract-4b98807483_flattened.sol\":78884:78900  _useNonce(owner) */\n      tag_142\n        /* \"contract-4b98807483_flattened.sol\":78894:78899  owner */\n      dup13\n        /* \"contract-4b98807483_flattened.sol\":78884:78893  _useNonce */\n      tag_143\n        /* \"contract-4b98807483_flattened.sol\":78884:78900  _useNonce(owner) */\n      jump\t// in\n    tag_142:\n        /* \"contract-4b98807483_flattened.sol\":78902:78910  deadline */\n      dup10\n        /* \"contract-4b98807483_flattened.sol\":78833:78911  abi.encode(PERMIT_TYPEHASH, owner, spender, value, _useNonce(owner), deadline) */\n      add(0x20, mload(0x40))\n      tag_144\n      swap7\n      swap6\n      swap5\n      swap4\n      swap3\n      swap2\n      swap1\n      tag_145\n      jump\t// in\n    tag_144:\n      mload(0x40)\n      0x20\n      dup2\n      dup4\n      sub\n      sub\n      dup2\n      mstore\n      swap1\n      0x40\n      mstore\n        /* \"contract-4b98807483_flattened.sol\":78823:78912  keccak256(abi.encode(PERMIT_TYPEHASH, owner, spender, value, _useNonce(owner), deadline)) */\n      dup1\n      mload\n      swap1\n      0x20\n      add\n      keccak256\n        /* \"contract-4b98807483_flattened.sol\":78802:78912  bytes32 structHash = keccak256(abi.encode(PERMIT_TYPEHASH, owner, spender, value, _useNonce(owner), deadline)) */\n      swap1\n      pop\n        /* \"contract-4b98807483_flattened.sol\":78923:78935  bytes32 hash */\n      0x00\n        /* \"contract-4b98807483_flattened.sol\":78938:78966  _hashTypedDataV4(structHash) */\n      tag_146\n        /* \"contract-4b98807483_flattened.sol\":78955:78965  structHash */\n      dup3\n        /* \"contract-4b98807483_flattened.sol\":78938:78954  _hashTypedDataV4 */\n      tag_147\n        /* \"contract-4b98807483_flattened.sol\":78938:78966  _hashTypedDataV4(structHash) */\n      jump\t// in\n    tag_146:\n        /* \"contract-4b98807483_flattened.sol\":78923:78966  bytes32 hash = _hashTypedDataV4(structHash) */\n      swap1\n      pop\n        /* \"contract-4b98807483_flattened.sol\":78977:78991  address signer */\n      0x00\n        /* \"contract-4b98807483_flattened.sol\":78994:79022  ECDSA.recover(hash, v, r, s) */\n      tag_148\n        /* \"contract-4b98807483_flattened.sol\":79008:79012  hash */\n      dup3\n        /* \"contract-4b98807483_flattened.sol\":79014:79015  v */\n      dup8\n        /* \"contract-4b98807483_flattened.sol\":79017:79018  r */\n      dup8\n        /* \"contract-4b98807483_flattened.sol\":79020:79021  s */\n      dup8\n        /* \"contract-4b98807483_flattened.sol\":78994:79007  ECDSA.recover */\n      tag_149\n        /* \"contract-4b98807483_flattened.sol\":78994:79022  ECDSA.recover(hash, v, r, s) */\n      jump\t// in\n    tag_148:\n        /* \"contract-4b98807483_flattened.sol\":78977:79022  address signer = ECDSA.recover(hash, v, r, s) */\n      swap1\n      pop\n        /* \"contract-4b98807483_flattened.sol\":79046:79051  owner */\n      dup10\n        /* \"contract-4b98807483_flattened.sol\":79036:79051  signer != owner */\n      0xffffffffffffffffffffffffffffffffffffffff\n      and\n        /* \"contract-4b98807483_flattened.sol\":79036:79042  signer */\n      dup2\n        /* \"contract-4b98807483_flattened.sol\":79036:79051  signer != owner */\n      0xffffffffffffffffffffffffffffffffffffffff\n      and\n      eq\n        /* \"contract-4b98807483_flattened.sol\":79032:79120  if (signer != owner) {... */\n      tag_150\n      jumpi\n        /* \"contract-4b98807483_flattened.sol\":79095:79101  signer */\n      dup1\n        /* \"contract-4b98807483_flattened.sol\":79103:79108  owner */\n      dup11\n        /* \"contract-4b98807483_flattened.sol\":79074:79109  ERC2612InvalidSigner(signer, owner) */\n      mload(0x40)\n      0x4b800e4600000000000000000000000000000000000000000000000000000000\n      dup2\n      mstore\n      0x04\n      add\n      tag_151\n      swap3\n      swap2\n      swap1\n      tag_152\n      jump\t// in\n    tag_151:\n      mload(0x40)\n      dup1\n      swap2\n      sub\n      swap1\n      revert\n        /* \"contract-4b98807483_flattened.sol\":79032:79120  if (signer != owner) {... */\n    tag_150:\n        /* \"contract-4b98807483_flattened.sol\":79130:79161  _approve(owner, spender, value) */\n      tag_153\n        /* \"contract-4b98807483_flattened.sol\":79139:79144  owner */\n      dup11\n        /* \"contract-4b98807483_flattened.sol\":79146:79153  spender */\n      dup11\n        /* \"contract-4b98807483_flattened.sol\":79155:79160  value */\n      dup11\n        /* \"contract-4b98807483_flattened.sol\":79130:79138  _approve */\n      tag_98\n        /* \"contract-4b98807483_flattened.sol\":79130:79161  _approve(owner, spender, value) */\n      jump\t// in\n    tag_153:\n        /* \"contract-4b98807483_flattened.sol\":78685:79168  {... */\n      pop\n      pop\n      pop\n        /* \"contract-4b98807483_flattened.sol\":78496:79168  function permit(... */\n      pop\n      pop\n      pop\n      pop\n      pop\n      pop\n      pop\n      jump\t// out\n        /* \"contract-4b98807483_flattened.sol\":69725:69865  function allowance(address owner, address spender) public view virtual returns (uint256) {... */\n    tag_82:\n        /* \"contract-4b98807483_flattened.sol\":69805:69812  uint256 */\n      0x00\n        /* \"contract-4b98807483_flattened.sol\":69831:69842  _allowances */\n      0x01\n        /* \"contract-4b98807483_flattened.sol\":69831:69849  _allowances[owner] */\n      0x00\n        /* \"contract-4b98807483_flattened.sol\":69843:69848  owner */\n      dup5\n        /* \"contract-4b98807483_flattened.sol\":69831:69849  _allowances[owner] */\n      0xffffffffffffffffffffffffffffffffffffffff\n      and\n      0xffffffffffffffffffffffffffffffffffffffff\n      and\n      dup2\n      mstore\n      0x20\n      add\n      swap1\n      dup2\n      mstore\n      0x20\n      add\n      0x00\n      keccak256\n        /* \"contract-4b98807483_flattened.sol\":69831:69858  _allowances[owner][spender] */\n      0x00\n        /* \"contract-4b98807483_flattened.sol\":69850:69857  spender */\n      dup4\n        /* \"contract-4b98807483_flattened.sol\":69831:69858  _allowances[owner][spender] */\n      0xffffffffffffffffffffffffffffffffffffffff\n      and\n      0xffffffffffffffffffffffffffffffffffffffff\n      and\n      dup2\n      mstore\n      0x20\n      add\n      swap1\n      dup2\n      mstore\n      0x20\n      add\n      0x00\n      keccak256\n      sload\n        /* \"contract-4b98807483_flattened.sol\":69824:69858  return _allowances[owner][spender] */\n      swap1\n      pop\n        /* \"contract-4b98807483_flattened.sol\":69725:69865  function allowance(address owner, address spender) public view virtual returns (uint256) {... */\n      swap3\n      swap2\n      pop\n      pop\n      jump\t// out\n        /* \"contract-4b98807483_flattened.sol\":61992:62207  function transferOwnership(address newOwner) public virtual onlyOwner {... */\n    tag_86:\n        /* \"contract-4b98807483_flattened.sol\":60980:60993  _checkOwner() */\n      tag_156\n        /* \"contract-4b98807483_flattened.sol\":60980:60991  _checkOwner */\n      tag_113\n        /* \"contract-4b98807483_flattened.sol\":60980:60993  _checkOwner() */\n      jump\t// in\n    tag_156:\n        /* \"contract-4b98807483_flattened.sol\":62096:62097  0 */\n      0x00\n        /* \"contract-4b98807483_flattened.sol\":62076:62098  newOwner == address(0) */\n      0xffffffffffffffffffffffffffffffffffffffff\n      and\n        /* \"contract-4b98807483_flattened.sol\":62076:62084  newOwner */\n      dup2\n        /* \"contract-4b98807483_flattened.sol\":62076:62098  newOwner == address(0) */\n      0xffffffffffffffffffffffffffffffffffffffff\n      and\n      sub\n        /* \"contract-4b98807483_flattened.sol\":62072:62163  if (newOwner == address(0)) {... */\n      tag_158\n      jumpi\n        /* \"contract-4b98807483_flattened.sol\":62149:62150  0 */\n      0x00\n        /* \"contract-4b98807483_flattened.sol\":62121:62152  OwnableInvalidOwner(address(0)) */\n      mload(0x40)\n      0x1e4fbdf700000000000000000000000000000000000000000000000000000000\n      dup2\n      mstore\n      0x04\n      add\n      tag_159\n      swap2\n      swap1\n      tag_67\n      jump\t// in\n    tag_159:\n      mload(0x40)\n      dup1\n      swap2\n      sub\n      swap1\n      revert\n        /* \"contract-4b98807483_flattened.sol\":62072:62163  if (newOwner == address(0)) {... */\n    tag_158:\n        /* \"contract-4b98807483_flattened.sol\":62172:62200  _transferOwnership(newOwner) */\n      tag_160\n        /* \"contract-4b98807483_flattened.sol\":62191:62199  newOwner */\n      dup2\n        /* \"contract-4b98807483_flattened.sol\":62172:62190  _transferOwnership */\n      tag_116\n        /* \"contract-4b98807483_flattened.sol\":62172:62200  _transferOwnership(newOwner) */\n      jump\t// in\n    tag_160:\n        /* \"contract-4b98807483_flattened.sol\":61992:62207  function transferOwnership(address newOwner) public virtual onlyOwner {... */\n      pop\n      jump\t// out\n        /* \"contract-4b98807483_flattened.sol\":59159:59255  function _msgSender() internal view virtual returns (address) {... */\n    tag_96:\n        /* \"contract-4b98807483_flattened.sol\":59212:59219  address */\n      0x00\n        /* \"contract-4b98807483_flattened.sol\":59238:59248  msg.sender */\n      caller\n        /* \"contract-4b98807483_flattened.sol\":59231:59248  return msg.sender */\n      swap1\n      pop\n        /* \"contract-4b98807483_flattened.sol\":59159:59255  function _msgSender() internal view virtual returns (address) {... */\n      swap1\n      jump\t// out\n        /* \"contract-4b98807483_flattened.sol\":74868:74996  function _approve(address owner, address spender, uint256 value) internal {... */\n    tag_98:\n        /* \"contract-4b98807483_flattened.sol\":74952:74989  _approve(owner, spender, value, true) */\n      tag_163\n        /* \"contract-4b98807483_flattened.sol\":74961:74966  owner */\n      dup4\n        /* \"contract-4b98807483_flattened.sol\":74968:74975  spender */\n      dup4\n        /* \"contract-4b98807483_flattened.sol\":74977:74982  value */\n      dup4\n        /* \"contract-4b98807483_flattened.sol\":74984:74988  true */\n      0x01\n        /* \"contract-4b98807483_flattened.sol\":74952:74960  _approve */\n      tag_164\n        /* \"contract-4b98807483_flattened.sol\":74952:74989  _approve(owner, spender, value, true) */\n      jump\t// in\n    tag_163:\n        /* \"contract-4b98807483_flattened.sol\":74868:74996  function _approve(address owner, address spender, uint256 value) internal {... */\n      pop\n      pop\n      pop\n      jump\t// out\n        /* \"contract-4b98807483_flattened.sol\":76542:77019  function _spendAllowance(address owner, address spender, uint256 value) internal virtual {... */\n    tag_103:\n        /* \"contract-4b98807483_flattened.sol\":76641:76665  uint256 currentAllowance */\n      0x00\n        /* \"contract-4b98807483_flattened.sol\":76668:76693  allowance(owner, spender) */\n      tag_166\n        /* \"contract-4b98807483_flattened.sol\":76678:76683  owner */\n      dup5\n        /* \"contract-4b98807483_flattened.sol\":76685:76692  spender */\n      dup5\n        /* \"contract-4b98807483_flattened.sol\":76668:76677  allowance */\n      tag_82\n        /* \"contract-4b98807483_flattened.sol\":76668:76693  allowance(owner, spender) */\n      jump\t// in\n    tag_166:\n        /* \"contract-4b98807483_flattened.sol\":76641:76693  uint256 currentAllowance = allowance(owner, spender) */\n      swap1\n      pop\n        /* \"contract-4b98807483_flattened.sol\":76727:76744  type(uint256).max */\n      0xffffffffffffffffffffffffffffffffffffffffffffffffffffffffffffffff\n        /* \"contract-4b98807483_flattened.sol\":76707:76723  currentAllowance */\n      dup2\n        /* \"contract-4b98807483_flattened.sol\":76707:76744  currentAllowance != type(uint256).max */\n      eq\n        /* \"contract-4b98807483_flattened.sol\":76703:77013  if (currentAllowance != type(uint256).max) {... */\n      tag_167\n      jumpi\n        /* \"contract-4b98807483_flattened.sol\":76783:76788  value */\n      dup2\n        /* \"contract-4b98807483_flattened.sol\":76764:76780  currentAllowance */\n      dup2\n        /* \"contract-4b98807483_flattened.sol\":76764:76788  currentAllowance < value */\n      lt\n        /* \"contract-4b98807483_flattened.sol\":76760:76890  if (currentAllowance < value) {... */\n      iszero\n      tag_168\n      jumpi\n        /* \"contract-4b98807483_flattened.sol\":76842:76849  spender */\n      dup3\n        /* \"contract-4b98807483_flattened.sol\":76851:76867  currentAllowance */\n      dup2\n        /* \"contract-4b98807483_flattened.sol\":76869:76874  value */\n      dup4\n        /* \"contract-4b98807483_flattened.sol\":76815:76875  ERC20InsufficientAllowance(spender, currentAllowance, value) */\n      mload(0x40)\n      0xfb8f41b200000000000000000000000000000000000000000000000000000000\n      dup2\n      mstore\n      0x04\n      add\n      tag_169\n      swap4\n      swap3\n      swap2\n      swap1\n      tag_170\n      jump\t// in\n    tag_169:\n      mload(0x40)\n      dup1\n      swap2\n      sub\n      swap1\n      revert\n        /* \"contract-4b98807483_flattened.sol\":76760:76890  if (currentAllowance < value) {... */\n    tag_168:\n        /* \"contract-4b98807483_flattened.sol\":76931:76988  _approve(owner, spender, currentAllowance - value, false) */\n      tag_171\n        /* \"contract-4b98807483_flattened.sol\":76940:76945  owner */\n      dup5\n        /* \"contract-4b98807483_flattened.sol\":76947:76954  spender */\n      dup5\n        /* \"contract-4b98807483_flattened.sol\":76975:76980  value */\n      dup5\n        /* \"contract-4b98807483_flattened.sol\":76956:76972  currentAllowance */\n      dup5\n        /* \"contract-4b98807483_flattened.sol\":76956:76980  currentAllowance - value */\n      sub\n        /* \"contract-4b98807483_flattened.sol\":76982:76987  false */\n      0x00\n        /* \"contract-4b98807483_flattened.sol\":76931:76939  _approve */\n      tag_164\n        /* \"contract-4b98807483_flattened.sol\":76931:76988  _approve(owner, spender, currentAllowance - value, false) */\n      jump\t// in\n    tag_171:\n        /* \"contract-4b98807483_flattened.sol\":76703:77013  if (currentAllowance != type(uint256).max) {... */\n    tag_167:\n        /* \"contract-4b98807483_flattened.sol\":76631:77019  {... */\n      pop\n        /* \"contract-4b98807483_flattened.sol\":76542:77019  function _spendAllowance(address owner, address spender, uint256 value) internal virtual {... */\n      pop\n      pop\n      pop\n      jump\t// out\n        /* \"contract-4b98807483_flattened.sol\":71535:71835  function _transfer(address from, address to, uint256 value) internal {... */\n    tag_105:\n        /* \"contract-4b98807483_flattened.sol\":71634:71635  0 */\n      0x00\n        /* \"contract-4b98807483_flattened.sol\":71618:71636  from == address(0) */\n      0xffffffffffffffffffffffffffffffffffffffff\n      and\n        /* \"contract-4b98807483_flattened.sol\":71618:71622  from */\n      dup4\n        /* \"contract-4b98807483_flattened.sol\":71618:71636  from == address(0) */\n      0xffffffffffffffffffffffffffffffffffffffff\n      and\n      sub\n        /* \"contract-4b98807483_flattened.sol\":71614:71700  if (from == address(0)) {... */\n      tag_173\n      jumpi\n        /* \"contract-4b98807483_flattened.sol\":71686:71687  0 */\n      0x00\n        /* \"contract-4b98807483_flattened.sol\":71659:71689  ERC20InvalidSender(address(0)) */\n      mload(0x40)\n      0x96c6fd1e00000000000000000000000000000000000000000000000000000000\n      dup2\n      mstore\n      0x04\n      add\n      tag_174\n      swap2\n      swap1\n      tag_67\n      jump\t// in\n    tag_174:\n      mload(0x40)\n      dup1\n      swap2\n      sub\n      swap1\n      revert\n        /* \"contract-4b98807483_flattened.sol\":71614:71700  if (from == address(0)) {... */\n    tag_173:\n        /* \"contract-4b98807483_flattened.sol\":71727:71728  0 */\n      0x00\n        /* \"contract-4b98807483_flattened.sol\":71713:71729  to == address(0) */\n      0xffffffffffffffffffffffffffffffffffffffff\n      and\n        /* \"contract-4b98807483_flattened.sol\":71713:71715  to */\n      dup3\n        /* \"contract-4b98807483_flattened.sol\":71713:71729  to == address(0) */\n      0xffffffffffffffffffffffffffffffffffffffff\n      and\n      sub\n        /* \"contract-4b98807483_flattened.sol\":71709:71795  if (to == address(0)) {... */\n      tag_175\n      jumpi\n        /* \"contract-4b98807483_flattened.sol\":71781:71782  0 */\n      0x00\n        /* \"contract-4b98807483_flattened.sol\":71752:71784  ERC20InvalidReceiver(address(0)) */\n      mload(0x40)\n      0xec442f0500000000000000000000000000000000000000000000000000000000\n      dup2\n      mstore\n      0x04\n      add\n      tag_176\n      swap2\n      swap1\n      tag_67\n      jump\t// in\n    tag_176:\n      mload(0x40)\n      dup1\n      swap2\n      sub\n      swap1\n      revert\n        /* \"contract-4b98807483_flattened.sol\":71709:71795  if (to == address(0)) {... */\n    tag_175:\n        /* \"contract-4b98807483_flattened.sol\":71804:71828  _update(from, to, value) */\n      tag_177\n        /* \"contract-4b98807483_flattened.sol\":71812:71816  from */\n      dup4\n        /* \"contract-4b98807483_flattened.sol\":71818:71820  to */\n      dup4\n        /* \"contract-4b98807483_flattened.sol\":71822:71827  value */\n      dup4\n        /* \"contract-4b98807483_flattened.sol\":71804:71811  _update */\n      tag_178\n        /* \"contract-4b98807483_flattened.sol\":71804:71828  _update(from, to, value) */\n      jump\t// in\n    tag_177:\n        /* \"contract-4b98807483_flattened.sol\":71535:71835  function _transfer(address from, address to, uint256 value) internal {... */\n      pop\n      pop\n      pop\n      jump\t// out\n        /* \"contract-4b98807483_flattened.sol\":37514:37776  function _domainSeparatorV4() internal view returns (bytes32) {... */\n    tag_109:\n        /* \"contract-4b98807483_flattened.sol\":37567:37574  bytes32 */\n      0x00\n        /* \"contract-4b98807483_flattened.sol\":37607:37618  _cachedThis */\n      immutable(\"0xf2aed5d52b85e7b229d9a0bb201e12bdcbbc5fc133feb54c1cb531c3f7cf58ed\")\n        /* \"contract-4b98807483_flattened.sol\":37590:37618  address(this) == _cachedThis */\n      0xffffffffffffffffffffffffffffffffffffffff\n      and\n        /* \"contract-4b98807483_flattened.sol\":37598:37602  this */\n      address\n        /* \"contract-4b98807483_flattened.sol\":37590:37618  address(this) == _cachedThis */\n      0xffffffffffffffffffffffffffffffffffffffff\n      and\n      eq\n        /* \"contract-4b98807483_flattened.sol\":37590:37653  address(this) == _cachedThis && block.chainid == _cachedChainId */\n      dup1\n      iszero\n      tag_180\n      jumpi\n      pop\n        /* \"contract-4b98807483_flattened.sol\":37639:37653  _cachedChainId */\n      immutable(\"0x89dda32db2afb3470ad3a855ff08175ef365ece0147067a2a9b89c9351412201\")\n        /* \"contract-4b98807483_flattened.sol\":37622:37635  block.chainid */\n      chainid\n        /* \"contract-4b98807483_flattened.sol\":37622:37653  block.chainid == _cachedChainId */\n      eq\n        /* \"contract-4b98807483_flattened.sol\":37590:37653  address(this) == _cachedThis && block.chainid == _cachedChainId */\n    tag_180:\n        /* \"contract-4b98807483_flattened.sol\":37586:37770  if (address(this) == _cachedThis && block.chainid == _cachedChainId) {... */\n      iszero\n      tag_181\n      jumpi\n        /* \"contract-4b98807483_flattened.sol\":37676:37698  _cachedDomainSeparator */\n      immutable(\"0x3f9e555adc0bedaea160f26d13d68ea1bde6a5a9af64af415bccce823c8f9ad8\")\n        /* \"contract-4b98807483_flattened.sol\":37669:37698  return _cachedDomainSeparator */\n      swap1\n      pop\n      jump(tag_179)\n        /* \"contract-4b98807483_flattened.sol\":37586:37770  if (address(this) == _cachedThis && block.chainid == _cachedChainId) {... */\n    tag_181:\n        /* \"contract-4b98807483_flattened.sol\":37736:37759  _buildDomainSeparator() */\n      tag_183\n        /* \"contract-4b98807483_flattened.sol\":37736:37757  _buildDomainSeparator */\n      tag_184\n        /* \"contract-4b98807483_flattened.sol\":37736:37759  _buildDomainSeparator() */\n      jump\t// in\n    tag_183:\n        /* \"contract-4b98807483_flattened.sol\":37729:37759  return _buildDomainSeparator() */\n      swap1\n      pop\n        /* \"contract-4b98807483_flattened.sol\":37514:37776  function _domainSeparatorV4() internal view returns (bytes32) {... */\n    tag_179:\n      swap1\n      jump\t// out\n        /* \"contract-4b98807483_flattened.sol\":61245:61407  function _checkOwner() internal view virtual {... */\n    tag_113:\n        /* \"contract-4b98807483_flattened.sol\":61315:61327  _msgSender() */\n      tag_186\n        /* \"contract-4b98807483_flattened.sol\":61315:61325  _msgSender */\n      tag_96\n        /* \"contract-4b98807483_flattened.sol\":61315:61327  _msgSender() */\n      jump\t// in\n    tag_186:\n        /* \"contract-4b98807483_flattened.sol\":61304:61327  owner() != _msgSender() */\n      0xffffffffffffffffffffffffffffffffffffffff\n      and\n        /* \"contract-4b98807483_flattened.sol\":61304:61311  owner() */\n      tag_187\n        /* \"contract-4b98807483_flattened.sol\":61304:61309  owner */\n      tag_65\n        /* \"contract-4b98807483_flattened.sol\":61304:61311  owner() */\n      jump\t// in\n    tag_187:\n        /* \"contract-4b98807483_flattened.sol\":61304:61327  owner() != _msgSender() */\n      0xffffffffffffffffffffffffffffffffffffffff\n      and\n      eq\n        /* \"contract-4b98807483_flattened.sol\":61300:61401  if (owner() != _msgSender()) {... */\n      tag_188\n      jumpi\n        /* \"contract-4b98807483_flattened.sol\":61377:61389  _msgSender() */\n      tag_189\n        /* \"contract-4b98807483_flattened.sol\":61377:61387  _msgSender */\n      tag_96\n        /* \"contract-4b98807483_flattened.sol\":61377:61389  _msgSender() */\n      jump\t// in\n    tag_189:\n        /* \"contract-4b98807483_flattened.sol\":61350:61390  OwnableUnauthorizedAccount(_msgSender()) */\n      mload(0x40)\n      0x118cdaa700000000000000000000000000000000000000000000000000000000\n      dup2\n      mstore\n      0x04\n      add\n      tag_190\n      swap2\n      swap1\n      tag_67\n      jump\t// in\n    tag_190:\n      mload(0x40)\n      dup1\n      swap2\n      sub\n      swap1\n      revert\n        /* \"contract-4b98807483_flattened.sol\":61300:61401  if (owner() != _msgSender()) {... */\n    tag_188:\n        /* \"contract-4b98807483_flattened.sol\":61245:61407  function _checkOwner() internal view virtual {... */\n      jump\t// out\n        /* \"contract-4b98807483_flattened.sol\":62361:62548  function _transferOwnership(address newOwner) internal virtual {... */\n    tag_116:\n        /* \"contract-4b98807483_flattened.sol\":62434:62450  address oldOwner */\n      0x00\n        /* \"contract-4b98807483_flattened.sol\":62453:62459  _owner */\n      0x08\n      0x00\n      swap1\n      sload\n      swap1\n      0x0100\n      exp\n      swap1\n      div\n      0xffffffffffffffffffffffffffffffffffffffff\n      and\n        /* \"contract-4b98807483_flattened.sol\":62434:62459  address oldOwner = _owner */\n      swap1\n      pop\n        /* \"contract-4b98807483_flattened.sol\":62478:62486  newOwner */\n      dup2\n        /* \"contract-4b98807483_flattened.sol\":62469:62475  _owner */\n      0x08\n      0x00\n        /* \"contract-4b98807483_flattened.sol\":62469:62486  _owner = newOwner */\n      0x0100\n      exp\n      dup2\n      sload\n      dup2\n      0xffffffffffffffffffffffffffffffffffffffff\n      mul\n      not\n      and\n      swap1\n      dup4\n      0xffffffffffffffffffffffffffffffffffffffff\n      and\n      mul\n      or\n      swap1\n      sstore\n      pop\n        /* \"contract-4b98807483_flattened.sol\":62532:62540  newOwner */\n      dup2\n        /* \"contract-4b98807483_flattened.sol\":62501:62541  OwnershipTransferred(oldOwner, newOwner) */\n      0xffffffffffffffffffffffffffffffffffffffff\n      and\n        /* \"contract-4b98807483_flattened.sol\":62522:62530  oldOwner */\n      dup2\n        /* \"contract-4b98807483_flattened.sol\":62501:62541  OwnershipTransferred(oldOwner, newOwner) */\n      0xffffffffffffffffffffffffffffffffffffffff\n      and\n      0x8be0079c531659141344cd1fd0a4f28419497f9722a3daafe3b4186f6b6457e0\n      mload(0x40)\n      mload(0x40)\n      dup1\n      swap2\n      sub\n      swap1\n      log3\n        /* \"contract-4b98807483_flattened.sol\":62424:62548  {... */\n      pop\n        /* \"contract-4b98807483_flattened.sol\":62361:62548  function _transferOwnership(address newOwner) internal virtual {... */\n      pop\n      jump\t// out\n        /* \"contract-4b98807483_flattened.sol\":565:672  function nonces(address owner) public view virtual returns (uint256) {... */\n    tag_119:\n        /* \"contract-4b98807483_flattened.sol\":625:632  uint256 */\n      0x00\n        /* \"contract-4b98807483_flattened.sol\":651:658  _nonces */\n      0x07\n        /* \"contract-4b98807483_flattened.sol\":651:665  _nonces[owner] */\n      0x00\n        /* \"contract-4b98807483_flattened.sol\":659:664  owner */\n      dup4\n        /* \"contract-4b98807483_flattened.sol\":651:665  _nonces[owner] */\n      0xffffffffffffffffffffffffffffffffffffffff\n      and\n      0xffffffffffffffffffffffffffffffffffffffff\n      and\n      dup2\n      mstore\n      0x20\n      add\n      swap1\n      dup2\n      mstore\n      0x20\n      add\n      0x00\n      keccak256\n      sload\n        /* \"contract-4b98807483_flattened.sol\":644:665  return _nonces[owner] */\n      swap1\n      pop\n        /* \"contract-4b98807483_flattened.sol\":565:672  function nonces(address owner) public view virtual returns (uint256) {... */\n      swap2\n      swap1\n      pop\n      jump\t// out\n        /* \"contract-4b98807483_flattened.sol\":39690:39816  function _EIP712Name() internal view returns (string memory) {... */\n    tag_122:\n        /* \"contract-4b98807483_flattened.sol\":39736:39749  string memory */\n      0x60\n        /* \"contract-4b98807483_flattened.sol\":39768:39809  _name.toStringWithFallback(_nameFallback) */\n      tag_194\n        /* \"contract-4b98807483_flattened.sol\":39795:39808  _nameFallback */\n      0x05\n        /* \"contract-4b98807483_flattened.sol\":39768:39773  _name */\n      immutable(\"0xa7cd0fec000bc9bc829eee3f19124c6d92f9bf03bc5604d586b7a9d0b7293aeb\")\n        /* \"contract-4b98807483_flattened.sol\":39768:39794  _name.toStringWithFallback */\n      tag_195\n      swap1\n        /* \"contract-4b98807483_flattened.sol\":39768:39809  _name.toStringWithFallback(_nameFallback) */\n      swap2\n      swap1\n      0xffffffff\n      and\n      jump\t// in\n    tag_194:\n        /* \"contract-4b98807483_flattened.sol\":39761:39809  return _name.toStringWithFallback(_nameFallback) */\n      swap1\n      pop\n        /* \"contract-4b98807483_flattened.sol\":39690:39816  function _EIP712Name() internal view returns (string memory) {... */\n      swap1\n      jump\t// out\n        /* \"contract-4b98807483_flattened.sol\":40142:40277  function _EIP712Version() internal view returns (string memory) {... */\n    tag_124:\n        /* \"contract-4b98807483_flattened.sol\":40191:40204  string memory */\n      0x60\n        /* \"contract-4b98807483_flattened.sol\":40223:40270  _version.toStringWithFallback(_versionFallback) */\n      tag_197\n        /* \"contract-4b98807483_flattened.sol\":40253:40269  _versionFallback */\n      0x06\n        /* \"contract-4b98807483_flattened.sol\":40223:40231  _version */\n      immutable(\"0x2afe76337b531113eeb6984869209602297c0be432194d84882749ead3021a37\")\n        /* \"contract-4b98807483_flattened.sol\":40223:40252  _version.toStringWithFallback */\n      tag_195\n      swap1\n        /* \"contract-4b98807483_flattened.sol\":40223:40270  _version.toStringWithFallback(_versionFallback) */\n      swap2\n      swap1\n      0xffffffff\n      and\n      jump\t// in\n    tag_197:\n        /* \"contract-4b98807483_flattened.sol\":40216:40270  return _version.toStringWithFallback(_versionFallback) */\n      swap1\n      pop\n        /* \"contract-4b98807483_flattened.sol\":40142:40277  function _EIP712Version() internal view returns (string memory) {... */\n      swap1\n      jump\t// out\n        /* \"contract-4b98807483_flattened.sol\":786:1181  function _useNonce(address owner) internal virtual returns (uint256) {... */\n    tag_143:\n        /* \"contract-4b98807483_flattened.sol\":846:853  uint256 */\n      0x00\n        /* \"contract-4b98807483_flattened.sol\":1148:1155  _nonces */\n      0x07\n        /* \"contract-4b98807483_flattened.sol\":1148:1162  _nonces[owner] */\n      0x00\n        /* \"contract-4b98807483_flattened.sol\":1156:1161  owner */\n      dup4\n        /* \"contract-4b98807483_flattened.sol\":1148:1162  _nonces[owner] */\n      0xffffffffffffffffffffffffffffffffffffffff\n      and\n      0xffffffffffffffffffffffffffffffffffffffff\n      and\n      dup2\n      mstore\n      0x20\n      add\n      swap1\n      dup2\n      mstore\n      0x20\n      add\n      0x00\n      keccak256\n      0x00\n        /* \"contract-4b98807483_flattened.sol\":1148:1164  _nonces[owner]++ */\n      dup2\n      sload\n      dup1\n      swap3\n      swap2\n      swap1\n      0x01\n      add\n      swap2\n      swap1\n      pop\n      sstore\n        /* \"contract-4b98807483_flattened.sol\":1141:1164  return _nonces[owner]++ */\n      swap1\n      pop\n        /* \"contract-4b98807483_flattened.sol\":786:1181  function _useNonce(address owner) internal virtual returns (uint256) {... */\n      swap2\n      swap1\n      pop\n      jump\t// out\n        /* \"contract-4b98807483_flattened.sol\":38586:38762  function _hashTypedDataV4(bytes32 structHash) internal view virtual returns (bytes32) {... */\n    tag_147:\n        /* \"contract-4b98807483_flattened.sol\":38663:38670  bytes32 */\n      0x00\n        /* \"contract-4b98807483_flattened.sol\":38689:38755  MessageHashUtils.toTypedDataHash(_domainSeparatorV4(), structHash) */\n      tag_200\n        /* \"contract-4b98807483_flattened.sol\":38722:38742  _domainSeparatorV4() */\n      tag_201\n        /* \"contract-4b98807483_flattened.sol\":38722:38740  _domainSeparatorV4 */\n      tag_109\n        /* \"contract-4b98807483_flattened.sol\":38722:38742  _domainSeparatorV4() */\n      jump\t// in\n    tag_201:\n        /* \"contract-4b98807483_flattened.sol\":38744:38754  structHash */\n      dup4\n        /* \"contract-4b98807483_flattened.sol\":38689:38721  MessageHashUtils.toTypedDataHash */\n      tag_202\n        /* \"contract-4b98807483_flattened.sol\":38689:38755  MessageHashUtils.toTypedDataHash(_domainSeparatorV4(), structHash) */\n      jump\t// in\n    tag_200:\n        /* \"contract-4b98807483_flattened.sol\":38682:38755  return MessageHashUtils.toTypedDataHash(_domainSeparatorV4(), structHash) */\n      swap1\n      pop\n        /* \"contract-4b98807483_flattened.sol\":38586:38762  function _hashTypedDataV4(bytes32 structHash) internal view virtual returns (bytes32) {... */\n      swap2\n      swap1\n      pop\n      jump\t// out\n        /* \"contract-4b98807483_flattened.sol\":47122:47382  function recover(bytes32 hash, uint8 v, bytes32 r, bytes32 s) internal pure returns (address) {... */\n    tag_149:\n        /* \"contract-4b98807483_flattened.sol\":47207:47214  address */\n      0x00\n        /* \"contract-4b98807483_flattened.sol\":47227:47244  address recovered */\n      dup1\n        /* \"contract-4b98807483_flattened.sol\":47246:47264  RecoverError error */\n      0x00\n        /* \"contract-4b98807483_flattened.sol\":47266:47282  bytes32 errorArg */\n      dup1\n        /* \"contract-4b98807483_flattened.sol\":47286:47311  tryRecover(hash, v, r, s) */\n      tag_204\n        /* \"contract-4b98807483_flattened.sol\":47297:47301  hash */\n      dup9\n        /* \"contract-4b98807483_flattened.sol\":47303:47304  v */\n      dup9\n        /* \"contract-4b98807483_flattened.sol\":47306:47307  r */\n      dup9\n        /* \"contract-4b98807483_flattened.sol\":47309:47310  s */\n      dup9\n        /* \"contract-4b98807483_flattened.sol\":47286:47296  tryRecover */\n      tag_205\n        /* \"contract-4b98807483_flattened.sol\":47286:47311  tryRecover(hash, v, r, s) */\n      jump\t// in\n    tag_204:\n        /* \"contract-4b98807483_flattened.sol\":47226:47311  (address recovered, RecoverError error, bytes32 errorArg) = tryRecover(hash, v, r, s) */\n      swap3\n      pop\n      swap3\n      pop\n      swap3\n      pop\n        /* \"contract-4b98807483_flattened.sol\":47321:47349  _throwError(error, errorArg) */\n      tag_206\n        /* \"contract-4b98807483_flattened.sol\":47333:47338  error */\n      dup3\n        /* \"contract-4b98807483_flattened.sol\":47340:47348  errorArg */\n      dup3\n        /* \"contract-4b98807483_flattened.sol\":47321:47332  _throwError */\n      tag_207\n        /* \"contract-4b98807483_flattened.sol\":47321:47349  _throwError(error, errorArg) */\n      jump\t// in\n    tag_206:\n        /* \"contract-4b98807483_flattened.sol\":47366:47375  recovered */\n      dup3\n        /* \"contract-4b98807483_flattened.sol\":47359:47375  return recovered */\n      swap4\n      pop\n      pop\n      pop\n      pop\n        /* \"contract-4b98807483_flattened.sol\":47122:47382  function recover(bytes32 hash, uint8 v, bytes32 r, bytes32 s) internal pure returns (address) {... */\n      swap5\n      swap4\n      pop\n      pop\n      pop\n      pop\n      jump\t// out\n        /* \"contract-4b98807483_flattened.sol\":75828:76260  function _approve(address owner, address spender, uint256 value, bool emitEvent) internal virtual {... */\n    tag_164:\n        /* \"contract-4b98807483_flattened.sol\":75957:75958  0 */\n      0x00\n        /* \"contract-4b98807483_flattened.sol\":75940:75959  owner == address(0) */\n      0xffffffffffffffffffffffffffffffffffffffff\n      and\n        /* \"contract-4b98807483_flattened.sol\":75940:75945  owner */\n      dup5\n        /* \"contract-4b98807483_flattened.sol\":75940:75959  owner == address(0) */\n      0xffffffffffffffffffffffffffffffffffffffff\n      and\n      sub\n        /* \"contract-4b98807483_flattened.sol\":75936:76025  if (owner == address(0)) {... */\n      tag_209\n      jumpi\n        /* \"contract-4b98807483_flattened.sol\":76011:76012  0 */\n      0x00\n        /* \"contract-4b98807483_flattened.sol\":75982:76014  ERC20InvalidApprover(address(0)) */\n      mload(0x40)\n      0xe602df0500000000000000000000000000000000000000000000000000000000\n      dup2\n      mstore\n      0x04\n      add\n      tag_210\n      swap2\n      swap1\n      tag_67\n      jump\t// in\n    tag_210:\n      mload(0x40)\n      dup1\n      swap2\n      sub\n      swap1\n      revert\n        /* \"contract-4b98807483_flattened.sol\":75936:76025  if (owner == address(0)) {... */\n    tag_209:\n        /* \"contract-4b98807483_flattened.sol\":76057:76058  0 */\n      0x00\n        /* \"contract-4b98807483_flattened.sol\":76038:76059  spender == address(0) */\n      0xffffffffffffffffffffffffffffffffffffffff\n      and\n        /* \"contract-4b98807483_flattened.sol\":76038:76045  spender */\n      dup4\n        /* \"contract-4b98807483_flattened.sol\":76038:76059  spender == address(0) */\n      0xffffffffffffffffffffffffffffffffffffffff\n      and\n      sub\n        /* \"contract-4b98807483_flattened.sol\":76034:76124  if (spender == address(0)) {... */\n      tag_211\n      jumpi\n        /* \"contract-4b98807483_flattened.sol\":76110:76111  0 */\n      0x00\n        /* \"contract-4b98807483_flattened.sol\":76082:76113  ERC20InvalidSpender(address(0)) */\n      mload(0x40)\n      0x94280d6200000000000000000000000000000000000000000000000000000000\n      dup2\n      mstore\n      0x04\n      add\n      tag_212\n      swap2\n      swap1\n      tag_67\n      jump\t// in\n    tag_212:\n      mload(0x40)\n      dup1\n      swap2\n      sub\n      swap1\n      revert\n        /* \"contract-4b98807483_flattened.sol\":76034:76124  if (spender == address(0)) {... */\n    tag_211:\n        /* \"contract-4b98807483_flattened.sol\":76163:76168  value */\n      dup2\n        /* \"contract-4b98807483_flattened.sol\":76133:76144  _allowances */\n      0x01\n        /* \"contract-4b98807483_flattened.sol\":76133:76151  _allowances[owner] */\n      0x00\n        /* \"contract-4b98807483_flattened.sol\":76145:76150  owner */\n      dup7\n        /* \"contract-4b98807483_flattened.sol\":76133:76151  _allowances[owner] */\n      0xffffffffffffffffffffffffffffffffffffffff\n      and\n      0xffffffffffffffffffffffffffffffffffffffff\n      and\n      dup2\n      mstore\n      0x20\n      add\n      swap1\n      dup2\n      mstore\n      0x20\n      add\n      0x00\n      keccak256\n        /* \"contract-4b98807483_flattened.sol\":76133:76160  _allowances[owner][spender] */\n      0x00\n        /* \"contract-4b98807483_flattened.sol\":76152:76159  spender */\n      dup6\n        /* \"contract-4b98807483_flattened.sol\":76133:76160  _allowances[owner][spender] */\n      0xffffffffffffffffffffffffffffffffffffffff\n      and\n      0xffffffffffffffffffffffffffffffffffffffff\n      and\n      dup2\n      mstore\n      0x20\n      add\n      swap1\n      dup2\n      mstore\n      0x20\n      add\n      0x00\n      keccak256\n        /* \"contract-4b98807483_flattened.sol\":76133:76168  _allowances[owner][spender] = value */\n      dup2\n      swap1\n      sstore\n      pop\n        /* \"contract-4b98807483_flattened.sol\":76182:76191  emitEvent */\n      dup1\n        /* \"contract-4b98807483_flattened.sol\":76178:76254  if (emitEvent) {... */\n      iszero\n      tag_213\n      jumpi\n        /* \"contract-4b98807483_flattened.sol\":76228:76235  spender */\n      dup3\n        /* \"contract-4b98807483_flattened.sol\":76212:76243  Approval(owner, spender, value) */\n      0xffffffffffffffffffffffffffffffffffffffff\n      and\n        /* \"contract-4b98807483_flattened.sol\":76221:76226  owner */\n      dup5\n        /* \"contract-4b98807483_flattened.sol\":76212:76243  Approval(owner, spender, value) */\n      0xffffffffffffffffffffffffffffffffffffffff\n      and\n      0x8c5be1e5ebec7d5bd14f71427d1e84f3dd0314c0f7b2291e5b200ac8c7c3b925\n        /* \"contract-4b98807483_flattened.sol\":76237:76242  value */\n      dup5\n        /* \"contract-4b98807483_flattened.sol\":76212:76243  Approval(owner, spender, value) */\n      mload(0x40)\n      tag_214\n      swap2\n      swap1\n      tag_35\n      jump\t// in\n    tag_214:\n      mload(0x40)\n      dup1\n      swap2\n      sub\n      swap1\n      log3\n        /* \"contract-4b98807483_flattened.sol\":76178:76254  if (emitEvent) {... */\n    tag_213:\n        /* \"contract-4b98807483_flattened.sol\":75828:76260  function _approve(address owner, address spender, uint256 value, bool emitEvent) internal virtual {... */\n      pop\n      pop\n      pop\n      pop\n      jump\t// out\n        /* \"contract-4b98807483_flattened.sol\":72150:73257  function _update(address from, address to, uint256 value) internal virtual {... */\n    tag_178:\n        /* \"contract-4b98807483_flattened.sol\":72255:72256  0 */\n      0x00\n        /* \"contract-4b98807483_flattened.sol\":72239:72257  from == address(0) */\n      0xffffffffffffffffffffffffffffffffffffffff\n      and\n        /* \"contract-4b98807483_flattened.sol\":72239:72243  from */\n      dup4\n        /* \"contract-4b98807483_flattened.sol\":72239:72257  from == address(0) */\n      0xffffffffffffffffffffffffffffffffffffffff\n      and\n      sub\n        /* \"contract-4b98807483_flattened.sol\":72235:72775  if (from == address(0)) {... */\n      tag_216\n      jumpi\n        /* \"contract-4b98807483_flattened.sol\":72391:72396  value */\n      dup1\n        /* \"contract-4b98807483_flattened.sol\":72375:72387  _totalSupply */\n      0x02\n      0x00\n        /* \"contract-4b98807483_flattened.sol\":72375:72396  _totalSupply += value */\n      dup3\n      dup3\n      sload\n      tag_217\n      swap2\n      swap1\n      tag_218\n      jump\t// in\n    tag_217:\n      swap3\n      pop\n      pop\n      dup2\n      swap1\n      sstore\n      pop\n        /* \"contract-4b98807483_flattened.sol\":72235:72775  if (from == address(0)) {... */\n      jump(tag_219)\n    tag_216:\n        /* \"contract-4b98807483_flattened.sol\":72427:72446  uint256 fromBalance */\n      0x00\n        /* \"contract-4b98807483_flattened.sol\":72449:72458  _balances */\n      dup1\n        /* \"contract-4b98807483_flattened.sol\":72449:72464  _balances[from] */\n      0x00\n        /* \"contract-4b98807483_flattened.sol\":72459:72463  from */\n      dup6\n        /* \"contract-4b98807483_flattened.sol\":72449:72464  _balances[from] */\n      0xffffffffffffffffffffffffffffffffffffffff\n      and\n      0xffffffffffffffffffffffffffffffffffffffff\n      and\n      dup2\n      mstore\n      0x20\n      add\n      swap1\n      dup2\n      mstore\n      0x20\n      add\n      0x00\n      keccak256\n      sload\n        /* \"contract-4b98807483_flattened.sol\":72427:72464  uint256 fromBalance = _balances[from] */\n      swap1\n      pop\n        /* \"contract-4b98807483_flattened.sol\":72496:72501  value */\n      dup2\n        /* \"contract-4b98807483_flattened.sol\":72482:72493  fromBalance */\n      dup2\n        /* \"contract-4b98807483_flattened.sol\":72482:72501  fromBalance < value */\n      lt\n        /* \"contract-4b98807483_flattened.sol\":72478:72593  if (fromBalance < value) {... */\n      iszero\n      tag_220\n      jumpi\n        /* \"contract-4b98807483_flattened.sol\":72553:72557  from */\n      dup4\n        /* \"contract-4b98807483_flattened.sol\":72559:72570  fromBalance */\n      dup2\n        /* \"contract-4b98807483_flattened.sol\":72572:72577  value */\n      dup4\n        /* \"contract-4b98807483_flattened.sol\":72528:72578  ERC20InsufficientBalance(from, fromBalance, value) */\n      mload(0x40)\n      0xe450d38c00000000000000000000000000000000000000000000000000000000\n      dup2\n      mstore\n      0x04\n      add\n      tag_221\n      swap4\n      swap3\n      swap2\n      swap1\n      tag_170\n      jump\t// in\n    tag_221:\n      mload(0x40)\n      dup1\n      swap2\n      sub\n      swap1\n      revert\n        /* \"contract-4b98807483_flattened.sol\":72478:72593  if (fromBalance < value) {... */\n    tag_220:\n        /* \"contract-4b98807483_flattened.sol\":72745:72750  value */\n      dup2\n        /* \"contract-4b98807483_flattened.sol\":72731:72742  fromBalance */\n      dup2\n        /* \"contract-4b98807483_flattened.sol\":72731:72750  fromBalance - value */\n      sub\n        /* \"contract-4b98807483_flattened.sol\":72713:72722  _balances */\n      0x00\n        /* \"contract-4b98807483_flattened.sol\":72713:72728  _balances[from] */\n      dup1\n        /* \"contract-4b98807483_flattened.sol\":72723:72727  from */\n      dup7\n        /* \"contract-4b98807483_flattened.sol\":72713:72728  _balances[from] */\n      0xffffffffffffffffffffffffffffffffffffffff\n      and\n      0xffffffffffffffffffffffffffffffffffffffff\n      and\n      dup2\n      mstore\n      0x20\n      add\n      swap1\n      dup2\n      mstore\n      0x20\n      add\n      0x00\n      keccak256\n        /* \"contract-4b98807483_flattened.sol\":72713:72750  _balances[from] = fromBalance - value */\n      dup2\n      swap1\n      sstore\n      pop\n        /* \"contract-4b98807483_flattened.sol\":72413:72775  {... */\n      pop\n        /* \"contract-4b98807483_flattened.sol\":72235:72775  if (from == address(0)) {... */\n    tag_219:\n        /* \"contract-4b98807483_flattened.sol\":72803:72804  0 */\n      0x00\n        /* \"contract-4b98807483_flattened.sol\":72789:72805  to == address(0) */\n      0xffffffffffffffffffffffffffffffffffffffff\n      and\n        /* \"contract-4b98807483_flattened.sol\":72789:72791  to */\n      dup3\n        /* \"contract-4b98807483_flattened.sol\":72789:72805  to == address(0) */\n      0xffffffffffffffffffffffffffffffffffffffff\n      and\n      sub\n        /* \"contract-4b98807483_flattened.sol\":72785:73210  if (to == address(0)) {... */\n      tag_222\n      jumpi\n        /* \"contract-4b98807483_flattened.sol\":72968:72973  value */\n      dup1\n        /* \"contract-4b98807483_flattened.sol\":72952:72964  _totalSupply */\n      0x02\n      0x00\n        /* \"contract-4b98807483_flattened.sol\":72952:72973  _totalSupply -= value */\n      dup3\n      dup3\n      sload\n      sub\n      swap3\n      pop\n      pop\n      dup2\n      swap1\n      sstore\n      pop\n        /* \"contract-4b98807483_flattened.sol\":72785:73210  if (to == address(0)) {... */\n      jump(tag_223)\n    tag_222:\n        /* \"contract-4b98807483_flattened.sol\":73180:73185  value */\n      dup1\n        /* \"contract-4b98807483_flattened.sol\":73163:73172  _balances */\n      0x00\n        /* \"contract-4b98807483_flattened.sol\":73163:73176  _balances[to] */\n      dup1\n        /* \"contract-4b98807483_flattened.sol\":73173:73175  to */\n      dup5\n        /* \"contract-4b98807483_flattened.sol\":73163:73176  _balances[to] */\n      0xffffffffffffffffffffffffffffffffffffffff\n      and\n      0xffffffffffffffffffffffffffffffffffffffff\n      and\n      dup2\n      mstore\n      0x20\n      add\n      swap1\n      dup2\n      mstore\n      0x20\n      add\n      0x00\n      keccak256\n      0x00\n        /* \"contract-4b98807483_flattened.sol\":73163:73185  _balances[to] += value */\n      dup3\n      dup3\n      sload\n      add\n      swap3\n      pop\n      pop\n      dup2\n      swap1\n      sstore\n      pop\n        /* \"contract-4b98807483_flattened.sol\":72785:73210  if (to == address(0)) {... */\n    tag_223:\n        /* \"contract-4b98807483_flattened.sol\":73240:73242  to */\n      dup2\n        /* \"contract-4b98807483_flattened.sol\":73225:73250  Transfer(from, to, value) */\n      0xffffffffffffffffffffffffffffffffffffffff\n      and\n        /* \"contract-4b98807483_flattened.sol\":73234:73238  from */\n      dup4\n        /* \"contract-4b98807483_flattened.sol\":73225:73250  Transfer(from, to, value) */\n      0xffffffffffffffffffffffffffffffffffffffff\n      and\n      0xddf252ad1be2c89b69c2b068fc378daa952ba7f163c4a11628f55a4df523b3ef\n        /* \"contract-4b98807483_flattened.sol\":73244:73249  value */\n      dup4\n        /* \"contract-4b98807483_flattened.sol\":73225:73250  Transfer(from, to, value) */\n      mload(0x40)\n      tag_224\n      swap2\n      swap1\n      tag_35\n      jump\t// in\n    tag_224:\n      mload(0x40)\n      dup1\n      swap2\n      sub\n      swap1\n      log3\n        /* \"contract-4b98807483_flattened.sol\":72150:73257  function _update(address from, address to, uint256 value) internal virtual {... */\n      pop\n      pop\n      pop\n      jump\t// out\n        /* \"contract-4b98807483_flattened.sol\":37782:37961  function _buildDomainSeparator() private view returns (bytes32) {... */\n    tag_184:\n        /* \"contract-4b98807483_flattened.sol\":37837:37844  bytes32 */\n      0x00\n        /* \"contract-4b98807483_flattened.sol\":35748:35843  keccak256(\"EIP712Domain(string name,string version,uint256 chainId,address verifyingContract)\") */\n      0x8b73c3c69bb8fe3d512ecc4cf759cc79239f7b179b0ffacaa9a75d522b39400f\n        /* \"contract-4b98807483_flattened.sol\":37895:37906  _hashedName */\n      immutable(\"0xf9ba965def30954c13b9f17655d4bfcf079e819f9cc42b75928cd97e2c9f9020\")\n        /* \"contract-4b98807483_flattened.sol\":37908:37922  _hashedVersion */\n      immutable(\"0x5444bf99e2aaa84d0c0adba4902ca441e981a14d987060ddd53a6e4272e74bca\")\n        /* \"contract-4b98807483_flattened.sol\":37924:37937  block.chainid */\n      chainid\n        /* \"contract-4b98807483_flattened.sol\":37947:37951  this */\n      address\n        /* \"contract-4b98807483_flattened.sol\":37873:37953  abi.encode(TYPE_HASH, _hashedName, _hashedVersion, block.chainid, address(this)) */\n      add(0x20, mload(0x40))\n      tag_226\n      swap6\n      swap5\n      swap4\n      swap3\n      swap2\n      swap1\n      tag_227\n      jump\t// in\n    tag_226:\n      mload(0x40)\n      0x20\n      dup2\n      dup4\n      sub\n      sub\n      dup2\n      mstore\n      swap1\n      0x40\n      mstore\n        /* \"contract-4b98807483_flattened.sol\":37863:37954  keccak256(abi.encode(TYPE_HASH, _hashedName, _hashedVersion, block.chainid, address(this))) */\n      dup1\n      mload\n      swap1\n      0x20\n      add\n      keccak256\n        /* \"contract-4b98807483_flattened.sol\":37856:37954  return keccak256(abi.encode(TYPE_HASH, _hashedName, _hashedVersion, block.chainid, address(this))) */\n      swap1\n      pop\n        /* \"contract-4b98807483_flattened.sol\":37782:37961  function _buildDomainSeparator() private view returns (bytes32) {... */\n      swap1\n      jump\t// out\n        /* \"contract-4b98807483_flattened.sol\":9624:9891  function toStringWithFallback(ShortString value, string storage store) internal pure returns (string memory) {... */\n    tag_195:\n        /* \"contract-4b98807483_flattened.sol\":9718:9731  string memory */\n      0x60\n        /* \"contract-4b98807483_flattened.sol\":7629:7695  0x00000000000000000000000000000000000000000000000000000000000000FF */\n      0xff\n        /* \"contract-4b98807483_flattened.sol\":9776:9793  FALLBACK_SENTINEL */\n      0x00\n      shl\n        /* \"contract-4b98807483_flattened.sol\":9766:9771  value */\n      dup4\n        /* \"contract-4b98807483_flattened.sol\":9747:9793  ShortString.unwrap(value) != FALLBACK_SENTINEL */\n      eq\n        /* \"contract-4b98807483_flattened.sol\":9743:9885  if (ShortString.unwrap(value) != FALLBACK_SENTINEL) {... */\n      tag_229\n      jumpi\n        /* \"contract-4b98807483_flattened.sol\":9816:9831  toString(value) */\n      tag_230\n        /* \"contract-4b98807483_flattened.sol\":9825:9830  value */\n      dup4\n        /* \"contract-4b98807483_flattened.sol\":9816:9824  toString */\n      tag_231\n        /* \"contract-4b98807483_flattened.sol\":9816:9831  toString(value) */\n      jump\t// in\n    tag_230:\n        /* \"contract-4b98807483_flattened.sol\":9809:9831  return toString(value) */\n      swap1\n      pop\n      jump(tag_228)\n        /* \"contract-4b98807483_flattened.sol\":9743:9885  if (ShortString.unwrap(value) != FALLBACK_SENTINEL) {... */\n    tag_229:\n        /* \"contract-4b98807483_flattened.sol\":9869:9874  store */\n      dup2\n        /* \"contract-4b98807483_flattened.sol\":9862:9874  return store */\n      dup1\n      sload\n      tag_233\n      swap1\n      tag_89\n      jump\t// in\n    tag_233:\n      dup1\n      0x1f\n      add\n      0x20\n      dup1\n      swap2\n      div\n      mul\n      0x20\n      add\n      mload(0x40)\n      swap1\n      dup2\n      add\n      0x40\n      mstore\n      dup1\n      swap3\n      swap2\n      swap1\n      dup2\n      dup2\n      mstore\n      0x20\n      add\n      dup3\n      dup1\n      sload\n      tag_234\n      swap1\n      tag_89\n      jump\t// in\n    tag_234:\n      dup1\n      iszero\n      tag_235\n      jumpi\n      dup1\n      0x1f\n      lt\n      tag_236\n      jumpi\n      0x0100\n      dup1\n      dup4\n      sload\n      div\n      mul\n      dup4\n      mstore\n      swap2\n      0x20\n      add\n      swap2\n      jump(tag_235)\n    tag_236:\n      dup3\n      add\n      swap2\n      swap1\n      0x00\n      mstore\n      keccak256(0x00, 0x20)\n      swap1\n    tag_237:\n      dup2\n      sload\n      dup2\n      mstore\n      swap1\n      0x01\n      add\n      swap1\n      0x20\n      add\n      dup1\n      dup4\n      gt\n      tag_237\n      jumpi\n      dup3\n      swap1\n      sub\n      0x1f\n      and\n      dup3\n      add\n      swap2\n    tag_235:\n      pop\n      pop\n      pop\n      pop\n      pop\n      swap1\n      pop\n        /* \"contract-4b98807483_flattened.sol\":9624:9891  function toStringWithFallback(ShortString value, string storage store) internal pure returns (string memory) {... */\n    tag_228:\n      swap3\n      swap2\n      pop\n      pop\n      jump\t// out\n        /* \"contract-4b98807483_flattened.sol\":33399:33800  function toTypedDataHash(bytes32 domainSeparator, bytes32 structHash) internal pure returns (bytes32 digest) {... */\n    tag_202:\n        /* \"contract-4b98807483_flattened.sol\":33492:33506  bytes32 digest */\n      0x00\n        /* \"contract-4b98807483_flattened.sol\":33601:33605  0x40 */\n      0x40\n        /* \"contract-4b98807483_flattened.sol\":33595:33606  mload(0x40) */\n      mload\n        /* \"contract-4b98807483_flattened.sol\":33631:33641  hex\"19_01\" */\n      0x1901000000000000000000000000000000000000000000000000000000000000\n        /* \"contract-4b98807483_flattened.sol\":33626:33629  ptr */\n      dup2\n        /* \"contract-4b98807483_flattened.sol\":33619:33642  mstore(ptr, hex\"19_01\") */\n      mstore\n        /* \"contract-4b98807483_flattened.sol\":33678:33693  domainSeparator */\n      dup4\n        /* \"contract-4b98807483_flattened.sol\":33671:33675  0x02 */\n      0x02\n        /* \"contract-4b98807483_flattened.sol\":33666:33669  ptr */\n      dup3\n        /* \"contract-4b98807483_flattened.sol\":33662:33676  add(ptr, 0x02) */\n      add\n        /* \"contract-4b98807483_flattened.sol\":33655:33694  mstore(add(ptr, 0x02), domainSeparator) */\n      mstore\n        /* \"contract-4b98807483_flattened.sol\":33730:33740  structHash */\n      dup3\n        /* \"contract-4b98807483_flattened.sol\":33723:33727  0x22 */\n      0x22\n        /* \"contract-4b98807483_flattened.sol\":33718:33721  ptr */\n      dup3\n        /* \"contract-4b98807483_flattened.sol\":33714:33728  add(ptr, 0x22) */\n      add\n        /* \"contract-4b98807483_flattened.sol\":33707:33741  mstore(add(ptr, 0x22), structHash) */\n      mstore\n        /* \"contract-4b98807483_flattened.sol\":33779:33783  0x42 */\n      0x42\n        /* \"contract-4b98807483_flattened.sol\":33774:33777  ptr */\n      dup2\n        /* \"contract-4b98807483_flattened.sol\":33764:33784  keccak256(ptr, 0x42) */\n      keccak256\n        /* \"contract-4b98807483_flattened.sol\":33754:33784  digest := keccak256(ptr, 0x42) */\n      swap2\n      pop\n        /* \"contract-4b98807483_flattened.sol\":33570:33794  {... */\n      pop\n        /* \"contract-4b98807483_flattened.sol\":33399:33800  function toTypedDataHash(bytes32 domainSeparator, bytes32 structHash) internal pure returns (bytes32 digest) {... */\n      swap3\n      swap2\n      pop\n      pop\n      jump\t// out\n        /* \"contract-4b98807483_flattened.sol\":45459:46989  function tryRecover(... */\n    tag_205:\n        /* \"contract-4b98807483_flattened.sol\":45585:45592  address */\n      0x00\n        /* \"contract-4b98807483_flattened.sol\":45594:45606  RecoverError */\n      dup1\n        /* \"contract-4b98807483_flattened.sol\":45608:45615  bytes32 */\n      0x00\n        /* \"contract-4b98807483_flattened.sol\":46518:46584  0x7FFFFFFFFFFFFFFFFFFFFFFFFFFFFFFF5D576E7357A4501DDFE92F46681B20A0 */\n      0x7fffffffffffffffffffffffffffffff5d576e7357a4501ddfe92f46681b20a0\n        /* \"contract-4b98807483_flattened.sol\":46513:46514  s */\n      dup5\n        /* \"contract-4b98807483_flattened.sol\":46505:46515  uint256(s) */\n      0x00\n      shr\n        /* \"contract-4b98807483_flattened.sol\":46505:46584  uint256(s) > 0x7FFFFFFFFFFFFFFFFFFFFFFFFFFFFFFF5D576E7357A4501DDFE92F46681B20A0 */\n      gt\n        /* \"contract-4b98807483_flattened.sol\":46501:46665  if (uint256(s) > 0x7FFFFFFFFFFFFFFFFFFFFFFFFFFFFFFF5D576E7357A4501DDFE92F46681B20A0) {... */\n      iszero\n      tag_240\n      jumpi\n        /* \"contract-4b98807483_flattened.sol\":46616:46617  0 */\n      0x00\n        /* \"contract-4b98807483_flattened.sol\":46620:46650  RecoverError.InvalidSignatureS */\n      0x03\n        /* \"contract-4b98807483_flattened.sol\":46652:46653  s */\n      dup6\n        /* \"contract-4b98807483_flattened.sol\":46600:46654  return (address(0), RecoverError.InvalidSignatureS, s) */\n      swap3\n      pop\n      swap3\n      pop\n      swap3\n      pop\n      jump(tag_239)\n        /* \"contract-4b98807483_flattened.sol\":46501:46665  if (uint256(s) > 0x7FFFFFFFFFFFFFFFFFFFFFFFFFFFFFFF5D576E7357A4501DDFE92F46681B20A0) {... */\n    tag_240:\n        /* \"contract-4b98807483_flattened.sol\":46759:46773  address signer */\n      0x00\n        /* \"contract-4b98807483_flattened.sol\":46776:46800  ecrecover(hash, v, r, s) */\n      0x01\n        /* \"contract-4b98807483_flattened.sol\":46786:46790  hash */\n      dup9\n        /* \"contract-4b98807483_flattened.sol\":46792:46793  v */\n      dup9\n        /* \"contract-4b98807483_flattened.sol\":46795:46796  r */\n      dup9\n        /* \"contract-4b98807483_flattened.sol\":46798:46799  s */\n      dup9\n        /* \"contract-4b98807483_flattened.sol\":46776:46800  ecrecover(hash, v, r, s) */\n      mload(0x40)\n      0x00\n      dup2\n      mstore\n      0x20\n      add\n      0x40\n      mstore\n      mload(0x40)\n      tag_241\n      swap5\n      swap4\n      swap3\n      swap2\n      swap1\n      tag_242\n      jump\t// in\n    tag_241:\n      0x20\n      mload(0x40)\n      0x20\n      dup2\n      sub\n      swap1\n      dup1\n      dup5\n      sub\n      swap1\n      dup6\n      gas\n      staticcall\n      iszero\n      dup1\n      iszero\n      tag_244\n      jumpi\n      returndatasize\n      0x00\n      dup1\n      returndatacopy\n      revert(0x00, returndatasize)\n    tag_244:\n      pop\n      pop\n      pop\n      mload(sub(mload(0x40), 0x20))\n        /* \"contract-4b98807483_flattened.sol\":46759:46800  address signer = ecrecover(hash, v, r, s) */\n      swap1\n      pop\n        /* \"contract-4b98807483_flattened.sol\":46832:46833  0 */\n      0x00\n        /* \"contract-4b98807483_flattened.sol\":46814:46834  signer == address(0) */\n      0xffffffffffffffffffffffffffffffffffffffff\n      and\n        /* \"contract-4b98807483_flattened.sol\":46814:46820  signer */\n      dup2\n        /* \"contract-4b98807483_flattened.sol\":46814:46834  signer == address(0) */\n      0xffffffffffffffffffffffffffffffffffffffff\n      and\n      sub\n        /* \"contract-4b98807483_flattened.sol\":46810:46923  if (signer == address(0)) {... */\n      tag_245\n      jumpi\n        /* \"contract-4b98807483_flattened.sol\":46866:46867  0 */\n      0x00\n        /* \"contract-4b98807483_flattened.sol\":46870:46899  RecoverError.InvalidSignature */\n      0x01\n        /* \"contract-4b98807483_flattened.sol\":46909:46910  0 */\n      0x00\n        /* \"contract-4b98807483_flattened.sol\":46901:46911  bytes32(0) */\n      dup1\n      shl\n        /* \"contract-4b98807483_flattened.sol\":46850:46912  return (address(0), RecoverError.InvalidSignature, bytes32(0)) */\n      swap4\n      pop\n      swap4\n      pop\n      swap4\n      pop\n      pop\n      jump(tag_239)\n        /* \"contract-4b98807483_flattened.sol\":46810:46923  if (signer == address(0)) {... */\n    tag_245:\n        /* \"contract-4b98807483_flattened.sol\":46941:46947  signer */\n      dup1\n        /* \"contract-4b98807483_flattened.sol\":46949:46969  RecoverError.NoError */\n      0x00\n        /* \"contract-4b98807483_flattened.sol\":46979:46980  0 */\n      dup1\n        /* \"contract-4b98807483_flattened.sol\":46971:46981  bytes32(0) */\n      0x00\n      shl\n        /* \"contract-4b98807483_flattened.sol\":46933:46982  return (signer, RecoverError.NoError, bytes32(0)) */\n      swap4\n      pop\n      swap4\n      pop\n      swap4\n      pop\n      pop\n        /* \"contract-4b98807483_flattened.sol\":45459:46989  function tryRecover(... */\n    tag_239:\n      swap5\n      pop\n      swap5\n      pop\n      swap5\n      swap2\n      pop\n      pop\n      jump\t// out\n        /* \"contract-4b98807483_flattened.sol\":47515:48047  function _throwError(RecoverError error, bytes32 errorArg) private pure {... */\n    tag_207:\n        /* \"contract-4b98807483_flattened.sol\":47610:47630  RecoverError.NoError */\n      0x00\n        /* \"contract-4b98807483_flattened.sol\":47601:47630  error == RecoverError.NoError */\n      0x03\n      dup2\n      gt\n      iszero\n      tag_247\n      jumpi\n      tag_248\n      tag_249\n      jump\t// in\n    tag_248:\n    tag_247:\n        /* \"contract-4b98807483_flattened.sol\":47601:47606  error */\n      dup3\n        /* \"contract-4b98807483_flattened.sol\":47601:47630  error == RecoverError.NoError */\n      0x03\n      dup2\n      gt\n      iszero\n      tag_250\n      jumpi\n      tag_251\n      tag_249\n      jump\t// in\n    tag_251:\n    tag_250:\n      sub\n        /* \"contract-4b98807483_flattened.sol\":47597:48041  if (error == RecoverError.NoError) {... */\n      iszero\n        /* \"contract-4b98807483_flattened.sol\":47646:47653  return; */\n      tag_246\n        /* \"contract-4b98807483_flattened.sol\":47597:48041  if (error == RecoverError.NoError) {... */\n      jumpi\n        /* \"contract-4b98807483_flattened.sol\":47706:47735  RecoverError.InvalidSignature */\n      0x01\n        /* \"contract-4b98807483_flattened.sol\":47697:47735  error == RecoverError.InvalidSignature */\n      0x03\n      dup2\n      gt\n      iszero\n      tag_254\n      jumpi\n      tag_255\n      tag_249\n      jump\t// in\n    tag_255:\n    tag_254:\n        /* \"contract-4b98807483_flattened.sol\":47697:47702  error */\n      dup3\n        /* \"contract-4b98807483_flattened.sol\":47697:47735  error == RecoverError.InvalidSignature */\n      0x03\n      dup2\n      gt\n      iszero\n      tag_256\n      jumpi\n      tag_257\n      tag_249\n      jump\t// in\n    tag_257:\n    tag_256:\n      sub\n        /* \"contract-4b98807483_flattened.sol\":47693:48041  if (error == RecoverError.InvalidSignature) {... */\n      tag_258\n      jumpi\n        /* \"contract-4b98807483_flattened.sol\":47758:47781  ECDSAInvalidSignature() */\n      mload(0x40)\n      0xf645eedf00000000000000000000000000000000000000000000000000000000\n      dup2\n      mstore\n      0x04\n      add\n      mload(0x40)\n      dup1\n      swap2\n      sub\n      swap1\n      revert\n        /* \"contract-4b98807483_flattened.sol\":47693:48041  if (error == RecoverError.InvalidSignature) {... */\n    tag_258:\n        /* \"contract-4b98807483_flattened.sol\":47811:47846  RecoverError.InvalidSignatureLength */\n      0x02\n        /* \"contract-4b98807483_flattened.sol\":47802:47846  error == RecoverError.InvalidSignatureLength */\n      0x03\n      dup2\n      gt\n      iszero\n      tag_260\n      jumpi\n      tag_261\n      tag_249\n      jump\t// in\n    tag_261:\n    tag_260:\n        /* \"contract-4b98807483_flattened.sol\":47802:47807  error */\n      dup3\n        /* \"contract-4b98807483_flattened.sol\":47802:47846  error == RecoverError.InvalidSignatureLength */\n      0x03\n      dup2\n      gt\n      iszero\n      tag_262\n      jumpi\n      tag_263\n      tag_249\n      jump\t// in\n    tag_263:\n    tag_262:\n      sub\n        /* \"contract-4b98807483_flattened.sol\":47798:48041  if (error == RecoverError.InvalidSignatureLength) {... */\n      tag_264\n      jumpi\n        /* \"contract-4b98807483_flattened.sol\":47905:47913  errorArg */\n      dup1\n        /* \"contract-4b98807483_flattened.sol\":47897:47914  uint256(errorArg) */\n      0x00\n      shr\n        /* \"contract-4b98807483_flattened.sol\":47869:47915  ECDSAInvalidSignatureLength(uint256(errorArg)) */\n      mload(0x40)\n      0xfce698f700000000000000000000000000000000000000000000000000000000\n      dup2\n      mstore\n      0x04\n      add\n      tag_265\n      swap2\n      swap1\n      tag_35\n      jump\t// in\n    tag_265:\n      mload(0x40)\n      dup1\n      swap2\n      sub\n      swap1\n      revert\n        /* \"contract-4b98807483_flattened.sol\":47798:48041  if (error == RecoverError.InvalidSignatureLength) {... */\n    tag_264:\n        /* \"contract-4b98807483_flattened.sol\":47945:47975  RecoverError.InvalidSignatureS */\n      0x03\n        /* \"contract-4b98807483_flattened.sol\":47936:47975  error == RecoverError.InvalidSignatureS */\n      dup1\n      dup2\n      gt\n      iszero\n      tag_267\n      jumpi\n      tag_268\n      tag_249\n      jump\t// in\n    tag_268:\n    tag_267:\n        /* \"contract-4b98807483_flattened.sol\":47936:47941  error */\n      dup3\n        /* \"contract-4b98807483_flattened.sol\":47936:47975  error == RecoverError.InvalidSignatureS */\n      0x03\n      dup2\n      gt\n      iszero\n      tag_269\n      jumpi\n      tag_270\n      tag_249\n      jump\t// in\n    tag_270:\n    tag_269:\n      sub\n        /* \"contract-4b98807483_flattened.sol\":47932:48041  if (error == RecoverError.InvalidSignatureS) {... */\n      tag_271\n      jumpi\n        /* \"contract-4b98807483_flattened.sol\":48021:48029  errorArg */\n      dup1\n        /* \"contract-4b98807483_flattened.sol\":47998:48030  ECDSAInvalidSignatureS(errorArg) */\n      mload(0x40)\n      0xd78bce0c00000000000000000000000000000000000000000000000000000000\n      dup2\n      mstore\n      0x04\n      add\n      tag_272\n      swap2\n      swap1\n      tag_48\n      jump\t// in\n    tag_272:\n      mload(0x40)\n      dup1\n      swap2\n      sub\n      swap1\n      revert\n        /* \"contract-4b98807483_flattened.sol\":47932:48041  if (error == RecoverError.InvalidSignatureS) {... */\n    tag_271:\n        /* \"contract-4b98807483_flattened.sol\":47515:48047  function _throwError(RecoverError error, bytes32 errorArg) private pure {... */\n    tag_246:\n      pop\n      pop\n      jump\t// out\n        /* \"contract-4b98807483_flattened.sol\":8317:8722  function toString(ShortString sstr) internal pure returns (string memory) {... */\n    tag_231:\n        /* \"contract-4b98807483_flattened.sol\":8376:8389  string memory */\n      0x60\n        /* \"contract-4b98807483_flattened.sol\":8401:8412  uint256 len */\n      0x00\n        /* \"contract-4b98807483_flattened.sol\":8415:8431  byteLength(sstr) */\n      tag_274\n        /* \"contract-4b98807483_flattened.sol\":8426:8430  sstr */\n      dup4\n        /* \"contract-4b98807483_flattened.sol\":8415:8425  byteLength */\n      tag_275\n        /* \"contract-4b98807483_flattened.sol\":8415:8431  byteLength(sstr) */\n      jump\t// in\n    tag_274:\n        /* \"contract-4b98807483_flattened.sol\":8401:8431  uint256 len = byteLength(sstr) */\n      swap1\n      pop\n        /* \"contract-4b98807483_flattened.sol\":8519:8536  string memory str */\n      0x00\n        /* \"contract-4b98807483_flattened.sol\":8550:8552  32 */\n      0x20\n        /* \"contract-4b98807483_flattened.sol\":8539:8553  new string(32) */\n      0xffffffffffffffff\n      dup2\n      gt\n      iszero\n      tag_276\n      jumpi\n      tag_277\n      tag_127\n      jump\t// in\n    tag_277:\n    tag_276:\n      mload(0x40)\n      swap1\n      dup1\n      dup3\n      mstore\n      dup1\n      0x1f\n      add\n      not(0x1f)\n      and\n      0x20\n      add\n      dup3\n      add\n      0x40\n      mstore\n      dup1\n      iszero\n      tag_278\n      jumpi\n      dup2\n      0x20\n      add\n      0x01\n      dup3\n      mul\n      dup1\n      calldatasize\n      dup4\n      calldatacopy\n      dup1\n      dup3\n      add\n      swap2\n      pop\n      pop\n      swap1\n      pop\n    tag_278:\n      pop\n        /* \"contract-4b98807483_flattened.sol\":8519:8553  string memory str = new string(32) */\n      swap1\n      pop\n        /* \"contract-4b98807483_flattened.sol\":8641:8644  len */\n      dup2\n        /* \"contract-4b98807483_flattened.sol\":8636:8639  str */\n      dup2\n        /* \"contract-4b98807483_flattened.sol\":8629:8645  mstore(str, len) */\n      mstore\n        /* \"contract-4b98807483_flattened.sol\":8681:8685  sstr */\n      dup4\n        /* \"contract-4b98807483_flattened.sol\":8674:8678  0x20 */\n      0x20\n        /* \"contract-4b98807483_flattened.sol\":8669:8672  str */\n      dup3\n        /* \"contract-4b98807483_flattened.sol\":8665:8679  add(str, 0x20) */\n      add\n        /* \"contract-4b98807483_flattened.sol\":8658:8686  mstore(add(str, 0x20), sstr) */\n      mstore\n        /* \"contract-4b98807483_flattened.sol\":8712:8715  str */\n      dup1\n        /* \"contract-4b98807483_flattened.sol\":8705:8715  return str */\n      swap3\n      pop\n      pop\n      pop\n        /* \"contract-4b98807483_flattened.sol\":8317:8722  function toString(ShortString sstr) internal pure returns (string memory) {... */\n      swap2\n      swap1\n      pop\n      jump\t// out\n        /* \"contract-4b98807483_flattened.sol\":8794:9039  function byteLength(ShortString sstr) internal pure returns (uint256) {... */\n    tag_275:\n        /* \"contract-4b98807483_flattened.sol\":8855:8862  uint256 */\n      0x00\n        /* \"contract-4b98807483_flattened.sol\":8874:8888  uint256 result */\n      dup1\n        /* \"contract-4b98807483_flattened.sol\":8927:8931  0xFF */\n      0xff\n        /* \"contract-4b98807483_flattened.sol\":8918:8922  sstr */\n      dup4\n        /* \"contract-4b98807483_flattened.sol\":8891:8924  uint256(ShortString.unwrap(sstr)) */\n      0x00\n      shr\n        /* \"contract-4b98807483_flattened.sol\":8891:8931  uint256(ShortString.unwrap(sstr)) & 0xFF */\n      and\n        /* \"contract-4b98807483_flattened.sol\":8874:8931  uint256 result = uint256(ShortString.unwrap(sstr)) & 0xFF */\n      swap1\n      pop\n        /* \"contract-4b98807483_flattened.sol\":8954:8956  31 */\n      0x1f\n        /* \"contract-4b98807483_flattened.sol\":8945:8951  result */\n      dup2\n        /* \"contract-4b98807483_flattened.sol\":8945:8956  result > 31 */\n      gt\n        /* \"contract-4b98807483_flattened.sol\":8941:9010  if (result > 31) {... */\n      iszero\n      tag_280\n      jumpi\n        /* \"contract-4b98807483_flattened.sol\":8979:8999  InvalidShortString() */\n      mload(0x40)\n      0xb3512b0c00000000000000000000000000000000000000000000000000000000\n      dup2\n      mstore\n      0x04\n      add\n      mload(0x40)\n      dup1\n      swap2\n      sub\n      swap1\n      revert\n        /* \"contract-4b98807483_flattened.sol\":8941:9010  if (result > 31) {... */\n    tag_280:\n        /* \"contract-4b98807483_flattened.sol\":9026:9032  result */\n      dup1\n        /* \"contract-4b98807483_flattened.sol\":9019:9032  return result */\n      swap2\n      pop\n      pop\n        /* \"contract-4b98807483_flattened.sol\":8794:9039  function byteLength(ShortString sstr) internal pure returns (uint256) {... */\n      swap2\n      swap1\n      pop\n      jump\t// out\n        /* \"#utility.yul\":7:106   */\n    tag_281:\n        /* \"#utility.yul\":59:65   */\n      0x00\n        /* \"#utility.yul\":93:98   */\n      dup2\n        /* \"#utility.yul\":87:99   */\n      mload\n        /* \"#utility.yul\":77:99   */\n      swap1\n      pop\n        /* \"#utility.yul\":7:106   */\n      swap2\n      swap1\n      pop\n      jump\t// out\n        /* \"#utility.yul\":112:281   */\n    tag_282:\n        /* \"#utility.yul\":196:207   */\n      0x00\n        /* \"#utility.yul\":230:236   */\n      dup3\n        /* \"#utility.yul\":225:228   */\n      dup3\n        /* \"#utility.yul\":218:237   */\n      mstore\n        /* \"#utility.yul\":270:274   */\n      0x20\n        /* \"#utility.yul\":265:268   */\n      dup3\n        /* \"#utility.yul\":261:275   */\n      add\n        /* \"#utility.yul\":246:275   */\n      swap1\n      pop\n        /* \"#utility.yul\":112:281   */\n      swap3\n      swap2\n      pop\n      pop\n      jump\t// out\n        /* \"#utility.yul\":287:533   */\n    tag_283:\n        /* \"#utility.yul\":368:369   */\n      0x00\n        /* \"#utility.yul\":378:491   */\n    tag_323:\n        /* \"#utility.yul\":392:398   */\n      dup4\n        /* \"#utility.yul\":389:390   */\n      dup2\n        /* \"#utility.yul\":386:399   */\n      lt\n        /* \"#utility.yul\":378:491   */\n      iszero\n      tag_325\n      jumpi\n        /* \"#utility.yul\":477:478   */\n      dup1\n        /* \"#utility.yul\":472:475   */\n      dup3\n        /* \"#utility.yul\":468:479   */\n      add\n        /* \"#utility.yul\":462:480   */\n      mload\n        /* \"#utility.yul\":458:459   */\n      dup2\n        /* \"#utility.yul\":453:456   */\n      dup5\n        /* \"#utility.yul\":449:460   */\n      add\n        /* \"#utility.yul\":442:481   */\n      mstore\n        /* \"#utility.yul\":414:416   */\n      0x20\n        /* \"#utility.yul\":411:412   */\n      dup2\n        /* \"#utility.yul\":407:417   */\n      add\n        /* \"#utility.yul\":402:417   */\n      swap1\n      pop\n        /* \"#utility.yul\":378:491   */\n      jump(tag_323)\n    tag_325:\n        /* \"#utility.yul\":525:526   */\n      0x00\n        /* \"#utility.yul\":516:522   */\n      dup5\n        /* \"#utility.yul\":511:514   */\n      dup5\n        /* \"#utility.yul\":507:523   */\n      add\n        /* \"#utility.yul\":500:527   */\n      mstore\n        /* \"#utility.yul\":349:533   */\n      pop\n        /* \"#utility.yul\":287:533   */\n      pop\n      pop\n      pop\n      jump\t// out\n        /* \"#utility.yul\":539:641   */\n    tag_284:\n        /* \"#utility.yul\":580:586   */\n      0x00\n        /* \"#utility.yul\":631:633   */\n      0x1f\n        /* \"#utility.yul\":627:634   */\n      not\n        /* \"#utility.yul\":622:624   */\n      0x1f\n        /* \"#utility.yul\":615:620   */\n      dup4\n        /* \"#utility.yul\":611:625   */\n      add\n        /* \"#utility.yul\":607:635   */\n      and\n        /* \"#utility.yul\":597:635   */\n      swap1\n      pop\n        /* \"#utility.yul\":539:641   */\n      swap2\n      swap1\n      pop\n      jump\t// out\n        /* \"#utility.yul\":647:1024   */\n    tag_285:\n        /* \"#utility.yul\":735:738   */\n      0x00\n        /* \"#utility.yul\":763:802   */\n      tag_328\n        /* \"#utility.yul\":796:801   */\n      dup3\n        /* \"#utility.yul\":763:802   */\n      tag_281\n      jump\t// in\n    tag_328:\n        /* \"#utility.yul\":818:889   */\n      tag_329\n        /* \"#utility.yul\":882:888   */\n      dup2\n        /* \"#utility.yul\":877:880   */\n      dup6\n        /* \"#utility.yul\":818:889   */\n      tag_282\n      jump\t// in\n    tag_329:\n        /* \"#utility.yul\":811:889   */\n      swap4\n      pop\n        /* \"#utility.yul\":898:963   */\n      tag_330\n        /* \"#utility.yul\":956:962   */\n      dup2\n        /* \"#utility.yul\":951:954   */\n      dup6\n        /* \"#utility.yul\":944:948   */\n      0x20\n        /* \"#utility.yul\":937:942   */\n      dup7\n        /* \"#utility.yul\":933:949   */\n      add\n        /* \"#utility.yul\":898:963   */\n      tag_283\n      jump\t// in\n    tag_330:\n        /* \"#utility.yul\":988:1017   */\n      tag_331\n        /* \"#utility.yul\":1010:1016   */\n      dup2\n        /* \"#utility.yul\":988:1017   */\n      tag_284\n      jump\t// in\n    tag_331:\n        /* \"#utility.yul\":983:986   */\n      dup5\n        /* \"#utility.yul\":979:1018   */\n      add\n        /* \"#utility.yul\":972:1018   */\n      swap2\n      pop\n        /* \"#utility.yul\":739:1024   */\n      pop\n        /* \"#utility.yul\":647:1024   */\n      swap3\n      swap2\n      pop\n      pop\n      jump\t// out\n        /* \"#utility.yul\":1030:1343   */\n    tag_25:\n        /* \"#utility.yul\":1143:1147   */\n      0x00\n        /* \"#utility.yul\":1181:1183   */\n      0x20\n        /* \"#utility.yul\":1170:1179   */\n      dup3\n        /* \"#utility.yul\":1166:1184   */\n      add\n        /* \"#utility.yul\":1158:1184   */\n      swap1\n      pop\n        /* \"#utility.yul\":1230:1239   */\n      dup2\n        /* \"#utility.yul\":1224:1228   */\n      dup2\n        /* \"#utility.yul\":1220:1240   */\n      sub\n        /* \"#utility.yul\":1216:1217   */\n      0x00\n        /* \"#utility.yul\":1205:1214   */\n      dup4\n        /* \"#utility.yul\":1201:1218   */\n      add\n        /* \"#utility.yul\":1194:1241   */\n      mstore\n        /* \"#utility.yul\":1258:1336   */\n      tag_333\n        /* \"#utility.yul\":1331:1335   */\n      dup2\n        /* \"#utility.yul\":1322:1328   */\n      dup5\n        /* \"#utility.yul\":1258:1336   */\n      tag_285\n      jump\t// in\n    tag_333:\n        /* \"#utility.yul\":1250:1336   */\n      swap1\n      pop\n        /* \"#utility.yul\":1030:1343   */\n      swap3\n      swap2\n      pop\n      pop\n      jump\t// out\n        /* \"#utility.yul\":1430:1547   */\n    tag_287:\n        /* \"#utility.yul\":1539:1540   */\n      0x00\n        /* \"#utility.yul\":1536:1537   */\n      dup1\n        /* \"#utility.yul\":1529:1541   */\n      revert\n        /* \"#utility.yul\":1676:1802   */\n    tag_289:\n        /* \"#utility.yul\":1713:1720   */\n      0x00\n        /* \"#utility.yul\":1753:1795   */\n      0xffffffffffffffffffffffffffffffffffffffff\n        /* \"#utility.yul\":1746:1751   */\n      dup3\n        /* \"#utility.yul\":1742:1796   */\n      and\n        /* \"#utility.yul\":1731:1796   */\n      swap1\n      pop\n        /* \"#utility.yul\":1676:1802   */\n      swap2\n      swap1\n      pop\n      jump\t// out\n        /* \"#utility.yul\":1808:1904   */\n    tag_290:\n        /* \"#utility.yul\":1845:1852   */\n      0x00\n        /* \"#utility.yul\":1874:1898   */\n      tag_339\n        /* \"#utility.yul\":1892:1897   */\n      dup3\n        /* \"#utility.yul\":1874:1898   */\n      tag_289\n      jump\t// in\n    tag_339:\n        /* \"#utility.yul\":1863:1898   */\n      swap1\n      pop\n        /* \"#utility.yul\":1808:1904   */\n      swap2\n      swap1\n      pop\n      jump\t// out\n        /* \"#utility.yul\":1910:2032   */\n    tag_291:\n        /* \"#utility.yul\":1983:2007   */\n      tag_341\n        /* \"#utility.yul\":2001:2006   */\n      dup2\n        /* \"#utility.yul\":1983:2007   */\n      tag_290\n      jump\t// in\n    tag_341:\n        /* \"#utility.yul\":1976:1981   */\n      dup2\n        /* \"#utility.yul\":1973:2008   */\n      eq\n        /* \"#utility.yul\":1963:2026   */\n      tag_342\n      jumpi\n        /* \"#utility.yul\":2022:2023   */\n      0x00\n        /* \"#utility.yul\":2019:2020   */\n      dup1\n        /* \"#utility.yul\":2012:2024   */\n      revert\n        /* \"#utility.yul\":1963:2026   */\n    tag_342:\n        /* \"#utility.yul\":1910:2032   */\n      pop\n      jump\t// out\n        /* \"#utility.yul\":2038:2177   */\n    tag_292:\n        /* \"#utility.yul\":2084:2089   */\n      0x00\n        /* \"#utility.yul\":2122:2128   */\n      dup2\n        /* \"#utility.yul\":2109:2129   */\n      calldataload\n        /* \"#utility.yul\":2100:2129   */\n      swap1\n      pop\n        /* \"#utility.yul\":2138:2171   */\n      tag_344\n        /* \"#utility.yul\":2165:2170   */\n      dup2\n        /* \"#utility.yul\":2138:2171   */\n      tag_291\n      jump\t// in\n    tag_344:\n        /* \"#utility.yul\":2038:2177   */\n      swap3\n      swap2\n      pop\n      pop\n      jump\t// out\n        /* \"#utility.yul\":2183:2260   */\n    tag_293:\n        /* \"#utility.yul\":2220:2227   */\n      0x00\n        /* \"#utility.yul\":2249:2254   */\n      dup2\n        /* \"#utility.yul\":2238:2254   */\n      swap1\n      pop\n        /* \"#utility.yul\":2183:2260   */\n      swap2\n      swap1\n      pop\n      jump\t// out\n        /* \"#utility.yul\":2266:2388   */\n    tag_294:\n        /* \"#utility.yul\":2339:2363   */\n      tag_347\n        /* \"#utility.yul\":2357:2362   */\n      dup2\n        /* \"#utility.yul\":2339:2363   */\n      tag_293\n      jump\t// in\n    tag_347:\n        /* \"#utility.yul\":2332:2337   */\n      dup2\n        /* \"#utility.yul\":2329:2364   */\n      eq\n        /* \"#utility.yul\":2319:2382   */\n      tag_348\n      jumpi\n        /* \"#utility.yul\":2378:2379   */\n      0x00\n        /* \"#utility.yul\":2375:2376   */\n      dup1\n        /* \"#utility.yul\":2368:2380   */\n      revert\n        /* \"#utility.yul\":2319:2382   */\n    tag_348:\n        /* \"#utility.yul\":2266:2388   */\n      pop\n      jump\t// out\n        /* \"#utility.yul\":2394:2533   */\n    tag_295:\n        /* \"#utility.yul\":2440:2445   */\n      0x00\n        /* \"#utility.yul\":2478:2484   */\n      dup2\n        /* \"#utility.yul\":2465:2485   */\n      calldataload\n        /* \"#utility.yul\":2456:2485   */\n      swap1\n      pop\n        /* \"#utility.yul\":2494:2527   */\n      tag_350\n        /* \"#utility.yul\":2521:2526   */\n      dup2\n        /* \"#utility.yul\":2494:2527   */\n      tag_294\n      jump\t// in\n    tag_350:\n        /* \"#utility.yul\":2394:2533   */\n      swap3\n      swap2\n      pop\n      pop\n      jump\t// out\n        /* \"#utility.yul\":2539:3013   */\n    tag_28:\n        /* \"#utility.yul\":2607:2613   */\n      0x00\n        /* \"#utility.yul\":2615:2621   */\n      dup1\n        /* \"#utility.yul\":2664:2666   */\n      0x40\n        /* \"#utility.yul\":2652:2661   */\n      dup4\n        /* \"#utility.yul\":2643:2650   */\n      dup6\n        /* \"#utility.yul\":2639:2662   */\n      sub\n        /* \"#utility.yul\":2635:2667   */\n      slt\n        /* \"#utility.yul\":2632:2751   */\n      iszero\n      tag_352\n      jumpi\n        /* \"#utility.yul\":2670:2749   */\n      tag_353\n      tag_287\n      jump\t// in\n    tag_353:\n        /* \"#utility.yul\":2632:2751   */\n    tag_352:\n        /* \"#utility.yul\":2790:2791   */\n      0x00\n        /* \"#utility.yul\":2815:2868   */\n      tag_354\n        /* \"#utility.yul\":2860:2867   */\n      dup6\n        /* \"#utility.yul\":2851:2857   */\n      dup3\n        /* \"#utility.yul\":2840:2849   */\n      dup7\n        /* \"#utility.yul\":2836:2858   */\n      add\n        /* \"#utility.yul\":2815:2868   */\n      tag_292\n      jump\t// in\n    tag_354:\n        /* \"#utility.yul\":2805:2868   */\n      swap3\n      pop\n        /* \"#utility.yul\":2761:2878   */\n      pop\n        /* \"#utility.yul\":2917:2919   */\n      0x20\n        /* \"#utility.yul\":2943:2996   */\n      tag_355\n        /* \"#utility.yul\":2988:2995   */\n      dup6\n        /* \"#utility.yul\":2979:2985   */\n      dup3\n        /* \"#utility.yul\":2968:2977   */\n      dup7\n        /* \"#utility.yul\":2964:2986   */\n      add\n        /* \"#utility.yul\":2943:2996   */\n      tag_295\n      jump\t// in\n    tag_355:\n        /* \"#utility.yul\":2933:2996   */\n      swap2\n      pop\n        /* \"#utility.yul\":2888:3006   */\n      pop\n        /* \"#utility.yul\":2539:3013   */\n      swap3\n      pop\n      swap3\n      swap1\n      pop\n      jump\t// out\n        /* \"#utility.yul\":3019:3109   */\n    tag_296:\n        /* \"#utility.yul\":3053:3060   */\n      0x00\n        /* \"#utility.yul\":3096:3101   */\n      dup2\n        /* \"#utility.yul\":3089:3102   */\n      iszero\n        /* \"#utility.yul\":3082:3103   */\n      iszero\n        /* \"#utility.yul\":3071:3103   */\n      swap1\n      pop\n        /* \"#utility.yul\":3019:3109   */\n      swap2\n      swap1\n      pop\n      jump\t// out\n        /* \"#utility.yul\":3115:3224   */\n    tag_297:\n        /* \"#utility.yul\":3196:3217   */\n      tag_358\n        /* \"#utility.yul\":3211:3216   */\n      dup2\n        /* \"#utility.yul\":3196:3217   */\n      tag_296\n      jump\t// in\n    tag_358:\n        /* \"#utility.yul\":3191:3194   */\n      dup3\n        /* \"#utility.yul\":3184:3218   */\n      mstore\n        /* \"#utility.yul\":3115:3224   */\n      pop\n      pop\n      jump\t// out\n        /* \"#utility.yul\":3230:3440   */\n    tag_31:\n        /* \"#utility.yul\":3317:3321   */\n      0x00\n        /* \"#utility.yul\":3355:3357   */\n      0x20\n        /* \"#utility.yul\":3344:3353   */\n      dup3\n        /* \"#utility.yul\":3340:3358   */\n      add\n        /* \"#utility.yul\":3332:3358   */\n      swap1\n      pop\n        /* \"#utility.yul\":3368:3433   */\n      tag_360\n        /* \"#utility.yul\":3430:3431   */\n      0x00\n        /* \"#utility.yul\":3419:3428   */\n      dup4\n        /* \"#utility.yul\":3415:3432   */\n      add\n        /* \"#utility.yul\":3406:3412   */\n      dup5\n        /* \"#utility.yul\":3368:3433   */\n      tag_297\n      jump\t// in\n    tag_360:\n        /* \"#utility.yul\":3230:3440   */\n      swap3\n      swap2\n      pop\n      pop\n      jump\t// out\n        /* \"#utility.yul\":3446:3564   */\n    tag_298:\n        /* \"#utility.yul\":3533:3557   */\n      tag_362\n        /* \"#utility.yul\":3551:3556   */\n      dup2\n        /* \"#utility.yul\":3533:3557   */\n      tag_293\n      jump\t// in\n    tag_362:\n        /* \"#utility.yul\":3528:3531   */\n      dup3\n        /* \"#utility.yul\":3521:3558   */\n      mstore\n        /* \"#utility.yul\":3446:3564   */\n      pop\n      pop\n      jump\t// out\n        /* \"#utility.yul\":3570:3792   */\n    tag_35:\n        /* \"#utility.yul\":3663:3667   */\n      0x00\n        /* \"#utility.yul\":3701:3703   */\n      0x20\n        /* \"#utility.yul\":3690:3699   */\n      dup3\n        /* \"#utility.yul\":3686:3704   */\n      add\n        /* \"#utility.yul\":3678:3704   */\n      swap1\n      pop\n        /* \"#utility.yul\":3714:3785   */\n      tag_364\n        /* \"#utility.yul\":3782:3783   */\n      0x00\n        /* \"#utility.yul\":3771:3780   */\n      dup4\n        /* \"#utility.yul\":3767:3784   */\n      add\n        /* \"#utility.yul\":3758:3764   */\n      dup5\n        /* \"#utility.yul\":3714:3785   */\n      tag_298\n      jump\t// in\n    tag_364:\n        /* \"#utility.yul\":3570:3792   */\n      swap3\n      swap2\n      pop\n      pop\n      jump\t// out\n        /* \"#utility.yul\":3798:4417   */\n    tag_38:\n        /* \"#utility.yul\":3875:3881   */\n      0x00\n        /* \"#utility.yul\":3883:3889   */\n      dup1\n        /* \"#utility.yul\":3891:3897   */\n      0x00\n        /* \"#utility.yul\":3940:3942   */\n      0x60\n        /* \"#utility.yul\":3928:3937   */\n      dup5\n        /* \"#utility.yul\":3919:3926   */\n      dup7\n        /* \"#utility.yul\":3915:3938   */\n      sub\n        /* \"#utility.yul\":3911:3943   */\n      slt\n        /* \"#utility.yul\":3908:4027   */\n      iszero\n      tag_366\n      jumpi\n        /* \"#utility.yul\":3946:4025   */\n      tag_367\n      tag_287\n      jump\t// in\n    tag_367:\n        /* \"#utility.yul\":3908:4027   */\n    tag_366:\n        /* \"#utility.yul\":4066:4067   */\n      0x00\n        /* \"#utility.yul\":4091:4144   */\n      tag_368\n        /* \"#utility.yul\":4136:4143   */\n      dup7\n        /* \"#utility.yul\":4127:4133   */\n      dup3\n        /* \"#utility.yul\":4116:4125   */\n      dup8\n        /* \"#utility.yul\":4112:4134   */\n      add\n        /* \"#utility.yul\":4091:4144   */\n      tag_292\n      jump\t// in\n    tag_368:\n        /* \"#utility.yul\":4081:4144   */\n      swap4\n      pop\n        /* \"#utility.yul\":4037:4154   */\n      pop\n        /* \"#utility.yul\":4193:4195   */\n      0x20\n        /* \"#utility.yul\":4219:4272   */\n      tag_369\n        /* \"#utility.yul\":4264:4271   */\n      dup7\n        /* \"#utility.yul\":4255:4261   */\n      dup3\n        /* \"#utility.yul\":4244:4253   */\n      dup8\n        /* \"#utility.yul\":4240:4262   */\n      add\n        /* \"#utility.yul\":4219:4272   */\n      tag_292\n      jump\t// in\n    tag_369:\n        /* \"#utility.yul\":4209:4272   */\n      swap3\n      pop\n        /* \"#utility.yul\":4164:4282   */\n      pop\n        /* \"#utility.yul\":4321:4323   */\n      0x40\n        /* \"#utility.yul\":4347:4400   */\n      tag_370\n        /* \"#utility.yul\":4392:4399   */\n      dup7\n        /* \"#utility.yul\":4383:4389   */\n      dup3\n        /* \"#utility.yul\":4372:4381   */\n      dup8\n        /* \"#utility.yul\":4368:4390   */\n      add\n        /* \"#utility.yul\":4347:4400   */\n      tag_295\n      jump\t// in\n    tag_370:\n        /* \"#utility.yul\":4337:4400   */\n      swap2\n      pop\n        /* \"#utility.yul\":4292:4410   */\n      pop\n        /* \"#utility.yul\":3798:4417   */\n      swap3\n      pop\n      swap3\n      pop\n      swap3\n      jump\t// out\n        /* \"#utility.yul\":4423:4509   */\n    tag_299:\n        /* \"#utility.yul\":4458:4465   */\n      0x00\n        /* \"#utility.yul\":4498:4502   */\n      0xff\n        /* \"#utility.yul\":4491:4496   */\n      dup3\n        /* \"#utility.yul\":4487:4503   */\n      and\n        /* \"#utility.yul\":4476:4503   */\n      swap1\n      pop\n        /* \"#utility.yul\":4423:4509   */\n      swap2\n      swap1\n      pop\n      jump\t// out\n        /* \"#utility.yul\":4515:4627   */\n    tag_300:\n        /* \"#utility.yul\":4598:4620   */\n      tag_373\n        /* \"#utility.yul\":4614:4619   */\n      dup2\n        /* \"#utility.yul\":4598:4620   */\n      tag_299\n      jump\t// in\n    tag_373:\n        /* \"#utility.yul\":4593:4596   */\n      dup3\n        /* \"#utility.yul\":4586:4621   */\n      mstore\n        /* \"#utility.yul\":4515:4627   */\n      pop\n      pop\n      jump\t// out\n        /* \"#utility.yul\":4633:4847   */\n    tag_44:\n        /* \"#utility.yul\":4722:4726   */\n      0x00\n        /* \"#utility.yul\":4760:4762   */\n      0x20\n        /* \"#utility.yul\":4749:4758   */\n      dup3\n        /* \"#utility.yul\":4745:4763   */\n      add\n        /* \"#utility.yul\":4737:4763   */\n      swap1\n      pop\n        /* \"#utility.yul\":4773:4840   */\n      tag_375\n        /* \"#utility.yul\":4837:4838   */\n      0x00\n        /* \"#utility.yul\":4826:4835   */\n      dup4\n        /* \"#utility.yul\":4822:4839   */\n      add\n        /* \"#utility.yul\":4813:4819   */\n      dup5\n        /* \"#utility.yul\":4773:4840   */\n      tag_300\n      jump\t// in\n    tag_375:\n        /* \"#utility.yul\":4633:4847   */\n      swap3\n      swap2\n      pop\n      pop\n      jump\t// out\n        /* \"#utility.yul\":4853:4930   */\n    tag_301:\n        /* \"#utility.yul\":4890:4897   */\n      0x00\n        /* \"#utility.yul\":4919:4924   */\n      dup2\n        /* \"#utility.yul\":4908:4924   */\n      swap1\n      pop\n        /* \"#utility.yul\":4853:4930   */\n      swap2\n      swap1\n      pop\n      jump\t// out\n        /* \"#utility.yul\":4936:5054   */\n    tag_302:\n        /* \"#utility.yul\":5023:5047   */\n      tag_378\n        /* \"#utility.yul\":5041:5046   */\n      dup2\n        /* \"#utility.yul\":5023:5047   */\n      tag_301\n      jump\t// in\n    tag_378:\n        /* \"#utility.yul\":5018:5021   */\n      dup3\n        /* \"#utility.yul\":5011:5048   */\n      mstore\n        /* \"#utility.yul\":4936:5054   */\n      pop\n      pop\n      jump\t// out\n        /* \"#utility.yul\":5060:5282   */\n    tag_48:\n        /* \"#utility.yul\":5153:5157   */\n      0x00\n        /* \"#utility.yul\":5191:5193   */\n      0x20\n        /* \"#utility.yul\":5180:5189   */\n      dup3\n        /* \"#utility.yul\":5176:5194   */\n      add\n        /* \"#utility.yul\":5168:5194   */\n      swap1\n      pop\n        /* \"#utility.yul\":5204:5275   */\n      tag_380\n        /* \"#utility.yul\":5272:5273   */\n      0x00\n        /* \"#utility.yul\":5261:5270   */\n      dup4\n        /* \"#utility.yul\":5257:5274   */\n      add\n        /* \"#utility.yul\":5248:5254   */\n      dup5\n        /* \"#utility.yul\":5204:5275   */\n      tag_302\n      jump\t// in\n    tag_380:\n        /* \"#utility.yul\":5060:5282   */\n      swap3\n      swap2\n      pop\n      pop\n      jump\t// out\n        /* \"#utility.yul\":5288:5617   */\n    tag_51:\n        /* \"#utility.yul\":5347:5353   */\n      0x00\n        /* \"#utility.yul\":5396:5398   */\n      0x20\n        /* \"#utility.yul\":5384:5393   */\n      dup3\n        /* \"#utility.yul\":5375:5382   */\n      dup5\n        /* \"#utility.yul\":5371:5394   */\n      sub\n        /* \"#utility.yul\":5367:5399   */\n      slt\n        /* \"#utility.yul\":5364:5483   */\n      iszero\n      tag_382\n      jumpi\n        /* \"#utility.yul\":5402:5481   */\n      tag_383\n      tag_287\n      jump\t// in\n    tag_383:\n        /* \"#utility.yul\":5364:5483   */\n    tag_382:\n        /* \"#utility.yul\":5522:5523   */\n      0x00\n        /* \"#utility.yul\":5547:5600   */\n      tag_384\n        /* \"#utility.yul\":5592:5599   */\n      dup5\n        /* \"#utility.yul\":5583:5589   */\n      dup3\n        /* \"#utility.yul\":5572:5581   */\n      dup6\n        /* \"#utility.yul\":5568:5590   */\n      add\n        /* \"#utility.yul\":5547:5600   */\n      tag_292\n      jump\t// in\n    tag_384:\n        /* \"#utility.yul\":5537:5600   */\n      swap2\n      pop\n        /* \"#utility.yul\":5493:5610   */\n      pop\n        /* \"#utility.yul\":5288:5617   */\n      swap3\n      swap2\n      pop\n      pop\n      jump\t// out\n        /* \"#utility.yul\":5623:5772   */\n    tag_303:\n        /* \"#utility.yul\":5659:5666   */\n      0x00\n        /* \"#utility.yul\":5699:5765   */\n      0xff00000000000000000000000000000000000000000000000000000000000000\n        /* \"#utility.yul\":5692:5697   */\n      dup3\n        /* \"#utility.yul\":5688:5766   */\n      and\n        /* \"#utility.yul\":5677:5766   */\n      swap1\n      pop\n        /* \"#utility.yul\":5623:5772   */\n      swap2\n      swap1\n      pop\n      jump\t// out\n        /* \"#utility.yul\":5778:5893   */\n    tag_304:\n        /* \"#utility.yul\":5863:5886   */\n      tag_387\n        /* \"#utility.yul\":5880:5885   */\n      dup2\n        /* \"#utility.yul\":5863:5886   */\n      tag_303\n      jump\t// in\n    tag_387:\n        /* \"#utility.yul\":5858:5861   */\n      dup3\n        /* \"#utility.yul\":5851:5887   */\n      mstore\n        /* \"#utility.yul\":5778:5893   */\n      pop\n      pop\n      jump\t// out\n        /* \"#utility.yul\":5899:6017   */\n    tag_305:\n        /* \"#utility.yul\":5986:6010   */\n      tag_389\n        /* \"#utility.yul\":6004:6009   */\n      dup2\n        /* \"#utility.yul\":5986:6010   */\n      tag_290\n      jump\t// in\n    tag_389:\n        /* \"#utility.yul\":5981:5984   */\n      dup3\n        /* \"#utility.yul\":5974:6011   */\n      mstore\n        /* \"#utility.yul\":5899:6017   */\n      pop\n      pop\n      jump\t// out\n        /* \"#utility.yul\":6023:6137   */\n    tag_306:\n        /* \"#utility.yul\":6090:6096   */\n      0x00\n        /* \"#utility.yul\":6124:6129   */\n      dup2\n        /* \"#utility.yul\":6118:6130   */\n      mload\n        /* \"#utility.yul\":6108:6130   */\n      swap1\n      pop\n        /* \"#utility.yul\":6023:6137   */\n      swap2\n      swap1\n      pop\n      jump\t// out\n        /* \"#utility.yul\":6143:6327   */\n    tag_307:\n        /* \"#utility.yul\":6242:6253   */\n      0x00\n        /* \"#utility.yul\":6276:6282   */\n      dup3\n        /* \"#utility.yul\":6271:6274   */\n      dup3\n        /* \"#utility.yul\":6264:6283   */\n      mstore\n        /* \"#utility.yul\":6316:6320   */\n      0x20\n        /* \"#utility.yul\":6311:6314   */\n      dup3\n        /* \"#utility.yul\":6307:6321   */\n      add\n        /* \"#utility.yul\":6292:6321   */\n      swap1\n      pop\n        /* \"#utility.yul\":6143:6327   */\n      swap3\n      swap2\n      pop\n      pop\n      jump\t// out\n        /* \"#utility.yul\":6333:6465   */\n    tag_308:\n        /* \"#utility.yul\":6400:6404   */\n      0x00\n        /* \"#utility.yul\":6423:6426   */\n      dup2\n        /* \"#utility.yul\":6415:6426   */\n      swap1\n      pop\n        /* \"#utility.yul\":6453:6457   */\n      0x20\n        /* \"#utility.yul\":6448:6451   */\n      dup3\n        /* \"#utility.yul\":6444:6458   */\n      add\n        /* \"#utility.yul\":6436:6458   */\n      swap1\n      pop\n        /* \"#utility.yul\":6333:6465   */\n      swap2\n      swap1\n      pop\n      jump\t// out\n        /* \"#utility.yul\":6471:6579   */\n    tag_309:\n        /* \"#utility.yul\":6548:6572   */\n      tag_394\n        /* \"#utility.yul\":6566:6571   */\n      dup2\n        /* \"#utility.yul\":6548:6572   */\n      tag_293\n      jump\t// in\n    tag_394:\n        /* \"#utility.yul\":6543:6546   */\n      dup3\n        /* \"#utility.yul\":6536:6573   */\n      mstore\n        /* \"#utility.yul\":6471:6579   */\n      pop\n      pop\n      jump\t// out\n        /* \"#utility.yul\":6585:6764   */\n    tag_310:\n        /* \"#utility.yul\":6654:6664   */\n      0x00\n        /* \"#utility.yul\":6675:6721   */\n      tag_396\n        /* \"#utility.yul\":6717:6720   */\n      dup4\n        /* \"#utility.yul\":6709:6715   */\n      dup4\n        /* \"#utility.yul\":6675:6721   */\n      tag_309\n      jump\t// in\n    tag_396:\n        /* \"#utility.yul\":6753:6757   */\n      0x20\n        /* \"#utility.yul\":6748:6751   */\n      dup4\n        /* \"#utility.yul\":6744:6758   */\n      add\n        /* \"#utility.yul\":6730:6758   */\n      swap1\n      pop\n        /* \"#utility.yul\":6585:6764   */\n      swap3\n      swap2\n      pop\n      pop\n      jump\t// out\n        /* \"#utility.yul\":6770:6883   */\n    tag_311:\n        /* \"#utility.yul\":6840:6844   */\n      0x00\n        /* \"#utility.yul\":6872:6876   */\n      0x20\n        /* \"#utility.yul\":6867:6870   */\n      dup3\n        /* \"#utility.yul\":6863:6877   */\n      add\n        /* \"#utility.yul\":6855:6877   */\n      swap1\n      pop\n        /* \"#utility.yul\":6770:6883   */\n      swap2\n      swap1\n      pop\n      jump\t// out\n        /* \"#utility.yul\":6919:7651   */\n    tag_312:\n        /* \"#utility.yul\":7038:7041   */\n      0x00\n        /* \"#utility.yul\":7067:7121   */\n      tag_399\n        /* \"#utility.yul\":7115:7120   */\n      dup3\n        /* \"#utility.yul\":7067:7121   */\n      tag_306\n      jump\t// in\n    tag_399:\n        /* \"#utility.yul\":7137:7223   */\n      tag_400\n        /* \"#utility.yul\":7216:7222   */\n      dup2\n        /* \"#utility.yul\":7211:7214   */\n      dup6\n        /* \"#utility.yul\":7137:7223   */\n      tag_307\n      jump\t// in\n    tag_400:\n        /* \"#utility.yul\":7130:7223   */\n      swap4\n      pop\n        /* \"#utility.yul\":7247:7303   */\n      tag_401\n        /* \"#utility.yul\":7297:7302   */\n      dup4\n        /* \"#utility.yul\":7247:7303   */\n      tag_308\n      jump\t// in\n    tag_401:\n        /* \"#utility.yul\":7326:7333   */\n      dup1\n        /* \"#utility.yul\":7357:7358   */\n      0x00\n        /* \"#utility.yul\":7342:7626   */\n    tag_402:\n        /* \"#utility.yul\":7367:7373   */\n      dup4\n        /* \"#utility.yul\":7364:7365   */\n      dup2\n        /* \"#utility.yul\":7361:7374   */\n      lt\n        /* \"#utility.yul\":7342:7626   */\n      iszero\n      tag_404\n      jumpi\n        /* \"#utility.yul\":7443:7449   */\n      dup2\n        /* \"#utility.yul\":7437:7450   */\n      mload\n        /* \"#utility.yul\":7470:7533   */\n      tag_405\n        /* \"#utility.yul\":7529:7532   */\n      dup9\n        /* \"#utility.yul\":7514:7527   */\n      dup3\n        /* \"#utility.yul\":7470:7533   */\n      tag_310\n      jump\t// in\n    tag_405:\n        /* \"#utility.yul\":7463:7533   */\n      swap8\n      pop\n        /* \"#utility.yul\":7556:7616   */\n      tag_406\n        /* \"#utility.yul\":7609:7615   */\n      dup4\n        /* \"#utility.yul\":7556:7616   */\n      tag_311\n      jump\t// in\n    tag_406:\n        /* \"#utility.yul\":7546:7616   */\n      swap3\n      pop\n        /* \"#utility.yul\":7402:7626   */\n      pop\n        /* \"#utility.yul\":7389:7390   */\n      0x01\n        /* \"#utility.yul\":7386:7387   */\n      dup2\n        /* \"#utility.yul\":7382:7391   */\n      add\n        /* \"#utility.yul\":7377:7391   */\n      swap1\n      pop\n        /* \"#utility.yul\":7342:7626   */\n      jump(tag_402)\n    tag_404:\n        /* \"#utility.yul\":7346:7360   */\n      pop\n        /* \"#utility.yul\":7642:7645   */\n      dup6\n        /* \"#utility.yul\":7635:7645   */\n      swap4\n      pop\n        /* \"#utility.yul\":7043:7651   */\n      pop\n      pop\n      pop\n        /* \"#utility.yul\":6919:7651   */\n      swap3\n      swap2\n      pop\n      pop\n      jump\t// out\n        /* \"#utility.yul\":7657:8872   */\n    tag_63:\n        /* \"#utility.yul\":8006:8010   */\n      0x00\n        /* \"#utility.yul\":8044:8047   */\n      0xe0\n        /* \"#utility.yul\":8033:8042   */\n      dup3\n        /* \"#utility.yul\":8029:8048   */\n      add\n        /* \"#utility.yul\":8021:8048   */\n      swap1\n      pop\n        /* \"#utility.yul\":8058:8127   */\n      tag_408\n        /* \"#utility.yul\":8124:8125   */\n      0x00\n        /* \"#utility.yul\":8113:8122   */\n      dup4\n        /* \"#utility.yul\":8109:8126   */\n      add\n        /* \"#utility.yul\":8100:8106   */\n      dup11\n        /* \"#utility.yul\":8058:8127   */\n      tag_304\n      jump\t// in\n    tag_408:\n        /* \"#utility.yul\":8174:8183   */\n      dup2\n        /* \"#utility.yul\":8168:8172   */\n      dup2\n        /* \"#utility.yul\":8164:8184   */\n      sub\n        /* \"#utility.yul\":8159:8161   */\n      0x20\n        /* \"#utility.yul\":8148:8157   */\n      dup4\n        /* \"#utility.yul\":8144:8162   */\n      add\n        /* \"#utility.yul\":8137:8185   */\n      mstore\n        /* \"#utility.yul\":8202:8280   */\n      tag_409\n        /* \"#utility.yul\":8275:8279   */\n      dup2\n        /* \"#utility.yul\":8266:8272   */\n      dup10\n        /* \"#utility.yul\":8202:8280   */\n      tag_285\n      jump\t// in\n    tag_409:\n        /* \"#utility.yul\":8194:8280   */\n      swap1\n      pop\n        /* \"#utility.yul\":8327:8336   */\n      dup2\n        /* \"#utility.yul\":8321:8325   */\n      dup2\n        /* \"#utility.yul\":8317:8337   */\n      sub\n        /* \"#utility.yul\":8312:8314   */\n      0x40\n        /* \"#utility.yul\":8301:8310   */\n      dup4\n        /* \"#utility.yul\":8297:8315   */\n      add\n        /* \"#utility.yul\":8290:8338   */\n      mstore\n        /* \"#utility.yul\":8355:8433   */\n      tag_410\n        /* \"#utility.yul\":8428:8432   */\n      dup2\n        /* \"#utility.yul\":8419:8425   */\n      dup9\n        /* \"#utility.yul\":8355:8433   */\n      tag_285\n      jump\t// in\n    tag_410:\n        /* \"#utility.yul\":8347:8433   */\n      swap1\n      pop\n        /* \"#utility.yul\":8443:8515   */\n      tag_411\n        /* \"#utility.yul\":8511:8513   */\n      0x60\n        /* \"#utility.yul\":8500:8509   */\n      dup4\n        /* \"#utility.yul\":8496:8514   */\n      add\n        /* \"#utility.yul\":8487:8493   */\n      dup8\n        /* \"#utility.yul\":8443:8515   */\n      tag_298\n      jump\t// in\n    tag_411:\n        /* \"#utility.yul\":8525:8598   */\n      tag_412\n        /* \"#utility.yul\":8593:8596   */\n      0x80\n        /* \"#utility.yul\":8582:8591   */\n      dup4\n        /* \"#utility.yul\":8578:8597   */\n      add\n        /* \"#utility.yul\":8569:8575   */\n      dup7\n        /* \"#utility.yul\":8525:8598   */\n      tag_305\n      jump\t// in\n    tag_412:\n        /* \"#utility.yul\":8608:8681   */\n      tag_413\n        /* \"#utility.yul\":8676:8679   */\n      0xa0\n        /* \"#utility.yul\":8665:8674   */\n      dup4\n        /* \"#utility.yul\":8661:8680   */\n      add\n        /* \"#utility.yul\":8652:8658   */\n      dup6\n        /* \"#utility.yul\":8608:8681   */\n      tag_302\n      jump\t// in\n    tag_413:\n        /* \"#utility.yul\":8729:8738   */\n      dup2\n        /* \"#utility.yul\":8723:8727   */\n      dup2\n        /* \"#utility.yul\":8719:8739   */\n      sub\n        /* \"#utility.yul\":8713:8716   */\n      0xc0\n        /* \"#utility.yul\":8702:8711   */\n      dup4\n        /* \"#utility.yul\":8698:8717   */\n      add\n        /* \"#utility.yul\":8691:8740   */\n      mstore\n        /* \"#utility.yul\":8757:8865   */\n      tag_414\n        /* \"#utility.yul\":8860:8864   */\n      dup2\n        /* \"#utility.yul\":8851:8857   */\n      dup5\n        /* \"#utility.yul\":8757:8865   */\n      tag_312\n      jump\t// in\n    tag_414:\n        /* \"#utility.yul\":8749:8865   */\n      swap1\n      pop\n        /* \"#utility.yul\":7657:8872   */\n      swap9\n      swap8\n      pop\n      pop\n      pop\n      pop\n      pop\n      pop\n      pop\n      pop\n      jump\t// out\n        /* \"#utility.yul\":8878:9100   */\n    tag_67:\n        /* \"#utility.yul\":8971:8975   */\n      0x00\n        /* \"#utility.yul\":9009:9011   */\n      0x20\n        /* \"#utility.yul\":8998:9007   */\n      dup3\n        /* \"#utility.yul\":8994:9012   */\n      add\n        /* \"#utility.yul\":8986:9012   */\n      swap1\n      pop\n        /* \"#utility.yul\":9022:9093   */\n      tag_416\n        /* \"#utility.yul\":9090:9091   */\n      0x00\n        /* \"#utility.yul\":9079:9088   */\n      dup4\n        /* \"#utility.yul\":9075:9092   */\n      add\n        /* \"#utility.yul\":9066:9072   */\n      dup5\n        /* \"#utility.yul\":9022:9093   */\n      tag_305\n      jump\t// in\n    tag_416:\n        /* \"#utility.yul\":8878:9100   */\n      swap3\n      swap2\n      pop\n      pop\n      jump\t// out\n        /* \"#utility.yul\":9106:9224   */\n    tag_313:\n        /* \"#utility.yul\":9177:9199   */\n      tag_418\n        /* \"#utility.yul\":9193:9198   */\n      dup2\n        /* \"#utility.yul\":9177:9199   */\n      tag_299\n      jump\t// in\n    tag_418:\n        /* \"#utility.yul\":9170:9175   */\n      dup2\n        /* \"#utility.yul\":9167:9200   */\n      eq\n        /* \"#utility.yul\":9157:9218   */\n      tag_419\n      jumpi\n        /* \"#utility.yul\":9214:9215   */\n      0x00\n        /* \"#utility.yul\":9211:9212   */\n      dup1\n        /* \"#utility.yul\":9204:9216   */\n      revert\n        /* \"#utility.yul\":9157:9218   */\n    tag_419:\n        /* \"#utility.yul\":9106:9224   */\n      pop\n      jump\t// out\n        /* \"#utility.yul\":9230:9365   */\n    tag_314:\n        /* \"#utility.yul\":9274:9279   */\n      0x00\n        /* \"#utility.yul\":9312:9318   */\n      dup2\n        /* \"#utility.yul\":9299:9319   */\n      calldataload\n        /* \"#utility.yul\":9290:9319   */\n      swap1\n      pop\n        /* \"#utility.yul\":9328:9359   */\n      tag_421\n        /* \"#utility.yul\":9353:9358   */\n      dup2\n        /* \"#utility.yul\":9328:9359   */\n      tag_313\n      jump\t// in\n    tag_421:\n        /* \"#utility.yul\":9230:9365   */\n      swap3\n      swap2\n      pop\n      pop\n      jump\t// out\n        /* \"#utility.yul\":9371:9493   */\n    tag_315:\n        /* \"#utility.yul\":9444:9468   */\n      tag_423\n        /* \"#utility.yul\":9462:9467   */\n      dup2\n        /* \"#utility.yul\":9444:9468   */\n      tag_301\n      jump\t// in\n    tag_423:\n        /* \"#utility.yul\":9437:9442   */\n      dup2\n        /* \"#utility.yul\":9434:9469   */\n      eq\n        /* \"#utility.yul\":9424:9487   */\n      tag_424\n      jumpi\n        /* \"#utility.yul\":9483:9484   */\n      0x00\n        /* \"#utility.yul\":9480:9481   */\n      dup1\n        /* \"#utility.yul\":9473:9485   */\n      revert\n        /* \"#utility.yul\":9424:9487   */\n    tag_424:\n        /* \"#utility.yul\":9371:9493   */\n      pop\n      jump\t// out\n        /* \"#utility.yul\":9499:9638   */\n    tag_316:\n        /* \"#utility.yul\":9545:9550   */\n      0x00\n        /* \"#utility.yul\":9583:9589   */\n      dup2\n        /* \"#utility.yul\":9570:9590   */\n      calldataload\n        /* \"#utility.yul\":9561:9590   */\n      swap1\n      pop\n        /* \"#utility.yul\":9599:9632   */\n      tag_426\n        /* \"#utility.yul\":9626:9631   */\n      dup2\n        /* \"#utility.yul\":9599:9632   */\n      tag_315\n      jump\t// in\n    tag_426:\n        /* \"#utility.yul\":9499:9638   */\n      swap3\n      swap2\n      pop\n      pop\n      jump\t// out\n        /* \"#utility.yul\":9644:10843   */\n    tag_77:\n        /* \"#utility.yul\":9755:9761   */\n      0x00\n        /* \"#utility.yul\":9763:9769   */\n      dup1\n        /* \"#utility.yul\":9771:9777   */\n      0x00\n        /* \"#utility.yul\":9779:9785   */\n      dup1\n        /* \"#utility.yul\":9787:9793   */\n      0x00\n        /* \"#utility.yul\":9795:9801   */\n      dup1\n        /* \"#utility.yul\":9803:9809   */\n      0x00\n        /* \"#utility.yul\":9852:9855   */\n      0xe0\n        /* \"#utility.yul\":9840:9849   */\n      dup9\n        /* \"#utility.yul\":9831:9838   */\n      dup11\n        /* \"#utility.yul\":9827:9850   */\n      sub\n        /* \"#utility.yul\":9823:9856   */\n      slt\n        /* \"#utility.yul\":9820:9940   */\n      iszero\n      tag_428\n      jumpi\n        /* \"#utility.yul\":9859:9938   */\n      tag_429\n      tag_287\n      jump\t// in\n    tag_429:\n        /* \"#utility.yul\":9820:9940   */\n    tag_428:\n        /* \"#utility.yul\":9979:9980   */\n      0x00\n        /* \"#utility.yul\":10004:10057   */\n      tag_430\n        /* \"#utility.yul\":10049:10056   */\n      dup11\n        /* \"#utility.yul\":10040:10046   */\n      dup3\n        /* \"#utility.yul\":10029:10038   */\n      dup12\n        /* \"#utility.yul\":10025:10047   */\n      add\n        /* \"#utility.yul\":10004:10057   */\n      tag_292\n      jump\t// in\n    tag_430:\n        /* \"#utility.yul\":9994:10057   */\n      swap8\n      pop\n        /* \"#utility.yul\":9950:10067   */\n      pop\n        /* \"#utility.yul\":10106:10108   */\n      0x20\n        /* \"#utility.yul\":10132:10185   */\n      tag_431\n        /* \"#utility.yul\":10177:10184   */\n      dup11\n        /* \"#utility.yul\":10168:10174   */\n      dup3\n        /* \"#utility.yul\":10157:10166   */\n      dup12\n        /* \"#utility.yul\":10153:10175   */\n      add\n        /* \"#utility.yul\":10132:10185   */\n      tag_292\n      jump\t// in\n    tag_431:\n        /* \"#utility.yul\":10122:10185   */\n      swap7\n      pop\n        /* \"#utility.yul\":10077:10195   */\n      pop\n        /* \"#utility.yul\":10234:10236   */\n      0x40\n        /* \"#utility.yul\":10260:10313   */\n      tag_432\n        /* \"#utility.yul\":10305:10312   */\n      dup11\n        /* \"#utility.yul\":10296:10302   */\n      dup3\n        /* \"#utility.yul\":10285:10294   */\n      dup12\n        /* \"#utility.yul\":10281:10303   */\n      add\n        /* \"#utility.yul\":10260:10313   */\n      tag_295\n      jump\t// in\n    tag_432:\n        /* \"#utility.yul\":10250:10313   */\n      swap6\n      pop\n        /* \"#utility.yul\":10205:10323   */\n      pop\n        /* \"#utility.yul\":10362:10364   */\n      0x60\n        /* \"#utility.yul\":10388:10441   */\n      tag_433\n        /* \"#utility.yul\":10433:10440   */\n      dup11\n        /* \"#utility.yul\":10424:10430   */\n      dup3\n        /* \"#utility.yul\":10413:10422   */\n      dup12\n        /* \"#utility.yul\":10409:10431   */\n      add\n        /* \"#utility.yul\":10388:10441   */\n      tag_295\n      jump\t// in\n    tag_433:\n        /* \"#utility.yul\":10378:10441   */\n      swap5\n      pop\n        /* \"#utility.yul\":10333:10451   */\n      pop\n        /* \"#utility.yul\":10490:10493   */\n      0x80\n        /* \"#utility.yul\":10517:10568   */\n      tag_434\n        /* \"#utility.yul\":10560:10567   */\n      dup11\n        /* \"#utility.yul\":10551:10557   */\n      dup3\n        /* \"#utility.yul\":10540:10549   */\n      dup12\n        /* \"#utility.yul\":10536:10558   */\n      add\n        /* \"#utility.yul\":10517:10568   */\n      tag_314\n      jump\t// in\n    tag_434:\n        /* \"#utility.yul\":10507:10568   */\n      swap4\n      pop\n        /* \"#utility.yul\":10461:10578   */\n      pop\n        /* \"#utility.yul\":10617:10620   */\n      0xa0\n        /* \"#utility.yul\":10644:10697   */\n      tag_435\n        /* \"#utility.yul\":10689:10696   */\n      dup11\n        /* \"#utility.yul\":10680:10686   */\n      dup3\n        /* \"#utility.yul\":10669:10678   */\n      dup12\n        /* \"#utility.yul\":10665:10687   */\n      add\n        /* \"#utility.yul\":10644:10697   */\n      tag_316\n      jump\t// in\n    tag_435:\n        /* \"#utility.yul\":10634:10697   */\n      swap3\n      pop\n        /* \"#utility.yul\":10588:10707   */\n      pop\n        /* \"#utility.yul\":10746:10749   */\n      0xc0\n        /* \"#utility.yul\":10773:10826   */\n      tag_436\n        /* \"#utility.yul\":10818:10825   */\n      dup11\n        /* \"#utility.yul\":10809:10815   */\n      dup3\n        /* \"#utility.yul\":10798:10807   */\n      dup12\n        /* \"#utility.yul\":10794:10816   */\n      add\n        /* \"#utility.yul\":10773:10826   */\n      tag_316\n      jump\t// in\n    tag_436:\n        /* \"#utility.yul\":10763:10826   */\n      swap2\n      pop\n        /* \"#utility.yul\":10717:10836   */\n      pop\n        /* \"#utility.yul\":9644:10843   */\n      swap3\n      swap6\n      swap9\n      swap2\n      swap5\n      swap8\n      pop\n      swap3\n      swap6\n      pop\n      jump\t// out\n        /* \"#utility.yul\":10849:11323   */\n    tag_81:\n        /* \"#utility.yul\":10917:10923   */\n      0x00\n        /* \"#utility.yul\":10925:10931   */\n      dup1\n        /* \"#utility.yul\":10974:10976   */\n      0x40\n        /* \"#utility.yul\":10962:10971   */\n      dup4\n        /* \"#utility.yul\":10953:10960   */\n      dup6\n        /* \"#utility.yul\":10949:10972   */\n      sub\n        /* \"#utility.yul\":10945:10977   */\n      slt\n        /* \"#utility.yul\":10942:11061   */\n      iszero\n      tag_438\n      jumpi\n        /* \"#utility.yul\":10980:11059   */\n      tag_439\n      tag_287\n      jump\t// in\n    tag_439:\n        /* \"#utility.yul\":10942:11061   */\n    tag_438:\n        /* \"#utility.yul\":11100:11101   */\n      0x00\n        /* \"#utility.yul\":11125:11178   */\n      tag_440\n        /* \"#utility.yul\":11170:11177   */\n      dup6\n        /* \"#utility.yul\":11161:11167   */\n      dup3\n        /* \"#utility.yul\":11150:11159   */\n      dup7\n        /* \"#utility.yul\":11146:11168   */\n      add\n        /* \"#utility.yul\":11125:11178   */\n      tag_292\n      jump\t// in\n    tag_440:\n        /* \"#utility.yul\":11115:11178   */\n      swap3\n      pop\n        /* \"#utility.yul\":11071:11188   */\n      pop\n        /* \"#utility.yul\":11227:11229   */\n      0x20\n        /* \"#utility.yul\":11253:11306   */\n      tag_441\n        /* \"#utility.yul\":11298:11305   */\n      dup6\n        /* \"#utility.yul\":11289:11295   */\n      dup3\n        /* \"#utility.yul\":11278:11287   */\n      dup7\n        /* \"#utility.yul\":11274:11296   */\n      add\n        /* \"#utility.yul\":11253:11306   */\n      tag_292\n      jump\t// in\n    tag_441:\n        /* \"#utility.yul\":11243:11306   */\n      swap2\n      pop\n        /* \"#utility.yul\":11198:11316   */\n      pop\n        /* \"#utility.yul\":10849:11323   */\n      swap3\n      pop\n      swap3\n      swap1\n      pop\n      jump\t// out\n        /* \"#utility.yul\":11329:11509   */\n    tag_317:\n        /* \"#utility.yul\":11377:11454   */\n      0x4e487b7100000000000000000000000000000000000000000000000000000000\n        /* \"#utility.yul\":11374:11375   */\n      0x00\n        /* \"#utility.yul\":11367:11455   */\n      mstore\n        /* \"#utility.yul\":11474:11478   */\n      0x22\n        /* \"#utility.yul\":11471:11472   */\n      0x04\n        /* \"#utility.yul\":11464:11479   */\n      mstore\n        /* \"#utility.yul\":11498:11502   */\n      0x24\n        /* \"#utility.yul\":11495:11496   */\n      0x00\n        /* \"#utility.yul\":11488:11503   */\n      revert\n        /* \"#utility.yul\":11515:11835   */\n    tag_89:\n        /* \"#utility.yul\":11559:11565   */\n      0x00\n        /* \"#utility.yul\":11596:11597   */\n      0x02\n        /* \"#utility.yul\":11590:11594   */\n      dup3\n        /* \"#utility.yul\":11586:11598   */\n      div\n        /* \"#utility.yul\":11576:11598   */\n      swap1\n      pop\n        /* \"#utility.yul\":11643:11644   */\n      0x01\n        /* \"#utility.yul\":11637:11641   */\n      dup3\n        /* \"#utility.yul\":11633:11645   */\n      and\n        /* \"#utility.yul\":11664:11682   */\n      dup1\n        /* \"#utility.yul\":11654:11735   */\n      tag_444\n      jumpi\n        /* \"#utility.yul\":11720:11724   */\n      0x7f\n        /* \"#utility.yul\":11712:11718   */\n      dup3\n        /* \"#utility.yul\":11708:11725   */\n      and\n        /* \"#utility.yul\":11698:11725   */\n      swap2\n      pop\n        /* \"#utility.yul\":11654:11735   */\n    tag_444:\n        /* \"#utility.yul\":11782:11784   */\n      0x20\n        /* \"#utility.yul\":11774:11780   */\n      dup3\n        /* \"#utility.yul\":11771:11785   */\n      lt\n        /* \"#utility.yul\":11751:11769   */\n      dup2\n        /* \"#utility.yul\":11748:11786   */\n      sub\n        /* \"#utility.yul\":11745:11829   */\n      tag_445\n      jumpi\n        /* \"#utility.yul\":11801:11819   */\n      tag_446\n      tag_317\n      jump\t// in\n    tag_446:\n        /* \"#utility.yul\":11745:11829   */\n    tag_445:\n        /* \"#utility.yul\":11566:11835   */\n      pop\n        /* \"#utility.yul\":11515:11835   */\n      swap2\n      swap1\n      pop\n      jump\t// out\n        /* \"#utility.yul\":11841:12021   */\n    tag_127:\n        /* \"#utility.yul\":11889:11966   */\n      0x4e487b7100000000000000000000000000000000000000000000000000000000\n        /* \"#utility.yul\":11886:11887   */\n      0x00\n        /* \"#utility.yul\":11879:11967   */\n      mstore\n        /* \"#utility.yul\":11986:11990   */\n      0x41\n        /* \"#utility.yul\":11983:11984   */\n      0x04\n        /* \"#utility.yul\":11976:11991   */\n      mstore\n        /* \"#utility.yul\":12010:12014   */\n      0x24\n        /* \"#utility.yul\":12007:12008   */\n      0x00\n        /* \"#utility.yul\":12000:12015   */\n      revert\n        /* \"#utility.yul\":12027:12802   */\n    tag_145:\n        /* \"#utility.yul\":12260:12264   */\n      0x00\n        /* \"#utility.yul\":12298:12301   */\n      0xc0\n        /* \"#utility.yul\":12287:12296   */\n      dup3\n        /* \"#utility.yul\":12283:12302   */\n      add\n        /* \"#utility.yul\":12275:12302   */\n      swap1\n      pop\n        /* \"#utility.yul\":12312:12383   */\n      tag_449\n        /* \"#utility.yul\":12380:12381   */\n      0x00\n        /* \"#utility.yul\":12369:12378   */\n      dup4\n        /* \"#utility.yul\":12365:12382   */\n      add\n        /* \"#utility.yul\":12356:12362   */\n      dup10\n        /* \"#utility.yul\":12312:12383   */\n      tag_302\n      jump\t// in\n    tag_449:\n        /* \"#utility.yul\":12393:12465   */\n      tag_450\n        /* \"#utility.yul\":12461:12463   */\n      0x20\n        /* \"#utility.yul\":12450:12459   */\n      dup4\n        /* \"#utility.yul\":12446:12464   */\n      add\n        /* \"#utility.yul\":12437:12443   */\n      dup9\n        /* \"#utility.yul\":12393:12465   */\n      tag_305\n      jump\t// in\n    tag_450:\n        /* \"#utility.yul\":12475:12547   */\n      tag_451\n        /* \"#utility.yul\":12543:12545   */\n      0x40\n        /* \"#utility.yul\":12532:12541   */\n      dup4\n        /* \"#utility.yul\":12528:12546   */\n      add\n        /* \"#utility.yul\":12519:12525   */\n      dup8\n        /* \"#utility.yul\":12475:12547   */\n      tag_305\n      jump\t// in\n    tag_451:\n        /* \"#utility.yul\":12557:12629   */\n      tag_452\n        /* \"#utility.yul\":12625:12627   */\n      0x60\n        /* \"#utility.yul\":12614:12623   */\n      dup4\n        /* \"#utility.yul\":12610:12628   */\n      add\n        /* \"#utility.yul\":12601:12607   */\n      dup7\n        /* \"#utility.yul\":12557:12629   */\n      tag_298\n      jump\t// in\n    tag_452:\n        /* \"#utility.yul\":12639:12712   */\n      tag_453\n        /* \"#utility.yul\":12707:12710   */\n      0x80\n        /* \"#utility.yul\":12696:12705   */\n      dup4\n        /* \"#utility.yul\":12692:12711   */\n      add\n        /* \"#utility.yul\":12683:12689   */\n      dup6\n        /* \"#utility.yul\":12639:12712   */\n      tag_298\n      jump\t// in\n    tag_453:\n        /* \"#utility.yul\":12722:12795   */\n      tag_454\n        /* \"#utility.yul\":12790:12793   */\n      0xa0\n        /* \"#utility.yul\":12779:12788   */\n      dup4\n        /* \"#utility.yul\":12775:12794   */\n      add\n        /* \"#utility.yul\":12766:12772   */\n      dup5\n        /* \"#utility.yul\":12722:12795   */\n      tag_298\n      jump\t// in\n    tag_454:\n        /* \"#utility.yul\":12027:12802   */\n      swap8\n      swap7\n      pop\n      pop\n      pop\n      pop\n      pop\n      pop\n      pop\n      jump\t// out\n        /* \"#utility.yul\":12808:13140   */\n    tag_152:\n        /* \"#utility.yul\":12929:12933   */\n      0x00\n        /* \"#utility.yul\":12967:12969   */\n      0x40\n        /* \"#utility.yul\":12956:12965   */\n      dup3\n        /* \"#utility.yul\":12952:12970   */\n      add\n        /* \"#utility.yul\":12944:12970   */\n      swap1\n      pop\n        /* \"#utility.yul\":12980:13051   */\n      tag_456\n        /* \"#utility.yul\":13048:13049   */\n      0x00\n        /* \"#utility.yul\":13037:13046   */\n      dup4\n        /* \"#utility.yul\":13033:13050   */\n      add\n        /* \"#utility.yul\":13024:13030   */\n      dup6\n        /* \"#utility.yul\":12980:13051   */\n      tag_305\n      jump\t// in\n    tag_456:\n        /* \"#utility.yul\":13061:13133   */\n      tag_457\n        /* \"#utility.yul\":13129:13131   */\n      0x20\n        /* \"#utility.yul\":13118:13127   */\n      dup4\n        /* \"#utility.yul\":13114:13132   */\n      add\n        /* \"#utility.yul\":13105:13111   */\n      dup5\n        /* \"#utility.yul\":13061:13133   */\n      tag_305\n      jump\t// in\n    tag_457:\n        /* \"#utility.yul\":12808:13140   */\n      swap4\n      swap3\n      pop\n      pop\n      pop\n      jump\t// out\n        /* \"#utility.yul\":13146:13588   */\n    tag_170:\n        /* \"#utility.yul\":13295:13299   */\n      0x00\n        /* \"#utility.yul\":13333:13335   */\n      0x60\n        /* \"#utility.yul\":13322:13331   */\n      dup3\n        /* \"#utility.yul\":13318:13336   */\n      add\n        /* \"#utility.yul\":13310:13336   */\n      swap1\n      pop\n        /* \"#utility.yul\":13346:13417   */\n      tag_459\n        /* \"#utility.yul\":13414:13415   */\n      0x00\n        /* \"#utility.yul\":13403:13412   */\n      dup4\n        /* \"#utility.yul\":13399:13416   */\n      add\n        /* \"#utility.yul\":13390:13396   */\n      dup7\n        /* \"#utility.yul\":13346:13417   */\n      tag_305\n      jump\t// in\n    tag_459:\n        /* \"#utility.yul\":13427:13499   */\n      tag_460\n        /* \"#utility.yul\":13495:13497   */\n      0x20\n        /* \"#utility.yul\":13484:13493   */\n      dup4\n        /* \"#utility.yul\":13480:13498   */\n      add\n        /* \"#utility.yul\":13471:13477   */\n      dup6\n        /* \"#utility.yul\":13427:13499   */\n      tag_298\n      jump\t// in\n    tag_460:\n        /* \"#utility.yul\":13509:13581   */\n      tag_461\n        /* \"#utility.yul\":13577:13579   */\n      0x40\n        /* \"#utility.yul\":13566:13575   */\n      dup4\n        /* \"#utility.yul\":13562:13580   */\n      add\n        /* \"#utility.yul\":13553:13559   */\n      dup5\n        /* \"#utility.yul\":13509:13581   */\n      tag_298\n      jump\t// in\n    tag_461:\n        /* \"#utility.yul\":13146:13588   */\n      swap5\n      swap4\n      pop\n      pop\n      pop\n      pop\n      jump\t// out\n        /* \"#utility.yul\":13594:13774   */\n    tag_318:\n        /* \"#utility.yul\":13642:13719   */\n      0x4e487b7100000000000000000000000000000000000000000000000000000000\n        /* \"#utility.yul\":13639:13640   */\n      0x00\n        /* \"#utility.yul\":13632:13720   */\n      mstore\n        /* \"#utility.yul\":13739:13743   */\n      0x11\n        /* \"#utility.yul\":13736:13737   */\n      0x04\n        /* \"#utility.yul\":13729:13744   */\n      mstore\n        /* \"#utility.yul\":13763:13767   */\n      0x24\n        /* \"#utility.yul\":13760:13761   */\n      0x00\n        /* \"#utility.yul\":13753:13768   */\n      revert\n        /* \"#utility.yul\":13780:13971   */\n    tag_218:\n        /* \"#utility.yul\":13820:13823   */\n      0x00\n        /* \"#utility.yul\":13839:13859   */\n      tag_464\n        /* \"#utility.yul\":13857:13858   */\n      dup3\n        /* \"#utility.yul\":13839:13859   */\n      tag_293\n      jump\t// in\n    tag_464:\n        /* \"#utility.yul\":13834:13859   */\n      swap2\n      pop\n        /* \"#utility.yul\":13873:13893   */\n      tag_465\n        /* \"#utility.yul\":13891:13892   */\n      dup4\n        /* \"#utility.yul\":13873:13893   */\n      tag_293\n      jump\t// in\n    tag_465:\n        /* \"#utility.yul\":13868:13893   */\n      swap3\n      pop\n        /* \"#utility.yul\":13916:13917   */\n      dup3\n        /* \"#utility.yul\":13913:13914   */\n      dup3\n        /* \"#utility.yul\":13909:13918   */\n      add\n        /* \"#utility.yul\":13902:13918   */\n      swap1\n      pop\n        /* \"#utility.yul\":13937:13940   */\n      dup1\n        /* \"#utility.yul\":13934:13935   */\n      dup3\n        /* \"#utility.yul\":13931:13941   */\n      gt\n        /* \"#utility.yul\":13928:13964   */\n      iszero\n      tag_466\n      jumpi\n        /* \"#utility.yul\":13944:13962   */\n      tag_467\n      tag_318\n      jump\t// in\n    tag_467:\n        /* \"#utility.yul\":13928:13964   */\n    tag_466:\n        /* \"#utility.yul\":13780:13971   */\n      swap3\n      swap2\n      pop\n      pop\n      jump\t// out\n        /* \"#utility.yul\":13977:14641   */\n    tag_227:\n        /* \"#utility.yul\":14182:14186   */\n      0x00\n        /* \"#utility.yul\":14220:14223   */\n      0xa0\n        /* \"#utility.yul\":14209:14218   */\n      dup3\n        /* \"#utility.yul\":14205:14224   */\n      add\n        /* \"#utility.yul\":14197:14224   */\n      swap1\n      pop\n        /* \"#utility.yul\":14234:14305   */\n      tag_469\n        /* \"#utility.yul\":14302:14303   */\n      0x00\n        /* \"#utility.yul\":14291:14300   */\n      dup4\n        /* \"#utility.yul\":14287:14304   */\n      add\n        /* \"#utility.yul\":14278:14284   */\n      dup9\n        /* \"#utility.yul\":14234:14305   */\n      tag_302\n      jump\t// in\n    tag_469:\n        /* \"#utility.yul\":14315:14387   */\n      tag_470\n        /* \"#utility.yul\":14383:14385   */\n      0x20\n        /* \"#utility.yul\":14372:14381   */\n      dup4\n        /* \"#utility.yul\":14368:14386   */\n      add\n        /* \"#utility.yul\":14359:14365   */\n      dup8\n        /* \"#utility.yul\":14315:14387   */\n      tag_302\n      jump\t// in\n    tag_470:\n        /* \"#utility.yul\":14397:14469   */\n      tag_471\n        /* \"#utility.yul\":14465:14467   */\n      0x40\n        /* \"#utility.yul\":14454:14463   */\n      dup4\n        /* \"#utility.yul\":14450:14468   */\n      add\n        /* \"#utility.yul\":14441:14447   */\n      dup7\n        /* \"#utility.yul\":14397:14469   */\n      tag_302\n      jump\t// in\n    tag_471:\n        /* \"#utility.yul\":14479:14551   */\n      tag_472\n        /* \"#utility.yul\":14547:14549   */\n      0x60\n        /* \"#utility.yul\":14536:14545   */\n      dup4\n        /* \"#utility.yul\":14532:14550   */\n      add\n        /* \"#utility.yul\":14523:14529   */\n      dup6\n        /* \"#utility.yul\":14479:14551   */\n      tag_298\n      jump\t// in\n    tag_472:\n        /* \"#utility.yul\":14561:14634   */\n      tag_473\n        /* \"#utility.yul\":14629:14632   */\n      0x80\n        /* \"#utility.yul\":14618:14627   */\n      dup4\n        /* \"#utility.yul\":14614:14633   */\n      add\n        /* \"#utility.yul\":14605:14611   */\n      dup5\n        /* \"#utility.yul\":14561:14634   */\n      tag_305\n      jump\t// in\n    tag_473:\n        /* \"#utility.yul\":13977:14641   */\n      swap7\n      swap6\n      pop\n      pop\n      pop\n      pop\n      pop\n      pop\n      jump\t// out\n        /* \"#utility.yul\":14647:15192   */\n    tag_242:\n        /* \"#utility.yul\":14820:14824   */\n      0x00\n        /* \"#utility.yul\":14858:14861   */\n      0x80\n        /* \"#utility.yul\":14847:14856   */\n      dup3\n        /* \"#utility.yul\":14843:14862   */\n      add\n        /* \"#utility.yul\":14835:14862   */\n      swap1\n      pop\n        /* \"#utility.yul\":14872:14943   */\n      tag_475\n        /* \"#utility.yul\":14940:14941   */\n      0x00\n        /* \"#utility.yul\":14929:14938   */\n      dup4\n        /* \"#utility.yul\":14925:14942   */\n      add\n        /* \"#utility.yul\":14916:14922   */\n      dup8\n        /* \"#utility.yul\":14872:14943   */\n      tag_302\n      jump\t// in\n    tag_475:\n        /* \"#utility.yul\":14953:15021   */\n      tag_476\n        /* \"#utility.yul\":15017:15019   */\n      0x20\n        /* \"#utility.yul\":15006:15015   */\n      dup4\n        /* \"#utility.yul\":15002:15020   */\n      add\n        /* \"#utility.yul\":14993:14999   */\n      dup7\n        /* \"#utility.yul\":14953:15021   */\n      tag_300\n      jump\t// in\n    tag_476:\n        /* \"#utility.yul\":15031:15103   */\n      tag_477\n        /* \"#utility.yul\":15099:15101   */\n      0x40\n        /* \"#utility.yul\":15088:15097   */\n      dup4\n        /* \"#utility.yul\":15084:15102   */\n      add\n        /* \"#utility.yul\":15075:15081   */\n      dup6\n        /* \"#utility.yul\":15031:15103   */\n      tag_302\n      jump\t// in\n    tag_477:\n        /* \"#utility.yul\":15113:15185   */\n      tag_478\n        /* \"#utility.yul\":15181:15183   */\n      0x60\n        /* \"#utility.yul\":15170:15179   */\n      dup4\n        /* \"#utility.yul\":15166:15184   */\n      add\n        /* \"#utility.yul\":15157:15163   */\n      dup5\n        /* \"#utility.yul\":15113:15185   */\n      tag_302\n      jump\t// in\n    tag_478:\n        /* \"#utility.yul\":14647:15192   */\n      swap6\n      swap5\n      pop\n      pop\n      pop\n      pop\n      pop\n      jump\t// out\n        /* \"#utility.yul\":15198:15378   */\n    tag_249:\n        /* \"#utility.yul\":15246:15323   */\n      0x4e487b7100000000000000000000000000000000000000000000000000000000\n        /* \"#utility.yul\":15243:15244   */\n      0x00\n        /* \"#utility.yul\":15236:15324   */\n      mstore\n        /* \"#utility.yul\":15343:15347   */\n      0x21\n        /* \"#utility.yul\":15340:15341   */\n      0x04\n        /* \"#utility.yul\":15333:15348   */\n      mstore\n        /* \"#utility.yul\":15367:15371   */\n      0x24\n        /* \"#utility.yul\":15364:15365   */\n      0x00\n        /* \"#utility.yul\":15357:15372   */\n      revert\n\n    auxdata: 0xa2646970667358221220a283f1fe54333757acc576d59a1dd509542392ac5d9099e8c596fe11c39397fb64736f6c63430008160033\n}\n",
				"bytecode": {
					"linkReferences": {},
					"object": "61016060405234801562000011575f80fd5b5060405162002e1d38038062002e1d8339818101604052810190620000379190620007b8565b806040518060400160405280600781526020017f5069676d656e7400000000000000000000000000000000000000000000000000815250806040518060400160405280600181526020017f31000000000000000000000000000000000000000000000000000000000000008152506040518060400160405280600781526020017f5069676d656e74000000000000000000000000000000000000000000000000008152506040518060400160405280600481526020017f50474d5400000000000000000000000000000000000000000000000000000000815250816003908162000122919062000a4c565b50806004908162000134919062000a4c565b5050506200014d600583620002b660201b90919060201c565b61012081815250506200016b600682620002b660201b90919060201c565b6101408181525050818051906020012060e08181525050808051906020012061010081815250504660a08181525050620001aa6200030b60201b60201c565b608081815250503073ffffffffffffffffffffffffffffffffffffffff1660c08173ffffffffffffffffffffffffffffffffffffffff16815250505050505f73ffffffffffffffffffffffffffffffffffffffff168173ffffffffffffffffffffffffffffffffffffffff16036200025b575f6040517f1e4fbdf700000000000000000000000000000000000000000000000000000000815260040162000252919062000b41565b60405180910390fd5b6200026c816200036760201b60201c565b50620002af33620002826200042a60201b60201c565b600a62000290919062000ce5565b6505a38ccc3000620002a3919062000d35565b6200043260201b60201c565b5062000fdf565b5f602083511015620002db57620002d383620004bc60201b60201c565b905062000305565b82620002ed836200052660201b60201c565b5f019081620002fd919062000a4c565b5060ff5f1b90505b92915050565b5f7f8b73c3c69bb8fe3d512ecc4cf759cc79239f7b179b0ffacaa9a75d522b39400f60e0516101005146306040516020016200034c95949392919062000daa565b60405160208183030381529060405280519060200120905090565b5f60085f9054906101000a900473ffffffffffffffffffffffffffffffffffffffff1690508160085f6101000a81548173ffffffffffffffffffffffffffffffffffffffff021916908373ffffffffffffffffffffffffffffffffffffffff1602179055508173ffffffffffffffffffffffffffffffffffffffff168173ffffffffffffffffffffffffffffffffffffffff167f8be0079c531659141344cd1fd0a4f28419497f9722a3daafe3b4186f6b6457e060405160405180910390a35050565b5f6012905090565b5f73ffffffffffffffffffffffffffffffffffffffff168273ffffffffffffffffffffffffffffffffffffffff1603620004a5575f6040517fec442f050000000000000000000000000000000000000000000000000000000081526004016200049c919062000b41565b60405180910390fd5b620004b85f83836200052f60201b60201c565b5050565b5f80829050601f815111156200050b57826040517f305a27a900000000000000000000000000000000000000000000000000000000815260040162000502919062000e8f565b60405180910390fd5b805181620005199062000ee0565b5f1c175f1b915050919050565b5f819050919050565b5f73ffffffffffffffffffffffffffffffffffffffff168373ffffffffffffffffffffffffffffffffffffffff160362000583578060025f82825462000576919062000f4f565b9250508190555062000654565b5f805f8573ffffffffffffffffffffffffffffffffffffffff1673ffffffffffffffffffffffffffffffffffffffff1681526020019081526020015f20549050818110156200060f578381836040517fe450d38c000000000000000000000000000000000000000000000000000000008152600401620006069392919062000f89565b60405180910390fd5b8181035f808673ffffffffffffffffffffffffffffffffffffffff1673ffffffffffffffffffffffffffffffffffffffff1681526020019081526020015f2081905550505b5f73ffffffffffffffffffffffffffffffffffffffff168273ffffffffffffffffffffffffffffffffffffffff16036200069d578060025f8282540392505081905550620006e7565b805f808473ffffffffffffffffffffffffffffffffffffffff1673ffffffffffffffffffffffffffffffffffffffff1681526020019081526020015f205f82825401925050819055505b8173ffffffffffffffffffffffffffffffffffffffff168373ffffffffffffffffffffffffffffffffffffffff167fddf252ad1be2c89b69c2b068fc378daa952ba7f163c4a11628f55a4df523b3ef8360405162000746919062000fc4565b60405180910390a3505050565b5f80fd5b5f73ffffffffffffffffffffffffffffffffffffffff82169050919050565b5f620007828262000757565b9050919050565b620007948162000776565b81146200079f575f80fd5b50565b5f81519050620007b28162000789565b92915050565b5f60208284031215620007d057620007cf62000753565b5b5f620007df84828501620007a2565b91505092915050565b5f81519050919050565b7f4e487b71000000000000000000000000000000000000000000000000000000005f52604160045260245ffd5b7f4e487b71000000000000000000000000000000000000000000000000000000005f52602260045260245ffd5b5f60028204905060018216806200086457607f821691505b6020821081036200087a57620008796200081f565b5b50919050565b5f819050815f5260205f209050919050565b5f6020601f8301049050919050565b5f82821b905092915050565b5f60088302620008de7fffffffffffffffffffffffffffffffffffffffffffffffffffffffffffffffff82620008a1565b620008ea8683620008a1565b95508019841693508086168417925050509392505050565b5f819050919050565b5f819050919050565b5f620009346200092e620009288462000902565b6200090b565b62000902565b9050919050565b5f819050919050565b6200094f8362000914565b620009676200095e826200093b565b848454620008ad565b825550505050565b5f90565b6200097d6200096f565b6200098a81848462000944565b505050565b5b81811015620009b157620009a55f8262000973565b60018101905062000990565b5050565b601f82111562000a0057620009ca8162000880565b620009d58462000892565b81016020851015620009e5578190505b620009fd620009f48562000892565b8301826200098f565b50505b505050565b5f82821c905092915050565b5f62000a225f198460080262000a05565b1980831691505092915050565b5f62000a3c838362000a11565b9150826002028217905092915050565b62000a5782620007e8565b67ffffffffffffffff81111562000a735762000a72620007f2565b5b62000a7f82546200084c565b62000a8c828285620009b5565b5f60209050601f83116001811462000ac2575f841562000aad578287015190505b62000ab9858262000a2f565b86555062000b28565b601f19841662000ad28662000880565b5f5b8281101562000afb5784890151825560018201915060208501945060208101905062000ad4565b8683101562000b1b578489015162000b17601f89168262000a11565b8355505b6001600288020188555050505b505050505050565b62000b3b8162000776565b82525050565b5f60208201905062000b565f83018462000b30565b92915050565b7f4e487b71000000000000000000000000000000000000000000000000000000005f52601160045260245ffd5b5f8160011c9050919050565b5f808291508390505b600185111562000be65780860481111562000bbe5762000bbd62000b5c565b5b600185161562000bce5780820291505b808102905062000bde8562000b89565b945062000b9e565b94509492505050565b5f8262000c00576001905062000cd2565b8162000c0f575f905062000cd2565b816001811462000c28576002811462000c335762000c69565b600191505062000cd2565b60ff84111562000c485762000c4762000b5c565b5b8360020a91508482111562000c625762000c6162000b5c565b5b5062000cd2565b5060208310610133831016604e8410600b841016171562000ca35782820a90508381111562000c9d5762000c9c62000b5c565b5b62000cd2565b62000cb2848484600162000b95565b9250905081840481111562000ccc5762000ccb62000b5c565b5b81810290505b9392505050565b5f60ff82169050919050565b5f62000cf18262000902565b915062000cfe8362000cd9565b925062000d2d7fffffffffffffffffffffffffffffffffffffffffffffffffffffffffffffffff848462000bef565b905092915050565b5f62000d418262000902565b915062000d4e8362000902565b925082820262000d5e8162000902565b9150828204841483151762000d785762000d7762000b5c565b5b5092915050565b5f819050919050565b62000d938162000d7f565b82525050565b62000da48162000902565b82525050565b5f60a08201905062000dbf5f83018862000d88565b62000dce602083018762000d88565b62000ddd604083018662000d88565b62000dec606083018562000d99565b62000dfb608083018462000b30565b9695505050505050565b5f82825260208201905092915050565b5f5b8381101562000e3457808201518184015260208101905062000e17565b5f8484015250505050565b5f601f19601f8301169050919050565b5f62000e5b82620007e8565b62000e67818562000e05565b935062000e7981856020860162000e15565b62000e848162000e3f565b840191505092915050565b5f6020820190508181035f83015262000ea9818462000e4f565b905092915050565b5f81519050919050565b5f819050602082019050919050565b5f62000ed7825162000d7f565b80915050919050565b5f62000eec8262000eb1565b8262000ef88462000ebb565b905062000f058162000eca565b9250602082101562000f485762000f437fffffffffffffffffffffffffffffffffffffffffffffffffffffffffffffffff83602003600802620008a1565b831692505b5050919050565b5f62000f5b8262000902565b915062000f688362000902565b925082820190508082111562000f835762000f8262000b5c565b5b92915050565b5f60608201905062000f9e5f83018662000b30565b62000fad602083018562000d99565b62000fbc604083018462000d99565b949350505050565b5f60208201905062000fd95f83018462000d99565b92915050565b60805160a05160c05160e051610100516101205161014051611dec620010315f395f610c9301525f610c5801525f61118c01525f61116b01525f610a0c01525f610a6201525f610a8b0152611dec5ff3fe608060405234801561000f575f80fd5b50600436106100fe575f3560e01c80637ecebe0011610095578063a9059cbb11610064578063a9059cbb146102a4578063d505accf146102d4578063dd62ed3e146102f0578063f2fde38b14610320576100fe565b80637ecebe001461021457806384b0196e146102445780638da5cb5b1461026857806395d89b4114610286576100fe565b8063313ce567116100d1578063313ce5671461019e5780633644e515146101bc57806370a08231146101da578063715018a61461020a576100fe565b806306fdde0314610102578063095ea7b31461012057806318160ddd1461015057806323b872dd1461016e575b5f80fd5b61010a61033c565b604051610117919061165c565b60405180910390f35b61013a6004803603810190610135919061170d565b6103cc565b6040516101479190611765565b60405180910390f35b6101586103ee565b604051610165919061178d565b60405180910390f35b610188600480360381019061018391906117a6565b6103f7565b6040516101959190611765565b60405180910390f35b6101a6610425565b6040516101b39190611811565b60405180910390f35b6101c461042d565b6040516101d19190611842565b60405180910390f35b6101f460048036038101906101ef919061185b565b61043b565b604051610201919061178d565b60405180910390f35b610212610480565b005b61022e6004803603810190610229919061185b565b610493565b60405161023b919061178d565b60405180910390f35b61024c6104a4565b60405161025f9796959493929190611986565b60405180910390f35b610270610549565b60405161027d9190611a08565b60405180910390f35b61028e610571565b60405161029b919061165c565b60405180910390f35b6102be60048036038101906102b9919061170d565b610601565b6040516102cb9190611765565b60405180910390f35b6102ee60048036038101906102e99190611a75565b610623565b005b61030a60048036038101906103059190611b12565b610768565b604051610317919061178d565b60405180910390f35b61033a6004803603810190610335919061185b565b6107ea565b005b60606003805461034b90611b7d565b80601f016020809104026020016040519081016040528092919081815260200182805461037790611b7d565b80156103c25780601f10610399576101008083540402835291602001916103c2565b820191905f5260205f20905b8154815290600101906020018083116103a557829003601f168201915b5050505050905090565b5f806103d661086e565b90506103e3818585610875565b600191505092915050565b5f600254905090565b5f8061040161086e565b905061040e858285610887565b610419858585610919565b60019150509392505050565b5f6012905090565b5f610436610a09565b905090565b5f805f8373ffffffffffffffffffffffffffffffffffffffff1673ffffffffffffffffffffffffffffffffffffffff1681526020019081526020015f20549050919050565b610488610abf565b6104915f610b46565b565b5f61049d82610c09565b9050919050565b5f6060805f805f60606104b5610c4f565b6104bd610c8a565b46305f801b5f67ffffffffffffffff8111156104dc576104db611bad565b5b60405190808252806020026020018201604052801561050a5781602001602082028036833780820191505090505b507f0f00000000000000000000000000000000000000000000000000000000000000959493929190965096509650965096509650965090919293949596565b5f60085f9054906101000a900473ffffffffffffffffffffffffffffffffffffffff16905090565b60606004805461058090611b7d565b80601f01602080910402602001604051908101604052809291908181526020018280546105ac90611b7d565b80156105f75780601f106105ce576101008083540402835291602001916105f7565b820191905f5260205f20905b8154815290600101906020018083116105da57829003601f168201915b5050505050905090565b5f8061060b61086e565b9050610618818585610919565b600191505092915050565b8342111561066857836040517f6279130200000000000000000000000000000000000000000000000000000000815260040161065f919061178d565b60405180910390fd5b5f7f6e71edae12b1b97f4d1f60370fef10105fa2faae0126114a169c64845d6126c98888886106968c610cc5565b896040516020016106ac96959493929190611bda565b6040516020818303038152906040528051906020012090505f6106ce82610d18565b90505f6106dd82878787610d31565b90508973ffffffffffffffffffffffffffffffffffffffff168173ffffffffffffffffffffffffffffffffffffffff161461075157808a6040517f4b800e46000000000000000000000000000000000000000000000000000000008152600401610748929190611c39565b60405180910390fd5b61075c8a8a8a610875565b50505050505050505050565b5f60015f8473ffffffffffffffffffffffffffffffffffffffff1673ffffffffffffffffffffffffffffffffffffffff1681526020019081526020015f205f8373ffffffffffffffffffffffffffffffffffffffff1673ffffffffffffffffffffffffffffffffffffffff1681526020019081526020015f2054905092915050565b6107f2610abf565b5f73ffffffffffffffffffffffffffffffffffffffff168173ffffffffffffffffffffffffffffffffffffffff1603610862575f6040517f1e4fbdf70000000000000000000000000000000000000000000000000000000081526004016108599190611a08565b60405180910390fd5b61086b81610b46565b50565b5f33905090565b6108828383836001610d5f565b505050565b5f6108928484610768565b90507fffffffffffffffffffffffffffffffffffffffffffffffffffffffffffffffff81146109135781811015610904578281836040517ffb8f41b20000000000000000000000000000000000000000000000000000000081526004016108fb93929190611c60565b60405180910390fd5b61091284848484035f610d5f565b5b50505050565b5f73ffffffffffffffffffffffffffffffffffffffff168373ffffffffffffffffffffffffffffffffffffffff1603610989575f6040517f96c6fd1e0000000000000000000000000000000000000000000000000000000081526004016109809190611a08565b60405180910390fd5b5f73ffffffffffffffffffffffffffffffffffffffff168273ffffffffffffffffffffffffffffffffffffffff16036109f9575f6040517fec442f050000000000000000000000000000000000000000000000000000000081526004016109f09190611a08565b60405180910390fd5b610a04838383610f2e565b505050565b5f7f000000000000000000000000000000000000000000000000000000000000000073ffffffffffffffffffffffffffffffffffffffff163073ffffffffffffffffffffffffffffffffffffffff16148015610a8457507f000000000000000000000000000000000000000000000000000000000000000046145b15610ab1577f00000000000000000000000000000000000000000000000000000000000000009050610abc565b610ab9611147565b90505b90565b610ac761086e565b73ffffffffffffffffffffffffffffffffffffffff16610ae5610549565b73ffffffffffffffffffffffffffffffffffffffff1614610b4457610b0861086e565b6040517f118cdaa7000000000000000000000000000000000000000000000000000000008152600401610b3b9190611a08565b60405180910390fd5b565b5f60085f9054906101000a900473ffffffffffffffffffffffffffffffffffffffff1690508160085f6101000a81548173ffffffffffffffffffffffffffffffffffffffff021916908373ffffffffffffffffffffffffffffffffffffffff1602179055508173ffffffffffffffffffffffffffffffffffffffff168173ffffffffffffffffffffffffffffffffffffffff167f8be0079c531659141344cd1fd0a4f28419497f9722a3daafe3b4186f6b6457e060405160405180910390a35050565b5f60075f8373ffffffffffffffffffffffffffffffffffffffff1673ffffffffffffffffffffffffffffffffffffffff1681526020019081526020015f20549050919050565b6060610c8560057f00000000000000000000000000000000000000000000000000000000000000006111dc90919063ffffffff16565b905090565b6060610cc060067f00000000000000000000000000000000000000000000000000000000000000006111dc90919063ffffffff16565b905090565b5f60075f8373ffffffffffffffffffffffffffffffffffffffff1673ffffffffffffffffffffffffffffffffffffffff1681526020019081526020015f205f815480929190600101919050559050919050565b5f610d2a610d24610a09565b83611289565b9050919050565b5f805f80610d41888888886112c9565b925092509250610d5182826113b0565b829350505050949350505050565b5f73ffffffffffffffffffffffffffffffffffffffff168473ffffffffffffffffffffffffffffffffffffffff1603610dcf575f6040517fe602df05000000000000000000000000000000000000000000000000000000008152600401610dc69190611a08565b60405180910390fd5b5f73ffffffffffffffffffffffffffffffffffffffff168373ffffffffffffffffffffffffffffffffffffffff1603610e3f575f6040517f94280d62000000000000000000000000000000000000000000000000000000008152600401610e369190611a08565b60405180910390fd5b8160015f8673ffffffffffffffffffffffffffffffffffffffff1673ffffffffffffffffffffffffffffffffffffffff1681526020019081526020015f205f8573ffffffffffffffffffffffffffffffffffffffff1673ffffffffffffffffffffffffffffffffffffffff1681526020019081526020015f20819055508015610f28578273ffffffffffffffffffffffffffffffffffffffff168473ffffffffffffffffffffffffffffffffffffffff167f8c5be1e5ebec7d5bd14f71427d1e84f3dd0314c0f7b2291e5b200ac8c7c3b92584604051610f1f919061178d565b60405180910390a35b50505050565b5f73ffffffffffffffffffffffffffffffffffffffff168373ffffffffffffffffffffffffffffffffffffffff1603610f7e578060025f828254610f729190611cc2565b9250508190555061104c565b5f805f8573ffffffffffffffffffffffffffffffffffffffff1673ffffffffffffffffffffffffffffffffffffffff1681526020019081526020015f2054905081811015611007578381836040517fe450d38c000000000000000000000000000000000000000000000000000000008152600401610ffe93929190611c60565b60405180910390fd5b8181035f808673ffffffffffffffffffffffffffffffffffffffff1673ffffffffffffffffffffffffffffffffffffffff1681526020019081526020015f2081905550505b5f73ffffffffffffffffffffffffffffffffffffffff168273ffffffffffffffffffffffffffffffffffffffff1603611093578060025f82825403925050819055506110dd565b805f808473ffffffffffffffffffffffffffffffffffffffff1673ffffffffffffffffffffffffffffffffffffffff1681526020019081526020015f205f82825401925050819055505b8173ffffffffffffffffffffffffffffffffffffffff168373ffffffffffffffffffffffffffffffffffffffff167fddf252ad1be2c89b69c2b068fc378daa952ba7f163c4a11628f55a4df523b3ef8360405161113a919061178d565b60405180910390a3505050565b5f7f8b73c3c69bb8fe3d512ecc4cf759cc79239f7b179b0ffacaa9a75d522b39400f7f00000000000000000000000000000000000000000000000000000000000000007f000000000000000000000000000000000000000000000000000000000000000046306040516020016111c1959493929190611cf5565b60405160208183030381529060405280519060200120905090565b606060ff5f1b83146111f8576111f183611512565b9050611283565b81805461120490611b7d565b80601f016020809104026020016040519081016040528092919081815260200182805461123090611b7d565b801561127b5780601f106112525761010080835404028352916020019161127b565b820191905f5260205f20905b81548152906001019060200180831161125e57829003601f168201915b505050505090505b92915050565b5f6040517f190100000000000000000000000000000000000000000000000000000000000081528360028201528260228201526042812091505092915050565b5f805f7f7fffffffffffffffffffffffffffffff5d576e7357a4501ddfe92f46681b20a0845f1c1115611305575f6003859250925092506113a6565b5f6001888888886040515f81526020016040526040516113289493929190611d46565b6020604051602081039080840390855afa158015611348573d5f803e3d5ffd5b5050506020604051035190505f73ffffffffffffffffffffffffffffffffffffffff168173ffffffffffffffffffffffffffffffffffffffff1603611399575f60015f801b935093509350506113a6565b805f805f1b935093509350505b9450945094915050565b5f60038111156113c3576113c2611d89565b5b8260038111156113d6576113d5611d89565b5b031561150e57600160038111156113f0576113ef611d89565b5b82600381111561140357611402611d89565b5b0361143a576040517ff645eedf00000000000000000000000000000000000000000000000000000000815260040160405180910390fd5b6002600381111561144e5761144d611d89565b5b82600381111561146157611460611d89565b5b036114a557805f1c6040517ffce698f700000000000000000000000000000000000000000000000000000000815260040161149c919061178d565b60405180910390fd5b6003808111156114b8576114b7611d89565b5b8260038111156114cb576114ca611d89565b5b0361150d57806040517fd78bce0c0000000000000000000000000000000000000000000000000000000081526004016115049190611842565b60405180910390fd5b5b5050565b60605f61151e83611584565b90505f602067ffffffffffffffff81111561153c5761153b611bad565b5b6040519080825280601f01601f19166020018201604052801561156e5781602001600182028036833780820191505090505b5090508181528360208201528092505050919050565b5f8060ff835f1c169050601f8111156115c9576040517fb3512b0c00000000000000000000000000000000000000000000000000000000815260040160405180910390fd5b80915050919050565b5f81519050919050565b5f82825260208201905092915050565b5f5b838110156116095780820151818401526020810190506115ee565b5f8484015250505050565b5f601f19601f8301169050919050565b5f61162e826115d2565b61163881856115dc565b93506116488185602086016115ec565b61165181611614565b840191505092915050565b5f6020820190508181035f8301526116748184611624565b905092915050565b5f80fd5b5f73ffffffffffffffffffffffffffffffffffffffff82169050919050565b5f6116a982611680565b9050919050565b6116b98161169f565b81146116c3575f80fd5b50565b5f813590506116d4816116b0565b92915050565b5f819050919050565b6116ec816116da565b81146116f6575f80fd5b50565b5f81359050611707816116e3565b92915050565b5f80604083850312156117235761172261167c565b5b5f611730858286016116c6565b9250506020611741858286016116f9565b9150509250929050565b5f8115159050919050565b61175f8161174b565b82525050565b5f6020820190506117785f830184611756565b92915050565b611787816116da565b82525050565b5f6020820190506117a05f83018461177e565b92915050565b5f805f606084860312156117bd576117bc61167c565b5b5f6117ca868287016116c6565b93505060206117db868287016116c6565b92505060406117ec868287016116f9565b9150509250925092565b5f60ff82169050919050565b61180b816117f6565b82525050565b5f6020820190506118245f830184611802565b92915050565b5f819050919050565b61183c8161182a565b82525050565b5f6020820190506118555f830184611833565b92915050565b5f602082840312156118705761186f61167c565b5b5f61187d848285016116c6565b91505092915050565b5f7fff0000000000000000000000000000000000000000000000000000000000000082169050919050565b6118ba81611886565b82525050565b6118c98161169f565b82525050565b5f81519050919050565b5f82825260208201905092915050565b5f819050602082019050919050565b611901816116da565b82525050565b5f61191283836118f8565b60208301905092915050565b5f602082019050919050565b5f611934826118cf565b61193e81856118d9565b9350611949836118e9565b805f5b838110156119795781516119608882611907565b975061196b8361191e565b92505060018101905061194c565b5085935050505092915050565b5f60e0820190506119995f83018a6118b1565b81810360208301526119ab8189611624565b905081810360408301526119bf8188611624565b90506119ce606083018761177e565b6119db60808301866118c0565b6119e860a0830185611833565b81810360c08301526119fa818461192a565b905098975050505050505050565b5f602082019050611a1b5f8301846118c0565b92915050565b611a2a816117f6565b8114611a34575f80fd5b50565b5f81359050611a4581611a21565b92915050565b611a548161182a565b8114611a5e575f80fd5b50565b5f81359050611a6f81611a4b565b92915050565b5f805f805f805f60e0888a031215611a9057611a8f61167c565b5b5f611a9d8a828b016116c6565b9750506020611aae8a828b016116c6565b9650506040611abf8a828b016116f9565b9550506060611ad08a828b016116f9565b9450506080611ae18a828b01611a37565b93505060a0611af28a828b01611a61565b92505060c0611b038a828b01611a61565b91505092959891949750929550565b5f8060408385031215611b2857611b2761167c565b5b5f611b35858286016116c6565b9250506020611b46858286016116c6565b9150509250929050565b7f4e487b71000000000000000000000000000000000000000000000000000000005f52602260045260245ffd5b5f6002820490506001821680611b9457607f821691505b602082108103611ba757611ba6611b50565b5b50919050565b7f4e487b71000000000000000000000000000000000000000000000000000000005f52604160045260245ffd5b5f60c082019050611bed5f830189611833565b611bfa60208301886118c0565b611c0760408301876118c0565b611c14606083018661177e565b611c21608083018561177e565b611c2e60a083018461177e565b979650505050505050565b5f604082019050611c4c5f8301856118c0565b611c5960208301846118c0565b9392505050565b5f606082019050611c735f8301866118c0565b611c80602083018561177e565b611c8d604083018461177e565b949350505050565b7f4e487b71000000000000000000000000000000000000000000000000000000005f52601160045260245ffd5b5f611ccc826116da565b9150611cd7836116da565b9250828201905080821115611cef57611cee611c95565b5b92915050565b5f60a082019050611d085f830188611833565b611d156020830187611833565b611d226040830186611833565b611d2f606083018561177e565b611d3c60808301846118c0565b9695505050505050565b5f608082019050611d595f830187611833565b611d666020830186611802565b611d736040830185611833565b611d806060830184611833565b95945050505050565b7f4e487b71000000000000000000000000000000000000000000000000000000005f52602160045260245ffdfea2646970667358221220a283f1fe54333757acc576d59a1dd509542392ac5d9099e8c596fe11c39397fb64736f6c63430008160033",
					"opcodes": "PUSH2 0x160 PUSH1 0x40 MSTORE CALLVALUE DUP1 ISZERO PUSH3 0x11 JUMPI PUSH0 DUP1 REVERT JUMPDEST POP PUSH1 0x40 MLOAD PUSH3 0x2E1D CODESIZE SUB DUP1 PUSH3 0x2E1D DUP4 CODECOPY DUP2 DUP2 ADD PUSH1 0x40 MSTORE DUP2 ADD SWAP1 PUSH3 0x37 SWAP2 SWAP1 PUSH3 0x7B8 JUMP JUMPDEST DUP1 PUSH1 0x40 MLOAD DUP1 PUSH1 0x40 ADD PUSH1 0x40 MSTORE DUP1 PUSH1 0x7 DUP2 MSTORE PUSH1 0x20 ADD PUSH32 0x5069676D656E7400000000000000000000000000000000000000000000000000 DUP2 MSTORE POP DUP1 PUSH1 0x40 MLOAD DUP1 PUSH1 0x40 ADD PUSH1 0x40 MSTORE DUP1 PUSH1 0x1 DUP2 MSTORE PUSH1 0x20 ADD PUSH32 0x3100000000000000000000000000000000000000000000000000000000000000 DUP2 MSTORE POP PUSH1 0x40 MLOAD DUP1 PUSH1 0x40 ADD PUSH1 0x40 MSTORE DUP1 PUSH1 0x7 DUP2 MSTORE PUSH1 0x20 ADD PUSH32 0x5069676D656E7400000000000000000000000000000000000000000000000000 DUP2 MSTORE POP PUSH1 0x40 MLOAD DUP1 PUSH1 0x40 ADD PUSH1 0x40 MSTORE DUP1 PUSH1 0x4 DUP2 MSTORE PUSH1 0x20 ADD PUSH32 0x50474D5400000000000000000000000000000000000000000000000000000000 DUP2 MSTORE POP DUP2 PUSH1 0x3 SWAP1 DUP2 PUSH3 0x122 SWAP2 SWAP1 PUSH3 0xA4C JUMP JUMPDEST POP DUP1 PUSH1 0x4 SWAP1 DUP2 PUSH3 0x134 SWAP2 SWAP1 PUSH3 0xA4C JUMP JUMPDEST POP POP POP PUSH3 0x14D PUSH1 0x5 DUP4 PUSH3 0x2B6 PUSH1 0x20 SHL SWAP1 SWAP2 SWAP1 PUSH1 0x20 SHR JUMP JUMPDEST PUSH2 0x120 DUP2 DUP2 MSTORE POP POP PUSH3 0x16B PUSH1 0x6 DUP3 PUSH3 0x2B6 PUSH1 0x20 SHL SWAP1 SWAP2 SWAP1 PUSH1 0x20 SHR JUMP JUMPDEST PUSH2 0x140 DUP2 DUP2 MSTORE POP POP DUP2 DUP1 MLOAD SWAP1 PUSH1 0x20 ADD KECCAK256 PUSH1 0xE0 DUP2 DUP2 MSTORE POP POP DUP1 DUP1 MLOAD SWAP1 PUSH1 0x20 ADD KECCAK256 PUSH2 0x100 DUP2 DUP2 MSTORE POP POP CHAINID PUSH1 0xA0 DUP2 DUP2 MSTORE POP POP PUSH3 0x1AA PUSH3 0x30B PUSH1 0x20 SHL PUSH1 0x20 SHR JUMP JUMPDEST PUSH1 0x80 DUP2 DUP2 MSTORE POP POP ADDRESS PUSH20 0xFFFFFFFFFFFFFFFFFFFFFFFFFFFFFFFFFFFFFFFF AND PUSH1 0xC0 DUP2 PUSH20 0xFFFFFFFFFFFFFFFFFFFFFFFFFFFFFFFFFFFFFFFF AND DUP2 MSTORE POP POP POP POP POP PUSH0 PUSH20 0xFFFFFFFFFFFFFFFFFFFFFFFFFFFFFFFFFFFFFFFF AND DUP2 PUSH20 0xFFFFFFFFFFFFFFFFFFFFFFFFFFFFFFFFFFFFFFFF AND SUB PUSH3 0x25B JUMPI PUSH0 PUSH1 0x40 MLOAD PUSH32 0x1E4FBDF700000000000000000000000000000000000000000000000000000000 DUP2 MSTORE PUSH1 0x4 ADD PUSH3 0x252 SWAP2 SWAP1 PUSH3 0xB41 JUMP JUMPDEST PUSH1 0x40 MLOAD DUP1 SWAP2 SUB SWAP1 REVERT JUMPDEST PUSH3 0x26C DUP2 PUSH3 0x367 PUSH1 0x20 SHL PUSH1 0x20 SHR JUMP JUMPDEST POP PUSH3 0x2AF CALLER PUSH3 0x282 PUSH3 0x42A PUSH1 0x20 SHL PUSH1 0x20 SHR JUMP JUMPDEST PUSH1 0xA PUSH3 0x290 SWAP2 SWAP1 PUSH3 0xCE5 JUMP JUMPDEST PUSH6 0x5A38CCC3000 PUSH3 0x2A3 SWAP2 SWAP1 PUSH3 0xD35 JUMP JUMPDEST PUSH3 0x432 PUSH1 0x20 SHL PUSH1 0x20 SHR JUMP JUMPDEST POP PUSH3 0xFDF JUMP JUMPDEST PUSH0 PUSH1 0x20 DUP4 MLOAD LT ISZERO PUSH3 0x2DB JUMPI PUSH3 0x2D3 DUP4 PUSH3 0x4BC PUSH1 0x20 SHL PUSH1 0x20 SHR JUMP JUMPDEST SWAP1 POP PUSH3 0x305 JUMP JUMPDEST DUP3 PUSH3 0x2ED DUP4 PUSH3 0x526 PUSH1 0x20 SHL PUSH1 0x20 SHR JUMP JUMPDEST PUSH0 ADD SWAP1 DUP2 PUSH3 0x2FD SWAP2 SWAP1 PUSH3 0xA4C JUMP JUMPDEST POP PUSH1 0xFF PUSH0 SHL SWAP1 POP JUMPDEST SWAP3 SWAP2 POP POP JUMP JUMPDEST PUSH0 PUSH32 0x8B73C3C69BB8FE3D512ECC4CF759CC79239F7B179B0FFACAA9A75D522B39400F PUSH1 0xE0 MLOAD PUSH2 0x100 MLOAD CHAINID ADDRESS PUSH1 0x40 MLOAD PUSH1 0x20 ADD PUSH3 0x34C SWAP6 SWAP5 SWAP4 SWAP3 SWAP2 SWAP1 PUSH3 0xDAA JUMP JUMPDEST PUSH1 0x40 MLOAD PUSH1 0x20 DUP2 DUP4 SUB SUB DUP2 MSTORE SWAP1 PUSH1 0x40 MSTORE DUP1 MLOAD SWAP1 PUSH1 0x20 ADD KECCAK256 SWAP1 POP SWAP1 JUMP JUMPDEST PUSH0 PUSH1 0x8 PUSH0 SWAP1 SLOAD SWAP1 PUSH2 0x100 EXP SWAP1 DIV PUSH20 0xFFFFFFFFFFFFFFFFFFFFFFFFFFFFFFFFFFFFFFFF AND SWAP1 POP DUP2 PUSH1 0x8 PUSH0 PUSH2 0x100 EXP DUP2 SLOAD DUP2 PUSH20 0xFFFFFFFFFFFFFFFFFFFFFFFFFFFFFFFFFFFFFFFF MUL NOT AND SWAP1 DUP4 PUSH20 0xFFFFFFFFFFFFFFFFFFFFFFFFFFFFFFFFFFFFFFFF AND MUL OR SWAP1 SSTORE POP DUP2 PUSH20 0xFFFFFFFFFFFFFFFFFFFFFFFFFFFFFFFFFFFFFFFF AND DUP2 PUSH20 0xFFFFFFFFFFFFFFFFFFFFFFFFFFFFFFFFFFFFFFFF AND PUSH32 0x8BE0079C531659141344CD1FD0A4F28419497F9722A3DAAFE3B4186F6B6457E0 PUSH1 0x40 MLOAD PUSH1 0x40 MLOAD DUP1 SWAP2 SUB SWAP1 LOG3 POP POP JUMP JUMPDEST PUSH0 PUSH1 0x12 SWAP1 POP SWAP1 JUMP JUMPDEST PUSH0 PUSH20 0xFFFFFFFFFFFFFFFFFFFFFFFFFFFFFFFFFFFFFFFF AND DUP3 PUSH20 0xFFFFFFFFFFFFFFFFFFFFFFFFFFFFFFFFFFFFFFFF AND SUB PUSH3 0x4A5 JUMPI PUSH0 PUSH1 0x40 MLOAD PUSH32 0xEC442F0500000000000000000000000000000000000000000000000000000000 DUP2 MSTORE PUSH1 0x4 ADD PUSH3 0x49C SWAP2 SWAP1 PUSH3 0xB41 JUMP JUMPDEST PUSH1 0x40 MLOAD DUP1 SWAP2 SUB SWAP1 REVERT JUMPDEST PUSH3 0x4B8 PUSH0 DUP4 DUP4 PUSH3 0x52F PUSH1 0x20 SHL PUSH1 0x20 SHR JUMP JUMPDEST POP POP JUMP JUMPDEST PUSH0 DUP1 DUP3 SWAP1 POP PUSH1 0x1F DUP2 MLOAD GT ISZERO PUSH3 0x50B JUMPI DUP3 PUSH1 0x40 MLOAD PUSH32 0x305A27A900000000000000000000000000000000000000000000000000000000 DUP2 MSTORE PUSH1 0x4 ADD PUSH3 0x502 SWAP2 SWAP1 PUSH3 0xE8F JUMP JUMPDEST PUSH1 0x40 MLOAD DUP1 SWAP2 SUB SWAP1 REVERT JUMPDEST DUP1 MLOAD DUP2 PUSH3 0x519 SWAP1 PUSH3 0xEE0 JUMP JUMPDEST PUSH0 SHR OR PUSH0 SHL SWAP2 POP POP SWAP2 SWAP1 POP JUMP JUMPDEST PUSH0 DUP2 SWAP1 POP SWAP2 SWAP1 POP JUMP JUMPDEST PUSH0 PUSH20 0xFFFFFFFFFFFFFFFFFFFFFFFFFFFFFFFFFFFFFFFF AND DUP4 PUSH20 0xFFFFFFFFFFFFFFFFFFFFFFFFFFFFFFFFFFFFFFFF AND SUB PUSH3 0x583 JUMPI DUP1 PUSH1 0x2 PUSH0 DUP3 DUP3 SLOAD PUSH3 0x576 SWAP2 SWAP1 PUSH3 0xF4F JUMP JUMPDEST SWAP3 POP POP DUP2 SWAP1 SSTORE POP PUSH3 0x654 JUMP JUMPDEST PUSH0 DUP1 PUSH0 DUP6 PUSH20 0xFFFFFFFFFFFFFFFFFFFFFFFFFFFFFFFFFFFFFFFF AND PUSH20 0xFFFFFFFFFFFFFFFFFFFFFFFFFFFFFFFFFFFFFFFF AND DUP2 MSTORE PUSH1 0x20 ADD SWAP1 DUP2 MSTORE PUSH1 0x20 ADD PUSH0 KECCAK256 SLOAD SWAP1 POP DUP2 DUP2 LT ISZERO PUSH3 0x60F JUMPI DUP4 DUP2 DUP4 PUSH1 0x40 MLOAD PUSH32 0xE450D38C00000000000000000000000000000000000000000000000000000000 DUP2 MSTORE PUSH1 0x4 ADD PUSH3 0x606 SWAP4 SWAP3 SWAP2 SWAP1 PUSH3 0xF89 JUMP JUMPDEST PUSH1 0x40 MLOAD DUP1 SWAP2 SUB SWAP1 REVERT JUMPDEST DUP2 DUP2 SUB PUSH0 DUP1 DUP7 PUSH20 0xFFFFFFFFFFFFFFFFFFFFFFFFFFFFFFFFFFFFFFFF AND PUSH20 0xFFFFFFFFFFFFFFFFFFFFFFFFFFFFFFFFFFFFFFFF AND DUP2 MSTORE PUSH1 0x20 ADD SWAP1 DUP2 MSTORE PUSH1 0x20 ADD PUSH0 KECCAK256 DUP2 SWAP1 SSTORE POP POP JUMPDEST PUSH0 PUSH20 0xFFFFFFFFFFFFFFFFFFFFFFFFFFFFFFFFFFFFFFFF AND DUP3 PUSH20 0xFFFFFFFFFFFFFFFFFFFFFFFFFFFFFFFFFFFFFFFF AND SUB PUSH3 0x69D JUMPI DUP1 PUSH1 0x2 PUSH0 DUP3 DUP3 SLOAD SUB SWAP3 POP POP DUP2 SWAP1 SSTORE POP PUSH3 0x6E7 JUMP JUMPDEST DUP1 PUSH0 DUP1 DUP5 PUSH20 0xFFFFFFFFFFFFFFFFFFFFFFFFFFFFFFFFFFFFFFFF AND PUSH20 0xFFFFFFFFFFFFFFFFFFFFFFFFFFFFFFFFFFFFFFFF AND DUP2 MSTORE PUSH1 0x20 ADD SWAP1 DUP2 MSTORE PUSH1 0x20 ADD PUSH0 KECCAK256 PUSH0 DUP3 DUP3 SLOAD ADD SWAP3 POP POP DUP2 SWAP1 SSTORE POP JUMPDEST DUP2 PUSH20 0xFFFFFFFFFFFFFFFFFFFFFFFFFFFFFFFFFFFFFFFF AND DUP4 PUSH20 0xFFFFFFFFFFFFFFFFFFFFFFFFFFFFFFFFFFFFFFFF AND PUSH32 0xDDF252AD1BE2C89B69C2B068FC378DAA952BA7F163C4A11628F55A4DF523B3EF DUP4 PUSH1 0x40 MLOAD PUSH3 0x746 SWAP2 SWAP1 PUSH3 0xFC4 JUMP JUMPDEST PUSH1 0x40 MLOAD DUP1 SWAP2 SUB SWAP1 LOG3 POP POP POP JUMP JUMPDEST PUSH0 DUP1 REVERT JUMPDEST PUSH0 PUSH20 0xFFFFFFFFFFFFFFFFFFFFFFFFFFFFFFFFFFFFFFFF DUP3 AND SWAP1 POP SWAP2 SWAP1 POP JUMP JUMPDEST PUSH0 PUSH3 0x782 DUP3 PUSH3 0x757 JUMP JUMPDEST SWAP1 POP SWAP2 SWAP1 POP JUMP JUMPDEST PUSH3 0x794 DUP2 PUSH3 0x776 JUMP JUMPDEST DUP2 EQ PUSH3 0x79F JUMPI PUSH0 DUP1 REVERT JUMPDEST POP JUMP JUMPDEST PUSH0 DUP2 MLOAD SWAP1 POP PUSH3 0x7B2 DUP2 PUSH3 0x789 JUMP JUMPDEST SWAP3 SWAP2 POP POP JUMP JUMPDEST PUSH0 PUSH1 0x20 DUP3 DUP5 SUB SLT ISZERO PUSH3 0x7D0 JUMPI PUSH3 0x7CF PUSH3 0x753 JUMP JUMPDEST JUMPDEST PUSH0 PUSH3 0x7DF DUP5 DUP3 DUP6 ADD PUSH3 0x7A2 JUMP JUMPDEST SWAP2 POP POP SWAP3 SWAP2 POP POP JUMP JUMPDEST PUSH0 DUP2 MLOAD SWAP1 POP SWAP2 SWAP1 POP JUMP JUMPDEST PUSH32 0x4E487B7100000000000000000000000000000000000000000000000000000000 PUSH0 MSTORE PUSH1 0x41 PUSH1 0x4 MSTORE PUSH1 0x24 PUSH0 REVERT JUMPDEST PUSH32 0x4E487B7100000000000000000000000000000000000000000000000000000000 PUSH0 MSTORE PUSH1 0x22 PUSH1 0x4 MSTORE PUSH1 0x24 PUSH0 REVERT JUMPDEST PUSH0 PUSH1 0x2 DUP3 DIV SWAP1 POP PUSH1 0x1 DUP3 AND DUP1 PUSH3 0x864 JUMPI PUSH1 0x7F DUP3 AND SWAP2 POP JUMPDEST PUSH1 0x20 DUP3 LT DUP2 SUB PUSH3 0x87A JUMPI PUSH3 0x879 PUSH3 0x81F JUMP JUMPDEST JUMPDEST POP SWAP2 SWAP1 POP JUMP JUMPDEST PUSH0 DUP2 SWAP1 POP DUP2 PUSH0 MSTORE PUSH1 0x20 PUSH0 KECCAK256 SWAP1 POP SWAP2 SWAP1 POP JUMP JUMPDEST PUSH0 PUSH1 0x20 PUSH1 0x1F DUP4 ADD DIV SWAP1 POP SWAP2 SWAP1 POP JUMP JUMPDEST PUSH0 DUP3 DUP3 SHL SWAP1 POP SWAP3 SWAP2 POP POP JUMP JUMPDEST PUSH0 PUSH1 0x8 DUP4 MUL PUSH3 0x8DE PUSH32 0xFFFFFFFFFFFFFFFFFFFFFFFFFFFFFFFFFFFFFFFFFFFFFFFFFFFFFFFFFFFFFFFF DUP3 PUSH3 0x8A1 JUMP JUMPDEST PUSH3 0x8EA DUP7 DUP4 PUSH3 0x8A1 JUMP JUMPDEST SWAP6 POP DUP1 NOT DUP5 AND SWAP4 POP DUP1 DUP7 AND DUP5 OR SWAP3 POP POP POP SWAP4 SWAP3 POP POP POP JUMP JUMPDEST PUSH0 DUP2 SWAP1 POP SWAP2 SWAP1 POP JUMP JUMPDEST PUSH0 DUP2 SWAP1 POP SWAP2 SWAP1 POP JUMP JUMPDEST PUSH0 PUSH3 0x934 PUSH3 0x92E PUSH3 0x928 DUP5 PUSH3 0x902 JUMP JUMPDEST PUSH3 0x90B JUMP JUMPDEST PUSH3 0x902 JUMP JUMPDEST SWAP1 POP SWAP2 SWAP1 POP JUMP JUMPDEST PUSH0 DUP2 SWAP1 POP SWAP2 SWAP1 POP JUMP JUMPDEST PUSH3 0x94F DUP4 PUSH3 0x914 JUMP JUMPDEST PUSH3 0x967 PUSH3 0x95E DUP3 PUSH3 0x93B JUMP JUMPDEST DUP5 DUP5 SLOAD PUSH3 0x8AD JUMP JUMPDEST DUP3 SSTORE POP POP POP POP JUMP JUMPDEST PUSH0 SWAP1 JUMP JUMPDEST PUSH3 0x97D PUSH3 0x96F JUMP JUMPDEST PUSH3 0x98A DUP2 DUP5 DUP5 PUSH3 0x944 JUMP JUMPDEST POP POP POP JUMP JUMPDEST JUMPDEST DUP2 DUP2 LT ISZERO PUSH3 0x9B1 JUMPI PUSH3 0x9A5 PUSH0 DUP3 PUSH3 0x973 JUMP JUMPDEST PUSH1 0x1 DUP2 ADD SWAP1 POP PUSH3 0x990 JUMP JUMPDEST POP POP JUMP JUMPDEST PUSH1 0x1F DUP3 GT ISZERO PUSH3 0xA00 JUMPI PUSH3 0x9CA DUP2 PUSH3 0x880 JUMP JUMPDEST PUSH3 0x9D5 DUP5 PUSH3 0x892 JUMP JUMPDEST DUP2 ADD PUSH1 0x20 DUP6 LT ISZERO PUSH3 0x9E5 JUMPI DUP2 SWAP1 POP JUMPDEST PUSH3 0x9FD PUSH3 0x9F4 DUP6 PUSH3 0x892 JUMP JUMPDEST DUP4 ADD DUP3 PUSH3 0x98F JUMP JUMPDEST POP POP JUMPDEST POP POP POP JUMP JUMPDEST PUSH0 DUP3 DUP3 SHR SWAP1 POP SWAP3 SWAP2 POP POP JUMP JUMPDEST PUSH0 PUSH3 0xA22 PUSH0 NOT DUP5 PUSH1 0x8 MUL PUSH3 0xA05 JUMP JUMPDEST NOT DUP1 DUP4 AND SWAP2 POP POP SWAP3 SWAP2 POP POP JUMP JUMPDEST PUSH0 PUSH3 0xA3C DUP4 DUP4 PUSH3 0xA11 JUMP JUMPDEST SWAP2 POP DUP3 PUSH1 0x2 MUL DUP3 OR SWAP1 POP SWAP3 SWAP2 POP POP JUMP JUMPDEST PUSH3 0xA57 DUP3 PUSH3 0x7E8 JUMP JUMPDEST PUSH8 0xFFFFFFFFFFFFFFFF DUP2 GT ISZERO PUSH3 0xA73 JUMPI PUSH3 0xA72 PUSH3 0x7F2 JUMP JUMPDEST JUMPDEST PUSH3 0xA7F DUP3 SLOAD PUSH3 0x84C JUMP JUMPDEST PUSH3 0xA8C DUP3 DUP3 DUP6 PUSH3 0x9B5 JUMP JUMPDEST PUSH0 PUSH1 0x20 SWAP1 POP PUSH1 0x1F DUP4 GT PUSH1 0x1 DUP2 EQ PUSH3 0xAC2 JUMPI PUSH0 DUP5 ISZERO PUSH3 0xAAD JUMPI DUP3 DUP8 ADD MLOAD SWAP1 POP JUMPDEST PUSH3 0xAB9 DUP6 DUP3 PUSH3 0xA2F JUMP JUMPDEST DUP7 SSTORE POP PUSH3 0xB28 JUMP JUMPDEST PUSH1 0x1F NOT DUP5 AND PUSH3 0xAD2 DUP7 PUSH3 0x880 JUMP JUMPDEST PUSH0 JUMPDEST DUP3 DUP2 LT ISZERO PUSH3 0xAFB JUMPI DUP5 DUP10 ADD MLOAD DUP3 SSTORE PUSH1 0x1 DUP3 ADD SWAP2 POP PUSH1 0x20 DUP6 ADD SWAP5 POP PUSH1 0x20 DUP2 ADD SWAP1 POP PUSH3 0xAD4 JUMP JUMPDEST DUP7 DUP4 LT ISZERO PUSH3 0xB1B JUMPI DUP5 DUP10 ADD MLOAD PUSH3 0xB17 PUSH1 0x1F DUP10 AND DUP3 PUSH3 0xA11 JUMP JUMPDEST DUP4 SSTORE POP JUMPDEST PUSH1 0x1 PUSH1 0x2 DUP9 MUL ADD DUP9 SSTORE POP POP POP JUMPDEST POP POP POP POP POP POP JUMP JUMPDEST PUSH3 0xB3B DUP2 PUSH3 0x776 JUMP JUMPDEST DUP3 MSTORE POP POP JUMP JUMPDEST PUSH0 PUSH1 0x20 DUP3 ADD SWAP1 POP PUSH3 0xB56 PUSH0 DUP4 ADD DUP5 PUSH3 0xB30 JUMP JUMPDEST SWAP3 SWAP2 POP POP JUMP JUMPDEST PUSH32 0x4E487B7100000000000000000000000000000000000000000000000000000000 PUSH0 MSTORE PUSH1 0x11 PUSH1 0x4 MSTORE PUSH1 0x24 PUSH0 REVERT JUMPDEST PUSH0 DUP2 PUSH1 0x1 SHR SWAP1 POP SWAP2 SWAP1 POP JUMP JUMPDEST PUSH0 DUP1 DUP3 SWAP2 POP DUP4 SWAP1 POP JUMPDEST PUSH1 0x1 DUP6 GT ISZERO PUSH3 0xBE6 JUMPI DUP1 DUP7 DIV DUP2 GT ISZERO PUSH3 0xBBE JUMPI PUSH3 0xBBD PUSH3 0xB5C JUMP JUMPDEST JUMPDEST PUSH1 0x1 DUP6 AND ISZERO PUSH3 0xBCE JUMPI DUP1 DUP3 MUL SWAP2 POP JUMPDEST DUP1 DUP2 MUL SWAP1 POP PUSH3 0xBDE DUP6 PUSH3 0xB89 JUMP JUMPDEST SWAP5 POP PUSH3 0xB9E JUMP JUMPDEST SWAP5 POP SWAP5 SWAP3 POP POP POP JUMP JUMPDEST PUSH0 DUP3 PUSH3 0xC00 JUMPI PUSH1 0x1 SWAP1 POP PUSH3 0xCD2 JUMP JUMPDEST DUP2 PUSH3 0xC0F JUMPI PUSH0 SWAP1 POP PUSH3 0xCD2 JUMP JUMPDEST DUP2 PUSH1 0x1 DUP2 EQ PUSH3 0xC28 JUMPI PUSH1 0x2 DUP2 EQ PUSH3 0xC33 JUMPI PUSH3 0xC69 JUMP JUMPDEST PUSH1 0x1 SWAP2 POP POP PUSH3 0xCD2 JUMP JUMPDEST PUSH1 0xFF DUP5 GT ISZERO PUSH3 0xC48 JUMPI PUSH3 0xC47 PUSH3 0xB5C JUMP JUMPDEST JUMPDEST DUP4 PUSH1 0x2 EXP SWAP2 POP DUP5 DUP3 GT ISZERO PUSH3 0xC62 JUMPI PUSH3 0xC61 PUSH3 0xB5C JUMP JUMPDEST JUMPDEST POP PUSH3 0xCD2 JUMP JUMPDEST POP PUSH1 0x20 DUP4 LT PUSH2 0x133 DUP4 LT AND PUSH1 0x4E DUP5 LT PUSH1 0xB DUP5 LT AND OR ISZERO PUSH3 0xCA3 JUMPI DUP3 DUP3 EXP SWAP1 POP DUP4 DUP2 GT ISZERO PUSH3 0xC9D JUMPI PUSH3 0xC9C PUSH3 0xB5C JUMP JUMPDEST JUMPDEST PUSH3 0xCD2 JUMP JUMPDEST PUSH3 0xCB2 DUP5 DUP5 DUP5 PUSH1 0x1 PUSH3 0xB95 JUMP JUMPDEST SWAP3 POP SWAP1 POP DUP2 DUP5 DIV DUP2 GT ISZERO PUSH3 0xCCC JUMPI PUSH3 0xCCB PUSH3 0xB5C JUMP JUMPDEST JUMPDEST DUP2 DUP2 MUL SWAP1 POP JUMPDEST SWAP4 SWAP3 POP POP POP JUMP JUMPDEST PUSH0 PUSH1 0xFF DUP3 AND SWAP1 POP SWAP2 SWAP1 POP JUMP JUMPDEST PUSH0 PUSH3 0xCF1 DUP3 PUSH3 0x902 JUMP JUMPDEST SWAP2 POP PUSH3 0xCFE DUP4 PUSH3 0xCD9 JUMP JUMPDEST SWAP3 POP PUSH3 0xD2D PUSH32 0xFFFFFFFFFFFFFFFFFFFFFFFFFFFFFFFFFFFFFFFFFFFFFFFFFFFFFFFFFFFFFFFF DUP5 DUP5 PUSH3 0xBEF JUMP JUMPDEST SWAP1 POP SWAP3 SWAP2 POP POP JUMP JUMPDEST PUSH0 PUSH3 0xD41 DUP3 PUSH3 0x902 JUMP JUMPDEST SWAP2 POP PUSH3 0xD4E DUP4 PUSH3 0x902 JUMP JUMPDEST SWAP3 POP DUP3 DUP3 MUL PUSH3 0xD5E DUP2 PUSH3 0x902 JUMP JUMPDEST SWAP2 POP DUP3 DUP3 DIV DUP5 EQ DUP4 ISZERO OR PUSH3 0xD78 JUMPI PUSH3 0xD77 PUSH3 0xB5C JUMP JUMPDEST JUMPDEST POP SWAP3 SWAP2 POP POP JUMP JUMPDEST PUSH0 DUP2 SWAP1 POP SWAP2 SWAP1 POP JUMP JUMPDEST PUSH3 0xD93 DUP2 PUSH3 0xD7F JUMP JUMPDEST DUP3 MSTORE POP POP JUMP JUMPDEST PUSH3 0xDA4 DUP2 PUSH3 0x902 JUMP JUMPDEST DUP3 MSTORE POP POP JUMP JUMPDEST PUSH0 PUSH1 0xA0 DUP3 ADD SWAP1 POP PUSH3 0xDBF PUSH0 DUP4 ADD DUP9 PUSH3 0xD88 JUMP JUMPDEST PUSH3 0xDCE PUSH1 0x20 DUP4 ADD DUP8 PUSH3 0xD88 JUMP JUMPDEST PUSH3 0xDDD PUSH1 0x40 DUP4 ADD DUP7 PUSH3 0xD88 JUMP JUMPDEST PUSH3 0xDEC PUSH1 0x60 DUP4 ADD DUP6 PUSH3 0xD99 JUMP JUMPDEST PUSH3 0xDFB PUSH1 0x80 DUP4 ADD DUP5 PUSH3 0xB30 JUMP JUMPDEST SWAP7 SWAP6 POP POP POP POP POP POP JUMP JUMPDEST PUSH0 DUP3 DUP3 MSTORE PUSH1 0x20 DUP3 ADD SWAP1 POP SWAP3 SWAP2 POP POP JUMP JUMPDEST PUSH0 JUMPDEST DUP4 DUP2 LT ISZERO PUSH3 0xE34 JUMPI DUP1 DUP3 ADD MLOAD DUP2 DUP5 ADD MSTORE PUSH1 0x20 DUP2 ADD SWAP1 POP PUSH3 0xE17 JUMP JUMPDEST PUSH0 DUP5 DUP5 ADD MSTORE POP POP POP POP JUMP JUMPDEST PUSH0 PUSH1 0x1F NOT PUSH1 0x1F DUP4 ADD AND SWAP1 POP SWAP2 SWAP1 POP JUMP JUMPDEST PUSH0 PUSH3 0xE5B DUP3 PUSH3 0x7E8 JUMP JUMPDEST PUSH3 0xE67 DUP2 DUP6 PUSH3 0xE05 JUMP JUMPDEST SWAP4 POP PUSH3 0xE79 DUP2 DUP6 PUSH1 0x20 DUP7 ADD PUSH3 0xE15 JUMP JUMPDEST PUSH3 0xE84 DUP2 PUSH3 0xE3F JUMP JUMPDEST DUP5 ADD SWAP2 POP POP SWAP3 SWAP2 POP POP JUMP JUMPDEST PUSH0 PUSH1 0x20 DUP3 ADD SWAP1 POP DUP2 DUP2 SUB PUSH0 DUP4 ADD MSTORE PUSH3 0xEA9 DUP2 DUP5 PUSH3 0xE4F JUMP JUMPDEST SWAP1 POP SWAP3 SWAP2 POP POP JUMP JUMPDEST PUSH0 DUP2 MLOAD SWAP1 POP SWAP2 SWAP1 POP JUMP JUMPDEST PUSH0 DUP2 SWAP1 POP PUSH1 0x20 DUP3 ADD SWAP1 POP SWAP2 SWAP1 POP JUMP JUMPDEST PUSH0 PUSH3 0xED7 DUP3 MLOAD PUSH3 0xD7F JUMP JUMPDEST DUP1 SWAP2 POP POP SWAP2 SWAP1 POP JUMP JUMPDEST PUSH0 PUSH3 0xEEC DUP3 PUSH3 0xEB1 JUMP JUMPDEST DUP3 PUSH3 0xEF8 DUP5 PUSH3 0xEBB JUMP JUMPDEST SWAP1 POP PUSH3 0xF05 DUP2 PUSH3 0xECA JUMP JUMPDEST SWAP3 POP PUSH1 0x20 DUP3 LT ISZERO PUSH3 0xF48 JUMPI PUSH3 0xF43 PUSH32 0xFFFFFFFFFFFFFFFFFFFFFFFFFFFFFFFFFFFFFFFFFFFFFFFFFFFFFFFFFFFFFFFF DUP4 PUSH1 0x20 SUB PUSH1 0x8 MUL PUSH3 0x8A1 JUMP JUMPDEST DUP4 AND SWAP3 POP JUMPDEST POP POP SWAP2 SWAP1 POP JUMP JUMPDEST PUSH0 PUSH3 0xF5B DUP3 PUSH3 0x902 JUMP JUMPDEST SWAP2 POP PUSH3 0xF68 DUP4 PUSH3 0x902 JUMP JUMPDEST SWAP3 POP DUP3 DUP3 ADD SWAP1 POP DUP1 DUP3 GT ISZERO PUSH3 0xF83 JUMPI PUSH3 0xF82 PUSH3 0xB5C JUMP JUMPDEST JUMPDEST SWAP3 SWAP2 POP POP JUMP JUMPDEST PUSH0 PUSH1 0x60 DUP3 ADD SWAP1 POP PUSH3 0xF9E PUSH0 DUP4 ADD DUP7 PUSH3 0xB30 JUMP JUMPDEST PUSH3 0xFAD PUSH1 0x20 DUP4 ADD DUP6 PUSH3 0xD99 JUMP JUMPDEST PUSH3 0xFBC PUSH1 0x40 DUP4 ADD DUP5 PUSH3 0xD99 JUMP JUMPDEST SWAP5 SWAP4 POP POP POP POP JUMP JUMPDEST PUSH0 PUSH1 0x20 DUP3 ADD SWAP1 POP PUSH3 0xFD9 PUSH0 DUP4 ADD DUP5 PUSH3 0xD99 JUMP JUMPDEST SWAP3 SWAP2 POP POP JUMP JUMPDEST PUSH1 0x80 MLOAD PUSH1 0xA0 MLOAD PUSH1 0xC0 MLOAD PUSH1 0xE0 MLOAD PUSH2 0x100 MLOAD PUSH2 0x120 MLOAD PUSH2 0x140 MLOAD PUSH2 0x1DEC PUSH3 0x1031 PUSH0 CODECOPY PUSH0 PUSH2 0xC93 ADD MSTORE PUSH0 PUSH2 0xC58 ADD MSTORE PUSH0 PUSH2 0x118C ADD MSTORE PUSH0 PUSH2 0x116B ADD MSTORE PUSH0 PUSH2 0xA0C ADD MSTORE PUSH0 PUSH2 0xA62 ADD MSTORE PUSH0 PUSH2 0xA8B ADD MSTORE PUSH2 0x1DEC PUSH0 RETURN INVALID PUSH1 0x80 PUSH1 0x40 MSTORE CALLVALUE DUP1 ISZERO PUSH2 0xF JUMPI PUSH0 DUP1 REVERT JUMPDEST POP PUSH1 0x4 CALLDATASIZE LT PUSH2 0xFE JUMPI PUSH0 CALLDATALOAD PUSH1 0xE0 SHR DUP1 PUSH4 0x7ECEBE00 GT PUSH2 0x95 JUMPI DUP1 PUSH4 0xA9059CBB GT PUSH2 0x64 JUMPI DUP1 PUSH4 0xA9059CBB EQ PUSH2 0x2A4 JUMPI DUP1 PUSH4 0xD505ACCF EQ PUSH2 0x2D4 JUMPI DUP1 PUSH4 0xDD62ED3E EQ PUSH2 0x2F0 JUMPI DUP1 PUSH4 0xF2FDE38B EQ PUSH2 0x320 JUMPI PUSH2 0xFE JUMP JUMPDEST DUP1 PUSH4 0x7ECEBE00 EQ PUSH2 0x214 JUMPI DUP1 PUSH4 0x84B0196E EQ PUSH2 0x244 JUMPI DUP1 PUSH4 0x8DA5CB5B EQ PUSH2 0x268 JUMPI DUP1 PUSH4 0x95D89B41 EQ PUSH2 0x286 JUMPI PUSH2 0xFE JUMP JUMPDEST DUP1 PUSH4 0x313CE567 GT PUSH2 0xD1 JUMPI DUP1 PUSH4 0x313CE567 EQ PUSH2 0x19E JUMPI DUP1 PUSH4 0x3644E515 EQ PUSH2 0x1BC JUMPI DUP1 PUSH4 0x70A08231 EQ PUSH2 0x1DA JUMPI DUP1 PUSH4 0x715018A6 EQ PUSH2 0x20A JUMPI PUSH2 0xFE JUMP JUMPDEST DUP1 PUSH4 0x6FDDE03 EQ PUSH2 0x102 JUMPI DUP1 PUSH4 0x95EA7B3 EQ PUSH2 0x120 JUMPI DUP1 PUSH4 0x18160DDD EQ PUSH2 0x150 JUMPI DUP1 PUSH4 0x23B872DD EQ PUSH2 0x16E JUMPI JUMPDEST PUSH0 DUP1 REVERT JUMPDEST PUSH2 0x10A PUSH2 0x33C JUMP JUMPDEST PUSH1 0x40 MLOAD PUSH2 0x117 SWAP2 SWAP1 PUSH2 0x165C JUMP JUMPDEST PUSH1 0x40 MLOAD DUP1 SWAP2 SUB SWAP1 RETURN JUMPDEST PUSH2 0x13A PUSH1 0x4 DUP1 CALLDATASIZE SUB DUP2 ADD SWAP1 PUSH2 0x135 SWAP2 SWAP1 PUSH2 0x170D JUMP JUMPDEST PUSH2 0x3CC JUMP JUMPDEST PUSH1 0x40 MLOAD PUSH2 0x147 SWAP2 SWAP1 PUSH2 0x1765 JUMP JUMPDEST PUSH1 0x40 MLOAD DUP1 SWAP2 SUB SWAP1 RETURN JUMPDEST PUSH2 0x158 PUSH2 0x3EE JUMP JUMPDEST PUSH1 0x40 MLOAD PUSH2 0x165 SWAP2 SWAP1 PUSH2 0x178D JUMP JUMPDEST PUSH1 0x40 MLOAD DUP1 SWAP2 SUB SWAP1 RETURN JUMPDEST PUSH2 0x188 PUSH1 0x4 DUP1 CALLDATASIZE SUB DUP2 ADD SWAP1 PUSH2 0x183 SWAP2 SWAP1 PUSH2 0x17A6 JUMP JUMPDEST PUSH2 0x3F7 JUMP JUMPDEST PUSH1 0x40 MLOAD PUSH2 0x195 SWAP2 SWAP1 PUSH2 0x1765 JUMP JUMPDEST PUSH1 0x40 MLOAD DUP1 SWAP2 SUB SWAP1 RETURN JUMPDEST PUSH2 0x1A6 PUSH2 0x425 JUMP JUMPDEST PUSH1 0x40 MLOAD PUSH2 0x1B3 SWAP2 SWAP1 PUSH2 0x1811 JUMP JUMPDEST PUSH1 0x40 MLOAD DUP1 SWAP2 SUB SWAP1 RETURN JUMPDEST PUSH2 0x1C4 PUSH2 0x42D JUMP JUMPDEST PUSH1 0x40 MLOAD PUSH2 0x1D1 SWAP2 SWAP1 PUSH2 0x1842 JUMP JUMPDEST PUSH1 0x40 MLOAD DUP1 SWAP2 SUB SWAP1 RETURN JUMPDEST PUSH2 0x1F4 PUSH1 0x4 DUP1 CALLDATASIZE SUB DUP2 ADD SWAP1 PUSH2 0x1EF SWAP2 SWAP1 PUSH2 0x185B JUMP JUMPDEST PUSH2 0x43B JUMP JUMPDEST PUSH1 0x40 MLOAD PUSH2 0x201 SWAP2 SWAP1 PUSH2 0x178D JUMP JUMPDEST PUSH1 0x40 MLOAD DUP1 SWAP2 SUB SWAP1 RETURN JUMPDEST PUSH2 0x212 PUSH2 0x480 JUMP JUMPDEST STOP JUMPDEST PUSH2 0x22E PUSH1 0x4 DUP1 CALLDATASIZE SUB DUP2 ADD SWAP1 PUSH2 0x229 SWAP2 SWAP1 PUSH2 0x185B JUMP JUMPDEST PUSH2 0x493 JUMP JUMPDEST PUSH1 0x40 MLOAD PUSH2 0x23B SWAP2 SWAP1 PUSH2 0x178D JUMP JUMPDEST PUSH1 0x40 MLOAD DUP1 SWAP2 SUB SWAP1 RETURN JUMPDEST PUSH2 0x24C PUSH2 0x4A4 JUMP JUMPDEST PUSH1 0x40 MLOAD PUSH2 0x25F SWAP8 SWAP7 SWAP6 SWAP5 SWAP4 SWAP3 SWAP2 SWAP1 PUSH2 0x1986 JUMP JUMPDEST PUSH1 0x40 MLOAD DUP1 SWAP2 SUB SWAP1 RETURN JUMPDEST PUSH2 0x270 PUSH2 0x549 JUMP JUMPDEST PUSH1 0x40 MLOAD PUSH2 0x27D SWAP2 SWAP1 PUSH2 0x1A08 JUMP JUMPDEST PUSH1 0x40 MLOAD DUP1 SWAP2 SUB SWAP1 RETURN JUMPDEST PUSH2 0x28E PUSH2 0x571 JUMP JUMPDEST PUSH1 0x40 MLOAD PUSH2 0x29B SWAP2 SWAP1 PUSH2 0x165C JUMP JUMPDEST PUSH1 0x40 MLOAD DUP1 SWAP2 SUB SWAP1 RETURN JUMPDEST PUSH2 0x2BE PUSH1 0x4 DUP1 CALLDATASIZE SUB DUP2 ADD SWAP1 PUSH2 0x2B9 SWAP2 SWAP1 PUSH2 0x170D JUMP JUMPDEST PUSH2 0x601 JUMP JUMPDEST PUSH1 0x40 MLOAD PUSH2 0x2CB SWAP2 SWAP1 PUSH2 0x1765 JUMP JUMPDEST PUSH1 0x40 MLOAD DUP1 SWAP2 SUB SWAP1 RETURN JUMPDEST PUSH2 0x2EE PUSH1 0x4 DUP1 CALLDATASIZE SUB DUP2 ADD SWAP1 PUSH2 0x2E9 SWAP2 SWAP1 PUSH2 0x1A75 JUMP JUMPDEST PUSH2 0x623 JUMP JUMPDEST STOP JUMPDEST PUSH2 0x30A PUSH1 0x4 DUP1 CALLDATASIZE SUB DUP2 ADD SWAP1 PUSH2 0x305 SWAP2 SWAP1 PUSH2 0x1B12 JUMP JUMPDEST PUSH2 0x768 JUMP JUMPDEST PUSH1 0x40 MLOAD PUSH2 0x317 SWAP2 SWAP1 PUSH2 0x178D JUMP JUMPDEST PUSH1 0x40 MLOAD DUP1 SWAP2 SUB SWAP1 RETURN JUMPDEST PUSH2 0x33A PUSH1 0x4 DUP1 CALLDATASIZE SUB DUP2 ADD SWAP1 PUSH2 0x335 SWAP2 SWAP1 PUSH2 0x185B JUMP JUMPDEST PUSH2 0x7EA JUMP JUMPDEST STOP JUMPDEST PUSH1 0x60 PUSH1 0x3 DUP1 SLOAD PUSH2 0x34B SWAP1 PUSH2 0x1B7D JUMP JUMPDEST DUP1 PUSH1 0x1F ADD PUSH1 0x20 DUP1 SWAP2 DIV MUL PUSH1 0x20 ADD PUSH1 0x40 MLOAD SWAP1 DUP2 ADD PUSH1 0x40 MSTORE DUP1 SWAP3 SWAP2 SWAP1 DUP2 DUP2 MSTORE PUSH1 0x20 ADD DUP3 DUP1 SLOAD PUSH2 0x377 SWAP1 PUSH2 0x1B7D JUMP JUMPDEST DUP1 ISZERO PUSH2 0x3C2 JUMPI DUP1 PUSH1 0x1F LT PUSH2 0x399 JUMPI PUSH2 0x100 DUP1 DUP4 SLOAD DIV MUL DUP4 MSTORE SWAP2 PUSH1 0x20 ADD SWAP2 PUSH2 0x3C2 JUMP JUMPDEST DUP3 ADD SWAP2 SWAP1 PUSH0 MSTORE PUSH1 0x20 PUSH0 KECCAK256 SWAP1 JUMPDEST DUP2 SLOAD DUP2 MSTORE SWAP1 PUSH1 0x1 ADD SWAP1 PUSH1 0x20 ADD DUP1 DUP4 GT PUSH2 0x3A5 JUMPI DUP3 SWAP1 SUB PUSH1 0x1F AND DUP3 ADD SWAP2 JUMPDEST POP POP POP POP POP SWAP1 POP SWAP1 JUMP JUMPDEST PUSH0 DUP1 PUSH2 0x3D6 PUSH2 0x86E JUMP JUMPDEST SWAP1 POP PUSH2 0x3E3 DUP2 DUP6 DUP6 PUSH2 0x875 JUMP JUMPDEST PUSH1 0x1 SWAP2 POP POP SWAP3 SWAP2 POP POP JUMP JUMPDEST PUSH0 PUSH1 0x2 SLOAD SWAP1 POP SWAP1 JUMP JUMPDEST PUSH0 DUP1 PUSH2 0x401 PUSH2 0x86E JUMP JUMPDEST SWAP1 POP PUSH2 0x40E DUP6 DUP3 DUP6 PUSH2 0x887 JUMP JUMPDEST PUSH2 0x419 DUP6 DUP6 DUP6 PUSH2 0x919 JUMP JUMPDEST PUSH1 0x1 SWAP2 POP POP SWAP4 SWAP3 POP POP POP JUMP JUMPDEST PUSH0 PUSH1 0x12 SWAP1 POP SWAP1 JUMP JUMPDEST PUSH0 PUSH2 0x436 PUSH2 0xA09 JUMP JUMPDEST SWAP1 POP SWAP1 JUMP JUMPDEST PUSH0 DUP1 PUSH0 DUP4 PUSH20 0xFFFFFFFFFFFFFFFFFFFFFFFFFFFFFFFFFFFFFFFF AND PUSH20 0xFFFFFFFFFFFFFFFFFFFFFFFFFFFFFFFFFFFFFFFF AND DUP2 MSTORE PUSH1 0x20 ADD SWAP1 DUP2 MSTORE PUSH1 0x20 ADD PUSH0 KECCAK256 SLOAD SWAP1 POP SWAP2 SWAP1 POP JUMP JUMPDEST PUSH2 0x488 PUSH2 0xABF JUMP JUMPDEST PUSH2 0x491 PUSH0 PUSH2 0xB46 JUMP JUMPDEST JUMP JUMPDEST PUSH0 PUSH2 0x49D DUP3 PUSH2 0xC09 JUMP JUMPDEST SWAP1 POP SWAP2 SWAP1 POP JUMP JUMPDEST PUSH0 PUSH1 0x60 DUP1 PUSH0 DUP1 PUSH0 PUSH1 0x60 PUSH2 0x4B5 PUSH2 0xC4F JUMP JUMPDEST PUSH2 0x4BD PUSH2 0xC8A JUMP JUMPDEST CHAINID ADDRESS PUSH0 DUP1 SHL PUSH0 PUSH8 0xFFFFFFFFFFFFFFFF DUP2 GT ISZERO PUSH2 0x4DC JUMPI PUSH2 0x4DB PUSH2 0x1BAD JUMP JUMPDEST JUMPDEST PUSH1 0x40 MLOAD SWAP1 DUP1 DUP3 MSTORE DUP1 PUSH1 0x20 MUL PUSH1 0x20 ADD DUP3 ADD PUSH1 0x40 MSTORE DUP1 ISZERO PUSH2 0x50A JUMPI DUP2 PUSH1 0x20 ADD PUSH1 0x20 DUP3 MUL DUP1 CALLDATASIZE DUP4 CALLDATACOPY DUP1 DUP3 ADD SWAP2 POP POP SWAP1 POP JUMPDEST POP PUSH32 0xF00000000000000000000000000000000000000000000000000000000000000 SWAP6 SWAP5 SWAP4 SWAP3 SWAP2 SWAP1 SWAP7 POP SWAP7 POP SWAP7 POP SWAP7 POP SWAP7 POP SWAP7 POP SWAP7 POP SWAP1 SWAP2 SWAP3 SWAP4 SWAP5 SWAP6 SWAP7 JUMP JUMPDEST PUSH0 PUSH1 0x8 PUSH0 SWAP1 SLOAD SWAP1 PUSH2 0x100 EXP SWAP1 DIV PUSH20 0xFFFFFFFFFFFFFFFFFFFFFFFFFFFFFFFFFFFFFFFF AND SWAP1 POP SWAP1 JUMP JUMPDEST PUSH1 0x60 PUSH1 0x4 DUP1 SLOAD PUSH2 0x580 SWAP1 PUSH2 0x1B7D JUMP JUMPDEST DUP1 PUSH1 0x1F ADD PUSH1 0x20 DUP1 SWAP2 DIV MUL PUSH1 0x20 ADD PUSH1 0x40 MLOAD SWAP1 DUP2 ADD PUSH1 0x40 MSTORE DUP1 SWAP3 SWAP2 SWAP1 DUP2 DUP2 MSTORE PUSH1 0x20 ADD DUP3 DUP1 SLOAD PUSH2 0x5AC SWAP1 PUSH2 0x1B7D JUMP JUMPDEST DUP1 ISZERO PUSH2 0x5F7 JUMPI DUP1 PUSH1 0x1F LT PUSH2 0x5CE JUMPI PUSH2 0x100 DUP1 DUP4 SLOAD DIV MUL DUP4 MSTORE SWAP2 PUSH1 0x20 ADD SWAP2 PUSH2 0x5F7 JUMP JUMPDEST DUP3 ADD SWAP2 SWAP1 PUSH0 MSTORE PUSH1 0x20 PUSH0 KECCAK256 SWAP1 JUMPDEST DUP2 SLOAD DUP2 MSTORE SWAP1 PUSH1 0x1 ADD SWAP1 PUSH1 0x20 ADD DUP1 DUP4 GT PUSH2 0x5DA JUMPI DUP3 SWAP1 SUB PUSH1 0x1F AND DUP3 ADD SWAP2 JUMPDEST POP POP POP POP POP SWAP1 POP SWAP1 JUMP JUMPDEST PUSH0 DUP1 PUSH2 0x60B PUSH2 0x86E JUMP JUMPDEST SWAP1 POP PUSH2 0x618 DUP2 DUP6 DUP6 PUSH2 0x919 JUMP JUMPDEST PUSH1 0x1 SWAP2 POP POP SWAP3 SWAP2 POP POP JUMP JUMPDEST DUP4 TIMESTAMP GT ISZERO PUSH2 0x668 JUMPI DUP4 PUSH1 0x40 MLOAD PUSH32 0x6279130200000000000000000000000000000000000000000000000000000000 DUP2 MSTORE PUSH1 0x4 ADD PUSH2 0x65F SWAP2 SWAP1 PUSH2 0x178D JUMP JUMPDEST PUSH1 0x40 MLOAD DUP1 SWAP2 SUB SWAP1 REVERT JUMPDEST PUSH0 PUSH32 0x6E71EDAE12B1B97F4D1F60370FEF10105FA2FAAE0126114A169C64845D6126C9 DUP9 DUP9 DUP9 PUSH2 0x696 DUP13 PUSH2 0xCC5 JUMP JUMPDEST DUP10 PUSH1 0x40 MLOAD PUSH1 0x20 ADD PUSH2 0x6AC SWAP7 SWAP6 SWAP5 SWAP4 SWAP3 SWAP2 SWAP1 PUSH2 0x1BDA JUMP JUMPDEST PUSH1 0x40 MLOAD PUSH1 0x20 DUP2 DUP4 SUB SUB DUP2 MSTORE SWAP1 PUSH1 0x40 MSTORE DUP1 MLOAD SWAP1 PUSH1 0x20 ADD KECCAK256 SWAP1 POP PUSH0 PUSH2 0x6CE DUP3 PUSH2 0xD18 JUMP JUMPDEST SWAP1 POP PUSH0 PUSH2 0x6DD DUP3 DUP8 DUP8 DUP8 PUSH2 0xD31 JUMP JUMPDEST SWAP1 POP DUP10 PUSH20 0xFFFFFFFFFFFFFFFFFFFFFFFFFFFFFFFFFFFFFFFF AND DUP2 PUSH20 0xFFFFFFFFFFFFFFFFFFFFFFFFFFFFFFFFFFFFFFFF AND EQ PUSH2 0x751 JUMPI DUP1 DUP11 PUSH1 0x40 MLOAD PUSH32 0x4B800E4600000000000000000000000000000000000000000000000000000000 DUP2 MSTORE PUSH1 0x4 ADD PUSH2 0x748 SWAP3 SWAP2 SWAP1 PUSH2 0x1C39 JUMP JUMPDEST PUSH1 0x40 MLOAD DUP1 SWAP2 SUB SWAP1 REVERT JUMPDEST PUSH2 0x75C DUP11 DUP11 DUP11 PUSH2 0x875 JUMP JUMPDEST POP POP POP POP POP POP POP POP POP POP JUMP JUMPDEST PUSH0 PUSH1 0x1 PUSH0 DUP5 PUSH20 0xFFFFFFFFFFFFFFFFFFFFFFFFFFFFFFFFFFFFFFFF AND PUSH20 0xFFFFFFFFFFFFFFFFFFFFFFFFFFFFFFFFFFFFFFFF AND DUP2 MSTORE PUSH1 0x20 ADD SWAP1 DUP2 MSTORE PUSH1 0x20 ADD PUSH0 KECCAK256 PUSH0 DUP4 PUSH20 0xFFFFFFFFFFFFFFFFFFFFFFFFFFFFFFFFFFFFFFFF AND PUSH20 0xFFFFFFFFFFFFFFFFFFFFFFFFFFFFFFFFFFFFFFFF AND DUP2 MSTORE PUSH1 0x20 ADD SWAP1 DUP2 MSTORE PUSH1 0x20 ADD PUSH0 KECCAK256 SLOAD SWAP1 POP SWAP3 SWAP2 POP POP JUMP JUMPDEST PUSH2 0x7F2 PUSH2 0xABF JUMP JUMPDEST PUSH0 PUSH20 0xFFFFFFFFFFFFFFFFFFFFFFFFFFFFFFFFFFFFFFFF AND DUP2 PUSH20 0xFFFFFFFFFFFFFFFFFFFFFFFFFFFFFFFFFFFFFFFF AND SUB PUSH2 0x862 JUMPI PUSH0 PUSH1 0x40 MLOAD PUSH32 0x1E4FBDF700000000000000000000000000000000000000000000000000000000 DUP2 MSTORE PUSH1 0x4 ADD PUSH2 0x859 SWAP2 SWAP1 PUSH2 0x1A08 JUMP JUMPDEST PUSH1 0x40 MLOAD DUP1 SWAP2 SUB SWAP1 REVERT JUMPDEST PUSH2 0x86B DUP2 PUSH2 0xB46 JUMP JUMPDEST POP JUMP JUMPDEST PUSH0 CALLER SWAP1 POP SWAP1 JUMP JUMPDEST PUSH2 0x882 DUP4 DUP4 DUP4 PUSH1 0x1 PUSH2 0xD5F JUMP JUMPDEST POP POP POP JUMP JUMPDEST PUSH0 PUSH2 0x892 DUP5 DUP5 PUSH2 0x768 JUMP JUMPDEST SWAP1 POP PUSH32 0xFFFFFFFFFFFFFFFFFFFFFFFFFFFFFFFFFFFFFFFFFFFFFFFFFFFFFFFFFFFFFFFF DUP2 EQ PUSH2 0x913 JUMPI DUP2 DUP2 LT ISZERO PUSH2 0x904 JUMPI DUP3 DUP2 DUP4 PUSH1 0x40 MLOAD PUSH32 0xFB8F41B200000000000000000000000000000000000000000000000000000000 DUP2 MSTORE PUSH1 0x4 ADD PUSH2 0x8FB SWAP4 SWAP3 SWAP2 SWAP1 PUSH2 0x1C60 JUMP JUMPDEST PUSH1 0x40 MLOAD DUP1 SWAP2 SUB SWAP1 REVERT JUMPDEST PUSH2 0x912 DUP5 DUP5 DUP5 DUP5 SUB PUSH0 PUSH2 0xD5F JUMP JUMPDEST JUMPDEST POP POP POP POP JUMP JUMPDEST PUSH0 PUSH20 0xFFFFFFFFFFFFFFFFFFFFFFFFFFFFFFFFFFFFFFFF AND DUP4 PUSH20 0xFFFFFFFFFFFFFFFFFFFFFFFFFFFFFFFFFFFFFFFF AND SUB PUSH2 0x989 JUMPI PUSH0 PUSH1 0x40 MLOAD PUSH32 0x96C6FD1E00000000000000000000000000000000000000000000000000000000 DUP2 MSTORE PUSH1 0x4 ADD PUSH2 0x980 SWAP2 SWAP1 PUSH2 0x1A08 JUMP JUMPDEST PUSH1 0x40 MLOAD DUP1 SWAP2 SUB SWAP1 REVERT JUMPDEST PUSH0 PUSH20 0xFFFFFFFFFFFFFFFFFFFFFFFFFFFFFFFFFFFFFFFF AND DUP3 PUSH20 0xFFFFFFFFFFFFFFFFFFFFFFFFFFFFFFFFFFFFFFFF AND SUB PUSH2 0x9F9 JUMPI PUSH0 PUSH1 0x40 MLOAD PUSH32 0xEC442F0500000000000000000000000000000000000000000000000000000000 DUP2 MSTORE PUSH1 0x4 ADD PUSH2 0x9F0 SWAP2 SWAP1 PUSH2 0x1A08 JUMP JUMPDEST PUSH1 0x40 MLOAD DUP1 SWAP2 SUB SWAP1 REVERT JUMPDEST PUSH2 0xA04 DUP4 DUP4 DUP4 PUSH2 0xF2E JUMP JUMPDEST POP POP POP JUMP JUMPDEST PUSH0 PUSH32 0x0 PUSH20 0xFFFFFFFFFFFFFFFFFFFFFFFFFFFFFFFFFFFFFFFF AND ADDRESS PUSH20 0xFFFFFFFFFFFFFFFFFFFFFFFFFFFFFFFFFFFFFFFF AND EQ DUP1 ISZERO PUSH2 0xA84 JUMPI POP PUSH32 0x0 CHAINID EQ JUMPDEST ISZERO PUSH2 0xAB1 JUMPI PUSH32 0x0 SWAP1 POP PUSH2 0xABC JUMP JUMPDEST PUSH2 0xAB9 PUSH2 0x1147 JUMP JUMPDEST SWAP1 POP JUMPDEST SWAP1 JUMP JUMPDEST PUSH2 0xAC7 PUSH2 0x86E JUMP JUMPDEST PUSH20 0xFFFFFFFFFFFFFFFFFFFFFFFFFFFFFFFFFFFFFFFF AND PUSH2 0xAE5 PUSH2 0x549 JUMP JUMPDEST PUSH20 0xFFFFFFFFFFFFFFFFFFFFFFFFFFFFFFFFFFFFFFFF AND EQ PUSH2 0xB44 JUMPI PUSH2 0xB08 PUSH2 0x86E JUMP JUMPDEST PUSH1 0x40 MLOAD PUSH32 0x118CDAA700000000000000000000000000000000000000000000000000000000 DUP2 MSTORE PUSH1 0x4 ADD PUSH2 0xB3B SWAP2 SWAP1 PUSH2 0x1A08 JUMP JUMPDEST PUSH1 0x40 MLOAD DUP1 SWAP2 SUB SWAP1 REVERT JUMPDEST JUMP JUMPDEST PUSH0 PUSH1 0x8 PUSH0 SWAP1 SLOAD SWAP1 PUSH2 0x100 EXP SWAP1 DIV PUSH20 0xFFFFFFFFFFFFFFFFFFFFFFFFFFFFFFFFFFFFFFFF AND SWAP1 POP DUP2 PUSH1 0x8 PUSH0 PUSH2 0x100 EXP DUP2 SLOAD DUP2 PUSH20 0xFFFFFFFFFFFFFFFFFFFFFFFFFFFFFFFFFFFFFFFF MUL NOT AND SWAP1 DUP4 PUSH20 0xFFFFFFFFFFFFFFFFFFFFFFFFFFFFFFFFFFFFFFFF AND MUL OR SWAP1 SSTORE POP DUP2 PUSH20 0xFFFFFFFFFFFFFFFFFFFFFFFFFFFFFFFFFFFFFFFF AND DUP2 PUSH20 0xFFFFFFFFFFFFFFFFFFFFFFFFFFFFFFFFFFFFFFFF AND PUSH32 0x8BE0079C531659141344CD1FD0A4F28419497F9722A3DAAFE3B4186F6B6457E0 PUSH1 0x40 MLOAD PUSH1 0x40 MLOAD DUP1 SWAP2 SUB SWAP1 LOG3 POP POP JUMP JUMPDEST PUSH0 PUSH1 0x7 PUSH0 DUP4 PUSH20 0xFFFFFFFFFFFFFFFFFFFFFFFFFFFFFFFFFFFFFFFF AND PUSH20 0xFFFFFFFFFFFFFFFFFFFFFFFFFFFFFFFFFFFFFFFF AND DUP2 MSTORE PUSH1 0x20 ADD SWAP1 DUP2 MSTORE PUSH1 0x20 ADD PUSH0 KECCAK256 SLOAD SWAP1 POP SWAP2 SWAP1 POP JUMP JUMPDEST PUSH1 0x60 PUSH2 0xC85 PUSH1 0x5 PUSH32 0x0 PUSH2 0x11DC SWAP1 SWAP2 SWAP1 PUSH4 0xFFFFFFFF AND JUMP JUMPDEST SWAP1 POP SWAP1 JUMP JUMPDEST PUSH1 0x60 PUSH2 0xCC0 PUSH1 0x6 PUSH32 0x0 PUSH2 0x11DC SWAP1 SWAP2 SWAP1 PUSH4 0xFFFFFFFF AND JUMP JUMPDEST SWAP1 POP SWAP1 JUMP JUMPDEST PUSH0 PUSH1 0x7 PUSH0 DUP4 PUSH20 0xFFFFFFFFFFFFFFFFFFFFFFFFFFFFFFFFFFFFFFFF AND PUSH20 0xFFFFFFFFFFFFFFFFFFFFFFFFFFFFFFFFFFFFFFFF AND DUP2 MSTORE PUSH1 0x20 ADD SWAP1 DUP2 MSTORE PUSH1 0x20 ADD PUSH0 KECCAK256 PUSH0 DUP2 SLOAD DUP1 SWAP3 SWAP2 SWAP1 PUSH1 0x1 ADD SWAP2 SWAP1 POP SSTORE SWAP1 POP SWAP2 SWAP1 POP JUMP JUMPDEST PUSH0 PUSH2 0xD2A PUSH2 0xD24 PUSH2 0xA09 JUMP JUMPDEST DUP4 PUSH2 0x1289 JUMP JUMPDEST SWAP1 POP SWAP2 SWAP1 POP JUMP JUMPDEST PUSH0 DUP1 PUSH0 DUP1 PUSH2 0xD41 DUP9 DUP9 DUP9 DUP9 PUSH2 0x12C9 JUMP JUMPDEST SWAP3 POP SWAP3 POP SWAP3 POP PUSH2 0xD51 DUP3 DUP3 PUSH2 0x13B0 JUMP JUMPDEST DUP3 SWAP4 POP POP POP POP SWAP5 SWAP4 POP POP POP POP JUMP JUMPDEST PUSH0 PUSH20 0xFFFFFFFFFFFFFFFFFFFFFFFFFFFFFFFFFFFFFFFF AND DUP5 PUSH20 0xFFFFFFFFFFFFFFFFFFFFFFFFFFFFFFFFFFFFFFFF AND SUB PUSH2 0xDCF JUMPI PUSH0 PUSH1 0x40 MLOAD PUSH32 0xE602DF0500000000000000000000000000000000000000000000000000000000 DUP2 MSTORE PUSH1 0x4 ADD PUSH2 0xDC6 SWAP2 SWAP1 PUSH2 0x1A08 JUMP JUMPDEST PUSH1 0x40 MLOAD DUP1 SWAP2 SUB SWAP1 REVERT JUMPDEST PUSH0 PUSH20 0xFFFFFFFFFFFFFFFFFFFFFFFFFFFFFFFFFFFFFFFF AND DUP4 PUSH20 0xFFFFFFFFFFFFFFFFFFFFFFFFFFFFFFFFFFFFFFFF AND SUB PUSH2 0xE3F JUMPI PUSH0 PUSH1 0x40 MLOAD PUSH32 0x94280D6200000000000000000000000000000000000000000000000000000000 DUP2 MSTORE PUSH1 0x4 ADD PUSH2 0xE36 SWAP2 SWAP1 PUSH2 0x1A08 JUMP JUMPDEST PUSH1 0x40 MLOAD DUP1 SWAP2 SUB SWAP1 REVERT JUMPDEST DUP2 PUSH1 0x1 PUSH0 DUP7 PUSH20 0xFFFFFFFFFFFFFFFFFFFFFFFFFFFFFFFFFFFFFFFF AND PUSH20 0xFFFFFFFFFFFFFFFFFFFFFFFFFFFFFFFFFFFFFFFF AND DUP2 MSTORE PUSH1 0x20 ADD SWAP1 DUP2 MSTORE PUSH1 0x20 ADD PUSH0 KECCAK256 PUSH0 DUP6 PUSH20 0xFFFFFFFFFFFFFFFFFFFFFFFFFFFFFFFFFFFFFFFF AND PUSH20 0xFFFFFFFFFFFFFFFFFFFFFFFFFFFFFFFFFFFFFFFF AND DUP2 MSTORE PUSH1 0x20 ADD SWAP1 DUP2 MSTORE PUSH1 0x20 ADD PUSH0 KECCAK256 DUP2 SWAP1 SSTORE POP DUP1 ISZERO PUSH2 0xF28 JUMPI DUP3 PUSH20 0xFFFFFFFFFFFFFFFFFFFFFFFFFFFFFFFFFFFFFFFF AND DUP5 PUSH20 0xFFFFFFFFFFFFFFFFFFFFFFFFFFFFFFFFFFFFFFFF AND PUSH32 0x8C5BE1E5EBEC7D5BD14F71427D1E84F3DD0314C0F7B2291E5B200AC8C7C3B925 DUP5 PUSH1 0x40 MLOAD PUSH2 0xF1F SWAP2 SWAP1 PUSH2 0x178D JUMP JUMPDEST PUSH1 0x40 MLOAD DUP1 SWAP2 SUB SWAP1 LOG3 JUMPDEST POP POP POP POP JUMP JUMPDEST PUSH0 PUSH20 0xFFFFFFFFFFFFFFFFFFFFFFFFFFFFFFFFFFFFFFFF AND DUP4 PUSH20 0xFFFFFFFFFFFFFFFFFFFFFFFFFFFFFFFFFFFFFFFF AND SUB PUSH2 0xF7E JUMPI DUP1 PUSH1 0x2 PUSH0 DUP3 DUP3 SLOAD PUSH2 0xF72 SWAP2 SWAP1 PUSH2 0x1CC2 JUMP JUMPDEST SWAP3 POP POP DUP2 SWAP1 SSTORE POP PUSH2 0x104C JUMP JUMPDEST PUSH0 DUP1 PUSH0 DUP6 PUSH20 0xFFFFFFFFFFFFFFFFFFFFFFFFFFFFFFFFFFFFFFFF AND PUSH20 0xFFFFFFFFFFFFFFFFFFFFFFFFFFFFFFFFFFFFFFFF AND DUP2 MSTORE PUSH1 0x20 ADD SWAP1 DUP2 MSTORE PUSH1 0x20 ADD PUSH0 KECCAK256 SLOAD SWAP1 POP DUP2 DUP2 LT ISZERO PUSH2 0x1007 JUMPI DUP4 DUP2 DUP4 PUSH1 0x40 MLOAD PUSH32 0xE450D38C00000000000000000000000000000000000000000000000000000000 DUP2 MSTORE PUSH1 0x4 ADD PUSH2 0xFFE SWAP4 SWAP3 SWAP2 SWAP1 PUSH2 0x1C60 JUMP JUMPDEST PUSH1 0x40 MLOAD DUP1 SWAP2 SUB SWAP1 REVERT JUMPDEST DUP2 DUP2 SUB PUSH0 DUP1 DUP7 PUSH20 0xFFFFFFFFFFFFFFFFFFFFFFFFFFFFFFFFFFFFFFFF AND PUSH20 0xFFFFFFFFFFFFFFFFFFFFFFFFFFFFFFFFFFFFFFFF AND DUP2 MSTORE PUSH1 0x20 ADD SWAP1 DUP2 MSTORE PUSH1 0x20 ADD PUSH0 KECCAK256 DUP2 SWAP1 SSTORE POP POP JUMPDEST PUSH0 PUSH20 0xFFFFFFFFFFFFFFFFFFFFFFFFFFFFFFFFFFFFFFFF AND DUP3 PUSH20 0xFFFFFFFFFFFFFFFFFFFFFFFFFFFFFFFFFFFFFFFF AND SUB PUSH2 0x1093 JUMPI DUP1 PUSH1 0x2 PUSH0 DUP3 DUP3 SLOAD SUB SWAP3 POP POP DUP2 SWAP1 SSTORE POP PUSH2 0x10DD JUMP JUMPDEST DUP1 PUSH0 DUP1 DUP5 PUSH20 0xFFFFFFFFFFFFFFFFFFFFFFFFFFFFFFFFFFFFFFFF AND PUSH20 0xFFFFFFFFFFFFFFFFFFFFFFFFFFFFFFFFFFFFFFFF AND DUP2 MSTORE PUSH1 0x20 ADD SWAP1 DUP2 MSTORE PUSH1 0x20 ADD PUSH0 KECCAK256 PUSH0 DUP3 DUP3 SLOAD ADD SWAP3 POP POP DUP2 SWAP1 SSTORE POP JUMPDEST DUP2 PUSH20 0xFFFFFFFFFFFFFFFFFFFFFFFFFFFFFFFFFFFFFFFF AND DUP4 PUSH20 0xFFFFFFFFFFFFFFFFFFFFFFFFFFFFFFFFFFFFFFFF AND PUSH32 0xDDF252AD1BE2C89B69C2B068FC378DAA952BA7F163C4A11628F55A4DF523B3EF DUP4 PUSH1 0x40 MLOAD PUSH2 0x113A SWAP2 SWAP1 PUSH2 0x178D JUMP JUMPDEST PUSH1 0x40 MLOAD DUP1 SWAP2 SUB SWAP1 LOG3 POP POP POP JUMP JUMPDEST PUSH0 PUSH32 0x8B73C3C69BB8FE3D512ECC4CF759CC79239F7B179B0FFACAA9A75D522B39400F PUSH32 0x0 PUSH32 0x0 CHAINID ADDRESS PUSH1 0x40 MLOAD PUSH1 0x20 ADD PUSH2 0x11C1 SWAP6 SWAP5 SWAP4 SWAP3 SWAP2 SWAP1 PUSH2 0x1CF5 JUMP JUMPDEST PUSH1 0x40 MLOAD PUSH1 0x20 DUP2 DUP4 SUB SUB DUP2 MSTORE SWAP1 PUSH1 0x40 MSTORE DUP1 MLOAD SWAP1 PUSH1 0x20 ADD KECCAK256 SWAP1 POP SWAP1 JUMP JUMPDEST PUSH1 0x60 PUSH1 0xFF PUSH0 SHL DUP4 EQ PUSH2 0x11F8 JUMPI PUSH2 0x11F1 DUP4 PUSH2 0x1512 JUMP JUMPDEST SWAP1 POP PUSH2 0x1283 JUMP JUMPDEST DUP2 DUP1 SLOAD PUSH2 0x1204 SWAP1 PUSH2 0x1B7D JUMP JUMPDEST DUP1 PUSH1 0x1F ADD PUSH1 0x20 DUP1 SWAP2 DIV MUL PUSH1 0x20 ADD PUSH1 0x40 MLOAD SWAP1 DUP2 ADD PUSH1 0x40 MSTORE DUP1 SWAP3 SWAP2 SWAP1 DUP2 DUP2 MSTORE PUSH1 0x20 ADD DUP3 DUP1 SLOAD PUSH2 0x1230 SWAP1 PUSH2 0x1B7D JUMP JUMPDEST DUP1 ISZERO PUSH2 0x127B JUMPI DUP1 PUSH1 0x1F LT PUSH2 0x1252 JUMPI PUSH2 0x100 DUP1 DUP4 SLOAD DIV MUL DUP4 MSTORE SWAP2 PUSH1 0x20 ADD SWAP2 PUSH2 0x127B JUMP JUMPDEST DUP3 ADD SWAP2 SWAP1 PUSH0 MSTORE PUSH1 0x20 PUSH0 KECCAK256 SWAP1 JUMPDEST DUP2 SLOAD DUP2 MSTORE SWAP1 PUSH1 0x1 ADD SWAP1 PUSH1 0x20 ADD DUP1 DUP4 GT PUSH2 0x125E JUMPI DUP3 SWAP1 SUB PUSH1 0x1F AND DUP3 ADD SWAP2 JUMPDEST POP POP POP POP POP SWAP1 POP JUMPDEST SWAP3 SWAP2 POP POP JUMP JUMPDEST PUSH0 PUSH1 0x40 MLOAD PUSH32 0x1901000000000000000000000000000000000000000000000000000000000000 DUP2 MSTORE DUP4 PUSH1 0x2 DUP3 ADD MSTORE DUP3 PUSH1 0x22 DUP3 ADD MSTORE PUSH1 0x42 DUP2 KECCAK256 SWAP2 POP POP SWAP3 SWAP2 POP POP JUMP JUMPDEST PUSH0 DUP1 PUSH0 PUSH32 0x7FFFFFFFFFFFFFFFFFFFFFFFFFFFFFFF5D576E7357A4501DDFE92F46681B20A0 DUP5 PUSH0 SHR GT ISZERO PUSH2 0x1305 JUMPI PUSH0 PUSH1 0x3 DUP6 SWAP3 POP SWAP3 POP SWAP3 POP PUSH2 0x13A6 JUMP JUMPDEST PUSH0 PUSH1 0x1 DUP9 DUP9 DUP9 DUP9 PUSH1 0x40 MLOAD PUSH0 DUP2 MSTORE PUSH1 0x20 ADD PUSH1 0x40 MSTORE PUSH1 0x40 MLOAD PUSH2 0x1328 SWAP5 SWAP4 SWAP3 SWAP2 SWAP1 PUSH2 0x1D46 JUMP JUMPDEST PUSH1 0x20 PUSH1 0x40 MLOAD PUSH1 0x20 DUP2 SUB SWAP1 DUP1 DUP5 SUB SWAP1 DUP6 GAS STATICCALL ISZERO DUP1 ISZERO PUSH2 0x1348 JUMPI RETURNDATASIZE PUSH0 DUP1 RETURNDATACOPY RETURNDATASIZE PUSH0 REVERT JUMPDEST POP POP POP PUSH1 0x20 PUSH1 0x40 MLOAD SUB MLOAD SWAP1 POP PUSH0 PUSH20 0xFFFFFFFFFFFFFFFFFFFFFFFFFFFFFFFFFFFFFFFF AND DUP2 PUSH20 0xFFFFFFFFFFFFFFFFFFFFFFFFFFFFFFFFFFFFFFFF AND SUB PUSH2 0x1399 JUMPI PUSH0 PUSH1 0x1 PUSH0 DUP1 SHL SWAP4 POP SWAP4 POP SWAP4 POP POP PUSH2 0x13A6 JUMP JUMPDEST DUP1 PUSH0 DUP1 PUSH0 SHL SWAP4 POP SWAP4 POP SWAP4 POP POP JUMPDEST SWAP5 POP SWAP5 POP SWAP5 SWAP2 POP POP JUMP JUMPDEST PUSH0 PUSH1 0x3 DUP2 GT ISZERO PUSH2 0x13C3 JUMPI PUSH2 0x13C2 PUSH2 0x1D89 JUMP JUMPDEST JUMPDEST DUP3 PUSH1 0x3 DUP2 GT ISZERO PUSH2 0x13D6 JUMPI PUSH2 0x13D5 PUSH2 0x1D89 JUMP JUMPDEST JUMPDEST SUB ISZERO PUSH2 0x150E JUMPI PUSH1 0x1 PUSH1 0x3 DUP2 GT ISZERO PUSH2 0x13F0 JUMPI PUSH2 0x13EF PUSH2 0x1D89 JUMP JUMPDEST JUMPDEST DUP3 PUSH1 0x3 DUP2 GT ISZERO PUSH2 0x1403 JUMPI PUSH2 0x1402 PUSH2 0x1D89 JUMP JUMPDEST JUMPDEST SUB PUSH2 0x143A JUMPI PUSH1 0x40 MLOAD PUSH32 0xF645EEDF00000000000000000000000000000000000000000000000000000000 DUP2 MSTORE PUSH1 0x4 ADD PUSH1 0x40 MLOAD DUP1 SWAP2 SUB SWAP1 REVERT JUMPDEST PUSH1 0x2 PUSH1 0x3 DUP2 GT ISZERO PUSH2 0x144E JUMPI PUSH2 0x144D PUSH2 0x1D89 JUMP JUMPDEST JUMPDEST DUP3 PUSH1 0x3 DUP2 GT ISZERO PUSH2 0x1461 JUMPI PUSH2 0x1460 PUSH2 0x1D89 JUMP JUMPDEST JUMPDEST SUB PUSH2 0x14A5 JUMPI DUP1 PUSH0 SHR PUSH1 0x40 MLOAD PUSH32 0xFCE698F700000000000000000000000000000000000000000000000000000000 DUP2 MSTORE PUSH1 0x4 ADD PUSH2 0x149C SWAP2 SWAP1 PUSH2 0x178D JUMP JUMPDEST PUSH1 0x40 MLOAD DUP1 SWAP2 SUB SWAP1 REVERT JUMPDEST PUSH1 0x3 DUP1 DUP2 GT ISZERO PUSH2 0x14B8 JUMPI PUSH2 0x14B7 PUSH2 0x1D89 JUMP JUMPDEST JUMPDEST DUP3 PUSH1 0x3 DUP2 GT ISZERO PUSH2 0x14CB JUMPI PUSH2 0x14CA PUSH2 0x1D89 JUMP JUMPDEST JUMPDEST SUB PUSH2 0x150D JUMPI DUP1 PUSH1 0x40 MLOAD PUSH32 0xD78BCE0C00000000000000000000000000000000000000000000000000000000 DUP2 MSTORE PUSH1 0x4 ADD PUSH2 0x1504 SWAP2 SWAP1 PUSH2 0x1842 JUMP JUMPDEST PUSH1 0x40 MLOAD DUP1 SWAP2 SUB SWAP1 REVERT JUMPDEST JUMPDEST POP POP JUMP JUMPDEST PUSH1 0x60 PUSH0 PUSH2 0x151E DUP4 PUSH2 0x1584 JUMP JUMPDEST SWAP1 POP PUSH0 PUSH1 0x20 PUSH8 0xFFFFFFFFFFFFFFFF DUP2 GT ISZERO PUSH2 0x153C JUMPI PUSH2 0x153B PUSH2 0x1BAD JUMP JUMPDEST JUMPDEST PUSH1 0x40 MLOAD SWAP1 DUP1 DUP3 MSTORE DUP1 PUSH1 0x1F ADD PUSH1 0x1F NOT AND PUSH1 0x20 ADD DUP3 ADD PUSH1 0x40 MSTORE DUP1 ISZERO PUSH2 0x156E JUMPI DUP2 PUSH1 0x20 ADD PUSH1 0x1 DUP3 MUL DUP1 CALLDATASIZE DUP4 CALLDATACOPY DUP1 DUP3 ADD SWAP2 POP POP SWAP1 POP JUMPDEST POP SWAP1 POP DUP2 DUP2 MSTORE DUP4 PUSH1 0x20 DUP3 ADD MSTORE DUP1 SWAP3 POP POP POP SWAP2 SWAP1 POP JUMP JUMPDEST PUSH0 DUP1 PUSH1 0xFF DUP4 PUSH0 SHR AND SWAP1 POP PUSH1 0x1F DUP2 GT ISZERO PUSH2 0x15C9 JUMPI PUSH1 0x40 MLOAD PUSH32 0xB3512B0C00000000000000000000000000000000000000000000000000000000 DUP2 MSTORE PUSH1 0x4 ADD PUSH1 0x40 MLOAD DUP1 SWAP2 SUB SWAP1 REVERT JUMPDEST DUP1 SWAP2 POP POP SWAP2 SWAP1 POP JUMP JUMPDEST PUSH0 DUP2 MLOAD SWAP1 POP SWAP2 SWAP1 POP JUMP JUMPDEST PUSH0 DUP3 DUP3 MSTORE PUSH1 0x20 DUP3 ADD SWAP1 POP SWAP3 SWAP2 POP POP JUMP JUMPDEST PUSH0 JUMPDEST DUP4 DUP2 LT ISZERO PUSH2 0x1609 JUMPI DUP1 DUP3 ADD MLOAD DUP2 DUP5 ADD MSTORE PUSH1 0x20 DUP2 ADD SWAP1 POP PUSH2 0x15EE JUMP JUMPDEST PUSH0 DUP5 DUP5 ADD MSTORE POP POP POP POP JUMP JUMPDEST PUSH0 PUSH1 0x1F NOT PUSH1 0x1F DUP4 ADD AND SWAP1 POP SWAP2 SWAP1 POP JUMP JUMPDEST PUSH0 PUSH2 0x162E DUP3 PUSH2 0x15D2 JUMP JUMPDEST PUSH2 0x1638 DUP2 DUP6 PUSH2 0x15DC JUMP JUMPDEST SWAP4 POP PUSH2 0x1648 DUP2 DUP6 PUSH1 0x20 DUP7 ADD PUSH2 0x15EC JUMP JUMPDEST PUSH2 0x1651 DUP2 PUSH2 0x1614 JUMP JUMPDEST DUP5 ADD SWAP2 POP POP SWAP3 SWAP2 POP POP JUMP JUMPDEST PUSH0 PUSH1 0x20 DUP3 ADD SWAP1 POP DUP2 DUP2 SUB PUSH0 DUP4 ADD MSTORE PUSH2 0x1674 DUP2 DUP5 PUSH2 0x1624 JUMP JUMPDEST SWAP1 POP SWAP3 SWAP2 POP POP JUMP JUMPDEST PUSH0 DUP1 REVERT JUMPDEST PUSH0 PUSH20 0xFFFFFFFFFFFFFFFFFFFFFFFFFFFFFFFFFFFFFFFF DUP3 AND SWAP1 POP SWAP2 SWAP1 POP JUMP JUMPDEST PUSH0 PUSH2 0x16A9 DUP3 PUSH2 0x1680 JUMP JUMPDEST SWAP1 POP SWAP2 SWAP1 POP JUMP JUMPDEST PUSH2 0x16B9 DUP2 PUSH2 0x169F JUMP JUMPDEST DUP2 EQ PUSH2 0x16C3 JUMPI PUSH0 DUP1 REVERT JUMPDEST POP JUMP JUMPDEST PUSH0 DUP2 CALLDATALOAD SWAP1 POP PUSH2 0x16D4 DUP2 PUSH2 0x16B0 JUMP JUMPDEST SWAP3 SWAP2 POP POP JUMP JUMPDEST PUSH0 DUP2 SWAP1 POP SWAP2 SWAP1 POP JUMP JUMPDEST PUSH2 0x16EC DUP2 PUSH2 0x16DA JUMP JUMPDEST DUP2 EQ PUSH2 0x16F6 JUMPI PUSH0 DUP1 REVERT JUMPDEST POP JUMP JUMPDEST PUSH0 DUP2 CALLDATALOAD SWAP1 POP PUSH2 0x1707 DUP2 PUSH2 0x16E3 JUMP JUMPDEST SWAP3 SWAP2 POP POP JUMP JUMPDEST PUSH0 DUP1 PUSH1 0x40 DUP4 DUP6 SUB SLT ISZERO PUSH2 0x1723 JUMPI PUSH2 0x1722 PUSH2 0x167C JUMP JUMPDEST JUMPDEST PUSH0 PUSH2 0x1730 DUP6 DUP3 DUP7 ADD PUSH2 0x16C6 JUMP JUMPDEST SWAP3 POP POP PUSH1 0x20 PUSH2 0x1741 DUP6 DUP3 DUP7 ADD PUSH2 0x16F9 JUMP JUMPDEST SWAP2 POP POP SWAP3 POP SWAP3 SWAP1 POP JUMP JUMPDEST PUSH0 DUP2 ISZERO ISZERO SWAP1 POP SWAP2 SWAP1 POP JUMP JUMPDEST PUSH2 0x175F DUP2 PUSH2 0x174B JUMP JUMPDEST DUP3 MSTORE POP POP JUMP JUMPDEST PUSH0 PUSH1 0x20 DUP3 ADD SWAP1 POP PUSH2 0x1778 PUSH0 DUP4 ADD DUP5 PUSH2 0x1756 JUMP JUMPDEST SWAP3 SWAP2 POP POP JUMP JUMPDEST PUSH2 0x1787 DUP2 PUSH2 0x16DA JUMP JUMPDEST DUP3 MSTORE POP POP JUMP JUMPDEST PUSH0 PUSH1 0x20 DUP3 ADD SWAP1 POP PUSH2 0x17A0 PUSH0 DUP4 ADD DUP5 PUSH2 0x177E JUMP JUMPDEST SWAP3 SWAP2 POP POP JUMP JUMPDEST PUSH0 DUP1 PUSH0 PUSH1 0x60 DUP5 DUP7 SUB SLT ISZERO PUSH2 0x17BD JUMPI PUSH2 0x17BC PUSH2 0x167C JUMP JUMPDEST JUMPDEST PUSH0 PUSH2 0x17CA DUP7 DUP3 DUP8 ADD PUSH2 0x16C6 JUMP JUMPDEST SWAP4 POP POP PUSH1 0x20 PUSH2 0x17DB DUP7 DUP3 DUP8 ADD PUSH2 0x16C6 JUMP JUMPDEST SWAP3 POP POP PUSH1 0x40 PUSH2 0x17EC DUP7 DUP3 DUP8 ADD PUSH2 0x16F9 JUMP JUMPDEST SWAP2 POP POP SWAP3 POP SWAP3 POP SWAP3 JUMP JUMPDEST PUSH0 PUSH1 0xFF DUP3 AND SWAP1 POP SWAP2 SWAP1 POP JUMP JUMPDEST PUSH2 0x180B DUP2 PUSH2 0x17F6 JUMP JUMPDEST DUP3 MSTORE POP POP JUMP JUMPDEST PUSH0 PUSH1 0x20 DUP3 ADD SWAP1 POP PUSH2 0x1824 PUSH0 DUP4 ADD DUP5 PUSH2 0x1802 JUMP JUMPDEST SWAP3 SWAP2 POP POP JUMP JUMPDEST PUSH0 DUP2 SWAP1 POP SWAP2 SWAP1 POP JUMP JUMPDEST PUSH2 0x183C DUP2 PUSH2 0x182A JUMP JUMPDEST DUP3 MSTORE POP POP JUMP JUMPDEST PUSH0 PUSH1 0x20 DUP3 ADD SWAP1 POP PUSH2 0x1855 PUSH0 DUP4 ADD DUP5 PUSH2 0x1833 JUMP JUMPDEST SWAP3 SWAP2 POP POP JUMP JUMPDEST PUSH0 PUSH1 0x20 DUP3 DUP5 SUB SLT ISZERO PUSH2 0x1870 JUMPI PUSH2 0x186F PUSH2 0x167C JUMP JUMPDEST JUMPDEST PUSH0 PUSH2 0x187D DUP5 DUP3 DUP6 ADD PUSH2 0x16C6 JUMP JUMPDEST SWAP2 POP POP SWAP3 SWAP2 POP POP JUMP JUMPDEST PUSH0 PUSH32 0xFF00000000000000000000000000000000000000000000000000000000000000 DUP3 AND SWAP1 POP SWAP2 SWAP1 POP JUMP JUMPDEST PUSH2 0x18BA DUP2 PUSH2 0x1886 JUMP JUMPDEST DUP3 MSTORE POP POP JUMP JUMPDEST PUSH2 0x18C9 DUP2 PUSH2 0x169F JUMP JUMPDEST DUP3 MSTORE POP POP JUMP JUMPDEST PUSH0 DUP2 MLOAD SWAP1 POP SWAP2 SWAP1 POP JUMP JUMPDEST PUSH0 DUP3 DUP3 MSTORE PUSH1 0x20 DUP3 ADD SWAP1 POP SWAP3 SWAP2 POP POP JUMP JUMPDEST PUSH0 DUP2 SWAP1 POP PUSH1 0x20 DUP3 ADD SWAP1 POP SWAP2 SWAP1 POP JUMP JUMPDEST PUSH2 0x1901 DUP2 PUSH2 0x16DA JUMP JUMPDEST DUP3 MSTORE POP POP JUMP JUMPDEST PUSH0 PUSH2 0x1912 DUP4 DUP4 PUSH2 0x18F8 JUMP JUMPDEST PUSH1 0x20 DUP4 ADD SWAP1 POP SWAP3 SWAP2 POP POP JUMP JUMPDEST PUSH0 PUSH1 0x20 DUP3 ADD SWAP1 POP SWAP2 SWAP1 POP JUMP JUMPDEST PUSH0 PUSH2 0x1934 DUP3 PUSH2 0x18CF JUMP JUMPDEST PUSH2 0x193E DUP2 DUP6 PUSH2 0x18D9 JUMP JUMPDEST SWAP4 POP PUSH2 0x1949 DUP4 PUSH2 0x18E9 JUMP JUMPDEST DUP1 PUSH0 JUMPDEST DUP4 DUP2 LT ISZERO PUSH2 0x1979 JUMPI DUP2 MLOAD PUSH2 0x1960 DUP9 DUP3 PUSH2 0x1907 JUMP JUMPDEST SWAP8 POP PUSH2 0x196B DUP4 PUSH2 0x191E JUMP JUMPDEST SWAP3 POP POP PUSH1 0x1 DUP2 ADD SWAP1 POP PUSH2 0x194C JUMP JUMPDEST POP DUP6 SWAP4 POP POP POP POP SWAP3 SWAP2 POP POP JUMP JUMPDEST PUSH0 PUSH1 0xE0 DUP3 ADD SWAP1 POP PUSH2 0x1999 PUSH0 DUP4 ADD DUP11 PUSH2 0x18B1 JUMP JUMPDEST DUP2 DUP2 SUB PUSH1 0x20 DUP4 ADD MSTORE PUSH2 0x19AB DUP2 DUP10 PUSH2 0x1624 JUMP JUMPDEST SWAP1 POP DUP2 DUP2 SUB PUSH1 0x40 DUP4 ADD MSTORE PUSH2 0x19BF DUP2 DUP9 PUSH2 0x1624 JUMP JUMPDEST SWAP1 POP PUSH2 0x19CE PUSH1 0x60 DUP4 ADD DUP8 PUSH2 0x177E JUMP JUMPDEST PUSH2 0x19DB PUSH1 0x80 DUP4 ADD DUP7 PUSH2 0x18C0 JUMP JUMPDEST PUSH2 0x19E8 PUSH1 0xA0 DUP4 ADD DUP6 PUSH2 0x1833 JUMP JUMPDEST DUP2 DUP2 SUB PUSH1 0xC0 DUP4 ADD MSTORE PUSH2 0x19FA DUP2 DUP5 PUSH2 0x192A JUMP JUMPDEST SWAP1 POP SWAP9 SWAP8 POP POP POP POP POP POP POP POP JUMP JUMPDEST PUSH0 PUSH1 0x20 DUP3 ADD SWAP1 POP PUSH2 0x1A1B PUSH0 DUP4 ADD DUP5 PUSH2 0x18C0 JUMP JUMPDEST SWAP3 SWAP2 POP POP JUMP JUMPDEST PUSH2 0x1A2A DUP2 PUSH2 0x17F6 JUMP JUMPDEST DUP2 EQ PUSH2 0x1A34 JUMPI PUSH0 DUP1 REVERT JUMPDEST POP JUMP JUMPDEST PUSH0 DUP2 CALLDATALOAD SWAP1 POP PUSH2 0x1A45 DUP2 PUSH2 0x1A21 JUMP JUMPDEST SWAP3 SWAP2 POP POP JUMP JUMPDEST PUSH2 0x1A54 DUP2 PUSH2 0x182A JUMP JUMPDEST DUP2 EQ PUSH2 0x1A5E JUMPI PUSH0 DUP1 REVERT JUMPDEST POP JUMP JUMPDEST PUSH0 DUP2 CALLDATALOAD SWAP1 POP PUSH2 0x1A6F DUP2 PUSH2 0x1A4B JUMP JUMPDEST SWAP3 SWAP2 POP POP JUMP JUMPDEST PUSH0 DUP1 PUSH0 DUP1 PUSH0 DUP1 PUSH0 PUSH1 0xE0 DUP9 DUP11 SUB SLT ISZERO PUSH2 0x1A90 JUMPI PUSH2 0x1A8F PUSH2 0x167C JUMP JUMPDEST JUMPDEST PUSH0 PUSH2 0x1A9D DUP11 DUP3 DUP12 ADD PUSH2 0x16C6 JUMP JUMPDEST SWAP8 POP POP PUSH1 0x20 PUSH2 0x1AAE DUP11 DUP3 DUP12 ADD PUSH2 0x16C6 JUMP JUMPDEST SWAP7 POP POP PUSH1 0x40 PUSH2 0x1ABF DUP11 DUP3 DUP12 ADD PUSH2 0x16F9 JUMP JUMPDEST SWAP6 POP POP PUSH1 0x60 PUSH2 0x1AD0 DUP11 DUP3 DUP12 ADD PUSH2 0x16F9 JUMP JUMPDEST SWAP5 POP POP PUSH1 0x80 PUSH2 0x1AE1 DUP11 DUP3 DUP12 ADD PUSH2 0x1A37 JUMP JUMPDEST SWAP4 POP POP PUSH1 0xA0 PUSH2 0x1AF2 DUP11 DUP3 DUP12 ADD PUSH2 0x1A61 JUMP JUMPDEST SWAP3 POP POP PUSH1 0xC0 PUSH2 0x1B03 DUP11 DUP3 DUP12 ADD PUSH2 0x1A61 JUMP JUMPDEST SWAP2 POP POP SWAP3 SWAP6 SWAP9 SWAP2 SWAP5 SWAP8 POP SWAP3 SWAP6 POP JUMP JUMPDEST PUSH0 DUP1 PUSH1 0x40 DUP4 DUP6 SUB SLT ISZERO PUSH2 0x1B28 JUMPI PUSH2 0x1B27 PUSH2 0x167C JUMP JUMPDEST JUMPDEST PUSH0 PUSH2 0x1B35 DUP6 DUP3 DUP7 ADD PUSH2 0x16C6 JUMP JUMPDEST SWAP3 POP POP PUSH1 0x20 PUSH2 0x1B46 DUP6 DUP3 DUP7 ADD PUSH2 0x16C6 JUMP JUMPDEST SWAP2 POP POP SWAP3 POP SWAP3 SWAP1 POP JUMP JUMPDEST PUSH32 0x4E487B7100000000000000000000000000000000000000000000000000000000 PUSH0 MSTORE PUSH1 0x22 PUSH1 0x4 MSTORE PUSH1 0x24 PUSH0 REVERT JUMPDEST PUSH0 PUSH1 0x2 DUP3 DIV SWAP1 POP PUSH1 0x1 DUP3 AND DUP1 PUSH2 0x1B94 JUMPI PUSH1 0x7F DUP3 AND SWAP2 POP JUMPDEST PUSH1 0x20 DUP3 LT DUP2 SUB PUSH2 0x1BA7 JUMPI PUSH2 0x1BA6 PUSH2 0x1B50 JUMP JUMPDEST JUMPDEST POP SWAP2 SWAP1 POP JUMP JUMPDEST PUSH32 0x4E487B7100000000000000000000000000000000000000000000000000000000 PUSH0 MSTORE PUSH1 0x41 PUSH1 0x4 MSTORE PUSH1 0x24 PUSH0 REVERT JUMPDEST PUSH0 PUSH1 0xC0 DUP3 ADD SWAP1 POP PUSH2 0x1BED PUSH0 DUP4 ADD DUP10 PUSH2 0x1833 JUMP JUMPDEST PUSH2 0x1BFA PUSH1 0x20 DUP4 ADD DUP9 PUSH2 0x18C0 JUMP JUMPDEST PUSH2 0x1C07 PUSH1 0x40 DUP4 ADD DUP8 PUSH2 0x18C0 JUMP JUMPDEST PUSH2 0x1C14 PUSH1 0x60 DUP4 ADD DUP7 PUSH2 0x177E JUMP JUMPDEST PUSH2 0x1C21 PUSH1 0x80 DUP4 ADD DUP6 PUSH2 0x177E JUMP JUMPDEST PUSH2 0x1C2E PUSH1 0xA0 DUP4 ADD DUP5 PUSH2 0x177E JUMP JUMPDEST SWAP8 SWAP7 POP POP POP POP POP POP POP JUMP JUMPDEST PUSH0 PUSH1 0x40 DUP3 ADD SWAP1 POP PUSH2 0x1C4C PUSH0 DUP4 ADD DUP6 PUSH2 0x18C0 JUMP JUMPDEST PUSH2 0x1C59 PUSH1 0x20 DUP4 ADD DUP5 PUSH2 0x18C0 JUMP JUMPDEST SWAP4 SWAP3 POP POP POP JUMP JUMPDEST PUSH0 PUSH1 0x60 DUP3 ADD SWAP1 POP PUSH2 0x1C73 PUSH0 DUP4 ADD DUP7 PUSH2 0x18C0 JUMP JUMPDEST PUSH2 0x1C80 PUSH1 0x20 DUP4 ADD DUP6 PUSH2 0x177E JUMP JUMPDEST PUSH2 0x1C8D PUSH1 0x40 DUP4 ADD DUP5 PUSH2 0x177E JUMP JUMPDEST SWAP5 SWAP4 POP POP POP POP JUMP JUMPDEST PUSH32 0x4E487B7100000000000000000000000000000000000000000000000000000000 PUSH0 MSTORE PUSH1 0x11 PUSH1 0x4 MSTORE PUSH1 0x24 PUSH0 REVERT JUMPDEST PUSH0 PUSH2 0x1CCC DUP3 PUSH2 0x16DA JUMP JUMPDEST SWAP2 POP PUSH2 0x1CD7 DUP4 PUSH2 0x16DA JUMP JUMPDEST SWAP3 POP DUP3 DUP3 ADD SWAP1 POP DUP1 DUP3 GT ISZERO PUSH2 0x1CEF JUMPI PUSH2 0x1CEE PUSH2 0x1C95 JUMP JUMPDEST JUMPDEST SWAP3 SWAP2 POP POP JUMP JUMPDEST PUSH0 PUSH1 0xA0 DUP3 ADD SWAP1 POP PUSH2 0x1D08 PUSH0 DUP4 ADD DUP9 PUSH2 0x1833 JUMP JUMPDEST PUSH2 0x1D15 PUSH1 0x20 DUP4 ADD DUP8 PUSH2 0x1833 JUMP JUMPDEST PUSH2 0x1D22 PUSH1 0x40 DUP4 ADD DUP7 PUSH2 0x1833 JUMP JUMPDEST PUSH2 0x1D2F PUSH1 0x60 DUP4 ADD DUP6 PUSH2 0x177E JUMP JUMPDEST PUSH2 0x1D3C PUSH1 0x80 DUP4 ADD DUP5 PUSH2 0x18C0 JUMP JUMPDEST SWAP7 SWAP6 POP POP POP POP POP POP JUMP JUMPDEST PUSH0 PUSH1 0x80 DUP3 ADD SWAP1 POP PUSH2 0x1D59 PUSH0 DUP4 ADD DUP8 PUSH2 0x1833 JUMP JUMPDEST PUSH2 0x1D66 PUSH1 0x20 DUP4 ADD DUP7 PUSH2 0x1802 JUMP JUMPDEST PUSH2 0x1D73 PUSH1 0x40 DUP4 ADD DUP6 PUSH2 0x1833 JUMP JUMPDEST PUSH2 0x1D80 PUSH1 0x60 DUP4 ADD DUP5 PUSH2 0x1833 JUMP JUMPDEST SWAP6 SWAP5 POP POP POP POP POP JUMP JUMPDEST PUSH32 0x4E487B7100000000000000000000000000000000000000000000000000000000 PUSH0 MSTORE PUSH1 0x21 PUSH1 0x4 MSTORE PUSH1 0x24 PUSH0 REVERT INVALID LOG2 PUSH5 0x6970667358 0x22 SLT KECCAK256 LOG2 DUP4 CALL INVALID SLOAD CALLER CALLDATACOPY JUMPI 0xAC 0xC5 PUSH23 0xD59A1DD509542392AC5D9099E8C596FE11C39397FB6473 PUSH16 0x6C634300081600330000000000000000 "
				},
				"gasEstimates": {
					"creation": {
						"codeDepositCost": "1532000",
						"executionCost": "infinite",
						"totalCost": "infinite"
					},
					"external": {
						"DOMAIN_SEPARATOR()": "infinite",
						"allowance(address,address)": "infinite",
						"approve(address,uint256)": "infinite",
						"balanceOf(address)": "2896",
						"decimals()": "361",
						"eip712Domain()": "infinite",
						"name()": "infinite",
						"nonces(address)": "2894",
						"owner()": "2582",
						"permit(address,address,uint256,uint256,uint8,bytes32,bytes32)": "infinite",
						"renounceOwnership()": "infinite",
						"symbol()": "infinite",
						"totalSupply()": "2500",
						"transfer(address,uint256)": "infinite",
						"transferFrom(address,address,uint256)": "infinite",
						"transferOwnership(address)": "infinite"
					}
				},
				"methodIdentifiers": {
					"DOMAIN_SEPARATOR()": "3644e515",
					"allowance(address,address)": "dd62ed3e",
					"approve(address,uint256)": "095ea7b3",
					"balanceOf(address)": "70a08231",
					"decimals()": "313ce567",
					"eip712Domain()": "84b0196e",
					"name()": "06fdde03",
					"nonces(address)": "7ecebe00",
					"owner()": "8da5cb5b",
					"permit(address,address,uint256,uint256,uint8,bytes32,bytes32)": "d505accf",
					"renounceOwnership()": "715018a6",
					"symbol()": "95d89b41",
					"totalSupply()": "18160ddd",
					"transfer(address,uint256)": "a9059cbb",
					"transferFrom(address,address,uint256)": "23b872dd",
					"transferOwnership(address)": "f2fde38b"
				}
			},
			"storageLayout": {
				"storage": [
					{
						"astId": 2917,
						"contract": "contract-4b98807483_flattened.sol:Pigment",
						"label": "_balances",
						"offset": 0,
						"slot": "0",
						"type": "t_mapping(t_address,t_uint256)"
					},
					{
						"astId": 2923,
						"contract": "contract-4b98807483_flattened.sol:Pigment",
						"label": "_allowances",
						"offset": 0,
						"slot": "1",
						"type": "t_mapping(t_address,t_mapping(t_address,t_uint256))"
					},
					{
						"astId": 2925,
						"contract": "contract-4b98807483_flattened.sol:Pigment",
						"label": "_totalSupply",
						"offset": 0,
						"slot": "2",
						"type": "t_uint256"
					},
					{
						"astId": 2927,
						"contract": "contract-4b98807483_flattened.sol:Pigment",
						"label": "_name",
						"offset": 0,
						"slot": "3",
						"type": "t_string_storage"
					},
					{
						"astId": 2929,
						"contract": "contract-4b98807483_flattened.sol:Pigment",
						"label": "_symbol",
						"offset": 0,
						"slot": "4",
						"type": "t_string_storage"
					},
					{
						"astId": 1921,
						"contract": "contract-4b98807483_flattened.sol:Pigment",
						"label": "_nameFallback",
						"offset": 0,
						"slot": "5",
						"type": "t_string_storage"
					},
					{
						"astId": 1923,
						"contract": "contract-4b98807483_flattened.sol:Pigment",
						"label": "_versionFallback",
						"offset": 0,
						"slot": "6",
						"type": "t_string_storage"
					},
					{
						"astId": 13,
						"contract": "contract-4b98807483_flattened.sol:Pigment",
						"label": "_nonces",
						"offset": 0,
						"slot": "7",
						"type": "t_mapping(t_address,t_uint256)"
					},
					{
						"astId": 2664,
						"contract": "contract-4b98807483_flattened.sol:Pigment",
						"label": "_owner",
						"offset": 0,
						"slot": "8",
						"type": "t_address"
					}
				],
				"types": {
					"t_address": {
						"encoding": "inplace",
						"label": "address",
						"numberOfBytes": "20"
					},
					"t_mapping(t_address,t_mapping(t_address,t_uint256))": {
						"encoding": "mapping",
						"key": "t_address",
						"label": "mapping(address => mapping(address => uint256))",
						"numberOfBytes": "32",
						"value": "t_mapping(t_address,t_uint256)"
					},
					"t_mapping(t_address,t_uint256)": {
						"encoding": "mapping",
						"key": "t_address",
						"label": "mapping(address => uint256)",
						"numberOfBytes": "32",
						"value": "t_uint256"
					},
					"t_string_storage": {
						"encoding": "bytes",
						"label": "string",
						"numberOfBytes": "32"
					},
					"t_uint256": {
						"encoding": "inplace",
						"label": "uint256",
						"numberOfBytes": "32"
					}
				}
			},
			"userdoc": {
				"kind": "user",
				"methods": {},
				"version": 1
			}
		}
	}
}